:10000000804500203942000061A80100254200001F
:1000100025420000254200002542000000000000AB
:10002000000000000000000000000000714200001D
:10003000254200000000000041440000254200006D
:10004000AD440000BD320100AD440000AD440000ED
:10005000AD440000AD440000AD440000AD440000DC
:10006000AD440000AD440000AD440000AD440000CC
:10007000AD440000AD440000AD440000AD440000BC
:10008000AD440000AD440000AD440000AD440000AC
:10009000AD440000AD440000AD440000AD4400009C
:1000A000AD440000AD440000AD440000AD4400008C
:1000B000AD440000AD440000AD440000AD4400007C
:1000C000AD440000AD440000AD440000AD4400006C
:1000D000AD440000AD440000AD440000AD4400005C
:1000E000AD440000AD440000AD440000AD4400004C
:1000F000AD440000AD440000AD440000AD4400003C
:1001000081F0004102E000BF83F0004330B54FEAC8
:1001100041044FEA430594EA050F08BF90EA020F35
:100120001FBF54EA000C55EA020C7FEA645C7FEAC8
:10013000655C00F0E2804FEA5454D4EB5555B8BFEB
:100140006D420CDD2C4480EA020281EA030382EA5C
:10015000000083EA010180EA020281EA0303362DEE
:1001600088BF30BD11F0004F4FEA01314FF4801CC1
:100170004CEA113102D0404261EB410113F0004FD3
:100180004FEA03334CEA133302D0524263EB43038A
:1001900094EA050F00F0A780A4F10104D5F1200E28
:1001A0000DDB02FA0EFC22FA05F2801841F1000183
:1001B00003FA0EF2801843FA05F359410EE0A5F157
:1001C00020050EF1200E012A03FA0EFC28BF4CF088
:1001D000020C43FA05F3C01851EBE37101F000453E
:1001E00007D54FF0000EDCF1000C7EEB00006EEB4B
:1001F0000101B1F5801F1BD3B1F5001F0CD34908D5
:100200005FEA30004FEA3C0C04F101044FEA44522B
:1002100012F5800F80F09A80BCF1004F08BF5FEAB2
:10022000500C50F1000041EB045141EA050130BD92
:100230005FEA4C0C404141EB0101013C28BFB1F5A4
:10024000801FE9D291F0000F04BF01460020B1FAEF
:1002500081F308BF2033A3F10B03B3F120020CDAC2
:100260000C3208DD02F1140CC2F10C0201FA0CF0A0
:1002700021FA02F10CE002F11402D8BFC2F1200C05
:1002800001FA02F120FA0CFCDCBF41EA0C019040BB
:10029000E41AA2BF01EB0451294330BD6FEA040404
:1002A0001F3C1CDA0C340EDC04F11404C4F12002EF
:1002B00020FA04F001FA02F340EA030021FA04F301
:1002C00045EA030130BDC4F10C04C4F1200220FA58
:1002D00002F001FA04F340EA0300294630BD21FA96
:1002E00004F0294630BD94F0000F83F4801306BF5C
:1002F00081F480110134013D4EE77FEA645C18BF50
:100300007FEA655C29D094EA050F08BF90EA020FE6
:1003100005D054EA000C04BF1946104630BD91EADE
:10032000030F1EBF0021002030BD5FEA545C05D1E1
:100330004000494128BF41F0004130BD14F5800420
:100340003CBF01F5801130BD01F0004545F0FE4194
:1003500041F470014FF0000030BD7FEA645C1ABFC9
:10036000194610467FEA655C1CBF0B46024650EA00
:10037000013406BF52EA033591EA030F41F400212C
:1003800030BD00BF90F0000F04BF0021704730B5B2
:100390004FF4806404F132044FF000054FF0000187
:1003A00050E700BF90F0000F04BF0021704730B548
:1003B0004FF4806404F1320410F0004548BF40421D
:1003C0004FF000013EE700BF42004FEAE2014FEA72
:1003D00031014FEA02701FBF12F07F4393F07F4F4D
:1003E00081F06051704732F07F4208BF704793F050
:1003F0007F4F04BF41F40021704730B54FF4607463
:1004000001F0004521F000411CE700BF50EA010265
:1004100008BF704730B54FF000050AE050EA01020E
:1004200008BF704730B511F0004502D5404261EB7E
:1004300041014FF4806404F132045FEA915C3FF4BF
:10044000D8AE4FF003025FEADC0C18BF03325FEA5C
:10045000DC0C18BF033202EBDC02C2F1200300FA0D
:1004600003FC20FA02F001FA03FE40EA0E0021FA32
:1004700002F11444BDE600BF80F0004002E000BF7E
:1004800081F0004142001FBF5FEA410392EA030F7F
:100490007FEA226C7FEA236C6AD04FEA1262D2EBC9
:1004A0001363C1BFD218414048404140B8BF5B42CE
:1004B000192B88BF704710F0004F40F4000020F067
:1004C0007F4018BF404211F0004F41F4000121F07D
:1004D0007F4118BF494292EA030F3FD0A2F10102C7
:1004E00041FA03FC10EB0C00C3F1200301FA03F105
:1004F00000F0004302D5494260EB4000B0F5000F28
:1005000013D3B0F1807F06D340084FEA310102F1E6
:100510000102FE2A51D2B1F1004F40EBC25008BF98
:1005200020F0010040EA03007047490040EB000062
:10053000013A28BFB0F5000FEDD2B0FA80FCACF163
:10054000080CB2EB0C0200FA0CF0AABF00EBC25090
:1005500052421843BCBFD0401843704792F0000F7E
:1005600081F4000106BF80F400000132013BB5E7D1
:100570004FEA41037FEA226C18BF7FEA236C21D047
:1005800092EA030F04D092F0000F08BF08467047AC
:1005900090EA010F1CBF0020704712F07F4F04D17A
:1005A000400028BF40F00040704712F100723CBF8D
:1005B00000F50000704700F0004343F0FE4040F4B7
:1005C000000070477FEA226216BF08467FEA236375
:1005D0000146420206BF5FEA412390EA010F40F460
:1005E000800070474FF0000304E000BF10F00043AC
:1005F00048BF40425FEA000C08BF704743F0964393
:1006000001464FF000001CE050EA010208BF7047AD
:100610004FF000030AE000BF50EA010208BF704734
:1006200011F0004302D5404261EB41015FEA010C49
:1006300002BF84460146002043F0B64308BFA3F141
:100640008053A3F50003BCFA8CF2083AA3EBC25323
:1006500010DB01FA02FC634400FA02FCC2F1200242
:10066000BCF1004F20FA02F243EB020008BF20F079
:100670000100704702F1200201FA02FCC2F12002DF
:1006800050EA4C0021FA02F243EB020008BF20EAD4
:10069000DC7070474FF0FF0C1CEAD0521EBF1CEA02
:1006A000D15392EA0C0F93EA0C0F6FD01A4480EAF0
:1006B000010C400218BF5FEA41211ED04FF00063D9
:1006C00043EA501043EA5111A0FB01310CF0004005
:1006D000B1F5000F3EBF490041EAD3715B0040EA2B
:1006E000010062F17F02FD2A1DD8B3F1004F40EBFB
:1006F000C25008BF20F00100704790F0000F0CF0CE
:10070000004C08BF49024CEA502040EA51207F3A91
:10071000C2BFD2F1FF0340EAC250704740F400006C
:100720004FF00003013A5DDC12F1190FDCBF00F05D
:1007300000407047C2F10002410021FA02F1C2F10B
:10074000200200FA02FC5FEA310040F1000053EAA7
:100750004C0308BF20EADC70704792F0000F00F0F5
:10076000004C02BF400010F4000F013AF9D040EAFB
:100770000C0093F0000F01F0004C02BF490011F48F
:10078000000F013BF9D041EA0C018FE70CEAD1538D
:1007900092EA0C0F18BF93EA0C0F0AD030F0004C0D
:1007A00018BF31F0004CD8D180EA010000F00040C1
:1007B000704790F0000F17BF90F0004F084691F07F
:1007C000000F91F0004F14D092EA0C0F01D14202B9
:1007D0000FD193EA0C0F03D14B0218BF084608D182
:1007E00080EA010000F0004040F0FE4040F40000CC
:1007F000704740F0FE4040F4400070474FF0FF0C5F
:100800001CEAD0521EBF1CEAD15392EA0C0F93EAA5
:100810000C0F69D0A2EB030280EA010C49024FEAF7
:10082000402037D04FF0805343EA111143EA1013B0
:100830000CF000408B4238BF5B0042F17D024FF468
:10084000000C8B4224BF5B1A40EA0C00B3EB510F43
:1008500024BFA3EB510340EA5C00B3EB910F24BF2C
:10086000A3EB910340EA9C00B3EBD10F24BFA3EBB1
:10087000D10340EADC001B0118BF5FEA1C1CE0D179
:10088000FD2A3FF650AF8B4240EBC25008BF20F02C
:10089000010070470CF0004C4CEA50207F32C2BF80
:1008A000D2F1FF0340EAC250704740F400004FF01D
:1008B0000003013A37E792F0000F00F0004C02BF4E
:1008C000400010F4000F013AF9D040EA0C0093F018
:1008D000000F01F0004C02BF490011F4000F013B72
:1008E000F9D041EA0C0195E70CEAD15392EA0C0FDA
:1008F00008D142027FF47DAF93EA0C0F7FF470AF12
:10090000084676E793EA0C0F04D14B023FF44CAF54
:1009100008466EE730F0004C18BF31F0004CCAD1E9
:1009200030F000427FF45CAF31F000437FF43CAF25
:100930005FE700BF53B94AB9002908BF00281CBFB0
:100940004FF0FF314FF0FF3000F00CB8ADF1080C64
:100950006DE904CE00F022F8DDF804E0DDE90223C1
:1009600004B07047704700BF10F8012B11F8013B2D
:10097000012A28BF9A42F7D0D01A7047034611F8CF
:10098000012B03F8012B002AF9D17047034613F815
:10099000012B002AFBD1181A013870472DE9F047C6
:1009A0008C468E46089E154604461946002B40F09C
:1009B000D080724547D9B2FA82F74FB1C7F1200310
:1009C0000EFA07FC20FA03F3BD4043EA0C0CBC40CE
:1009D0004FEA154EA8B2BCFBFEF8230C0EFB18CC58
:1009E00008FB00F943EA0C43994528D9EB1808F1B4
:1009F000FF3204D2994502D9A8F102022B44A3EB9D
:100A00000903A4B2B3FBFEFC0EFB1C330CFB00F08D
:100A100044EA0344A04214D92C190CF1FF3304D248
:100A2000A04202D9ACF102032C44241A43EA02404A
:100A30001EB1FC40002334607360BDE8F08742467D
:100A4000DDE76346F1E7002A79D0B2FA82F3002BA2
:100A50003FD01946C1F1200302FA01F52EFA03F244
:100A60000EFA01FE20FA03F343EA0E034FEA154E95
:100A700000FA01F4B2FBFEFCAFB20EFB1C201A0C14
:100A80000CFB07F842EA004290455AD9AA180CF12B
:100A9000FF3004D2904502D9ACF102002A44A2EB07
:100AA00008029BB2B2FBFEFC0EFB1C220CFB07F7FC
:100AB00043EA02439F4246D9EB180CF1FF3204D2BD
:100AC0009F4202D9ACF102022B44DB1B42EA0042F6
:100AD00002E0AEEB020301224FEA154EAFB2B3FBC8
:100AE000FEFC200C0EFB1C330CFB07F840EA034312
:100AF00098452AD9EB180CF1FF3004D2984502D959
:100B0000ACF102002B44A3EB0803A4B2B3FBFEFC40
:100B10000EFB1C330CFB07F744EA0344A74216D92B
:100B20002C190CF1FF3304D2A74202D9ACF1020315
:100B30002C44E41B43EA00400F46114678E71F218E
:100B400088E76046ABE76246BFE76046DBE763469F
:100B5000EFE7734506D916B9002108466DE7C6E9E7
:100B6000000EF9E7B3FA83F787B9734501D38242E0
:100B700007D8841A6EEB030301209C461EB900219E
:100B80005BE73846FAE7C6E9004CF8E7C7F1200C06
:100B9000BB4022FA0CF51D4320FA0CF12EFA0CF39F
:100BA0000EFA07FE41EA0E014FEA154900FA07F472
:100BB000B3FBF9F81FFA85FE09FB18300B0C08FB94
:100BC0000EFA43EA00439A4502FA07F240D9EB18BD
:100BD00008F1FF3004D29A4502D9A8F102002B4453
:100BE000A3EB0A0389B2B3FBF9F809FB183308FB3E
:100BF0000EFE41EA03418E452CD9691808F1FF33F6
:100C000004D28E4502D9A8F10203294443EA0040E8
:100C1000A0FB0298A1EB0E014145CE46434602D30C
:100C200006D14C4504D2B9EB020E68EB050301383E
:100C3000002EA4D0B4EB0E0261EB030101FA0CFC10
:100C400022FA07F34CEA0303F940C6E9003196E7BC
:100C50004046C5E74346D9E738B51B4C9DF810E040
:100C600094F84CC01CF0010524D163F3420C400100
:100C700094F83830A4F840104FEACE0E0EF0180E5B
:100C800000F0200040EA0E0023F0380303430F4831
:100C900084F838309121A2FB000384F84CC001FB9A
:100CA000023107A3D3E90023FFF744FEC4E9110092
:100CB000284638BD0C25284638BD00BFAFF300805C
:100CC0008D49FD1A07000000280E0020002AE78445
:100CD00010B504469DF8080022864FEA411CC0006A
:100CE00094F8281000F018000CF0200C4CEA000CCE
:100CF0000B4821F038014CEA010CA3FB00029121C2
:100D000084F828C001FB032103A3D3E90023FFF7E4
:100D100011FE606310BD00BF8D49FD1A0700000081
:100D2000002AE784000000002DE9F043044600F1AA
:100D30003A0190F84C0094F838304D4DC0F3400023
:100D400060F386138DB084F838300BF069FC94F8AA
:100D50003820B4F840304748246102F07902002777
:100D600084F838209121A3FB0002C4E902772770A0
:100D700001FB03213CA3D3E90023FFF7DBFDA26CB9
:100D80003D4B651BA3FB053502F1090398428EBF5D
:100D900019463A4601466264616006460BF0F4FB70
:100DA0006369C5F3871500F10907002B41D00DF1E8
:100DB0002C08CDF820800694B4F840302D489121BD
:100DC000A3FB000201FB03212C4B07932C4B059343
:100DD0006368049302234FF000090B9322A3D3E925
:100DE0000023CDF80C90FFF7A5FD104619464FF4EF
:100DF0007A720023FFF79EFD0235EDB2CDE9016066
:100E00000321CDF800903B462A4648460BF0A0FA55
:100E100041460CF0B9F840B994F84C3043F0010366
:100E200084F84C300DB0BDE8F0830C200DB0BDE867
:100E3000F0830DF12C08CDE90A33616843460AAA14
:100E4000032000F06DFD0028B3D10B990D4806A3D7
:100E5000D3E90023A1FB0001FFF76CFD0A9B20F002
:100E60007F471F44A5E700BF8D49FD1A070000001A
:100E7000280E0020002AE784CDCCCCCC89C6000007
:100E8000B9EA000000CA9A3B2DE9F0418468A28CBF
:100E90004FF6FF739A428AB000F0CA80054620469A
:100EA0000FF0B0FEAB7C012B00F0EA80022B00F0CB
:100EB000C28033B994F8563003F01803182B00F0B1
:100EC000228194F81C81B8F1000F40F0B880A68D03
:100ED000EB89E78D0136B6B2002B00F0B780A4F89D
:100EE00048812B7C03F00303012B00F0C480B4F88D
:100EF0004C31002B00F0CA80B34240F225819B1B8D
:100F00009BB2062BA4F84C314FF000028CBF00239B
:100F10000123E285984694F83A2063F3820284F82C
:100F20003A2031460DF1270220460FF043FC743081
:100F300000F00481B4F846312BB1B34240F2D380C3
:100F40009B1BA4F84631B4F842312BB1B34240F2B6
:100F5000C3809B1BA4F8423194F89930E58D03F0CF
:100F60000101B8F1000F0AD1AF4200F0B1800135A4
:100F7000ADB241B9002D5BD04146404642E001355B
:100F8000ADB200293DD094F8993094F9372023F080
:100F90000103002A84F89930C0F2928094F83B0053
:100FA000C0F3C00100F0070012F0ACFC94F83B2045
:100FB00094F83C1002F003030933C2F34002DB0053
:100FC000D340E28B02F23F12134401F003020932D4
:100FD000C1F34001D200CA40134418446A4A6B4B23
:100FE0000721E0FB0231184665A3D3E90023FFF790
:100FF000A1FC616820F07F40814280F09A80411A14
:1010000060600020A28C246903950023604DCDF818
:1010100010800332CDE9011006940093D2B2012171
:10102000184605950BF0B0F910F0FD0F40F09080D8
:101030000AB0BDE8F0814FF03D0884F81C814146BC
:1010400020460AB0BDE8F0410EF016BA2B7C03F042
:101050000303012B0FD0B4F84831002B3FF447AF06
:10106000B34273D99B1BA4F84831B4F84C31002B20
:101070007FF442AF02E00023A4F84C3100234AE79A
:101080000023A4F84631A4F842311AE7E38C052B7B
:101090008BBF40F2E2424FF4FA725A4303FB022242
:1010A000B4F84A3142F2107101FB0323013BB3FB58
:1010B000F2F39BB2A4F84C31002B7FF41DAFDDE7B7
:1010C00094F83C00012100F0070012F01DFC6DE7D0
:1010D0000029ADD0454656E70023A4F8423120460A
:1010E0000FF0DCFB38E70BF01FFF0146002836D07D
:1010F0000023A4F84631A38CC3801B23037100682E
:101100000BF0E4FE1FE7218DB4F844218B1D9A42B9
:10111000C4BF931F5B1AB4F84011CCBF9BB21346F7
:10112000994220D0A4F84031A4F84231A4F84621D5
:10113000C7E66060081A1CD0002163E79DF82710FD
:1011400020460EF099F973E7082179E73E2177E709
:101150000BF02CFF84423FF46BAF00DE68E7012305
:10116000A4F84631EFE6B4F8461100297FF4A9AEA1
:10117000DAE70DB1014645E7B8F1000FDCD157E7DA
:101180008D49FD1A0700000000CA9A3B8C49FD1AE0
:10119000C1ED0000000000002DE9F04F8FB0B0F865
:1011A00018610D930446B0F8DC3090F83B000B91C9
:1011B0001E44C0F3C001BDF86830BDF86C70BDF8C6
:1011C0006080BDF86490D4F8D4A00C9300F00700C0
:1011D00012F098FBE58CB6B2A6EB070B052D1FFAB3
:1011E0008BFB40F2098115FB0BF5ADB240F2E24BEF
:1011F000B8F1050F40F2F48094F83C2094F83B10CD
:1012000002F003032833C2F34002DB00D34001F0B5
:1012100003022832B3F5A47FC1F340014FEAC202B2
:1012200022FA01F238BF4FF4A473B2F5A47F2CBFA9
:101230009B1803F5A47303F2D51318447A4A7B4B29
:101240000721E0FB023118464FF09613E361962325
:10125000238473A3D3E90023FFF76CFB434620F0FC
:101260007F4040F2E2420BFB05F102FB03FB4A1E0A
:101270005A44B2FBFBF293B20BFB03F3994260605A
:1012800095B280F09F806848591AA1FB000164A3C1
:10129000D3E90023FFF74EFB20F07F408244B4F8EF
:1012A000DC20B4F81831BF1B3D44ADB213442B44CD
:1012B000A4F81831638D1A4494F837301544DB09CB
:1012C00065857CD10D9B5848A3FB000154A3D3E94D
:1012D0000023FFF72FFB20F07F4501350C9BA4F87E
:1012E0004A3159462046A4F82680A4F828900FF0E9
:1012F0008DFA4F4B218D5B44881DB3FBFBF39AB2F3
:101300009042A4F8442104D2C1F57F41FA310A4445
:1013100092B20B9BA4F8402113B10023A4F84C31E6
:101320000221012013F0DAFF0022022106460120EB
:1013300009F0F0FE3F494FF4AC72204609F076FE0A
:10134000C21C3D4B0093D7B2019453463A4601214B
:1013500000200BF095F810F0FD0F5CD1324830A35F
:10136000D3E90023ABFB0001FFF7E4FA1946334B46
:101370000793334B089406940593636804934FF6E0
:10138000FE7380460393104600234FF47A72FFF7F2
:10139000D1FA0095CDE9018053463A46012100205B
:1013A0000AF0D6FF10F0FD0F33D166BB94F81A3166
:1013B00043F0010384F81A310FB0BDE8F08F00DE6E
:1013C00000258BE71848C91AA1FB000114A3D3E933
:1013D0000023FFF7AFFA20F07F40AAEB000A5EE798
:1013E0004FF0961208F10103E261962222849BB22B
:1013F0000A204FF4FA7236E7013515FB0BF5ADB252
:101400004FF4FA7BF4E601220221104609F082FE35
:10141000CCE700DEC9E700DEA0E700BFAFF3008045
:101420008D49FD1A0700000000CA9A3B8C49FD1A3D
:101430007FC3C901780E002081ED000069ED000036
:10144000E92E0100000000002DE9F04F89B0CDE940
:10145000020100209DF84C80BDF850A0BDF854B0AA
:10146000BDF8589004921F460DF0ECFB002800F0E8
:10147000218108F00105044628460BF0C3F8002D31
:1014800049D1636904F110020592002B4AD06669C4
:10149000356896F82B00C0F3C00100F0070012F089
:1014A00031FAF3899E4A00F2CF3003449D48072168
:1014B000E3FB020198A3D3E90023FFF73BFA20F0F6
:1014C0007F40686094F84C1068F3420184F84C1037
:1014D00094F8391067F30001DDE9022384F839102C
:1014E00012990968A16112998988A1830499A4F8C5
:1014F000249004F1100000910021FFF7E9FBA064A3
:1015000012F07EFB002840F0D9802046FFF70CFC4B
:1015100009B0BDE8F08F062109F09CFD0028B0D18C
:101520001220F5E70BF0BAFC0590002800F0E380EC
:101530000DF0BAFC0546002800F0DA80143005F101
:10154000100609F049FF002840F0DB80032105F177
:10155000180012F0F9F8286DA5F828B04FF6FF72C0
:10156000A5F826A0AA84002800F0C78005F144024F
:1015700005F1400109F07AFD95F83B2022F07F0249
:1015800042F0190285F83B2095F8562022F0070218
:1015900085F8562095F83C2001214FF0000B61F3AF
:1015A000020285F83C20C5F850B0A5F854B0A5F863
:1015B0002AB0C5F82EB005F1320011F0C5FD95F83E
:1015C000372060F30502012185F837200DF11F0057
:1015D00012F0BAF89DF81F10534A85F839B0A2FBF3
:1015E0000102D20802EB4202A1EB820195F83720FA
:1015F000A5F818B102F03F0285F8372095F83A2097
:10160000A5F84CB1053122F0070240F2E24085F81E
:10161000381085F83A20298D444AA5F84A9100FBF4
:101620000AFA06205244A5F8480101F1060CB2FB63
:10163000FAF290B26045A5F846B1A5F842B1A5F816
:10164000440102DD0638401A80B2A5F84001284660
:101650000FF074F8514628460FF0D8F84FF0000A02
:10166000059BC5F8203185F81CA10DF045FE95F8C5
:10167000542160F3020285F854210DF043FE95F8E1
:10168000542160F3C50285F8542195F81A216AF3B4
:10169000410285F81A2105F19C000EF089FE4FF0F9
:1016A0009612C5E907226661C5E902AA85F800A07D
:1016B0002D61EEE60C2009B0BDE8F08F65692B6C5A
:1016C0002BBB05F1340105F1300009F0D3FCE0B18A
:1016D0002E682864D6F82001A8B10BF0E5FB30464F
:1016E0000DF0E8FB00230320636109B0BDE8F08F33
:1016F00005980BF0D9FB07200AE705F1480028659B
:1017000034E700DE22E700DEE7E700DEE0E700DEA8
:10171000D7E700BFAFF300808D49FD1A0700000036
:1017200000CA9A3B8C49FD1AABAAAAAA7FC3C90179
:101730002DE9F04F0446037F406A8DB08846154678
:10174000C3F3401AC3F3C012E107238DADF82C3068
:101750000A900AAB00F1CC809B880A98A2770027F8
:10176000A783A4F82330C4F81F00D8F800301E68FF
:10177000EB8AE3842B8B2385B38C638512F092FA7A
:1017800084F82C00D5F8009048460DF099FB3946B6
:10179000A882E08048460FF04DF820682146D8F82E
:1017A00004400BF087FBAA8A2768E2801C23237180
:1017B000BAF1000F40F09080534623772146384617
:1017C0000BF084FB95F82B00B5F816A0D8F80C7038
:1017D0004D4C40F2E243C0F3C00100F0070003FBB0
:1017E0000AFA12F08FF8002202213F1A012009F0B4
:1017F00091FC30460DF000FAA7FB044740A3D3E963
:101800000023054639462046FFF794F80196D8F89C
:1018100008303E49009120F07F46AA1C363BD2B2E8
:101820003344012100200AF02BFE10F0FD0F61D19E
:101830004FF0000B012211465B46CDF800B0584630
:101840000AF0EAFD48460DF03BFB05462E482CA366
:10185000D3E90023AAFB0001FFF76CF81946D8F87A
:101860000830CDF81C90A3F13608294B0893294B7A
:10187000069340F272330993D9F804308246CDE9D9
:1018800004B3104600234FF47A72FFF753F8224B4B
:101890000722A6FB0331CDE902A002FB0611E01AE4
:1018A00067EB01014FF47A720023FFF743F8033529
:1018B000EDB2CDE9006043462A46012158460AF0C0
:1018C000F9FC10F0FD0F17D10122022110460DB0D6
:1018D000BDE8F04F09F01EBC95F8273043F04003F7
:1018E00085F82730281D11F07BFC0123288564E74B
:1018F00000DE31E700DE9BE700DEE5E7AFF30080C6
:101900008D49FD1A0700000000CA9A3BDD2E010038
:10191000E12E0100E92E01008D49FD1A00000000B2
:101920002DE9F04F91B0FF270B930B1D0A93002375
:10193000CDE90D33054616468DF833709B46089366
:101940003C46984699460DF1340A0FAB0693644B1A
:101950000593644B03930EAB0020CDE900A3022353
:101960000F930490029033460DF1330229460AF09A
:10197000BDFD022813D00F9BBBB9FF2C18D03368D4
:10198000434515D0002F00F09180013FFF24FFB2A6
:101990008DF83340D9E7294600200AF0E3FD0F9B7C
:1019A000022BF8D00F9B002BE7D000DEFF2CE6D1F6
:1019B0009DF83330FF2B49D0032BC6D100200DF00A
:1019C00087FA0028C1D090F93730002B25DA436818
:1019D00009939DF83330032B15D0FF2CDDF83480AC
:1019E00007D0594640460AF0D1FD0A9B4B44984225
:1019F0002ED80E9BDDF824909DF833400893C34603
:101A0000D6F80080A1E700200DF062FA0028E4D0AB
:101A100090F93730002BE0DA97E790F83B00C0F3FD
:101A2000C00100F0070011F06DFF2F4A2F4B00F2AC
:101A300065400721E0FB0231184625A3D3E90023C6
:101A4000FEF778FF20F07F430993C2E7FF2C2FD0E9
:101A500027480721A9FB000301FB09311EA3D3E995
:101A60000023FEF767FF044600B13E34089B214A7D
:101A7000A3F57423A3F5107393421ED81C480721C5
:101A8000ABFB000301FB0B3113A3D3E90023FEF7EB
:101A900051FF089A184BA3FB022304EB93440B9BC2
:101AA000044400201C6011B0BDE8F08F00DE6CE73C
:101AB0006FF0090011B0BDE8F08F089B03F1E873E7
:101AC00003F5D43303F5A5730BF1FF3B0893D5E77A
:101AD0008D49FD1A0700000000CA9A3B0000000073
:101AE000ED300100F130010000CA9A3B8C49FD1A2B
:101AF0008D49FD1ABFBDF07F83DE1B43000000004F
:101B00002DE9F043C668476873683D491A68D0F804
:101B10000090A7F57423A3F510738B4283B0804621
:101B200007D907F1E87707F5D43709F1FF3907F549
:101B3000A57773685168DD8ACDF8049006F110032B
:101B400001AA0220FFF7ECFE00284ED10199A1EB7B
:101B500009031B0237D4084649460AF017FD03461D
:101B600028480721A3FB000201FB032122A3D3E99C
:101B70000023FEF7DFFE34690444002C346109DBE6
:101B800040F2E24305FB03F3A3422FD2E41AA3423F
:101B9000FCD33461D8F800301A48A3EB0903A3FB47
:101BA0000002072101FB032113A3D3E90023FEF761
:101BB000C1FE154BA3FB0737A0EB974020443061D3
:101BC00003B0BDE8F08348460AF0E0FC03460D4848
:101BD0000721A3FB000201FB032107A3D3E9002394
:101BE000FEF7A8FE3469241AC7E73469002CD1D166
:101BF00003B0BDE8F08300BF00CA9A3B00000000BC
:101C0000BFBDF07F8D49FD1A83DE1B43000000003D
:101C10002DE9F041C46894F92830002B8CB0C0F253
:101C2000A880636805460E46002B40F0978094F824
:101C3000283023F0010384F8283012F025FF00201B
:101C400012F046FF0021084612F034FF082000225F
:101C5000252112F09BFF01200BF046FA002800F02E
:101C60008F801C3012F0BCFF5F4B0B930BA812F05F
:101C700079FF5E4940F25B6013F028F894F8280081
:101C8000C0F34100253011F009FE5948214612F0F9
:101C9000CFFE94F828309B0602D46368002B5AD0FC
:101CA000962013F041F900231A461946184613F0FE
:101CB00073F8D4F800802F68404611F0DDFD07442A
:101CC0006A6807F10901002013F03AF913F00EFADF
:101CD00013F0D2F820460CF09BFF811CC9B240469D
:101CE0003A4611F0CBFD804600284FD10EB9636B08
:101CF000D3B963687BB12B68A3616B68E3613D4B2B
:101D0000646204F11801996001220221002009F0A7
:101D100035FA002838D1204611F07CFD002831D159
:101D200000200CB0BDE8F081334A0792334A059297
:101D300040F2F31200930892CDE90366CDE9016603
:101D400006943B46314601220AF002FB10F0FD0FDB
:101D5000CFD000DECDE713F07FF8AAE7636893F8F1
:101D60002A30D90705D4636893F82A309A077FF59B
:101D70005EAF2348214612F05BFE12F053FFCFE71F
:101D800000DE6EE700DECBE700DEC4E71D4A1E4939
:101D90001E4840F2E51318F013F81D4B0721A8FB6D
:101DA000030301FB08310EA3D3E90023FEF7C2FDB4
:101DB00018490246184818F003F8002585F31188E1
:101DC000BFF36F8F0323184602DF1448214612F039
:101DD0002FFE12F027FF6FF08B00A2E7AFF3008019
:101DE00000CA9A3B00000000D6BE898E55555500AA
:101DF000C11E000098030020A93C0100B13C010075
:101E0000B9390100A4E80100F0E8010008E8010088
:101E10008D49FD1A44EA0100F4E801003D3D01004E
:101E200038B5044611F058FF94F8283094F828206B
:101E3000C3F34103013303F00303032B08BF002363
:101E400063F3420214BF03F12500252084F8282003
:101E500011F024FD63680BB123694BB90AF094FBC0
:101E6000C11C002013F0E0F8BDE8384013F03EB983
:101E700013F008F905460AF087FBC11C002013F097
:101E8000D3F813F033F913F0FDF829460AF07EFB7E
:101E9000094A03460721A0FB020201FB032104A318
:101EA000D3E90023FEF746FD23691B1A236138BDE1
:101EB00000CA9A3B000000008D49FD1A0000000096
:101EC0002DE9F0478AB0044612F0ECFEC0B20028BB
:101ED00000F0E18012F006FF054613F005F8074612
:101EE00013F00CF812F0E2FFEDB2064612F0C2FF5A
:101EF00011F01EFD45B9B048214612F099FD0AB017
:101F0000BDE8F04712F08EBE01200BF0EDF88046E0
:101F1000002800F0D88194F828502B07C5F3C10A97
:101F2000C5F3C00100F1BA80F7B2626898F81C608E
:101F300006F00F03002A00F0CA80626892F82A2097
:101F4000900700F1C480072BD5D0002900F0AB80AA
:101F5000002B40F0BA8198F81D30063B1F2BCAD8E1
:101F600004200BF0C1F80028C5D013F0C7F8636B4C
:101F7000054643B9238E40F2712202FB03F3B0FB06
:101F8000F3F203FB120522688C4B52680721A2FB77
:101F9000030301FB023186A3D3E90023FEF7CAFC49
:101FA0006FF4427283181F3B4FF0000242F1FF3280
:101FB000AB4272F100029ED312F04EFF94F82860FB
:101FC000636812F09DFE08F11E03019309AB0493B0
:101FD000C6F3801604F12A030296039398F81C3086
:101FE000C3F38013014605460022009320460123D7
:101FF00011F0A2FF284612F0F9FD12F049FE002868
:1020000040F0A88121466E4812F012FD626892F8F5
:102010002A3043F0010382F82A3094F8283043F044
:10202000800384F828300BF079F8172303714FF6FA
:10203000FF73C38098F81C200646C2F340112B465C
:1020400000F11C0205F12000D3F800C05F689D6814
:10205000D3F80CE0C2F80CE010338342C2F800C0A1
:102060005760956002F11002EED11B681360337F58
:10207000B46061F34513337713F004F8099BC6E9A4
:1020800004030BF04BF8F060306831460AB0BDE84D
:10209000F0470BF06DB811F04BFC2CE7FFB2002FAE
:1020A0003FF429AF40E794F82920C6F3801102F0ED
:1020B000010291420BD1062208F11E0104F1080031
:1020C00007931BF0F7FA079B00283FF441AF002B62
:1020D0007AD198F81D20063A1F2A3FF60CAF05F07A
:1020E0002102202A40F0CA806268002A6ED1962020
:1020F000079212F019FF079A104612F005FE03200E
:102100000AF0F2FF054600283FF4F5AE0BF006F8A2
:102110004FF6FF73EB8005232B71002F40F01681E3
:102120007F226B7E2A7623F001036B76294628688E
:102130000BF01EF812F0E4FD0278032161F30302B4
:10214000027098F81C200178C2F3801262F3C71164
:102150000C220170427094F82820C9B2C2F3801298
:1021600062F38611024602F8021BD4F82A10C0F866
:102170000210E18D9180D8F81E208260B8F82220EC
:10218000828112F033FD12F083FD002840F0E480DC
:1021900012F0ACFF94F828300A4843F001032146BE
:1021A00084F828300AB0BDE8F04712F041BC00BF07
:1021B00000CA9A3B00000000553D01008D49FD1A00
:1021C0004D3E0100693D0100062B82D0062B3FF6F3
:1021D00092AE4FF0450929FA03F919F0010947D1E8
:1021E000012B52D0042B7FF486AE98F81D30063BAD
:1021F0001F2B3FF680AEEB077FF57DAE12F080FD22
:1022000098F81C600278C6F38013B3EBD21F7FF4FA
:1022100072AE0830062208F11E011BF04BFA0028AE
:102220007FF469AE98F81D30002B3FF464AE63680C
:1022300023B106F00F06072E7FF45DAE03200AF0EF
:1022400053FF054600283FF456AE0AF067FF4FF6ED
:10225000FF73EB8005232B719FB97F206B7E28765F
:1022600069F3000328686B7629460AF081FF42E68D
:1022700098F81D30063B1F2B3FF63DAE4FF000098E
:10228000D5E712F003FEC0B2E8E798F81D300C2B3A
:102290007FF431AEC5F38015B5EBD61F4FEAD619E2
:1022A00036D0BAF1010F7FF626AEB9F1000F3FF438
:1022B00022AE98F8293003F0C003402B7FF41BAE08
:1022C0004FF00109B3E700DE25E6012B7FF47CAF78
:1022D00098F81D300C2B7FF40EAEC5F38013B3EBD2
:1022E000D61F4FEAD61926D0BAF1010F1AD9B9F183
:1022F000000F06D098F8293003F0C003402B3FF4BC
:102300002FAEC5F38015B5EBD61F4FEAD619CCD149
:10231000062208F1240104F12A001BF0CBF9002861
:10232000ACD0BEE7C5F38015B5EBD61F4FEAD61982
:102330007FF4E1ADECE7062208F1240104F12A0064
:102340001BF0B8F900283FF40BAECDE712F09EFD6C
:10235000C2B2E6E600DE55E600DE19E70000000046
:10236000F0B5C468A28A4FF6FF739A4285B000F0B8
:10237000AD80054611F0BAFE2B89628B208C94F853
:102380002710A3831A4492B2104480B2431C2384C2
:102390000023638301F03F034906E28366D494F887
:1023A0002810009304F1290004F1220310F0DAFE52
:1023B0000646204603A911F0D1FF039B94F846106E
:1023C0001A7861F3C3021A70039A94F846301178B0
:1023D000C3F3400363F38201117012F055FB002038
:1023E00012F076FB201D12F0BDFB2389A17A40F28A
:1023F0005B6043EA014112F069FC304611F04EFA8D
:102400000399204611F080FF2146374812F010FB57
:10241000E08912F089FD94F82C0000F0070012F01A
:1024200073FC27682E68384611F026FA064406F138
:1024300009016A68012012F083FD12F057FEA18A9B
:1024400003313246C9B2384611F018FA0646A0B137
:10245000AB7A13F0020518D000252448214612F06B
:10246000E7FA12F0DFFB284605B0F0BD218D04F13C
:10247000220210F0B9FE06469BE7204611F0CAF989
:1024800058BB0025284605B0F0BD194A19491A481D
:102490004FF4807317F094FC18480721A6FB000343
:1024A00001FB06310EA3D3E90023FEF743FA1449DA
:1024B0000246144817F084FC85F31188BFF36F8F30
:1024C0000323184602DF6FF08B05C6E70E4821464E
:1024D00012F0AEFA12F0A6FBD3E700DED1E700BFA0
:1024E00000CA9A3B000000006542010099390100D2
:1024F00020E90100F0E8010008E801008D49FD1A1B
:1025000058EA0100F4E80100B9390100024A034821
:10251000032118F097B800BF80EC0100A8DD01008E
:102520001FB50B4A0B493023CDE9012301A8002335
:10253000039304F0F7FC034638B1074A074801212A
:1025400017F0E7F805B05DF804FBFFF7DFFFF9E7E8
:1025500001006000E5250000D7EC0100A8DD0100C6
:10256000F0B589B000AF0C460146384605F0CCFB0B
:102570006E468AB06A460F4B0794CDE905370E4B7D
:1025800008930E4B09930E4B42F8103F00234FF473
:1025900043510C4801F0C2F80B48B54618F031FD24
:1025A0001822002109481BF07DF8FFF7B9FF2437F6
:1025B000BD46F0BDF2EC010049F301000002020447
:1025C00005000002A8DD01007C120020501200204E
:1025D000034B1B68834201D1FFF7C2BF704700BFA6
:1025E0007C1200202DE9F0411E4698B0404B1B683C
:1025F0000C4600AF05461146002B56D1002A54D197
:10260000212207F13C001BF04DF83A4907F13C024A
:10261000304602F025FB97F83C30002B45D007F1FF
:102620001C082946404602F029FA97F83D30002B55
:102630003FD007F13D036E468AB06A462E49CDE988
:1026400007432E4B09932E4BCDE9051842F8103F56
:1026500000232C484FF4435101F060F897F83D30C7
:10266000B546CBB1284C07F13D0821464046FEF760
:102670007BF988B18AB06A46244B0794CDE90538C6
:10268000234B0893234B42F8103F1E4800234FF47E
:10269000225101F043F8B54604F094FC034650B1D2
:1026A0001D4A1848012117F034F86037BD46BDE8CF
:1026B000F0811A4BBFE71A4B0FCB07F10C0484E8EB
:1026C0000F00184A4FF0C873C7E901232146084B91
:1026D0003A1D284605F072FB03460028E5D0124A51
:1026E0000848012117F015F8FFF71AFFDDE700BFD2
:1026F0007C1200201797010016ED01000002020471
:1027000005000002A8DD010058ED010064ED0100A4
:102710000002010304000002BBED0100CF0402002F
:10272000A0DE010018002800D8ED01002DE9F043DB
:1027300083B00E4602AF144652B91F481F4A032108
:1027400017F080FF348120460437BD46BDE8F08392
:10275000082B08D0082200921748194A022117F0C6
:1027600084FF0120F0E7B2F900005568FDF73EFF55
:102770001449FEF743F8FDF727FE64880246CDE9C9
:10278000004580460B46104889466E4617F00BFB05
:102790008AB002AA0D4B53610623C2E90689C2E939
:1027A000084542F8103F044800234FF4435100F01D
:1027B000B5FFB546D5E700BFA8DD0100FCED01007F
:1027C00027EE01000000C84265EE010090EE010016
:1027D000F8B5054616460C4659B9394A394802211A
:1027E00017F030FF1422214630461AF05BFF00201C
:1027F000F8BD3549106818F078F928BB238A334AA8
:102800003048032116F085FF314B324A03F11001A5
:10281000104653F8046B42F8046B8B42F9D11B78D5
:102820001370238A2C49013308600B812846032347
:102830000B7407F00BFD03460028D8D0274A214827
:10284000012116F066FFD2E730682149244E18F0C6
:102850004CF9238AC0B9234A1A48032116F059FFBC
:10286000204619F069FC1C491F4B0B60238A3081FC
:1028700002330B81284604230B7407F0E7FC034660
:102880000028B4D0194ADAE7194A0E48032116F095
:1028900040FF184B33600127238A73813146284655
:1028A000B78108F08FF9034620B110F1780F01D0FD
:1028B000114AC4E7114A0348032117F0C3FE96E703
:1028C000C3EE0100A8DD0100000F020008EF0100C7
:1028D000EF0E0200FE2500206812002031EF0100FB
:1028E0005012002063EF01002004002093EF01004C
:1028F000C5EF01002D270000EBEF010021F00100E2
:102900002DE9F04190B0044600AF0D4609B30146F1
:10291000384605F0F9F96C468AB06A46314B07959E
:10292000CDE90537304B0893304B0993304B42F8D3
:10293000103F304800234FF4415100F0EFFE2E4885
:10294000A54618F05EFBFFF7EBFD4037BD46BDE83E
:10295000F081294B1B688342F7D107F1200601461D
:10296000304605F0D1F9E84688B06A46234BCDE9F8
:1029700005364FF40073ADF81C30214B42F8103F80
:102980001C482B464FF4E65100F0C8FE1D4B1E4A72
:10299000C54603F11000114653F8045B42F8045B8E
:1029A0008342F9D11B781370184A194B53604FF6C4
:1029B000FF731160D3810125002311462046137453
:1029C000158107F043FC034628B1124A09482946FD
:1029D00016F09FFEB9E7104A0648032117F032FEB1
:1029E000B3E700BF47F0010049F301000002020411
:1029F00005000002A8DD01007C1200206FF001003C
:102A000003000001000F0200FE25002068120020D4
:102A1000D12700007DF00100A5F0010070B54478D9
:102A200014F00F0486B005460E4610D00F4A104829
:102A3000022106B0BDE8704017F004BE696810229C
:102A4000214401A818F07EF828B91034E4B26B785C
:102A5000A342F3D807E0074901A818F046F8002878
:102A6000F3D10123337006B070BD00BFD2F0010076
:102A7000A8DD0100000F020008B5002003F006FCED
:102A8000034630B1074A0848012116F042FE0020F3
:102A900008BD064A0448032117F0D4FDFFF740FDA6
:102AA000F5E700BFFCF00100A8DD01001BF101000B
:102AB0002DE9F84F8A4600AF002974D004680E1F34
:102AC000361BF50826F0070604EB0608B8F802B036
:102AD0001BF0010B16D1E94688B06A46334BCDE9AD
:102AE0000531032342F8103F31485B464FF4C25191
:102AF00000F014FECD468BF31188BFF36F8F0423D3
:102B0000184602DF2946204616F021FE284434F8F4
:102B10003030C01A854217D0E94688B06A46254B46
:102B2000CDE9053A032342F8103F214800234FF432
:102B3000C25100F0F3FD0023CD4683F31188BFF3AB
:102B40006F8F0423184602DFB8F8023023F0010328
:102B5000A8F802302946204616F0F9FD05EB0008DA
:102B600004EBC8035B88DA0708D44146204616F018
:102B700037FE42462946204616F077FEA65BAE1B7E
:102B800004EBC6035B88DB0709D43146204616F008
:102B900027FE2A463146204616F067FE354629466E
:102BA000204616F0D9FDBD46BDE8F88F8CF1010036
:102BB00068DE010063F1010008B5024817F0F3F880
:102BC000002008BDB9F101000E4A9042034602D32D
:102BD0000D4A904211D30D4A22B1934202D30C4ABE
:102BE00093420AD30B4A52B10B48834234BF0120AF
:102BF0000020934238BF00207047012070471046E4
:102C0000704700BF3CDA0100D00F02000000000056
:102C10000000000000000000000000002DE9F04F5F
:102C20009BB000AF0446D7F890A0FA637B638B4655
:102C300049B903784678807800EB830020445E45EC
:102C400022D8A0EB040B0AF0010394F80280FB6287
:102C5000E3783B63B8F1000F0CBF4FF000090AF0B6
:102C6000010913B11AF0020F17D1B9F1000F14D1F5
:102C7000FB6B1BB17A6B5946204698475D46284648
:102C80006C37BD46BDE8F08F451C2846FDF77EFE3B
:102C9000013028440BF1010BD1E7CAF3C003FB61FB
:102CA0002378BB629B00BB6163683B62BB6A04EB39
:102CB0008301FB6B002B7DD15D468844B9F1000F89
:102CC0001DD0A94E8B4699461BF8013B54F82300B2
:102CD000002808BF3046FDF759FED7F89430013080
:102CE0004BB1D7F898304B4582BFD7F8943023F8D2
:102CF000190009F10109C3450544E5D1D8461AF088
:102D0000050F0AF002030CBF4FF0020B4FF0010B4E
:102D10000026FB633B6B9E42B1D298F8013054F819
:102D200023A05046FFF750FFFA6908F10208034656
:102D300002B3B86318F8021C386A17F013F8BB6BBB
:102D4000C0B1EA468AB06A46884B05933B6ACDE932
:102D500006314FF40073ADF82030854B42F8103F38
:102D6000844800234FF4125100F0D8FC023DD546B0
:102D70000136CFE723B1FB6A2BB9A5EB0B05F7E7CB
:102D8000FB6B002BF4D07848BAF1000F18BF504607
:102D9000FDF7FCFDD7F8943053B1D7F8983099453A
:102DA0003FBFD7F89420431C22F8193009F10109DC
:102DB0000544DDE7B9F1000F6CD04346102B28BF66
:102DC0001023BB6397F8389007F148000026BA6BD0
:102DD00079621AF059FC796A00227A620AF00202DA
:102DE00001EB08033A610AF004027B61FA600233E6
:102DF0007A6A396B8A4266D36378F96A7B621AF021
:102E0000020F4B44DBB20CBF72080022002940F0D5
:102E1000A9801AF0040F14BF314600216370A1701D
:102E2000E270B9697A6BFB6B20469847051EFFF686
:102E300026AFBB6A23707B6A63703B6BE3703146DD
:102E40007A6BFB6B84F8028007F158009847061EE6
:102E5000C0F2C4803A6BBB69386B03EB4203ABEB47
:102E60000301D7E90D23C91A7B6903EB4000FB6B13
:102E700098470028C0F2B4802E4435184FF000085F
:102E800007F1480AC84577D300217A6BFB6B0846E7
:102E90009847F4E6B8F1000F0CD01AF0040F0ED0EA
:102EA0004346102B28BF1023BB6397F8386007F107
:102EB00058008CE7C7F838804646C1468CE7C7F80B
:102EC00038804E4688E713F8015C13F8021C54F86A
:102ED0002500BB60FFF778FE0246F869BB6838B191
:102EE000386AC7E9013216F03DFFD7E90132F0B97F
:102EF00012B3FA6A72B1B9F10F0F18D809F12801AB
:102F000007F14000014409F1010201F8205C5FFA79
:102F100082F90CE0FA6852B10F2E08D806F12801A8
:102F200007F14000721C0E1806F8105CD6B27A6ADF
:102F300001327A6202335BE73A69002ADBD10F2E55
:102F4000F5D806F1280007F1400C6044721C00F827
:102F5000101C07F1680151FA82F20236F6B202F84B
:102F6000105CE4E7002159E7F5F10100FCF10100F4
:102F70000400000120DE010018F80A3087F847300D
:102F800054F823B0D7F8943033B3D7F89830984535
:102F900022D2D7F8943033F818607A6BFB6B01219A
:102FA00007F14700984700281ADB0E4B0544BBF198
:102FB000000F08BF9B4626B95846FDF7E7FC461CA4
:102FC000B6B27A6BFB6B314658469847002807DB50
:102FD000054408F1010855E70026DEE735464EE6D0
:102FE00005464CE6F5F10100014B1860704700BF43
:102FF000580100202DE9F047058B044628071746A5
:103000000CD501290CBF45F0100545F0200525839E
:1030100087F31188BFF36F8FBDE8F087022905F0B1
:10302000070540F09480204617F05DF9052864D824
:1030300001A353F820F000BF113000004F31000011
:10304000FB300000BD300000D7300000E930000048
:1030500001F007035A1F012A1FD8002221F007019F
:10306000062BD4F8008089B2C4E9002209D1434676
:1030700003E0628B013262831B68002BF9D141F0BF
:1030800002012183204617F02EF94FF00009002895
:103090006DD041F02001218369E0042B0AD121F099
:1030A000070189B22183204617F01DF910B141F0C4
:1030B000200121834FF00008C14658E02369D3F86E
:1030C0000090238B23F0070343F0060323834FF084
:1030D000000846464BE02369D3F80490238B23F085
:1030E000070343F00403F1E72369D3F80890238B27
:1030F00023F0070343F00503E8E74FF00008C1465B
:10310000E7E7012243F00803238387F31188BFF325
:103110006F8F002A3BD1B8F1000F4AD1B9F1000FEF
:1031200002D02D492046C847EFF31187202383F3AF
:103130001288BFF36F8F238B23F008039BB2238386
:10314000D9063FD523F01002228303F007056669F4
:10315000218B002EBFF67CAF0023D4F8008021F035
:103160000701C4E9003341F0010121839946238B13
:1031700003F0070AAA4502D0A268002AC1D1B8F11B
:10318000000F02D1B9F1000FDAD00022BAE7A1682E
:103190000029C0D00D680029BDD04F683346524683
:1031A0002046B8471DB12B6829461D46F3E72B463C
:1031B000FAE74146334652462046D8F8008017F0D9
:1031C000BEF8A8E79A067FF523AF23F020022283FA
:1031D00003F0070527E700BF6BA301002DE9F047C7
:1031E000DFF85480044607464FF0010994FAA4F52D
:1031F000B5FA85F509FA05F32E0108EB05156FEA16
:10320000030A24EA03042B7B63B158F806301B69D8
:103210006BB94644042273682846196807EA0A070E
:1032200017F0A0F9002CE1D13846BDE8F087284618
:1032300098470028F6D1ECE788DE010010B50F4969
:103240000F4888B000221AF0FBF900220023CDE9D4
:10325000062300240E23CDE90334CDE90144094BB4
:10326000094900944FF44072084814F029FB0849BA
:1032700006481AF0BCF8204608B010BD9532000090
:10328000780A0020C5350000B0260020F005002097
:10329000BBF20100014814F01FB800BFC4040020B5
:1032A0002DE9F047804621480F4617F03BF90646C6
:1032B000002833D000252846BDE8F087237B83B162
:1032C0002368DB680BB120469847636883F8069053
:1032D00023681B69D3B9636804221968204617F074
:1032E00041F9013610345445E8D3B8F1000FE2D06B
:1032F000002DDFD02846FFF771FF0546002FF7D0DD
:1033000000214FF4A4701AF02FF9F1E720469847F6
:103310000028E0D009FA06F31D43E2E7044CDFF889
:1033200014A005464FF00109DDE700BF9012002010
:1033300088DE010098DE0100014B53F82000704741
:103340007CE1010008B5034608462BB1044A13602E
:1033500000F056FC002008BD6FF01500FBE700BF31
:103360005C01002010B5044C237813B9034813F016
:10337000B3FF0123237010BD0F260020C4040020DA
:1033800010B504460B4817F0CDF85CB1BFF35B8F66
:10339000094B53E8001F013943E80012002AF8D115
:1033A000BFF35B8F054815F085F80548BDE8104070
:1033B00013F092BF881200208C120020780A00209F
:1033C000C4040020064BBFF35B8F002253E8000FBC
:1033D00043E800210029F9D1BFF35B8F704700BF9C
:1033E0008812002070B5FFF7EDFF084C084E054627
:1033F000B44200D370BD63685B792BB123685B680E
:1034000013B12946204698471034F1E788DE0100C1
:1034100098DE010010B5044C0449204616F0DDFD8D
:10342000034B1C6010BD00BF3404002068E10100A4
:10343000801200200D4A0E48002310B513700D4A6B
:1034400013600D4A4FF400411360FFF77BFFFFF755
:10345000E1FF0A4B0A4918468B4200D310BD1A1AE5
:103460005C681211013222711033F5E7102600203A
:1034700021A50100881200208C12002088DE0100A6
:1034800098DE0100014600220148002316F0C6BD67
:1034900034040020014816F05DBE00BF3404002053
:1034A000024B0146186816F0B0BE00BF8012002023
:1034B000014816F0E5BE00BF3404002070B52A4B69
:1034C0001B78002B4ED0FFF7E5FF0446002846D1BD
:1034D000264B274D1B68002B19DD1AF069F84FF4B5
:1034E0007A76A0FB063206FB0121D5E90020DB0B32
:1034F00043EA41439B1A4FEAD13140F2E93261EB92
:103500000001934271F1000101D3FFF76BFFD5E990
:10351000003213F57A7342F10002C5E900320CB3B0
:10352000BDE87040FFF7C4BF6B685B7923B12B68BF
:1035300021461B68284698471035B542F4D32046EB
:10354000FFF7AEFFBFF35B8F0A4B53E8001F013953
:1035500043E80012002AF8D1BFF35B8FB8E7064DAD
:10356000064EEAE7002070BD0F26002088120020DA
:10357000700A00208C12002088DE010098DE010015
:1035800070B50D4D297861B90120FFF789FE0B4C0C
:103590000B4EB44206D3FFF791FF0028FBD1012365
:1035A0002B7070BD63685B791BB1236820469B68F4
:1035B00098471034EDE700BF1026002088DE010098
:1035C00098DE010000212DE9F8430846FFF768FE68
:1035D000044648B340F267684FF0000900F078FFF6
:1035E0001A4B1B4A1B58136033B11A4B1B68092B2B
:1035F00002DD194813F070FE184F002544B1204633
:10360000FFF7ECFD044618B94FF0FF384FF0FF39D3
:10361000FFF754FF064628B9B5B90F4842464B4656
:1036200013F08EFE3546E9E74FF0FF384FF0FF39D3
:10363000D4E72B689B691BB10022114628469847A6
:103640001035BD42F5D3E8E7054DFAE70800000064
:10365000841200208C120020C404002098DE010097
:1036600088DE010013B5184816F05CFF174B1B7875
:1036700073B1EFF31184202383F31288BFF36F8FAC
:10368000FFF71CFF84F31188BFF36F8F02B010BDEA
:103690000F4B1B68002BF9D050B900220023CDE955
:1036A00000230C484FF40042002314F0DDFEEDE748
:1036B0000928EBD1074814F0FDFE074802B0BDE829
:1036C000104013F009BE00BF8C120020102600200D
:1036D00084120020780A0020C404002010B5064B94
:1036E0001B68044698472146A060044816F013FD65
:1036F000BDE81040FFF7B6BF5C0100203404002095
:10370000044A054B9B1AB1EBD30F34BF52F831007A
:1037100000207047A8DD010088DE01002DE9F04F90
:103720008FB004AFC1F34A26B8600D4690467B6067
:103730000C0D002E61D04FF000090A234FF0040B4E
:1037400007F1140AFE60C7E90799C7F824900093AF
:10375000CDF808B0CDF804A007F11C03F9684A467B
:103760004046FFF75BFAB0F5006F03461CD36C468A
:103770008AB0D8F8041004AB2448C3E9050140F22C
:10378000FF71D9611A464FF400711984204B42F839
:10379000103F20484B464FF41251FFF7BFFFA5469C
:1037A0002C37BD46BDE8F08FC0F30A0604F11700C0
:1037B000184420F0070080083B60FFF763FE66F3C3
:1037C0005325044680B13B68134A00F11001C7E954
:1037D0000839F961CDE901AB0A230093F96807F1D3
:1037E0001C034046FFF71AFA66F353257B68B96855
:1037F0002A46204616F0D6FED2E704F1170020F044
:1038000007008008FFF73EFE0446EDE7D0F2010016
:103810000400000130DE010077A501002DE9F04F22
:1038200087B0DDE9127ADDE9106B0546884614465B
:103830009946BFB11021CDF800A03B465A46002062
:10384000CDF814A016F0B5F8B0F5006F01460BD313
:10385000194A1A4840F2FF73022107B0BDE8F04F41
:1038600016F0F9BE3946384604F0070305F00704A0
:10387000E40044EA831444EA402444EA065406F18E
:103880001700084420F0070080080391FFF7FAFDB5
:10389000054640B13FB10399CDF800A03B465A46DA
:1038A000103016F086F84B4622464146284607B0AF
:1038B000BDE8F04F16F076BE0FF3010030DE0100D8
:1038C000406820B1034BC01A40F3CF0070474FF05F
:1038D000FF307047A8DD01000EB403B503AB01460D
:1038E00053F8042B0448019300F050FF02B05DF838
:1038F00004EB03B0704700BFB9A60100CA0605D4A7
:103900008B064CBF02490349FFF7E6BF704700BF73
:1039100048F3010047F301002DE9F04F8BB09946C1
:10392000179B0793DDE918A39DF858801A9F06920C
:1039300004460D460593B8F1000F00F0BF80844B9C
:1039400013F80830089307F48073099316F008FE03
:1039500007F0020B024600287DD07E492046FFF783
:10396000BBFF0646BBF1000F08D017F0440F74D11F
:1039700079492A462046FFF7AFFF064407F00103C6
:1039800053B1764B764953F82820764B2046002ACF
:1039900008BF1A46FFF7A0FF07F48073002B07F05B
:1039A000080318BF4FF00009002B00F082806E4B17
:1039B0006E4953F828202046FFF78EFF0546069BE8
:1039C0002BB16B491A462046FFF786FF0544B9F133
:1039D000000F0DD0089B002B6ED06649664BB8F1E6
:1039E000040F18BF19464A462046FFF775FF0544E5
:1039F00062483544079B1BB16149224616F081F9A4
:103A0000059B002B00F09080DDF814903946B9F149
:103A1000100F204628BF4FF01009FFF76FFF002658
:103A2000B54252DC002633461AF803205549204699
:103A3000FFF752FF0136102E4DD0710703D15249C6
:103A40002046FFF749FF4E453346EDD34F49204608
:103A5000FFF742FFEEE7064684E74D4B1868002863
:103A60008BD04C4B4FF47A7B1B68B5FBF3F54FF4CE
:103A70006163B5FBF0F100FB11550BFB05F54FF051
:103A80003C0CB1FBF3F203FB1211B5FBF0FEB1FBF2
:103A9000FCF300FB1E550CFB13110BFB05F500910D
:103AA000B5FBF0F53C49CDE901E52046FFF714FFF1
:103AB00063E707F0080582E72F4994E7B9F1010FA2
:103AC0000CBF2E483548454694E72F492046FFF75E
:103AD00003FF0136A4E7324920460026FFF7FCFE2B
:103AE00033461AF803202F49A2F120035F2B28BF89
:103AF0002E222046FFF7F0FE0136102E0DD0720761
:103B000003D121492046FFF7E7FEB1453346E8D807
:103B10001D492046FFF7E0FEEEE7059BB3EB0903E6
:103B2000CA4405937FF470AFB8F1000F0AD0FB07C9
:103B300004D50C4A0A492046FFF7CEFE39462046F6
:103B4000FFF7DCFE20460BB0BDE8F04F16F0A7BD36
:103B5000390F020058F301005CF301008CE1010011
:103B60002DFD01004AF30100A0E1010082F30100F4
:103B700088F301004FF3010053F30100B9A60100DF
:103B80008D4700008CF3010094F3010092F30100D3
:103B9000981200209412002066F30100EFA60100A5
:103BA00096F3010098F3010073B542F20F738B4254
:103BB00028BF0B4605680F4A04460521684614F0E5
:103BC000D7FC63680C495B6806460B22284616F052
:103BD00058FD63683246694628465B6816F051FD19
:103BE000636806495B681B22284616F04AFD02B04E
:103BF00070BD00BFA1F901002D0F0200110F0200DE
:103C0000074A00210123904206D8064A01B9012340
:103C10001360054B1860704740085B000121F2E714
:103C200040420F009412002098120020F8B5074F70
:103C30000D4604464618B44201D12846F8BD14F892
:103C4000011BBB6801485B689847F4E748DB01004B
:103C5000014B036000207047E8E1010080B5054694
:103C60000E461746984614F043F9034600F030FC20
:103C7000DFF81890044649F800304246304639468D
:103C8000A84754F8090000F0C5FB00BF0800000079
:103C900008B50348034A0021121A16F0D9FD08BDE1
:103CA000F0050020B02600200748084A084908B55A
:103CB000121A16F0CFFD0748074A0849BDE8084028
:103CC000121A16F0C7BD00BF00000020F00500204A
:103CD000D00F02000000002000000020D00F0200E2
:103CE0002DE9F047064600AF0C46002936D0E946DC
:103CF0008AB0D1E90012A3686D462148E8464FF02A
:103D0000050ACDE90501CDE9072348F810AF1D48A4
:103D1000424600234FF42151FFF700FDCD46D4E980
:103D200003126369AD461848C5F810A0C5E905013E
:103D3000C5E907231348002342464FF42151FFF7FA
:103D4000EDFCCD46E369114A0E48012116F083FCD3
:103D5000A3690F4A0B48012116F07DFC012E07D103
:103D6000EFF305830B4A0748103B314616F073FC0E
:103D70002146304612F0C4FFBD46BDE8F08700BFC3
:103D8000D1F3010060DE010000F401002FF4010016
:103D90003EF401006CF4010030BFFFF7FDBF00BF2F
:103DA0002DE9F0410B4EDFF8308006EB0807CC1B05
:103DB000054632460949204619F066FCA0194246DC
:103DC0000021083C19F06EFC2C6707F10800BDE8E3
:103DD000F08100BF000000000400000098DE010038
:103DE00010B5204C2049214816F041FDA36A9901E5
:103DF00036D51E481E4916F03AFD1E20A36ADA0188
:103E000004D51A481B4916F032FD1F20154CA36A31
:103E10001B0304D51548184916F029FD2120A36A73
:103E2000590304D51148154916F021FD22200D4CE7
:103E3000A36A9A0304D50D48114916F018FD2320F2
:103E4000A36ADB0304D509480E4916F010FD2420AF
:103E5000044A936A6FEA03436FEA1343936210BD07
:103E60001D20CBE700ED00E07FF4010060DE0100E3
:103E700097F40100AAF40100C4F40100E2F4010087
:103E800007F5010021F5010070B506460D46294CE5
:103E900029492A4816F0EBFCA36ADB0647D52748D8
:103EA000274916F0E4FC1120A36A1C0704D5234817
:103EB000244916F0DCFC12201E4CA36A990712D587
:103EC00021491E4816F0D3FC636BA26A120609D57D
:103ED0001E4A1A48012116F0BEFB1EB1A36A23F048
:103EE0008003A3621320134CA36ADE0704D5134892
:103EF000174916F0BCFC1420A36A9C0604D50F4891
:103F0000144916F0B4FC15200A4B9A6AD10658BF22
:103F10009A6A9A6A920642BF5A6A22F400525A6218
:103F20009A6A42F0FF029A6200232B7070BD102043
:103F3000BAE700BF00ED00E04CF5010060DE0100D3
:103F400062F5010095F50100A8F50100C0F501003A
:103F5000D6F50100F5F5010070B506460D46284C72
:103F60002849294816F083FCA36AD9043CD5264881
:103F7000264916F07CFC1720A36A1A0504D52248AE
:103F8000234916F074FC18201D4CA36A9B0512D51A
:103F90001D48204916F06BFCA36BA26A100409D5DA
:103FA0001D4A1948012116F056FB1EB1A36A23F4DD
:103FB0000043A3621920124CA36A590504D5124884
:103FC000164916F054FC1A20A36ADA050ED50E48DD
:103FD000134916F04CFC1B20094A936A43F47F43B3
:103FE000936200232B7070BD1620C5E7A36A9B0463
:103FF000F2D505480B4916F03AFC1C20ECE700BF4F
:1040000000ED00E024F6010060DE01003AF6010058
:1040100095F501004BF6010064F6010079F6010008
:1040200094F60100F5F50100F0B56A4B8BB004463B
:10403000586800AFC0F30803002585F31188BFF36B
:104040006F8F02F07F46B6F17F4F07D102F00C066A
:10405000082E0ED16049614816F009FC60495F489E
:1040600016F005FC00210846FFF73AFE2C37BD4646
:10407000F0BD16074CBF0C460125002CEED00022E7
:10408000FA71DA1E092A00F28580DFE802F0057B6A
:104090007E77838383838381524950484D4E16F047
:1040A000E6FB0023FB71F36A9A0705D54E494B489E
:1040B00016F0DDFB00232DE0F36A002B01DA4B49FB
:1040C000F5E7F36A5B00F5D54949444816F0CFFBA4
:1040D0007369A26943F480737361BFF34F8FBFF3B9
:1040E0006F8F32F8023C726922F480727261BFF302
:1040F0004F8FBFF36F8F03F47F42B2F55F4F27D12D
:10410000DBB2022B24D123683A4A3448012116F04D
:10411000A2FA2368FA79002AA8D107F1080604F167
:10412000200C20686168324603C208346445164694
:10413000F7D17A6A002D4AD0C2F3080121B96FEA9B
:1041400052226FEA42227A6207F1080118468BE791
:10415000204B9A6AD2B222B1F91D0120FFF794FEDA
:104160000EE09A6A12F47F4F04D0F91D0120FFF788
:10417000F3FE05E09B6AB3F5803F9BD3FFF730FE6B
:104180000346C7E7F91D0020E8E7F91D0020EEE728
:1041900019498CE7194A1A4910F4F87F6E468AB01B
:1041A00018BF11466A46103B079316484FF4007338
:1041B000ADF82030144BCDE9050142F8103F074817
:1041C00000234FF41151FFF7A9FAB54672E76FF3D8
:1041D0000802B8E700ED00E0DAF6010060DE010059
:1041E00005F7010041F7010058F7010079F70100D8
:1041F00087F70100A6F70100C2F70100C1F6010030
:10420000ACF60100E6F7010004000001044B5A6916
:1042100042F010025A615A6922F008025A6170474E
:1042200000ED00E0EFF30880EFF3098101B572467D
:10423000FFF7FAFE01BD00BF0B4880F3088812F0BB
:10424000A3F9202080F3118808484FF4006140183A
:1042500080F30988EFF314800221084380F3148867
:10426000BFF36F8F00F06CF88045002040380020CD
:104270001EF0040F0CBFEFF30880EFF30980816993
:1042800011F8021C0229FFD001B5724616F0E4FABB
:1042900001BD00BF40B2002807DB044A41090123E9
:1042A00000F01F00834042F82130704700E100E039
:1042B00040B200280CDB4309064900F01F00203300
:1042C0000122824041F82320BFF34F8FBFF36F8F4D
:1042D000704700BF00E100E0054B420900F01F00FD
:1042E00053F82220012303FA00F01040704700BF6A
:1042F00000E100E040B20028A8BF00F1604001F1F9
:104300000101B8BF064B4FEA4111ACBF00F5614057
:1043100000F00F00C9B2B4BF195480F80013704701
:1043200014ED00E0044B054A23F07F039360BFF3D4
:104330004F8FBFF36F8F70470000000000ED00E06B
:1043400008B5FFF7EFFF0B4AD2F8883023F470036B
:10435000C2F88830EFF3148323F0040383F3148846
:10436000BFF36F8FFFF794FCFFF79EFC00F092F80D
:1043700012F0F2FD00ED00E042F8203C009B42F814
:104380001C3C0A49019B42F8183C029B42F8143C31
:1043900021F001014FF0807342F8043C42F8081C00
:1043A0000023203A02654367704700BF5D3C000070
:1043B00000B50B4B98600B4B1546026F1A600E460A
:1043C0002C4686F309880020034B9847204600219D
:1043D00000220023014C204785A801005D3C00001D
:1043E000AC250020C0120020014B10221A6170473A
:1043F00000ED00E0054B5A699B689A421FBF044AD2
:10440000536843F080535360704700BFAC250020D1
:1044100000ED00E0084B9B6883420BD1EFF305836E
:1044200043B1064B5A6842F080525A605A6A22F4ED
:1044300000425A6218F0E0BFAC25002000ED00E019
:1044400011498A684FF030001044EFF3098C80E87E
:10445000F01F202080F31288BFF36F8F0B4F4FF0B7
:1044600000664A698A603E60106F094C2060506F98
:104470000023536780F3118802F1300090E8F01FA9
:104480008CF3098870470000AC25002004ED00E0A3
:10449000C0120020044800232021C2180133302B11
:1044A00082F80013F9D1704700E100E008B5EFF39E
:1044B0000583064A103B02EBC30152F833004968FA
:1044C0008847BDE80840FFF795BF00BF80DB0100CB
:1044D0000148006870470000C0120020024B034AE8
:1044E0000348012100F07AB80000042000000020F9
:1044F0004CE2010008B503461048D0F89020C2F302
:104500000722013A934207D90D480E4A012116F0BD
:10451000A2F86FF0150008BDC0F898300A6822F0C4
:104520001F021A4342F01002C0F89C208A6842F031
:104530000102C0F8A0201846EDE700BF00ED00E042
:1045400048DE0100FDF70100F0B50E4685B01F46BC
:1045500004460025B5420DDA606810B397B1431EDA
:1045600018420AD0104A11482B46012116F073F860
:104570006FF01502104605B0F0BD1F28F2D9216872
:104580000B42EFD12368019316F09FF9A36801A9AC
:104590000343D0B20393FFF7ADFF10F1160FE7D03E
:1045A000421C01350C34D5E723F8010048DE010038
:1045B000044B0522C3F89420BFF34F8FBFF36F8FD6
:1045C000704700BF00ED00E0BFF35F8F024B002299
:1045D000C3F89420704700BF00ED00E010B5034C15
:1045E00001232278FFF7B0FF207010BD12260020B3
:1045F0002DE9F0435F486049D0F890300C68C3F370
:1046000007239C4285B000F2B280FFF7DDFF4968C6
:104610000022944201F10C011AD1584F584D3C70C0
:104620006846FFF715FB574C574E81464FF0000880
:10463000C14520D13B784F490020D1F89020C2F3EA
:1046400007229342C0F28D80FFF7B2FF002052E0B4
:10465000C0F8982051F80C3C23F01F03134343F09B
:104660001003C0F89C3051F8043C43F00103C0F83B
:10467000A0300132CDE7009800EB08114FEA081C8A
:10468000CB682340B3F5000F4ED00BD8B3F5001F15
:1046900034D0B3F5800F3CD0B3F5801F16D008F1AD
:1046A0000108C5E7B3F1007F46D0B3F1805F4BD07E
:1046B000B3F1807FF3D150F80C3088684A6816F067
:1046C00004F940F0885040F4801009E050F80C30B4
:1046D00088684A6816F0F9F840F0885040F43020B5
:1046E000039001A93878CDE90123FFF703FF0028E3
:1046F00033DA6FF0150005B0BDE8F08350F80C30E8
:1047000088684A6816F0E1F840F0885040F40020CC
:10471000E6E750F80C3088684A6816F0D6F840F0A2
:10472000C06040F40030DBE750F80C3088684A681D
:1047300016F0CBF82843D3E750F80C3088684A6865
:1047400016F0C3F83043CBE750F80C3088684A685D
:1047500016F0BBF840F08850E3E73B7801333B703C
:104760009DE7C1F89830C1F8A000013365E74FF02C
:10477000FF30C0E700ED00E058E201001226002003
:10478000000004110000F0FF00000410F0B587B035
:1047900007460E4614460021102268461D4618F0B2
:1047A00081FF02238DF802302A46054B01932146F2
:1047B0006846CDE9047613F095FF07B0F0BD00BF61
:1047C000EBA8010008B5024B1B689847002008BD04
:1047D000C4120020034B044A1860937843F002038C
:1047E00093707047C41200207801002008B5064974
:1047F000064821F00701C1F1005202F5802215F0B0
:1048000097F8002008BD00BF0F530020C8120020F9
:1048100070B54169867A0B4D044659B1437ADB077E
:1048200006D4242303FB0653DB691B689B68984767
:10483000002363612420214600FB0650BDE8704040
:1048400018F083BCF4040020024B242202FB003049
:10485000704700BFF4040020827A064B242101FB3C
:1048600002331A6A1B7D1B33801A23F00303B0FB4B
:10487000F3F07047F404002038B5074B827A242403
:1048800004FB0233DB69D3E901240C601568FFF7F0
:10489000E3FF04FB005038BDF40400202DE9F04391
:1048A00085B005466846039190461C4618F082FE86
:1048B000DDE90067EFF31189202383F31288BFF34A
:1048C0006F8F6B8A002B41D02A8A9A4225D9002209
:1048D0000023284612F0CAFC0446F0B189F311887F
:1048E000BFF36F8F039B002B41D032463B46684697
:1048F00018F085FEA27A264B242101FB02332046C4
:10490000DB691B6803A91D68DDE90023A847606116
:1049100070BB2046FFF77CFF24E0698A4B1E6B8248
:1049200089F31188BFF36F8F2B7D2A8A2C6A1B3382
:1049300023F00303521A02FB0344154B154AEB1AEA
:104940009B105343A3722B7DE372CBE789F311884D
:10495000BFF36F8F23464246284612F087FC044679
:104960000028BFD10024204605B0BDE8F083636174
:10497000012300252381039B6382E27A6560294637
:1049800004F1180018F08EFE63692582E360EAE7FF
:10499000F4040020398EE338F8B5124D00242426A3
:1049A00000B9F8BD00F108024768BFF35B8F52E819
:1049B000003F591E42E8001CBCF1000FF7D1BFF3C5
:1049C0005B8FDBB2012BECD1837AC46006FB03530F
:1049D00044609B6913B198473846E1E7FFF718FF39
:1049E000FAE700BFF4040020044A0123C2F840356E
:1049F0004FF08042C2F87835704700BF00E00140B8
:104A000048B1054B054A1B68B3FBF2F35843044B0E
:104A100043F00103184770470804002040420F008C
:104A2000D0DE010008B5054A054B136010463C2353
:104A3000536011F07FFE002008BD00BFD41200209B
:104A40003FC00F0008B50A4818F042FA68B108489C
:104A500018F03EFA48B1074A0548192116F02AF81D
:104A6000054A0348022116F025F8002008BD00BFC2
:104A7000F4DA01000100160001001A0070B50B788D
:104A800092B006460C4607AD032B31D8DFE803F0A1
:104A9000022A2C2E19492846FBF770FF05956378EA
:104AA0000493A3780393E3780293237901936379C2
:104AB0000093A379124A1E210AA813F059FD10ADE4
:104AC0000AAB32461C4603CCAC4210605160234610
:104AD00002F10802F6D120681060A3889380304666
:104AE00012B070BD0749D6E70749D4E70749D2E7B6
:104AF000074A0A21284613F03BFDCFE773F801006F
:104B000095F801007AF8010081F801008BF80100A6
:104B1000890902000E4B402970B528BF40210D4C79
:104B200046181D46B04203F1020304D1002305F8E4
:104B30001130074870BD02781209A25C03F8022CFC
:104B400010F8012B02F00F02A25C03F8012CE9E738
:104B500013260020510F020030B50378012B11D02D
:104B6000022B21D06BB9154B0A4603F1100453F800
:104B7000045B42F8045BA342F9D143881A0A8A70A5
:104B8000CB7030BD0D4B0A4603F1100453F8045BA3
:104B900042F8045BA342F9D143681A0C180E4A701C
:104BA0000870C3F30722EAE700F11003013913F894
:104BB000012901F8012F9842F9D1E2E7620F0200C2
:104BC00010B515F0FCFF18F00CFC044608B913F002
:104BD0006BF9BFF35B8F064B1B68BFF35B8F0BB1A9
:104BE0000A2098471CB9BDE8104013F071B910BDF8
:104BF000DC12002038B50446084815F093FE05463F
:104C000048B1631EDBB21F2B96BF054A0021D15C61
:104C10000C3015F00CFF284638BD00BFA805002059
:104C2000720F02000F2810B50CD80D280CD90A48B5
:104C300015F078FE044618B104210C3015F0F7FE8B
:104C4000204610BD1328F2D009B10448F0E7BDE8B2
:104C500010400220FFF7CEBFCC0500203C0500200D
:104C6000F0B5054685B00E461746AB88012B0ED928
:104C7000284615F00FFF044648B1AB88984208D982
:104C80000E4A0093022103460D4815F0EEFC05B0D4
:104C9000F0BD284615F0FEFE013C2B688DF808009B
:104CA000394602A88DF809400393B0470028EED09A
:104CB0002146284615F0DEFED7E700BFBFF8010009
:104CC000E8DD0100C3681B78024A0348022115F0A1
:104CD000EEBF00BFEAF80100F8DD010010B586B0B4
:104CE00003AB002400930749074805944FF0FF33B6
:104CF0004FF48062CDE9034412F0C6FC204606B0B2
:104D000010BD00BFB0290020B00A002038B5C5682A
:104D10002B7893B9B5F801400F21204602F094FC9E
:104D2000EB78054650B90A4A118831B96FEA045048
:104D30006FEA10501080074A137038BD437201218A
:104D400002F07EFB2846BDE8384002F023BB00BFDE
:104D5000E42500209426002070B5C3681D788DBB23
:104D6000B3F801600F21304602F06EFC044638B9FA
:104D7000154A164833460121BDE8704015F097BF2B
:104D8000294602F05DFBA378012B04D02046BDE844
:104D9000704002F0FFBABFF35B8F6368BFF35B8FB5
:104DA000DB07F3D50321204602F04AFB032016F06F
:104DB000B5F803460028E9D0054A0448022115F059
:104DC00076FFE3E770BD00BF12F90100F8DD0100D6
:104DD00038F9010010B5C368B3F80140012120463D
:104DE00002F032FC38B9064A064823460121BDE8E4
:104DF000104015F05CBFBDE8104002F0CBBA00BF18
:104E00005EF90100F8DD010010B501210C3015F04C
:104E100039FE0378034A0448BDE81040012115F02B
:104E200046BF00BF82F90100F8DD0100014610B560
:104E3000084815F07BFD0849084818F07CFA031E65
:104E400006DA074A0748BDE81040012115F02FBFD8
:104E500010BD00BF2C01002028020020500B0020B4
:104E6000A4F90100F8DD010073B5C568B5F801606B
:104E70000121304602F0E8FB044640B9304A31488F
:104E80003346012102B0BDE8704015F010BF2B7809
:104E90001A2B19D1C378012B10D14FF48041043063
:104EA00015F007FF43040FD4D4F88C300093694603
:104EB000D4F894300193204603F008FB204602B05A
:104EC000BDE8704002F066BA2B78002BF6D1B5F839
:104ED00003301D4940F2E2425343C4F88830B5F82C
:104EE0000520A4F89020B5F80720A4F89220A3F597
:104EF000EA520C3A8A4204D9144A1248022115F0A7
:104F0000D6FEB4F89030B3F5FA7F04D3104A0D48BA
:104F1000022115F0CCFEB4F89230A3F10A0292B24D
:104F200040F676418A4204D90A4A0648022115F021
:104F3000BEFE2B78002BC1D1204602F08DFDBDE7CF
:104F40005EF90100F8DD010095F03C00C1F90100B7
:104F5000E8F901000FFA0100024A0348012115F0A7
:104F60009DBE00BF3BFA0100F8DD0100B0B50B4665
:104F70000D8A00AF04462946D868FFF7CBFD8AB0FA
:104F80006A46094BCDE9053440F20243ADF82430BE
:104F9000064BCDE907504FF4325142F8103F044818
:104FA00015F096FEBD46B0BD55FA010005000001A2
:104FB000F8DD010070B5C568B5F801600121304623
:104FC00002F042FB044638B90D4A0E48334601212F
:104FD000BDE8704015F06BBE2B783BB9D5F80330B7
:104FE000C0F89830D5F80730C0F89C30201D4FF439
:104FF000003115F05EFE2046BDE8704002F0CAB9EF
:105000005EF90100F8DD01002DE9F84FD0F80C90B1
:10501000018A99F80040A30001338B4200AF63D9A5
:105020006D468AB06A463248CDE907310523CDE99D
:1050300005044FF4215142F8103F2E4815F048FE68
:10504000AD46BD46BDE8F88F2B4A2A482B460121C4
:1050500015F02DFE013699F800309E42F1DA09EB89
:1050600086030F21B3F80150B3F80380284602F0FD
:10507000EBFA04460028E7D000F1BC0AB8F1000FB3
:1050800006D0656945B91D4A1A48012115F006FE8A
:10509000204602F07FF9DDE7A2692B686361954243
:1050A00008BFA361204602F08BF812F015F9C5F88D
:1050B00000B0236AABB9C4E90755BFF35B8F5AE868
:1050C000003F013B4AE80032002AF8D1BFF35B8F72
:1050D0000021204608F1FF3802F07EF81FFA88F818
:1050E000CCE71D602562E8E70026B346B3E700BFC2
:1050F00077FA0100F8DD0100A2FA0100BEFA010012
:1051000037B502EBC303044608469A4202D16FF05A
:105110005E0010E0114611F8085BA54211D1038A28
:105120005178994209D90848084A0094012115F09C
:105130009CFA6FF0150003B030BD5368984700200B
:10514000F9E70A46E1E700BFF8DD0100D5FA010002
:105150002DE9F0470C4612F0A7FEE5682B78022BEC
:1051600072D0042B07D03C4A3C48012115F09FFD2A
:105170006FF015040EE0B4F81080B8F1020F0ED8ED
:10518000374A43463548012115F091FD2046FFF787
:1051900003FC002412F09CFE2046BDE8F0876878EE
:1051A0003E280CD1B8F1030F02D12E4A4346E9E75D
:1051B000EB78012B01D00A2B46D1032704E015F030
:1051C0005AFD0746F8073FD504F10C060121304689
:1051D000D4F814A015F04EFC0221304615F052FC14
:1051E000814600783E2807D1E3681B78012B01D067
:1051F0000A2B06D1032614E015F03DFDC107064633
:105200000FD4194A19491A4841F28A1314F0D8FDEB
:10521000002383F31188BFF36F8F0323184602DF47
:105220000226144A99F800000623214615F060FD75
:10523000B2070DD56369A4F81080A5EB0A0513FA2F
:1052400085F5E560BB07A4D52046FFF7EFFDA0E795
:105250002046FFF7A1FBF5E79DFB0100F8DD01000B
:10526000F7FA010013FB010033FB010067FB0100AB
:1052700080FB010044E3010010B5012104460C301D
:1052800015F000FC2146034A0078BDE810400223D7
:1052900015F02EBD74E3010073B53E4815F05BFBBD
:1052A0000446002873D000F10C05284615F0F2FBE7
:1052B0000228034603D0042847D0374A03E0238A54
:1052C000032B05D8354A3648012115F0F0FC13E0D0
:1052D0000421284615F0D6FBFF2342880688237652
:1052E000238AC6F30B009A42608309D02C480092AF
:1052F00001212C4A15F0B9F92046FFF74DFB12E0C9
:105300000F2102F0A1F9054610B9638B264ADAE7AE
:1053100002F0C0F9320B20762146284601F0B2FF98
:10532000284602F037F8214BD3F82C317BB32049C3
:10533000204818F000F8031E29DA1F4A18480121F6
:1053400002B0BDE8704015F0B2BC2846022115F04D
:1053500099FB054600783E2812D015F08CFC10F021
:1053600002060DD1154A1649164840F6BC4314F002
:1053700027FD86F31188BFF36F8F0323184602DFE2
:10538000114A28780423214615F0B2FCB4E702B094
:1053900070BD00BF2C01002046FC0100B1FB0100E4
:1053A000F8DD0100D2FB0100F6FB01000000002047
:1053B00028020020500B0020A4F9010033FB01005B
:1053C00018FC010080FB010084E3010010B50121FD
:1053D00004460C3015F056FB2146034A0078BDE820
:1053E0001040072315F084BCA4E30100F8B50121A7
:1053F00000AF04460C3015F045FB0678114A002337
:1054000021463046FFF77CFE5F3019D1258AE068DF
:105410002946FFF77FFB6C468AB06A460A4BCDE906
:10542000053640F20243ADF82430084BCDE9075071
:105430004FF4325142F8103F054815F049FCA5469B
:10544000BD46F8BDDCE301005AFC01000500000187
:10545000F8DD01002DE9F74FDFF818A1BFF35B8FEE
:1054600080468946174600235AE8004F4AE8003232
:10547000002AF9D1BFF35B8F264644B93E4A3F4824
:105480004346012103B0BDE8F04F15F010BC2046A3
:10549000FFF7E2F93A4D4FF00C0B0BFB005043883D
:1054A00043451FD02046FFF7D7F90BFB0050438838
:1054B000344A009331484346012115F0D6F8BFF332
:1054C0005B8F5AE8003F4AE80062002AF9D1BFF337
:1054D0005B8F002B4BD01E46304603B0BDE8F04F2B
:1054E000FFF75ABAA74208D0204615F016FA3A8AB2
:1054F000F96804F10C0015F091FA2046FFF7ACF9B9
:105500000C2707FB00504368ABB1B9F1000F12D173
:105510002046FFF7A1F907FB0050012142685368BC
:1055200003F01F00814010685B0900EB8300137AD1
:10553000CBB115F0BEFB2046FFF78EF90C2707FB19
:1055400000508368002BC7D02046FFF785F97843C9
:1055500005F800902046FFF77FF907FB0055A86883
:1055600011F0BAFEB8E7C94315F0B5FBE3E703B0A5
:10557000BDE8F08F280100208CFC0100F8DD01005F
:10558000E0120020B4FC010008B501F063FB094BF8
:10559000BFF35B8F1A68BFF35B8F02F00B02BFF3A0
:1055A0005B8F53E8001F43E800200028F9D1BFF3C8
:1055B0005B8F08BDD400002010B5C1E900239DF821
:1055C00008300B720C46FFF747F9034B0C2202FB25
:1055D00000335C6010BD00BFE0120020F8B5024649
:1055E0000B46104815F09EF90446C0B104210C305A
:1055F00015F003FA2046FFF72FF90B4D0C2707FB98
:105600000050002646802046FFF726F907FB005091
:1056100086602046FFF720F907FB00556E602046A4
:10562000F8BD00BF84050020E012002011289ABFB9
:10563000024B53F820000248704700BFC0E201004F
:10564000E7FC0100034B0146D3F8440182689268ED
:10565000104700BF000000202DE9F04F91B0042159
:1056600000AF4B4815F025FB6D4601F0F3FA88B00A
:105670006A46484B0593484B06934FF40073ADF8C8
:105680001C30464C464B42F8103F4648464E4FF4BD
:10569000E65115F01DFB454BE17907F12008AD46B9
:1056A000012998BF1E4640462146FFF7E7F98AB018
:1056B0006A463F4BCDF81C80CDE905363D4B08933B
:1056C0003D4B42F8103F37483C4EDFF8F4804FF432
:1056D000235115F0FDFAA246AD460125E3799D421E
:1056E0000AF1070A3BDB94F86F100846FFF79EFFAC
:1056F0006E468CB0B4F87250B4F876306A46DFF873
:10570000C4C00993CDE907152F4B4FF40075CDE9BF
:1057100005C0ADF82850234842F8103F4FF45351CC
:1057200015F0D6FA94F87010B5460846FFF77EFFDC
:105730008AB0B4F874306A46244CADF82450CDE9F0
:105740000713234BCDE905404FF4335142F8103F86
:10575000144815F0BDFA4437BD46BDE8F08F5146F8
:105760003846FFF78BF9E9468AB06A4640F20133C2
:10577000CDE905650797ADF820300A4842F8108F4B
:105780004FF4135115F0A4FA0135CD46A6E700BF3A
:10579000D4000020F3FC010005FD01000000002002
:1057A00003000001F8DD0100EFFC010049F30100F6
:1057B00010FD010000020103040000021FFD0100B2
:1057C0000400000130FD0100060000016EFD010033
:1057D000050000010048704795FD0100014902489D
:1057E00017F0A9BD18020020B00A002070B50546C8
:1057F0000C4639B1CB684A699B1A032B0ED86FF05F
:10580000150509E04FF0FF304FF0FF31FFF7E6FEDE
:10581000044618B96FF06805284670BD2046FFF7AA
:105820001BF8174B0C2202FB0033A618032130464D
:105830005D8015F00EF90580238A033B83700121FA
:10584000304615F00EF940F635439D420FD1204603
:10585000FFF7F8FE05460028DED00A4A034601217C
:10586000094815F024FA2046FFF796F8D4E70748D0
:10587000214617F057FC0025FFF7B0FFCCE700BF2B
:10588000E01200209CFD0100F8DD01003401002041
:105890002DE9F04784B0804600AF91460C4671B9BF
:1058A0004FF0FF304FF0FF31FFF798FE044660B92C
:1058B0006FF0680528461037BD46BDE8F087887A46
:1058C000FEF7C2FF3C4B83426FD1012200213846D4
:1058D00017F05FFC2046FEF7BFFFDFF8E0A00C23C7
:1058E00003FB00A08760204615F04BF801464046B8
:1058F000FFF77CFF054618B12046FFF74DF8D9E7C2
:105900004FF4A0220023384611F01AFD064690B14C
:1059100040F2E3132A4A2B492B4814F051FA2B4842
:105920003246414614F04CFA85F31188BFF36F8F6D
:105930000323184602DF2046FEF78EFF0C23584350
:105940001AF800605EB36D468AB06A46204B07962F
:10595000CDE905381F4B089340F20243ADF82430DF
:105960001D4B42F8103F1D484FF4325115F0B0F96D
:105970002046AD46093EFFF70FF8092E0CD8DFE8A8
:1059800006F0050B0B08170B0B0B0B146FF06E05D5
:1059900090E76FF00C058DE76FF004058AE7B9F129
:1059A000000FA9D0C9F8004084E76FF0150581E722
:1059B0006FF00B057EE700BF84050020E012002099
:1059C00033FB0100BEFD010080FB0100C7FD0100AB
:1059D0000CFE010049F3010005000001F8DD0100A3
:1059E000F0B585B006460DF10301002000F0CAFFB6
:1059F0000446002845D14FF0FF304FF0FF31FFF74C
:105A0000EDFD074600283FD019210C3015F000F8B5
:105A100021460546192217F045FE9DF803302B73E9
:105A200006F17001681D15F03BF9194B9A892A801F
:105A3000DA896A80B6F88C20A5F80D20B6F88E2099
:105A4000A5F80F20B6F89020A5F81120D433B6F8A9
:105A5000922001930723A5F81320029338460123CF
:105A60008DF80C30FEF7F8FE0A4B0C2202FB0033D7
:105A700001AA5A603946224642F20D00FFF708FF9C
:105A80000446204605B0F0BD6FF06804F9E700BF9A
:105A900000000020E0120020F8B5022800AF054603
:105AA0003FD100210246084602F00CF9044680B9B5
:105AB000274A2848012115F0F1F8032015F02EFAA5
:105AC000034620B1244A2348022115F0F0F8BD46D0
:105AD000F8BDBFF35B8F4368BFF35B8FDB0706D571
