:1000000008280120E55700005FDD0300D1570000FC
:10001000D1570000D1570000D15700000000000068
:100020000000000000000000000000001D5800005B
:10003000D157000000000000E5590000D157000032
:10004000555A0000196A0100555A0000555A00001F
:10005000555A0000555A0000555A0000555A0000E4
:10006000555A0000555A0000555A0000555A0000D4
:10007000555A0000555A0000555A0000555A0000C4
:10008000555A0000555A0000555A0000555A0000B4
:10009000555A0000555A0000555A0000555A0000A4
:1000A000555A0000555A0000555A0000555A000094
:1000B000555A0000555A0000555A0000555A000084
:1000C000555A0000555A0000555A0000555A000074
:1000D000555A0000555A0000555A0000555A000064
:1000E000555A0000555A0000555A0000555A000054
:1000F000555A0000555A0000555A0000555A000044
:1001000081F0004102E000BF83F0004330B54FEAC8
:1001100041044FEA430594EA050F08BF90EA020F35
:100120001FBF54EA000C55EA020C7FEA645C7FEAC8
:10013000655C00F0E2804FEA5454D4EB5555B8BFEB
:100140006D420CDD2C4480EA020281EA030382EA5C
:10015000000083EA010180EA020281EA0303362DEE
:1001600088BF30BD11F0004F4FEA01314FF4801CC1
:100170004CEA113102D0404261EB410113F0004FD3
:100180004FEA03334CEA133302D0524263EB43038A
:1001900094EA050F00F0A780A4F10104D5F1200E28
:1001A0000DDB02FA0EFC22FA05F2801841F1000183
:1001B00003FA0EF2801843FA05F359410EE0A5F157
:1001C00020050EF1200E012A03FA0EFC28BF4CF088
:1001D000020C43FA05F3C01851EBE37101F000453E
:1001E00007D54FF0000EDCF1000C7EEB00006EEB4B
:1001F0000101B1F5801F1BD3B1F5001F0CD34908D5
:100200005FEA30004FEA3C0C04F101044FEA44522B
:1002100012F5800F80F09A80BCF1004F08BF5FEAB2
:10022000500C50F1000041EB045141EA050130BD92
:100230005FEA4C0C404141EB0101013C28BFB1F5A4
:10024000801FE9D291F0000F04BF01460020B1FAEF
:1002500081F308BF2033A3F10B03B3F120020CDAC2
:100260000C3208DD02F1140CC2F10C0201FA0CF0A0
:1002700021FA02F10CE002F11402D8BFC2F1200C05
:1002800001FA02F120FA0CFCDCBF41EA0C019040BB
:10029000E41AA2BF01EB0451294330BD6FEA040404
:1002A0001F3C1CDA0C340EDC04F11404C4F12002EF
:1002B00020FA04F001FA02F340EA030021FA04F301
:1002C00045EA030130BDC4F10C04C4F1200220FA58
:1002D00002F001FA04F340EA0300294630BD21FA96
:1002E00004F0294630BD94F0000F83F4801306BF5C
:1002F00081F480110134013D4EE77FEA645C18BF50
:100300007FEA655C29D094EA050F08BF90EA020FE6
:1003100005D054EA000C04BF1946104630BD91EADE
:10032000030F1EBF0021002030BD5FEA545C05D1E1
:100330004000494128BF41F0004130BD14F5800420
:100340003CBF01F5801130BD01F0004545F0FE4194
:1003500041F470014FF0000030BD7FEA645C1ABFC9
:10036000194610467FEA655C1CBF0B46024650EA00
:10037000013406BF52EA033591EA030F41F400212C
:1003800030BD00BF90F0000F04BF0021704730B5B2
:100390004FF4806404F132044FF000054FF0000187
:1003A00050E700BF90F0000F04BF0021704730B548
:1003B0004FF4806404F1320410F0004548BF40421D
:1003C0004FF000013EE700BF42004FEAE2014FEA72
:1003D00031014FEA02701FBF12F07F4393F07F4F4D
:1003E00081F06051704732F07F4208BF704793F050
:1003F0007F4F04BF41F40021704730B54FF4607463
:1004000001F0004521F000411CE700BF50EA010265
:1004100008BF704730B54FF000050AE050EA01020E
:1004200008BF704730B511F0004502D5404261EB7E
:1004300041014FF4806404F132045FEA915C3FF4BF
:10044000D8AE4FF003025FEADC0C18BF03325FEA5C
:10045000DC0C18BF033202EBDC02C2F1200300FA0D
:1004600003FC20FA02F001FA03FE40EA0E0021FA32
:1004700002F11444BDE600BF80F0004002E000BF7E
:1004800081F0004142001FBF5FEA410392EA030F7F
:100490007FEA226C7FEA236C6AD04FEA1262D2EBC9
:1004A0001363C1BFD218414048404140B8BF5B42CE
:1004B000192B88BF704710F0004F40F4000020F067
:1004C0007F4018BF404211F0004F41F4000121F07D
:1004D0007F4118BF494292EA030F3FD0A2F10102C7
:1004E00041FA03FC10EB0C00C3F1200301FA03F105
:1004F00000F0004302D5494260EB4000B0F5000F28
:1005000013D3B0F1807F06D340084FEA310102F1E6
:100510000102FE2A51D2B1F1004F40EBC25008BF98
:1005200020F0010040EA03007047490040EB000062
:10053000013A28BFB0F5000FEDD2B0FA80FCACF163
:10054000080CB2EB0C0200FA0CF0AABF00EBC25090
:1005500052421843BCBFD0401843704792F0000F7E
:1005600081F4000106BF80F400000132013BB5E7D1
:100570004FEA41037FEA226C18BF7FEA236C21D047
:1005800092EA030F04D092F0000F08BF08467047AC
:1005900090EA010F1CBF0020704712F07F4F04D17A
:1005A000400028BF40F00040704712F100723CBF8D
:1005B00000F50000704700F0004343F0FE4040F4B7
:1005C000000070477FEA226216BF08467FEA236375
:1005D0000146420206BF5FEA412390EA010F40F460
:1005E000800070474FF0000304E000BF10F00043AC
:1005F00048BF40425FEA000C08BF704743F0964393
:1006000001464FF000001CE050EA010208BF7047AD
:100610004FF000030AE000BF50EA010208BF704734
:1006200011F0004302D5404261EB41015FEA010C49
:1006300002BF84460146002043F0B64308BFA3F141
:100640008053A3F50003BCFA8CF2083AA3EBC25323
:1006500010DB01FA02FC634400FA02FCC2F1200242
:10066000BCF1004F20FA02F243EB020008BF20F079
:100670000100704702F1200201FA02FCC2F12002DF
:1006800050EA4C0021FA02F243EB020008BF20EAD4
:10069000DC7070474FF0FF0C1CEAD0521EBF1CEA02
:1006A000D15392EA0C0F93EA0C0F6FD01A4480EAF0
:1006B000010C400218BF5FEA41211ED04FF00063D9
:1006C00043EA501043EA5111A0FB01310CF0004005
:1006D000B1F5000F3EBF490041EAD3715B0040EA2B
:1006E000010062F17F02FD2A1DD8B3F1004F40EBFB
:1006F000C25008BF20F00100704790F0000F0CF0CE
:10070000004C08BF49024CEA502040EA51207F3A91
:10071000C2BFD2F1FF0340EAC250704740F400006C
:100720004FF00003013A5DDC12F1190FDCBF00F05D
:1007300000407047C2F10002410021FA02F1C2F10B
:10074000200200FA02FC5FEA310040F1000053EAA7
:100750004C0308BF20EADC70704792F0000F00F0F5
:10076000004C02BF400010F4000F013AF9D040EAFB
:100770000C0093F0000F01F0004C02BF490011F48F
:10078000000F013BF9D041EA0C018FE70CEAD1538D
:1007900092EA0C0F18BF93EA0C0F0AD030F0004C0D
:1007A00018BF31F0004CD8D180EA010000F00040C1
:1007B000704790F0000F17BF90F0004F084691F07F
:1007C000000F91F0004F14D092EA0C0F01D14202B9
:1007D0000FD193EA0C0F03D14B0218BF084608D182
:1007E00080EA010000F0004040F0FE4040F40000CC
:1007F000704740F0FE4040F4400070474FF0FF0C5F
:100800001CEAD0521EBF1CEAD15392EA0C0F93EAA5
:100810000C0F69D0A2EB030280EA010C49024FEAF7
:10082000402037D04FF0805343EA111143EA1013B0
:100830000CF000408B4238BF5B0042F17D024FF468
:10084000000C8B4224BF5B1A40EA0C00B3EB510F43
:1008500024BFA3EB510340EA5C00B3EB910F24BF2C
:10086000A3EB910340EA9C00B3EBD10F24BFA3EBB1
:10087000D10340EADC001B0118BF5FEA1C1CE0D179
:10088000FD2A3FF650AF8B4240EBC25008BF20F02C
:10089000010070470CF0004C4CEA50207F32C2BF80
:1008A000D2F1FF0340EAC250704740F400004FF01D
:1008B0000003013A37E792F0000F00F0004C02BF4E
:1008C000400010F4000F013AF9D040EA0C0093F018
:1008D000000F01F0004C02BF490011F4000F013B72
:1008E000F9D041EA0C0195E70CEAD15392EA0C0FDA
:1008F00008D142027FF47DAF93EA0C0F7FF470AF12
:10090000084676E793EA0C0F04D14B023FF44CAF54
:1009100008466EE730F0004C18BF31F0004CCAD1E9
:1009200030F000427FF45CAF31F000437FF43CAF25
:100930005FE700BF7BB972B90029BEBF00204FF04E
:10094000004106E008BF00281CBF6FF000414FF0D7
:10095000FF3000F057B8ADF1080C6DE904CE002966
:1009600009DB002B1ADB00F069F8DDF804E0DDE9B3
:10097000022304B07047404261EB4101002B1BDBB6
:1009800000F05CF8DDF804E0DDE9022304B0404249
:1009900061EB4101524263EB43037047524263EB08
:1009A000430300F04BF8DDF804E0DDE9022304B076
:1009B000404261EB41017047524263EB430300F058
:1009C0003DF8DDF804E0DDE9022304B0524263EBB8
:1009D0004303704753B94AB9002908BF00281CBF18
:1009E0004FF0FF314FF0FF3000F00CB8ADF1080CC4
:1009F0006DE904CE00F022F8DDF804E0DDE9022321
:100A000004B07047704700BF10F8012B11F8013B8C
:100A1000012A28BF9A42F7D0D01A7047034611F82E
:100A2000012B03F8012B002AF9D17047034613F874
:100A3000012B002AFBD1181A013870472DE9F04725
:100A40008C468E46089E154604461946002B40F0FB
:100A5000D080724547D9B2FA82F74FB1C7F120036F
:100A60000EFA07FC20FA03F3BD4043EA0C0CBC402D
:100A70004FEA154EA8B2BCFBFEF8230C0EFB18CCB7
:100A800008FB00F943EA0C43994528D9EB1808F113
:100A9000FF3204D2994502D9A8F102022B44A3EBFC
:100AA0000903A4B2B3FBFEFC0EFB1C330CFB00F0ED
:100AB00044EA0344A04214D92C190CF1FF3304D2A8
:100AC000A04202D9ACF102032C44241A43EA0240AA
:100AD0001EB1FC40002334607360BDE8F0874246DD
:100AE000DDE76346F1E7002A79D0B2FA82F3002B02
:100AF0003FD01946C1F1200302FA01F52EFA03F2A4
:100B00000EFA01FE20FA03F343EA0E034FEA154EF4
:100B100000FA01F4B2FBFEFCAFB20EFB1C201A0C73
:100B20000CFB07F842EA004290455AD9AA180CF18A
:100B3000FF3004D2904502D9ACF102002A44A2EB66
:100B400008029BB2B2FBFEFC0EFB1C220CFB07F75B
:100B500043EA02439F4246D9EB180CF1FF3204D21C
:100B60009F4202D9ACF102022B44DB1B42EA004255
:100B700002E0AEEB020301224FEA154EAFB2B3FB27
:100B8000FEFC200C0EFB1C330CFB07F840EA034371
:100B900098452AD9EB180CF1FF3004D2984502D9B8
:100BA000ACF102002B44A3EB0803A4B2B3FBFEFCA0
:100BB0000EFB1C330CFB07F744EA0344A74216D98B
:100BC0002C190CF1FF3304D2A74202D9ACF1020375
:100BD0002C44E41B43EA00400F46114678E71F21EE
:100BE00088E76046ABE76246BFE76046DBE76346FF
:100BF000EFE7734506D916B9002108466DE7C6E947
:100C0000000EF9E7B3FA83F787B9734501D382423F
:100C100007D8841A6EEB030301209C461EB90021FD
:100C20005BE73846FAE7C6E9004CF8E7C7F1200C65
:100C3000BB4022FA0CF51D4320FA0CF12EFA0CF3FE
:100C40000EFA07FE41EA0E014FEA154900FA07F4D1
:100C5000B3FBF9F81FFA85FE09FB18300B0C08FBF3
:100C60000EFA43EA00439A4502FA07F240D9EB181C
:100C700008F1FF3004D29A4502D9A8F102002B44B2
:100C8000A3EB0A0389B2B3FBF9F809FB183308FB9D
:100C90000EFE41EA03418E452CD9691808F1FF3355
:100CA00004D28E4502D9A8F10203294443EA004048
:100CB000A0FB0298A1EB0E014145CE46434602D36C
:100CC00006D14C4504D2B9EB020E68EB050301389E
:100CD000002EA4D0B4EB0E0261EB030101FA0CFC70
:100CE00022FA07F34CEA0303F940C6E9003196E71C
:100CF0004046C5E74346D9E738B51B4C9DF810E0A0
:100D000094F84CC01CF0010524D163F3420C40015F
:100D100094F83830A4F840104FEACE0E0EF0180EBA
:100D200000F0200040EA0E0023F0380303430F4890
:100D300084F838309121A2FB000384F84CC001FBF9
:100D4000023107A3D3E90023FFF744FEC4E91100F1
:100D5000284638BD0C25284638BD00BFAFF30080BB
:100D60008D49FD1A07000000E01F0020002AE784DB
:100D700010B504469DF8080022864FEA411CC000C9
:100D800094F8281000F018000CF0200C4CEA000C2D
:100D90000B4821F038014CEA010CA3FB0002912121
:100DA00084F828C001FB032103A3D3E90023FFF744
:100DB00011FE606310BD00BF8D49FD1A07000000E1
:100DC000002AE784000000002DE9F043044600F10A
:100DD0003A0190F84C0094F838304D4DC0F3400083
:100DE00060F386138DB084F838300EF0F7FE94F877
:100DF0003820B4F840304748246102F079020027D7
:100E000084F838209121A3FB0002C4E902772770FF
:100E100001FB03213CA3D3E90023FFF7DBFDA26C18
:100E20003D4B651BA3FB053502F1090398428EBFBC
:100E300019463A4601466264616006460EF082FE3B
:100E40006369C5F3871500F10907002B41D00DF147
:100E50002C08CDF820800694B4F840302D4891211C
:100E6000A3FB000201FB03212C4B07932C4B0593A2
:100E70006368049302234FF000090B9322A3D3E984
:100E80000023CDF80C90FFF7A5FD104619464FF44E
:100E90007A720023FFF79EFD0235EDB2CDE90160C5
:100EA0000321CDF800903B462A4648460EF02EFD21
:100EB00041460FF05BFB40B994F84C3043F001031E
:100EC00084F84C300DB0BDE8F0830C200DB0BDE8C7
:100ED000F0830DF12C08CDE90A33616843460AAA74
:100EE000032000F06DFD0028B3D10B990D4806A337
:100EF000D3E90023A1FB0001FFF76CFD0A9B20F062
:100F00007F471F44A5E700BF8D49FD1A0700000079
:100F1000E01F0020002AE784CDCCCCCC45FC0000AB
:100F20009D20010000CA9A3B2DE9F0418468A28C03
:100F30004FF6FF739A428AB000F0CA8005462046F9
:100F400013F052F9AB7C012B00F0EA80022B00F089
:100F5000C28033B994F8563003F01803182B00F010
:100F6000228194F81C81B8F1000F40F0B880A68D62
:100F7000EB89E78D0136B6B2002B00F0B780A4F8FC
:100F800048812B7C03F00303012B00F0C480B4F8EC
:100F90004C31002B00F0CA80B34240F225819B1BEC
:100FA0009BB2062BA4F84C314FF000028CBF0023FB
:100FB0000123E285984694F83A2063F3820284F88C
:100FC0003A2031460DF12702204612F0E5FE74303A
:100FD00000F00481B4F846312BB1B34240F2D38023
:100FE0009B1BA4F84631B4F842312BB1B34240F216
:100FF000C3809B1BA4F8423194F89930E58D03F02F
:101000000101B8F1000F0AD1AF4200F0B180013503
:10101000ADB241B9002D5BD04146404642E00135BA
:10102000ADB200293DD094F8993094F9372023F0DF
:101030000103002A84F89930C0F2928094F83B00B2
:10104000C0F3C00100F0070016F00AF894F83B2046
:1010500094F83C1002F003030933C2F34002DB00B2
:10106000D340E28B02F23F12134401F00302093233
:10107000C1F34001D200CA40134418446A4A6B4B82
:101080000721E0FB0231184665A3D3E90023FFF7EF
:10109000A1FC616820F07F40814280F09A80411A73
:1010A00060600020A28C246903950023604DCDF878
:1010B00010800332CDE9011006940093D2B20121D1
:1010C000184605950EF03EFC10F0FD0F40F09080A4
:1010D0000AB0BDE8F0814FF03D0884F81C8141461C
:1010E00020460AB0BDE8F04111F0B8BC2B7C03F0FB
:1010F0000303012B0FD0B4F84831002B3FF447AF66
:10110000B34273D99B1BA4F84831B4F84C31002B7F
:101110007FF442AF02E00023A4F84C3100234AE7F9
:101120000023A4F84631A4F842311AE7E38C052BDA
:101130008BBF40F2E2424FF4FA725A4303FB0222A1
:10114000B4F84A3142F2107101FB0323013BB3FBB7
:10115000F2F39BB2A4F84C31002B7FF41DAFDDE716
:1011600094F83C00012100F0070015F07BFF6DE7CB
:101170000029ADD0454656E70023A4F84231204669
:1011800012F07EFE38E70FF0ADF90146002836D0A8
:101190000023A4F84631A38CC3801B23037100688D
:1011A0000FF072F91FE7218DB4F844218B1D9A428C
:1011B000C4BF931F5B1AB4F84011CCBF9BB2134657
:1011C000994220D0A4F84031A4F84231A4F8462135
:1011D000C7E66060081A1CD0002163E79DF827105D
:1011E000204611F03BFC73E7082179E73E2177E7C1
:1011F0000FF0CEF984423FF46BAF00DE68E70123C5
:10120000A4F84631EFE6B4F8461100297FF4A9AE00
:10121000DAE70DB1014645E7B8F1000FDCD157E739
:101220008D49FD1A0700000000CA9A3B8C49FD1A3F
:10123000A5230100000000002DE9F04F8FB0B0F8A9
:1012400018610D930446B0F8DC3090F83B000B9128
:101250001E44C0F3C001BDF86830BDF86C70BDF825
:101260006080BDF86490D4F8D4A00C9300F007001F
:1012700015F0F6FEE58CB6B2A6EB070B052D1FFAAE
:101280008BFB40F2098115FB0BF5ADB240F2E24B4E
:10129000B8F1050F40F2F48094F83C2094F83B102C
:1012A00002F003032833C2F34002DB00D34001F015
:1012B00003022832B3F5A47FC1F340014FEAC20212
:1012C00022FA01F238BF4FF4A473B2F5A47F2CBF09
:1012D0009B1803F5A47303F2D51318447A4A7B4B89
:1012E0000721E0FB023118464FF09613E361962385
:1012F000238473A3D3E90023FFF76CFB434620F05C
:101300007F4040F2E2420BFB05F102FB03FB4A1E69
:101310005A44B2FBFBF293B20BFB03F399426060B9
:1013200095B280F09F806848591AA1FB000164A320
:10133000D3E90023FFF74EFB20F07F408244B4F84E
:10134000DC20B4F81831BF1B3D44ADB213442B442C
:10135000A4F81831638D1A4494F837301544DB092A
:1013600065857CD10D9B5848A3FB000154A3D3E9AC
:101370000023FFF72FFB20F07F4501350C9BA4F8DD
:101380004A3159462046A4F82680A4F8289012F045
:101390002FFD4F4B218D5B44881DB3FBFBF39AB2AD
:1013A0009042A4F8442104D2C1F57F41FA310A44A5
:1013B00092B20B9BA4F8402113B10023A4F84C3146
:1013C0000221012017F038FB0022022106460120ED
:1013D0000DF072F93F494FF4AC7220460DF0F8F869
:1013E000C21C3D4B0093D7B2019453463A460121AB
:1013F00000200EF023FB10F0FD0F5CD1324830A32B
:10140000D3E90023ABFB0001FFF7E4FA1946334BA5
:101410000793334B089406940593636804934FF63F
:10142000FE7380460393104600234FF47A72FFF751
:10143000D1FA0095CDE9018053463A4601210020BA
:101440000EF064FA10F0FD0F33D166BB94F81A3138
:1014500043F0010384F81A310FB0BDE8F08F00DECD
:1014600000258BE71848C91AA1FB000114A3D3E992
:101470000023FFF7AFFA20F07F40AAEB000A5EE7F7
:101480004FF0961208F10103E261962222849BB28A
:101490000A204FF4FA7236E7013515FB0BF5ADB2B1
:1014A0004FF4FA7BF4E60122022110460DF004F914
:1014B000CCE700DEC9E700DEA0E700BFAFF30080A5
:1014C0008D49FD1A0700000000CA9A3B8C49FD1A9D
:1014D0007FC3C90130200020652301004D23010096
:1014E000CD640100000000002DE9F04F89B0CDE986
:1014F000020100209DF84C80BDF850A0BDF854B00A
:10150000BDF8589004921F4610F08EFE002800F09F
:10151000218108F00105044628460EF051FB002DFC
:1015200049D1636904F110020592002B4AD0666923
:10153000356896F82B00C0F3C00100F0070015F0E5
:101540008FFDF3899E4A00F2CF3003449D48072166
:10155000E3FB020198A3D3E90023FFF73BFA20F055
:101560007F40686094F84C1068F3420184F84C1096
:1015700094F8391067F30001DDE9022384F839108B
:1015800012990968A16112998988A1830499A4F824
:10159000249004F1100000910021FFF7E9FBA06402
:1015A00015F0DCFE002840F0D9802046FFF70CFC47
:1015B00009B0BDE8F08F06210DF01EF80028B0D16B
:1015C0001220F5E70EF048FF0590002800F0E380B8
:1015D00010F05CFF0546002800F0DA80143005F1B9
:1015E00010060DF0CBF9002840F0DB80032105F157
:1015F000180015F057FC286DA5F828B04FF6FF72BB
:10160000A5F826A0AA84002800F0C78005F14402AE
:1016100005F140010CF0FCFF95F83B2022F07F0221
:1016200042F0190285F83B2095F8562022F0070277
:1016300085F8562095F83C2001214FF0000B61F30E
:10164000020285F83C20C5F850B0A5F854B0A5F8C2
:101650002AB0C5F82EB005F1320015F067F895F8FC
:10166000372060F30502012185F837200DF11F00B6
:1016700015F018FC9DF81F10534A85F839B0A2FBED
:101680000102D20802EB4202A1EB820195F8372059
:10169000A5F818B102F03F0285F8372095F83A20F6
:1016A000A5F84CB1053122F0070240F2E24085F87E
:1016B000381085F83A20298D444AA5F84A9100FB54
:1016C0000AFA06205244A5F8480101F1060CB2FBC3
:1016D000FAF290B26045A5F846B1A5F842B1A5F876
:1016E000440102DD0638401A80B2A5F840012846C0
:1016F00012F016FB5146284612F07AFB4FF0000A12
:10170000059BC5F8203185F81CA111F0E7F895F884
:10171000542160F3020285F8542111F0E5F895F8A0
:10172000542160F3C50285F8542195F81A216AF313
:10173000410285F81A2105F19C0012F02BF94FF0B7
:101740009612C5E907226661C5E902AA85F800A0DC
:101750002D61EEE60C2009B0BDE8F08F65692B6CB9
:101760002BBB05F1340105F130000CF055FFE0B161
:101770002E682864D6F82001A8B10EF073FE30461A
:1017800010F08AFE00230320636109B0BDE8F08FEA
:1017900005980EF067FE07200AE705F14800286566
:1017A00034E700DE22E700DEE7E700DEE0E700DE08
:1017B000D7E700BFAFF300808D49FD1A0700000096
:1017C00000CA9A3B8C49FD1AABAAAAAA7FC3C901D9
:1017D0002DE9F04F0446037F406A8DB088461546D8
:1017E000C3F3401AC3F3C012E107238DADF82C30C8
:1017F0000A900AAB00F1CC809B880A98A277002758
:10180000A783A4F82330C4F81F00D8F800301E685E
:10181000EB8AE3842B8B2385B38C638515F0F0FD75
:1018200084F82C00D5F80090484610F03BFE39466D
:10183000A882E080484612F0EFFA20682146D8F8E6
:1018400004400EF015FEAA8A2768E2801C2323714B
:10185000BAF1000F40F09080534623772146384676
:101860000EF012FE95F82B00B5F816A0D8F80C7003
:101870004D4C40F2E243C0F3C00100F0070003FB0F
:101880000AFA15F0EDFB002202213F1A01200CF0AC
:1018900013FF304610F0A2FCA7FB044740A3D3E996
:1018A0000023054639462046FFF794F80196D8F8FC
:1018B00008303E49009120F07F46AA1C363BD2B248
:1018C0003344012100200EF0B9F810F0FD0F61D172
:1018D0004FF0000B012211465B46CDF800B0584690
:1018E0000EF078F8484610F0DDFD05462E482CA392
:1018F000D3E90023AAFB0001FFF76CF81946D8F8DA
:101900000830CDF81C90A3F13608294B0893294BD9
:10191000069340F272330993D9F804308246CDE938
:1019200004B3104600234FF47A72FFF753F8224BAA
:101930000722A6FB0331CDE902A002FB0611E01A43
:1019400067EB01014FF47A720023FFF743F8033588
:10195000EDB2CDE9006043462A46012158460DF01C
:1019600087FF10F0FD0F17D10122022110460DB0A4
:10197000BDE8F04F0CF0A0BE95F8273043F04003CF
:1019800085F82730281D14F01DFF0123288564E702
:1019900000DE31E700DE9BE700DEE5E7AFF3008025
:1019A0008D49FD1A0700000000CA9A3BC16401007E
:1019B000C5640100CD6401008D49FD1A00000000DE
:1019C0002DE9F04F91B0FF270B930B1D0A930023D5
:1019D000CDE90D33054616468DF833709B460893C6
:1019E0003C46984699460DF1340A0FAB0693644B7A
:1019F0000593644B03930EAB0020CDE900A30223B3
:101A00000F930490029033460DF1330229460EF0F5
:101A10004BF8022813D00F9BBBB9FF2C18D03368AA
:101A2000434515D0002F00F09180013FFF24FFB205
:101A30008DF83340D9E7294600200EF071F80F9B4E
:101A4000022BF8D00F9B002BE7D000DEFF2CE6D155
:101A50009DF83330FF2B49D0032BC6D1002010F066
:101A600029FD0028C1D090F93730002B25DA4368D2
:101A700009939DF83330032B15D0FF2CDDF834800B
:101A800007D0594640460EF05FF80A9B4B449842F7
:101A90002ED80E9BDDF824909DF833400893C34662
:101AA000D6F80080A1E7002010F004FD0028E4D063
:101AB00090F93730002BE0DA97E790F83B00C0F35D
:101AC000C00100F0070015F0CBFA2F4A2F4B00F2AF
:101AD00065400721E0FB0231184625A3D3E9002326
:101AE000FEF778FF20F07F430993C2E7FF2C2FD049
:101AF00027480721A9FB000301FB09311EA3D3E9F5
:101B00000023FEF767FF044600B13E34089B214ADC
:101B1000A3F57423A3F5107393421ED81C48072124
:101B2000ABFB000301FB0B3113A3D3E90023FEF74A
:101B300051FF089A184BA3FB022304EB93440B9B21
:101B4000044400201C6011B0BDE8F08F00DE6CE79B
:101B50006FF0090011B0BDE8F08F089B03F1E87346
:101B600003F5D43303F5A5730BF1FF3B0893D5E7D9
:101B70008D49FD1A0700000000CA9A3B00000000D2
:101B8000D1660100D566010000CA9A3B8C49FD1A56
:101B90008D49FD1ABFBDF07F83DE1B4300000000AE
:101BA0002DE9F043C668476873683D491A68D0F864
:101BB0000090A7F57423A3F510738B4283B0804681
:101BC00007D907F1E87707F5D43709F1FF3907F5A9
:101BD000A57773685168DD8ACDF8049006F110038B
:101BE00001AA0220FFF7ECFE00284ED10199A1EBDB
:101BF00009031B0237D4084649460DF0A5FF0346EA
:101C000028480721A3FB000201FB032122A3D3E9FB
:101C10000023FEF7DFFE34690444002C346109DB45
:101C200040F2E24305FB03F3A3422FD2E41AA3429E
:101C3000FCD33461D8F800301A48A3EB0903A3FBA6
:101C40000002072101FB032113A3D3E90023FEF7C0
:101C5000C1FE154BA3FB0737A0EB97402044306132
:101C600003B0BDE8F08348460DF06EFF03460D4813
:101C70000721A3FB000201FB032107A3D3E90023F3
:101C8000FEF7A8FE3469241AC7E73469002CD1D1C5
:101C900003B0BDE8F08300BF00CA9A3B000000001B
:101CA000BFBDF07F8D49FD1A83DE1B43000000009D
:101CB0002DE9F04F8DB0484E484D82460DF042FF61
:101CC000F16807460DF040FF7168F76040A3D3E963
:101CD00000230446A1FB0501FEF77CFE20F07F43B4
:101CE0009C4257D30DF12F010DF12E000EF02AFC6E
:101CF000DFF8E8803568A5FB085935A3D3E9002350
:101D000028464946FEF766FECDF818A004467068DE
:101D1000334B0593A0FB08012DA3D3E900234FF01B
:101D20000008CDE90788FEF755FE2E4BCDF80C8054
:101D300024F07F44A4FB033120F07F40072202FB04
:101D400004110490E81A69EB01014FF47A72002340
:101D5000FEF740FE9DF82FB09DF82EA0CDF8008034
:101D6000CDE901403B465A46504603210DF0CEFDD9
:101D700010F0FD0404D06FF08B000DB0BDE8F08FC3
:101D800019481A4A002326F089FC90B930690DB031
:101D9000BDE8F08F30680EA3D3E90023A0FB050156
:101DA000FEF718FE20F07F4138460DF0CDFE0746C5
:101DB00098E79DF82F209DF82E00009423460321DC
:101DC0000DF008FE6FF07300D7E700BFAFF300809F
:101DD0008D49FD1A070000009821002000CA9A3B97
:101DE000B16901008D49FD1AC8AB0020447B0B008E
:101DF00038B50F4D04460DF0A5FEA9680DF0A4FE00
:101E0000696803460B48B3FBF4F4A1FB00011C44D2
:101E100005A3D3E90023FEF7DDFD20F07F408442D7
:101E200094BF0020012038BD8D49FD1A0700000035
:101E30009821002000CA9A3B2DE9F041C46894F92A
:101E40002830002B8CB0C0F2A880636805460E468F
:101E5000002B40F0978094F8283023F0010384F899
:101E6000283016F0BFF9002016F0E0F900210846EE
:101E700016F0CEF908200022252116F035FA0120AF
:101E80000EF024FC002800F08F801C3016F056FA6B
:101E90005F4B0B930BA816F013FA5E4940F25B60A0
:101EA00016F0C2FA94F82800C0F34100253015F06E
:101EB000A3F85948214616F069F994F828309B0692
:101EC00002D46368002B5AD0962016F0DBFB002367
:101ED0001A461946184616F00DFBD4F800802F68F4
:101EE000404615F077F807446A6807F109010020B9
:101EF00016F0D4FB16F0A8FC16F06CFB204610F090
:101F000079F9811CC9B240463A4615F065F8804619
:101F100000284FD10EB9636BD3B963687BB12B68CE
:101F2000A3616B68E3613D4B646204F11801996041
:101F30000122022100200CF0F3FB002838D12046BA
:101F400015F016F8002831D100200CB0BDE8F08162
:101F5000334A0792334A059240F2F31200930892F3
:101F6000CDE90366CDE9016606943B463146012280
:101F70000DF0CCFC10F0FD0FCFD000DECDE716F059
:101F800019FBAAE7636893F82A30D90705D4636878
:101F900093F82A309A077FF55EAF2348214616F062
:101FA000F5F816F0EDF9CFE700DE6EE700DECBE7DF
:101FB00000DEC4E71D4A1E491E4840F2E5133AF010
:101FC00096FC1D4B0721A8FB030301FB08310EA360
:101FD000D3E90023FEF7FEFC1849024618483AF000
:101FE00086FC002585F31188BFF36F8F0323184605
:101FF00002DF1448214616F0C9F816F0C1F96FF057
:102000008B00A2E7AFF3008000CA9A3B00000000FB
:10201000D6BE898E55555500E9200000B80600202F
:10202000057401000D74010015710100648C050038
:10203000B08C0500C88B05008D49FD1A048E050083
:10204000B48C05009974010038B5044615F0F2F916
:1020500094F8283094F82820C3F34103013303F0A7
:102060000303032B08BF002363F3420214BF03F1F1
:102070002500252084F8282014F0BEFF63680BB1EA
:1020800023694BB90DF05EFDC11C002016F07AFBF0
:10209000BDE8384016F0D8BB16F0A2FB05460DF09F
:1020A00051FDC11C002016F06DFB16F0CDFB16F0A3
:1020B00097FB29460DF048FD094A03460721A0FB7E
:1020C000020201FB032104A3D3E90023FEF782FCF3
:1020D00023691B1A236138BD00CA9A3B0000000027
:1020E0008D49FD1A000000002DE9F0478AB0044632
:1020F00016F086F9C0B2002800F0E18016F0A0F9D1
:10210000054616F09FFA074616F0A6FA16F07CFA76
:10211000EDB2064616F05CFA14F0B8FF45B9B048C7
:10212000214616F033F80AB0BDE8F04716F028B99A
:1021300001200EF0CBFA8046002800F0D88194F8F8
:1021400028502B07C5F3C10AC5F3C00100F1BA80BE
:10215000F7B2626898F81C6006F00F03002A00F0DE
:10216000CA80626892F82A20900700F1C480072B89
:10217000D5D0002900F0AB80002B40F0BA8198F850
:102180001D30063B1F2BCAD804200EF09FFA0028F2
:10219000C5D016F061FB636B054643B9238E40F250
:1021A000712202FB03F3B0FBF3F203FB120522687A
:1021B0008C4B52680721A2FB030301FB023186A36B
:1021C000D3E90023FEF706FC6FF4427283181F3B2D
:1021D0004FF0000242F1FF32AB4272F100029ED397
:1021E00016F0E8F994F82860636816F037F908F1FA
:1021F0001E03019309AB0493C6F3801604F12A036E
:102200000296039398F81C30C3F3801301460546E9
:10221000002200932046012315F03CFA284616F0D0
:1022200093F816F0E3F8002840F0A88121466E48A4
:1022300015F0ACFF626892F82A3043F0010382F88F
:102240002A3094F8283043F0800384F828300EF0C8
:1022500057FA172303714FF6FF73C38098F81C20B9
:102260000646C2F340112B4600F11C0205F1200086
:10227000D3F800C05F689D68D3F80CE0C2F80CE0AA
:1022800010338342C2F800C05760956002F110021B
:10229000EED11B681360337FB46061F3451333776D
:1022A00016F09EFA099BC6E904030EF029FAF060C5
:1022B000306831460AB0BDE8F0470EF04BBA14F072
:1022C000E5FE2CE7FFB2002F3FF429AF40E794F87A
:1022D0002920C6F3801102F0010291420BD106229F
:1022E00008F11E0104F10800079355F0E8F9079B77
:1022F00000283FF441AF002B7AD198F81D20063A10
:102300001F2A3FF60CAF05F02102202A40F0CA80B8
:102310006268002A6ED19620079216F0B3F9079AE8
:10232000104616F09FF803200EF0D0F9054600285D
:102330003FF4F5AE0EF0E4F94FF6FF73EB800523A2
:102340002B71002F40F016817F226B7E2A7623F0BE
:1023500001036B76294628680EF0FCF916F07EF82A
:102360000278032161F30302027098F81C200178BF
:10237000C2F3801262F3C7110C220170427094F80C
:102380002820C9B2C2F3801262F38611024602F815
:10239000021BD4F82A10C0F80210E18D9180D8F801
:1023A0001E208260B8F82220828115F0CDFF16F041
:1023B0001DF8002840F0E48016F046FA94F8283022
:1023C0000A4843F00103214684F828300AB0BDE8EA
:1023D000F04715F0DBBE00BF00CA9A3B00000000CA
:1023E000B17401008D49FD1AA9750100C574010081
:1023F000062B82D0062B3FF692AE4FF0450929FA04
:1024000003F919F0010947D1012B52D0042B7FF4B5
:1024100086AE98F81D30063B1F2B3FF680AEEB07CB
:102420007FF57DAE16F01AF898F81C600278C6F3B6
:102430008013B3EBD21F7FF472AE0830062208F18E
:102440001E0155F03CF900287FF469AE98F81D3064
:10245000002B3FF464AE636823B106F00F06072E2D
:102460007FF45DAE03200EF031F9054600283FF4FD
:1024700056AE0EF045F94FF6FF73EB8005232B7136
:102480009FB97F206B7E287669F3000328686B76FE
:1024900029460EF05FF942E698F81D30063B1F2BE7
:1024A0003FF63DAE4FF00009D5E716F09DF8C0B2FB
:1024B000E8E798F81D300C2B7FF431AEC5F380159A
:1024C000B5EBD61F4FEAD61936D0BAF1010F7FF619
:1024D00026AEB9F1000F3FF422AE98F8293003F090
:1024E000C003402B7FF41BAE4FF00109B3E700DEC1
:1024F00025E6012B7FF47CAF98F81D300C2B7FF480
:102500000EAEC5F38013B3EBD61F4FEAD61926D013
:10251000BAF1010F1AD9B9F1000F06D098F8293095
:1025200003F0C003402B3FF42FAEC5F38015B5EB8D
:10253000D61F4FEAD619CCD1062208F1240104F1A6
:102540002A0055F0BCF80028ACD0BEE7C5F38015D2
:10255000B5EBD61F4FEAD6197FF4E1ADECE70622C2
:1025600008F1240104F12A0055F0A9F800283FF4ED
:102570000BAECDE716F038F8C2B2E6E600DE55E65F
:1025800000DE19E700000000F0B5C468A28A4FF62B
:10259000FF739A4285B000F0AD80054615F054F9FE
:1025A0002B89628B208C94F82710A3831A4492B253
:1025B000104480B2431C23840023638301F03F0353
:1025C0004906E28366D494F82810009304F12900A8
:1025D00004F1220314F0B8F80646204603A915F0CA
:1025E0006BFA039B94F846101A7861F3C3021A70D1
:1025F000039A94F846301178C3F3400363F38201E1
:10260000117015F0EFFD002015F010FE201D15F0E3
:1026100057FE2389A17A40F25B6043EA014115F03D
:1026200003FF304614F0E8FC0399204615F01AFA2F
:102630002146374815F0AAFDE08916F023F894F8F2
:102640002C0000F0070015F00DFF27682E683846B3
:1026500014F0C0FC064406F109016A68012016F076
:102660001DF816F0F1F8A18A03313246C9B2384696
:1026700014F0B2FC0646A0B1AB7A13F0020518D0F4
:1026800000252448214615F081FD15F079FE2846E5
:1026900005B0F0BD218D04F1220214F097F8064632
:1026A0009BE7204614F064FC58BB0025284605B083
:1026B000F0BD194A19491A484FF480733AF017F9D6
:1026C00018480721A6FB000301FB06310EA3D3E93E
:1026D0000023FEF77FF91449024614483AF007F93F
:1026E00085F31188BFF36F8F0323184602DF6FF065
:1026F0008B05C6E70E48214615F048FD15F040FE53
:10270000D3E700DED1E700BF00CA9A3B000000001B
:10271000C1790100F5700100E08C0500B08C050066
:10272000C88B05008D49FD1A188E0500B48C050074
:1027300015710100F8B5054616460C4659B93B4AD5
:102740003B48022139F0F0FC14222146304654F077
:102750009EFF0020F8BD374910683CF0B0FB28BB55
:10276000238A354A3248032139F0DCFC334B344AA2
:1027700003F11001104653F8046B42F8046B8B42CE
:10278000F9D11B781370238A2E49013308600B811D
:10279000284603230B740BF019F803460028D8D001
:1027A000294A2348012139F0BDFCD2E7306823498A
:1027B000264E3CF084FB238AC0B9254A1C480321DD
:1027C00039F0B0FC20463DF069FF1E49214B0B60FB
:1027D000238A308102330B81284604230B740AF0CC
:1027E000F5FF03460028B4D01B4ADAE71B4A10481D
:1027F000032139F097FC1A4B33600127238A738138
:1028000031462846B7810BF09DFC034620B110F1FC
:10281000780F01D0134AC4E7134A0548032139F061
:1028200083FC124B01221A7093E700BFC29E050081
:10283000A07F05004FDE0500079F05003EDE050076
:1028400033C80020509A0020309F0500389A00209D
:10285000629F0500640C0020929F0500C49F050044
:10286000852A0000EA9F050020A0050044C800203A
:10287000024A0348032139F057BC00BF46A00500B7
:10288000A07F05001FB50B4A0B493023CDE901237A
:1028900001A80023039307F0ABFC034638B1074AB5
:1028A0000748012139F03EFC05B05DF804FBFFF755
:1028B000DFFFF9E701006000BD2B00009DA00500CF
:1028C000A07F050070B5447814F00F0486B005466B
:1028D0000E4610D00F4A1048022106B0BDE87040E5
:1028E00039F022BC69681022214401A83CF014FB95
:1028F00028B91034E4B26B78A342F3D807E0074953
:1029000001A83CF0DCFA0028F3D10123337006B0B3
:1029100070BD00BFB8A00500A07F05004FDE050018
:1029200010B50446034A0448032139F0FDFB00209A
:10293000208110BDE2A00500A07F05002DE9F04137
:1029400000AF24F069FA49F09AF86D46044649F060
:102950009BF888B06A461A4B1A4E4FF40078CDE9BE
:102960000530ADF81C80184842F8106F4FF4E6515E
:1029700039F0F8FB012CAD461BD0A31EDBB2022BB5
:102980001CD8204649F080F888B06A460F4BADF855
:102990001C80CDE905304FF4E65142F8106F0A482B
:1029A00039F0E0FB0123AD46094A1370BD46BDE88E
:1029B000F081084A0448022139F0B6FB0023F3E70E
:1029C0000DA1050003000001A07F050025A1050061
:1029D00032C8002054A105002DE9F047082982B033
:1029E000044602AF154617D06C468AB002AA1E4BA9
:1029F000D161C2E90535082313624FF40073938453
:102A00001A4B42F8103F4FF43251194839F0AAFBE3
:102A1000A546BD46BDE8F0874668B0F90000FDF761
:102A2000E5FD1449FDF7EAFEFDF7CEFCB4F802A07F
:102A30000246CDE900A680460B460F4889466C4603
:102A400039F048FF8EB002AA0C4BC2E905354FF4AD
:102A5000007313860A4BC2E90889C2E90AA644F248
:102A6000C04142F8103FD0E78AA1050005000001EF
:102A7000A07F05000000C842C6A10500F1A1050025
:102A80000800000110B50846144619461AB9FFF7A8
:102A900047FF204610BD2046024AFFF79DFF012058
:102AA000F8E700BF1FA20500F0B591B0044600AFE3
:102AB0000D46F9B10146384608F08CFA6C468AB0EA
:102AC0006A46304B0795CDE905372F4B08932F4BBE
:102AD00009932F4B42F8103F2E484FF4415139F0E3
:102AE00041FB2D48A5463CF076FCFFF7CBFE443772
:102AF000BD46F0BD284B1B688342F8D107F1200585
:102B00000146284608F066FA6E4688B06A46234BAE
:102B10002048CDE905354FF40073ADF81C30204B4B
:102B200042F8103F4FF4E65139F01CFB1D4B1E4A92
:102B3000B54603F11000114653F8045B42F8045BFC
:102B40008342F9D11B781370184A194B53604FF622
:102B5000FF731160D38101250023114620461374B1
:102B600015810AF033FE034628B1124A0948294666
:102B700039F0D8FABBE7104A0648032139F0D4FAF5
:102B8000B5E700BF23A20500E5AB05000002020483
:102B900005000002A07F0500649A00204BA20500FA
:102BA000030000014FDE050033C80020509A0020CA
:102BB0003527000059A2050081A205002DE9F0414A
:102BC0001E4698B03F4B1B680C4600AF05461146A9
:102BD000002B54D1002A52D1212207F13C0054F09D
:102BE00056FD394907F13C02304605F09FF997F848
:102BF0003C30002B43D007F11C082946404605F025
:102C000081F897F83D30002B3DD007F13D036E462B
:102C10008AB06A462D492E48CDE907432D4B0993CA
:102C20002D4BCDE9051842F8103F4FF4435139F0D0
:102C300099FA97F83D30B546C3B1284C07F13D08E5
:102C400021464046FDF7E0FE80B18AB06A46244B3B
:102C50000794CDE90538234B0893234B42F8103FE6
:102C60001B484FF4225139F07DFAB54607F010FBAE
:102C7000034650B11D4A1648012139F053FA603716
:102C8000BD46BDE8F0811A4BC1E71A4B0FCB07F1E7
:102C90000C0484E80F00184A4FF0C873C7E90123F9
:102CA0002146084B3A1D284608F0EEF90346002855
:102CB000E5D0124A0648012139F034FAFFF7E2FD67
:102CC000DDE700BF649A00202DC10300AEA205001D
:102CD000A07F05000002020405000002F0A205002A
:102CE000FCA20500000201030400000253A305003A
:102CF000D7C50500608105001800280070A30500F5
:102D0000F0B589B000AF0C460146384608F062F9CC
:102D10006E468AB06A46104B0794CDE905370F4BD3
:102D200008930F4B09930F4B42F8103F4FF4435158
:102D30000D4839F017FA0D48B5463CF04CFB0C4BEA
:102D40000C4800211822197054F0A1FCFFF79AFDDD
:102D50002437BD46F0BD00BF94A30500E5AB0500D8
:102D60000002020405000002A07F0500649A002012
:102D700044C80020389A0020034B1B68834201D1CD
:102D8000FFF7BEBF704700BF649A00201FB5104A0E
:102D90001048114C032139F0C7F92068002308229C
:102DA0000DEB0201CDE9003315F0CCFF011E09DA6D
:102DB00002F062FE094B1B58094A0648022139F00D
:102DC000B1F9EAE7074A02A8FFF706FEE5E700BF08
:102DD000B8A30500A07F0500140300200C0000002C
:102DE000DEA30500F9A3050008B54FF0FF3308483E
:102DF0004FF0FF3225F052FC064B1B78012B05D11A
:102E0000054B1B68002B01DBFFF7C0FF08BD00BFAF
:102E10005C11002045C80020140300202DE9F0417A
:102E20002B4A07CA86B003AB83E807001E4600257D
:102E300056F8044B206845F019FF40B9254A26484A
:102E40002B46012106B0BDE8F04139F06BB9E288AC
:102E50002068217942F4B01239F049F9044648B1AA
:102E60001E4A00902B461C4801213AF04FFD06B047
:102E7000BDE8F0810135032DDAD1194E194F3378B1
:102E8000EBB9194B194D93F800801948002139F01E
:102E900071F93078154B0021884208BF3B4618462F
:102EA00039F068F9B8F1000F0ED00121284639F049
:102EB00061F9002143F2343046F062FBDFE70D4B4D
:102EC0003D4693F80080E0E784F001042146EDE7F9
:102ED0007081050000A40500A07F05001DA4050069
:102EE00045C800205084050044C8002048840500DF
:102EF0005884050032C800202DE9F04FAA4DAB4898
:102F000091B002AFA86245F0B1FE002858D1A84A9E
:102F1000A848012139F008F96FF01204A64AA54823
:102F20002346012139F0FEF80024A44B1C70002335
:102F30003B62A34845F09AFE002840F02781A14A51
:102F4000A14BE84688B0002C0CBF93469B4602AAD2
:102F50009E4B9848C2E9053B4FF400799C4BA2F880
:102F60001C904FF4E65142F8103F39F0FBF8C5468B
:102F7000002C40F05581204606F0EEFA0446002869
:102F800000F00781934A03468A48012139F0CAF8C4
:102F90006D468AB002AA904BD461C2E9053B4FF45A
:102FA000007313848D4B42F8103F82484FF4115147
:102FB00039F0D8F8AD4600203C37BD46BDE8F08F6B
:102FC0004FF47821A86A296007F1200243F0A4FE9B
:102FD000044630B1824A03460121764839F0A2F80E
:102FE0009CE77B6AEB60284602232B8200F02CFED4
:102FF0000446002892D1012307F1200219462846F1
:103000003AF0C6FB012803D197F82040012C0ED9D5
:10301000744A6848032139F087F801230024624884
:1030200087F8204007F12002194600F0B7FF6E4DE7
:10303000284645F01BFE28B96C4A5E48012139F04C
:1030400073F872E76A4A0B21284639F050F80646B1
:1030500030B1684A03460121564839F063F864E705
:103060002B697B60AB6807F120015B6828469847B5
:1030700028B97B683A6A18685040C0F3C02001281C
:103080007FF453AF84F00109002C3AD14D4BDFF8A7
:1030900038816D468AB002AA5749C2F81C80C2E93D
:1030A0000513564B1362564B42F8103F41484FF4FC
:1030B000235139F057F80123AD4619463A4887F8AD
:1030C000209007F1200200F069FF002800EAE0717B
:1030D0001BDA3C4A3C4B8AB0002C08BF134602AABC
:1030E0004848D36140F2013313843C4BC2E90501E7
:1030F00042F8103F2F484FF4115139F033F8AD46E4
:1031000013E7314BDFF8BC80C3E788B002AA3E4B1F
:103110002848C2E905384FF4007393832C4B42F8DA
:10312000103F4FF4E65139F01DF838480021AD4604
:1031300039F020F83648002139F01CF8354806F0FF
:10314000010139F017F840F65D700021013646F0B4
:1031500017FA062EF2D12F48002139F00BF8012082
:1031600000F00AFCB3689B6C23B107F12002042134
:103170003046984740F6CD40002146F001FA3B6AC0
:10318000002B7FF4DCAE013DECD1D8E60C4E1F25C0
:10319000F5E7214A0748032138F0C6FFFFF772FB25
:1031A0001E4825F03FFA06E7689A0020D07C05000B
:1031B00058A40500A07F0500BFA4050045C8002055
:1031C0000C7C05003DA5050048A4050031A60500BE
:1031D000030000013FA6050023A80500040000012C
:1031E00081A4050010A50500F07B05004AA5050097
:1031F0001100010078A50500B8A505000002010333
:1032000004000002E5A5050018A605004884050095
:1032100050840500588405005EA605005C1100205E
:103220008AB002AA6F4B53614FF6ED610F23C2E9DA
:1032300006136D4B136240F2024393846B4B42F8CA
:10324000103F4FF433516A4838F08CFF6948C54647
:1032500023F00EFE23F078FE044610B1664A0346C2
:1032600092E6664A6248032138F05EFF022111228D
:10327000084615F009FD624D0028064628600FDA61
:1032800002F0FAFB5F4D044643595F4A584801215A
:1032900038F048FF64596442002C7FF479AE7FE730
:1032A0005A4B7C630FCB07F1240C8CE80F00584B72
:1032B0003B62182207F12001304615F017FDA0B13E
:1032C00002F0DAFB4F4E04468359524A00934848B5
:1032D00041F2920301213AF019FB28683DF0EFFB1F
:1032E0004FF0FF33A4592B60D5E74FF0140A2B6839
:1032F0007B605246214607F10C0054F0C8F9464E57
:1033000007F10C02314602203DF0DBFB012818D00A
:1033100088B002AA414BA2F81C90C2E90536404B86
:1033200042F8103F32484FF4E25138F01BFF6FF083
:103330001504C54628683DF0C2FB4FF0FF332B60F3
:1033400026E6FC61CDF800A0786807F10C03524630
:10335000292115F02DFDE0B102F08EFBDFF8A4A0CD
:103360008AB050F80A30044602AA2E49D3612E4B87
:10337000A2F82090C2E905161D4842F8103F4FF40C
:10338000115138F0EFFE54F80A40C546A4B164422A
:10339000D0E78AB002AA254BA2F82090C2E90536F0
:1033A00041F29203D361204B42F8103F10484FF492
:1033B000135138F0D7FEC5466C468AB002AA1C4BA2
:1033C0000B48C2E9053641F29203D3614FF4007312
:1033D0001384154B42F8103F4FF4135138F0C2FEDE
:1033E000A546DDE674A60500B3A6050005000001AC
:1033F000A07F050008030020BDA60500F9A6050072
:10340000140300200C00000024A705006C8E0500AA
:10341000020010924BA705007BA7050086A70500B8
:1034200003000001ADA7050004000001DCA70500B2
:10343000FBA705002DE9F84F8A4600AF002974D09C
:1034400004680E1F361BF50826F0070604EB060875
:10345000B8F802B01BF0010B16D1E94688B06A46F5
:10346000334BCDE90531032342F8103F31485B4629
:103470004FF4C25101F076F9CD468BF31188BFF3BA
:103480006F8F0423184602DF2946204638F085FE58
:10349000284434F83030C01A854217D0E94688B045
:1034A0006A46254BCDE9053A032342F8103F2148EF
:1034B00000234FF4C25101F055F90023CD4683F3A8
:1034C0001188BFF36F8F0423184602DFB8F802306B
:1034D00023F00103A8F802302946204638F05DFEAB
:1034E00005EB000804EBC8035B88DA0708D4414603
:1034F000204638F09BFE42462946204638F0DBFE47
:10350000A65BAE1B04EBC6035B88DB0709D4314620
:10351000204638F08BFE2A463146204638F0CBFE56
:1035200035462946204638F03DFEBD46BDE8F88FB9
:10353000B7A80500988005008EA8050008B50248C8
:1035400039F0C8F9002008BDE4A805000E4A9042F1
:10355000034602D30D4A904211D30D4A22B1934241
:1035600002D30C4A93420AD30B4A52B10B4883420E
:1035700034BF01200020934238BF00207047012053
:1035800070471046704700BFB07A05000CE3050095
:10359000000000000000000000000000000000002B
:1035A0002DE9F04F9BB000AF0446D7F890A0FA6326
:1035B0007B638B4649B903784678807800EB8300BB
:1035C00020445E4522D8A0EB040B0AF0010394F8D6
:1035D0000280FB62E3783B63B8F1000F0CBF4FF051
:1035E00000090AF0010913B11AF0020F17D1B9F15D
:1035F000000F14D1FB6B1BB17A6B594620469847DC
:103600005D4628466C37BD46BDE8F08F451C284610
:10361000FDF70CFA013028440BF1010BD1E7CAF396
:10362000C003FB612378BB629B00BB6163683B62A4
:10363000BB6A04EB8301FB6B002B7DD15D468844A4
:10364000B9F1000F1DD0A94E8B4699461BF8013BDE
:1036500054F82300002808BF3046FDF7E7F9D7F8F3
:10366000943001304BB1D7F898304B4582BFD7F832
:10367000943023F8190009F10109C3450544E5D147
:10368000D8461AF0050F0AF002030CBF4FF0020BE8
:103690004FF0010B0026FB633B6B9E42B1D298F8C2
:1036A000013054F823A05046FFF750FFFA6908F1A3
:1036B0000208034602B3B86318F8021C386A39F0EE
:1036C000E8F8BB6BC0B1EA468AB06A46884B0593FE
:1036D0003B6ACDE906314FF40073ADF82030854BDD
:1036E00042F8103F844800234FF4125101F03AF899
:1036F000023DD5460136CFE723B1FB6A2BB9A5EBD6
:103700000B05F7E7FB6B002BF4D07848BAF1000FFC
:1037100018BF5046FDF78AF9D7F8943053B1D7F85F
:10372000983099453FBFD7F89420431C22F81930B0
:1037300009F101090544DDE7B9F1000F6CD04346FA
:10374000102B28BF1023BB6397F8389007F148006F
:103750000026BA6B796253F073FF796A00227A62AD
:103760000AF0020201EB08033A610AF004027B61ED
:10377000FA6002337A6A396B8A4266D36378F96AEF
:103780007B621AF0020F4B44DBB20CBF72080022BE
:10379000002940F0A9801AF0040F14BF314600211F
:1037A0006370A170E270B9697A6BFB6B2046984731
:1037B000051EFFF626AFBB6A23707B6A63703B6B06
:1037C000E37031467A6BFB6B84F8028007F1580096
:1037D0009847061EC0F2C4803A6BBB69386B03EB96
:1037E0004203ABEB0301D7E90D23C91A7B6903EB55
:1037F0004000FB6B98470028C0F2B4802E44351877
:103800004FF0000807F1480AC84577D300217A6BCA
:10381000FB6B08469847F4E6B8F1000F0CD01AF09D
:10382000040F0ED04346102B28BF1023BB6397F81C
:10383000386007F158008CE7C7F838804646C14623
:103840008CE7C7F838804E4688E713F8015C13F818
:10385000021C54F82500BB60FFF778FE0246F869A9
:10386000BB6838B1386AC7E9013239F012F8D7E9D4
:103870000132F0B912B3FA6A72B1B9F10F0F18D868
:1038800009F1280107F14000014409F1010201F8A2
:10389000205C5FFA82F90CE0FA6852B10F2E08D86A
:1038A00006F1280107F14000721C0E1806F8105CA2
:1038B000D6B27A6A01327A6202335BE73A69002A49
:1038C000DBD10F2EF5D806F1280007F1400C60443B
:1038D000721C00F8101C07F1680151FA82F20236DE
:1038E000F6B202F8105CE4E7002159E720A90500D0
:1038F00027A90500040000011880050018F80A3007
:1039000087F8473054F823B0D7F8943033B3D7F85A
:103910009830984522D2D7F8943033F818607A6BF3
:10392000FB6B012107F14700984700281ADB0E4B7B
:103930000544BBF1000F08BF9B4626B95846FDF76A
:1039400075F8461CB6B27A6BFB6B31465846984701
:10395000002807DB054408F1010855E70026DEE7EB
:1039600035464EE605464CE620A90500014B186099
:10397000704700BF1803002008B50446EFF3118319
:10398000202383F31288BFF36F8F1EF0EBF92046DC
:1039900002F076FC024838F09DFF3AF00AFAFCE7A4
:1039A000DBA905002DE9F047858B0446280717465B
:1039B0000CD501290CBF45F0100545F02005A58365
:1039C00087F31188BFF36F8FBDE8F087022905F0F8
:1039D000070540F09480204639F01CFA052864D889
:1039E00001A353F820F000BFC1390000FF3A0000E6
:1039F000AB3A00006D3A0000873A0000993A0000A7
:103A000001F007035A1F012A1FD8002221F00701E5
:103A1000062BD4F8008089B2C4E9002209D14346BC
:103A200003E0E28B0132E2831B68002BF9D141F005
:103A30000201A183204639F0EDF94FF0000900287A
:103A40006DD041F02001A18369E0042B0AD121F05F
:103A5000070189B2A183204639F0DCF910B141F0A9
:103A60002001A1834FF00008C14658E02369D3F834
:103A70000090A38B23F0070343F00603A3834FF0CA
:103A8000000846464BE02369D3F80490A38B23F04B
:103A9000070343F00403F1E72369D3F80890A38BED
:103AA00023F0070343F00503E8E74FF00008C146A1
:103AB000E7E7012243F00803A38387F31188BFF3EC
:103AC0006F8F002A3BD1B8F1000F4AD1B9F1000F36
:103AD00002D02D492046C847EFF31187202383F3F6
:103AE0001288BFF36F8FA38B23F008039BB2A383CD
:103AF000D9063FD523F01002A28303F00705A6697B
:103B0000A18B002EBFF67CAF0023D4F8008021F0FB
:103B10000701C4E9003341F00101A1839946A38B59
:103B200003F0070AAA4502D0A268002AC1D1B8F161
:103B3000000F02D1B9F1000FDAD00022BAE7A16874
:103B40000029C0D00D680029BDD04F6833465246C9
:103B50002046B8471DB12B6829461D46F3E72B4682
:103B6000FAE74146334652462046D8F8008039F0FD
:103B70007DF9A8E79A067FF523AF23F02002A28300
:103B800003F0070527E700BF99CE030037B50446C9
:103B90000821C06A124D39F0F7FB00234FF6FF727F
:103BA000ADF804306368ADF800208DF80620E268B7
:103BB00019182B401344181A60606846ADF80210BB
:103BC00039F03AFB6946204639F0FDFB211D2046BD
:103BD00039F00AFB63682B40A36003B030BD00BF1F
:103BE0000000FFFF2DE9F7430F4681460821C06A18
:103BF000144D39F0C9FB3C68241A80463C6004EA45
:103C00000506B4421CD3A0B210B903B0BDE8F083DE
:103C100008236A462146484639F0ADFA0028F4D117
:103C20006946A0B239F09CFB38B1BDF80230BDF84E
:103C300004203C602E4013441E44A4EB0804E0E73B
:103C40000020E2E70000FFFF2DE9F04704468AB0BC
:103C500000F11407384645F005F9A06A8368DB686F
:103C60009847E06250B99F4A9F48012139F0C9FA4C
:103C70006FF0150528460AB0BDE8F087A06A836892
:103C8000DB6898470368013B1F2B01D9974AEBE794
:103C9000E368B3F5803F08D94FF480320092924830
:103CA000934A012139F032FEE2E7A06A216807AAAF
:103CB00043F032F808B18F4AD6E7E5682DB1089B8A
:103CC000B5FBF3F203FB12550DB18B4ACCE7238A07
:103CD000012B01D8894AC7E7E36A029593F805806A
:103CE0004FF0FF334FF0FF32384624F0A5FBE06A77
:103CF000082139F049FBA9460646238A1FFA85FAAE
:103D0000534544D8238A4B4500F02D8153450BD1B0
:103D1000029908234246891B204639F03AFA18B91D
:103D200002A9204639F060FA02A92046FFF75AFF9F
:103D30000546002840F0B280029961604FEA1149BF
:103D40004FEA0949C4F80890A3688B420DD80823AC
:103D500003AA204639F00FFAB8B903AB13F8012BC8
:103D6000904532D101300828F8D1636802A96FF379
:103D70000F032046029339F037FAE368029942466E
:103D8000204639F006FA00283CDA054686E0E1686C
:103D90002B04891B13FA81F1424608232046029125
:103DA00039F0F7F978B102A9204639F01DFA09F186
:103DB000010902990823424620461FFA89F939F081
:103DC000E8F900289ED0013597E7A08803A939F0CB
:103DD000C7FA626810B9911B6160B5E7BDF810A021
:103DE000BDF80E10E06AC4F80890514439F0CCFADE
:103DF00048448242A060EED1BAF1000FEBD06FF0E0
:103E00001C054BE000F08B8063684FF6FF7906EBF2
:103E10000308E368CDF808801FFA88F29B1B9A42DA
:103E200023D3374A3048032139F0EBF96168204643
:103E300039F0E9F9014680BB6368324AE068134013
:103E40000344A3EB460363601340A360204639F0AC
:103E50005BFB002899D1E368A288A3EB46039A4252
:103E60001CD1204639F0CCFA8FE7082305AA414639
:103E7000204639F080F9002887D105A91FFA88F07B
:103E800039F06EFA38B1BDF814304B4503D1BDF8A6
:103E90001830002B6AD0B044BBE70D46384624F0FA
:103EA0003DFB002D7FF4E6AE0123A374E268238A74
:103EB0000D4800920321144A39F028FD63689AB234
:103EC00000920948114A1B0C032139F01FFDA36819
:103ED0009AB2009204480E4A1B0C032139F016FDD9
:103EE000C8E600BF23AA05004080050045AA0500DA
:103EF00062AA05008BAA0500A3AA0500B7AA0500BF
:103F000029AB05000000FFFFDAAA0500F1AA0500B1
:103F100003AB0500E26AA36812681344A360D4E906
:103F200001318B4208D95B1A4246204639F031F9FB
:103F30000028FFF62AAFEDD16168E36801EB460285
:103F40009A4288D1124BA06801EA0302904282D0C3
:103F5000204639F058F900287FF417AF62680C4BFF
:103F60001A40A26077E76FF02C0597E7094A0A48E4
:103F7000032139F046F9636802A96FF30F03204665
:103F8000029339F031F90299204639F03CF960E7A3
:103F90000000FFFF14AB0500408005002DE9F04F45
:103FA0001E46837C95B004468946904653B96B4AB9
:103FB0006B48012139F025F96FF00C05284615B042
:103FC000BDE8F08FC26A0821104639F0DDF9B1B2C0
:103FD0000190104639F0D8F9E368019AA3EB820307
:103FE00083420746C0F0B6801EB1B8F1000F00F062
:103FF000B180D4F804A0CDF810A005AA04A92046E9
:1040000039F038FA05460028D8D1BDF814304B45B0
:1040100007D0DDF810A063685345EED1002E39D1EA
:10402000CCE705A91FFA8AF039F09AF90028F0D0F8
:10403000BDF8183066B3B3422CD14FEA1A43BDF82D
:1040400016A0CDF800801B049A44E36A1B685B420B
:1040500003F020030293B346029B5B4528BF5B46F7
:104060000CAA51462046039339F085F800284DD11B
:10407000039B00981A460CA953F021FB50B9039BEF
:10408000009ABBEB030B1A449A440092E4D195E7E3
:10409000002B93D0002F3CD1BA4604F1140B4FF003
:1040A000FF324FF0FF33584624F0C6F9238A9D4271
:1040B0004DD0D4E901320AEB02018B422ED39BB2E0
:1040C00063B3FF23ADF81E20002118220CA88DF841
:1040D0002230ADF81C90ADF8206053F0D8FA0CA94E
:1040E0002046CDE90E8639F059F9074648B907A8A8
:1040F00039F0A2F807A9204639F065F9074600B95A
:104100003746584624F00AFA3D4657E7C2DC0546D2
:1041100054E7019B1F441FFA87FABEE72046FFF7CA
:1041200035FD3DB9ADF82490CDF82880ADF82C6070
:104130008DF82E5009A9204639F0E6F907460028E7
:10414000DFD19DF82E300135002BAFD0D8E76FF0CE
:104150001B07D6E76FF0150530E700BF0FAA050073
:10416000408005002DE9FF471E46837CBDF8309056
:1041700004460F4690464BB92848294A012139F098
:1041800040F86FF00C0004B0BDE8F087C06A082169
:1041900039F0FAF8E368A3EB4003B3423AD3656819
:1041A00001954FF0000A02AA01A9204639F062F9F0
:1041B0000028E8D1BDF80830BB4206D102A9A8B258
:1041C00039F0CEF850441FFA80FA019B62689A4297
:1041D00019D0CA4515D9BDF80C30C3B1CA4516D39C
:1041E000BDF80A10B3426FF30F0528BF33464246AD
:1041F0002944204638F0BFFF0028C4D1BDF80C0088
:10420000C1E71D46CFE7BDF80830BB42E3D06FF0F1
:104210000100B8E76FF01500B5E700BF408005006A
:104220000FAA05002DE9F047DFF854800446074641
:104230004FF0010994FAA4F5B5FA85F509FA05F3EA
:104240002E0108EB05156FEA030A24EA03042B7B11
:1042500063B158F806301B696BB946440422736891
:104260002846196807EA0A0739F0CDFA002CE1D18F
:104270003846BDE8F087284698470028F6D1ECE795
:104280004881050010B50F490F4888B0002245F05D
:1042900032FA00220023CDE9062300240E23CDE9C3
:1042A0000334CDE90144094B094900944FF44072AD
:1042B000084824F0A5FD0849064845F05FF8204667
:1042C00008B010BDDD420000781A00200D46000045
:1042D00028E40020E815002057AB0500014824F031
:1042E000A1B900BF141100202DE9F04780462148F4
:1042F0000F4639F068FA0646002833D000252846D4
:10430000BDE8F087237B83B12368DB680BB12046CF
:104310009847636883F8069023681B69D3B963687C
:1043200004221968204639F06EFA013610345445DB
:10433000E8D3B8F1000FE2D0002DDFD02846FFF718
:1043400071FF0546002FF7D000214FF4A47045F00F
:1043500017F9F1E7204698470028E0D009FA06F35C
:104360001D43E2E7044CDFF814A005464FF00109B5
:10437000DDE700BFA89A00204881050058810500AC
:10438000014B53F8200070477484050008B50346BC
:1043900008462BB1044A136000F056FC002008BD0B
:1043A0006FF01500FBE700BF1C03002010B5044CA4
:1043B000237813B9034824F035F90123237010BD85
:1043C00046C800201411002010B504460B4839F0EF
:1043D000FAF95CB1BFF35B8F094B53E8001F013959
:1043E00043E80012002AF8D1BFF35B8F054825F09F
:1043F0001FFB0548BDE8104024F014B9A09A002026
:10440000A49A0020781A002014110020064BBFF354
:104410005B8F002253E8000F43E800210029F9D107
:10442000BFF35B8F704700BFA09A002070B5FFF705
:10443000EDFF084C084E0546B44200D370BD6368DA
:104440005B792BB123685B6813B1294620469847F6
:104450001034F1E7488105005881050010B5044C7F
:104460000449204638F050FB034B1C6010BD00BFD0
:10447000680E002060840500989A00200D4A0E48BE
:10448000002310B513700D4A13600D4A4FF400411C
:104490001360FFF77BFFFFF7E1FF0A4B0A4918465D
:1044A0008B4200D310BD1A1A5C68121101322271BE
:1044B0001033F5E747C80020C3D70300A09A0020B7
:1044C000A49A002048810500588105000146002279
:1044D0000148002338F039BB680E0020014838F04D
:1044E000D0BB00BF680E0020024B0146186838F0B0
:1044F00023BC00BF989A0020014838F058BC00BF88
:10450000680E002070B52A4B1B78002B4ED0FFF7A9
:10451000E5FF0446002846D1264B274D1B68002B9B
:1045200019DD45F0A0F84FF47A76A0FB063206FBC1
:104530000121D5E90020DB0B43EA41439B1A4FEAF6
:10454000D13140F2E93261EB0001934271F1000197
:1045500001D3FFF76BFFD5E9003213F57A7342F10F
:104560000002C5E900320CB3BDE87040FFF7C4BFDC
:104570006B685B7923B12B6821461B6828469847F6
:104580001035B542F4D32046FFF7AEFFBFF35B8F83
:104590000A4B53E8001F013943E80012002AF8D102
:1045A000BFF35B8FB8E7064D064EEAE7002070BD0B
:1045B00046C80020A09A0020701A0020A49A00206B
:1045C000488105005881050070B50D4D297861B905
:1045D0000120FFF789FE0B4C0B4EB44206D3FFF7C8
:1045E00091FF0028FBD101232B7070BD63685B79BC
:1045F0001BB1236820469B6898471034EDE700BF45
:1046000047C80020488105005881050000212DE998
:10461000F8430846FFF768FE044648B340F267686F
:104620004FF0000901F028FA1A4B1B4A1B5813607F
:1046300033B11A4B1B68092B02DD194823F0F2FF36
:10464000184F002544B12046FFF7ECFD044618B989
:104650004FF0FF384FF0FF39FFF754FF064628B9F7
:10466000B5B90F4842464B4624F018F83546E9E7FD
:104670004FF0FF384FF0FF39D4E72B689B691BB12F
:1046800000221146284698471035BD42F5D3E8E789
:10469000054DFAE7080000009C9A0020A49A00202B
:1046A00014110020588105004881050013B51848F1
:1046B00039F089F8174B1B7873B1EFF3118420237D
:1046C00083F31288BFF36F8FFFF71CFF84F3118809
:1046D000BFF36F8F02B010BD0F4B1B68002BF9D0DA
:1046E00050B900220023CDE900230C484FF40042CA
:1046F000002325F077F9EDE70928EBD1074825F0ED
:1047000097F9074802B0BDE8104023F08BBF00BF07
:10471000A49A002047C800209C9A0020781A002004
:104720001411002010B5064B1B680446984721461B
:10473000A060044838F086FABDE81040FFF7B6BF25
:104740001C030020680E0020044A054B9B1AB1EBA5
:10475000D30F34BF52F8310000207047987F050016
:10476000488105002DE9F04F8FB004AFC1F34A2610
:10477000B8600D4690467B600C0D002E61D04FF066
:1047800000090A234FF0040B07F1140AFE60C7E981
:104790000799C7F824900093CDF808B0CDF804A08D
:1047A00007F11C03F9684A464046FEF7F9FEB0F5EA
:1047B000006F03461CD36C468AB0D8F8041004ABD3
:1047C0002448C3E9050140F2FF71D9611A464FF44C
:1047D00000711984204B42F8103F20484B464FF49B
:1047E0001251FFF7BFFFA5462C37BD46BDE8F08F3D
:1047F000C0F30A0604F11700184420F007008008EF
:104800003B60FFF763FE66F35325044680B13B68C7
:10481000134A00F11001C7E90839F961CDE901AB8C
:104820000A230093F96807F11C034046FEF7B8FE1F
:1048300066F353257B68B9682A46204639F003F8A9
:10484000D2E704F1170020F007008008FFF73EFED2
:104850000446EDE76CAB0500040000015080050044
:1048600019D803002DE9F04F87B0DDE9127ADDE9B0
:10487000106B0546884614469946BFB11021CDF805
:1048800000A03B465A460020CDF814A037F028FE81
:10489000B0F5006F01460BD3194A1A4840F2FF7376
:1048A000022107B0BDE8F04F39F026B83946384646
:1048B00004F0070305F00704E40044EA831444EA23
:1048C000402444EA065406F11700084420F007008B
:1048D00080080391FFF7FAFD054640B13FB1039907
:1048E000CDF800A03B465A46103037F0F9FD4B4654
:1048F00022464146284607B0BDE8F04F38F0A3BF36
:10490000ABAB050050800500406820B1034BC01AD6
:1049100040F3CF0070474FF0FF307047987F05009D
:104920000EB403B503AB014653F8042B04480193BE
:1049300001F000FA02B05DF804EB03B0704700BF6D
:104940005BD90300CA0605D48B064CBF0249034954
:10495000FFF7E6BF704700BFE4AB0500E3AB05001F
:104960002DE9F04F8BB09946179B0793DDE918A30B
:104970009DF858801A9F069204460D460593B8F19B
:10498000000F00F0BF80844B13F80830089307F441
:104990008073099338F035FF07F0020B02460028B8
:1049A0007DD07E492046FFF7BBFF0646BBF1000FD6
:1049B00008D017F0440F74D179492A462046FFF7F2
:1049C000AFFF064407F0010353B1764B764953F825
:1049D0002820764B2046002A08BF1A46FFF7A0FF82
:1049E00007F48073002B07F0080318BF4FF000098D
:1049F000002B00F082806E4B6E4953F82820204631
:104A0000FFF78EFF0546069B2BB16B491A462046E1
:104A1000FFF786FF0544B9F1000F0DD0089B002B6E
:104A20006ED06649664BB8F1040F18BF19464A4666
:104A30002046FFF775FF054462483544079B1BB1CC
:104A40006149224637F0F4FE059B002B00F0908070
:104A5000DDF814903946B9F1100F204628BF4FF009
:104A60001009FFF76FFF0026B54252DC00263346DF
:104A70001AF8032055492046FFF752FF0136102E41
:104A80004DD0710703D152492046FFF749FF4E45EB
:104A90003346EDD34F492046FFF742FFEEE7064687
:104AA00084E74D4B186800288BD04C4B4FF47A7B31
:104AB0001B68B5FBF3F54FF46163B5FBF0F100FB48
:104AC00011550BFB05F54FF03C0CB1FBF3F203FB6A
:104AD0001211B5FBF0FEB1FBFCF300FB1E550CFB05
:104AE00013110BFB05F50091B5FBF0F53C49CDE941
:104AF00001E52046FFF714FF63E707F0080582E7AA
:104B00002F4994E7B9F1010F0CBF2E4835484546AF
:104B100094E72F492046FFF703FF0136A4E7324907
:104B200020460026FFF7FCFE33461AF803202F49E3
:104B3000A2F120035F2B28BF2E222046FFF7F0FEB4
:104B40000136102E0DD0720703D121492046FFF700
:104B5000E7FEB1453346E8D81D492046FFF7E0FEA1
:104B6000EEE7059BB3EB0903CA4405937FF470AFEE
:104B7000B8F1000F0AD0FB0704D50C4A0A492046B9
:104B8000FFF7CEFE39462046FFF7DCFE20460BB08D
:104B9000BDE8F04F38F0D4BE88DE0500F4AB050068
:104BA000F8AB05008484050035BE0500E6AB0500C2
:104BB000988405001EAC050024AC0500EBAB050095
:104BC000EFAB05005BD90300355D000028AC0500A4
:104BD00030AC05002EAC0500B09A0020AC9A002045
:104BE00002AC050091D9030032AC050034AC0500DD
:104BF00073B542F20F738B4228BF0B4605680F4A0C
:104C000004460521684636F01FF963680C495B6865
:104C100006460B22284638F085FE63683246694610
:104C200028465B6838F07EFE636806495B681B2295
:104C3000284638F077FE02B070BD00BFECB3050027
:104C40007CDE050060DE0500074A0021012390425A
:104C500006D8064A01B901231360054B1860704756
:104C600040085B000121F2E740420F00AC9A0020AF
:104C7000B09A0020F8B5074F0D4604464618B442D6
:104C800001D12846F8BD14F8011BBB6801485B68D8
:104C90009847F4E70C7C0500014B03600020704747
:104CA000E084050070B5104B1C680D46B4B10F4B85
:104CB000196800238B4202DB6FF0010070BD2246B1
:104CC00012F8106B864202D001331446F2E7E06816
:104CD00043F0CCFF28B12C600020EFE76FF00C0010
:104CE000ECE76FF01200E9E728030020E0840500FC
:104CF00010B588B0436802938368C068CDE9033279
:104D00000A680023CDE906230C4601AA044905934D
:104D100042F006F8079808B9059B236008B010BD5B
:104D20008BDA0300B0B582B03F49404802AF39F09A
:104D30001EFA0446A8B16D468AB002AA3C4B5361E4
:104D40003C4BC2E906344FF4007313843A4B42F8EB
:104D5000103F3A4800234FF41151FFF703FDAD46D1
:104D600032E03749314839F002FA044630B16D4635
:104D70008AB002AA2E4B5361324BE2E732492B48EC
:104D800039F0F5F9044630B16D468AB002AA284BD5
:104D900053612E4BD5E72E49244839F0E8F90446F3
:104DA00030B16D468AB002AA214B5361294BC8E746
:104DB0000146294A1D4802F077FC044638B1274ACB
:104DC0001E48012138F08FFD2046BD46B0BD024689
:104DD00023491648012302F05DFD044608B1214A2B
:104DE000EEE701230093014602231048EF2239F039
:104DF0003BF904460028E7D10C4801F0ABFA044621
:104E000030B16D468AB002AA094B5361164B98E740
:104E1000064801F0DFFA04460028D5D06D468AB076
:104E200002AA124BF1E700BFA00300203C140020AF
:104E30006DAC05008AAC050004000001208005006F
:104E4000880300209EAC050070030020B6AC05006E
:104E500058030020C9AC05002C030020D7AC050086
:104E6000F3AC0500FDAC050018AD050027AD05004D
:104E70002DE9F0410C4B1C6805460E4617467CB1E7
:104E800000F0EEF863682046D3F8108032463B46C7
:104E90002946C047044600F0EDF82046BDE8F08101
:104EA0006FF00104F9E700BFE09A002000230360DF
:104EB000044B5A6812B9C3E900007047106058608B
:104EC000704700BFE49A0020014B1860704700BF94
:104ED000E09A00201FB5CDE90101039200F0C0F86F
:104EE000074B1C6824B900F0C5F8204604B010BD7B
:104EF000636820461B6801A998472468F2E700BF51
:104F0000E49A0020024B0022C3E90022704700BF50
:104F1000E49A0020024B0022C3E90022FFF7F2BF0F
:104F2000EC9A00202DE9F74307460C4609B100230F
:104F30000B601F4DDFF87C9000264D450FD31E4BB4
:104F40001D6885B355F8188C01AA41463846183DAE
:104F500038F009FE10B3D6B914BB2E461EE0D5F8C2
:104F6000008001AA4146384638F0FDFD50B116B91F
:104F700054B92E4606E031680022404638F0F3FD71
:104F80000028F5D11835D8E7019B2360F1E7316897
:104F90000022404638F0E7FD0028DDD1AD69D0E7BA
:104FA000019B2360D9E7304603B0BDE8F08300BF22
:104FB0005881050058810500EC9A00202DE9F04742
:104FC00084B002AF0446D7F8289078600D461646A4
:104FD0009846B9F1000F07D0D9F8001031BBD9F8C5
:104FE00004A0BAF1000F28D1391D2046FFF79AFF1F
:104FF00008B3D0F80C907868434632462946C84733
:10500000C8B16D468AB002AA124BD061C2E905341C
:105010004FF400731384104B42F8103F0F480023E5
:105020004FF41151FFF79EFBAD4604E03A1D38F0F6
:105030009AFD0028D3D1002007E0D9F8083000936A
:105040007868434632462946D0470837BD46BDE812
:10505000F08700BF4FAD050004000001A8800500E7
:1050600003484FF0FF324FF0FF3323F0E5B900BFA4
:105070009C100020014823F051BA00BF9C10002072
:1050800038B5094DFFF7ECFF2B785BB9FFF742FF0E
:1050900000F06AF8044608B901232B70FFF7EAFF15
:1050A000204638BD0024F9E748C900202DE9F04327
:1050B000048F013499B006460F46A4B200F10808E7
:1050C000651EADB2B5F5004F4AD04A2305AA294660
:1050D000404638F05DFB04F57F543F34A4B281466E
:1050E000214601230DF10B02404638F051FBB9F186
:1050F000000F014610DC002810DC338FAB4209D1D1
:1051000032466B1E22F8383F4FF4004102234046DE
:10511000FEF744FF2C46D3E7002808DC294640462A
:1051200038F032FB2146404638F02EFBE5E7B9F176
:10513000490FEFD809F160030DEB0309002309F8CB
:105140004C3C084A009703AB05A8CDF80C80ADF89D
:105150001040FFF733FF0028DCD019B0BDE8F08322
:105160000020FAE7B3DB03007FB501236946032083
:105170000193FFF797FD044660BB02AA01A9032033
:1051800038F0A5FC044610B110F10C0F22D10399A0
:10519000B1F5803F23D2009A002394681846084452
:1051A00084421AD30133082BF9D10E4D69612B8348
:1051B0005368AB602846D368EB6338F092FD044631
:1051C00040B9094E6E602846FFF770FE28466E60B3
:1051D000FFF77AFE204604B070BD9BB2E5E76FF0A2
:1051E0002004F7E7F49A00208885050080B505467D
:1051F0000E461746984624F01FF9034600F03CFC83
:10520000DFF81890044649F80030424630463946E7
:10521000A84754F8090000F0CFFB00BF08000000C9
:1052200038B50C46154638F091FD034B43F8305025
:1052300003EBC0035C6038BDC80C002008B5034810
:10524000034A0021121A38F082FD08BDD81400204C
:1052500028DA00200748084A084908B5121A38F029
:1052600078FD0748074A0849BDE80840121A38F097
:1052700070BD00BF00000020D41400200CE3050026
:1052800000000020000000200CE305002DE9F0479D
:10529000064600AF0C46002936D0E9468AB0D1E96F
:1052A0000012A3686D462148E8464FF0050ACDE993
:1052B0000501CDE9072348F810AF1D4842460023F9
:1052C0004FF42151FFF74EFACD46D4E9031263693A
:1052D000AD461848C5F810A0C5E90501C5E9072382
:1052E0001348002342464FF42151FFF73BFACD46C5
:1052F000E369114A0E48012138F0FEFAA3690F4A0A
:105300000B48012138F0F8FA012E07D1EFF305839D
:105310000B4A0748103B314638F0EEFA214630463A
:1053200022F0AAFDBD46BDE8F08700BF83AD0500B1
:1053300090800500B2AD0500E1AD0500F0AD0500BF
:105340001EAE050030BFFFF7FDBF00BF2DE9F041E5
:105350000B4EDFF8308006EB0807CC1B05463246C3
:105360000949204652F06CF9A01942460021083C38
:1053700052F08DF9EC6707F10800BDE8F08100BF3D
:1053800000000000080000005881050010B5204C06
:105390002049214838F0EAFCA36A990136D51E4815
:1053A0001E4938F0E3FC1E20A36ADA0104D51A482E
:1053B0001B4938F0DBFC1F20154CA36A1B0304D5E6
:1053C0001548184938F0D2FC2120A36A590304D5A6
:1053D0001148154938F0CAFC22200D4CA36A9A03E3
:1053E00004D50D48114938F0C1FC2320A36ADB0322
:1053F00004D509480E4938F0B9FC2420044A936AC0
:105400006FEA03436FEA1343936210BD1D20CBE79D
:1054100000ED00E031AE05009080050049AE0500CA
:105420005CAE050076AE050094AE0500B9AE050091
:10543000D3AE050070B506460D46294C29492A48C9
:1054400038F094FCA36ADB0647D52748274938F093
:105450008DFC1120A36A1C0704D52348244938F089
:1054600085FC12201E4CA36A990712D521491E48BB
:1054700038F07CFC636BA26A120609D51E4A1A48F2
:10548000012138F039FA1EB1A36A23F08003A36228
:105490001320134CA36ADE0704D51348174938F0CC
:1054A00065FC1420A36A9C0604D50F48144938F003
:1054B0005DFC15200A4B9A6AD10658BF9A6A9A6A0F
:1054C000920642BF5A6A22F400525A629A6A42F025
:1054D000FF029A6200232B7070BD1020BAE700BF54
:1054E00000ED00E0FEAE05009080050014AF050061
:1054F00047AF05005AAF050072AF050088AF050041
:10550000A7AF050070B506460D46284C2849294826
:1055100038F02CFCA36AD9043CD52648264938F03B
:1055200025FC1720A36A1A0504D52248234938F020
:105530001DFC18201D4CA36A9B0512D51D4820494F
:1055400038F014FCA36BA26A100409D51D4A19484F
:10555000012138F0D1F91EB1A36A23F40043A362FC
:105560001920124CA36A590504D51248164938F07F
:10557000FDFB1A20A36ADA050ED50E48134938F050
:10558000F5FB1B20094A936A43F47F43936200238F
:105590002B7070BD1620C5E7A36A9B04F2D50548A1
:1055A0000B4938F0E3FB1C20ECE700BF00ED00E006
:1055B000D6AF050090800500ECAF050047AF0500B1
:1055C000FDAF050016B005002BB0050046B0050084
:1055D000A7AF0500F0B56A4B8BB00446586800AF22
:1055E000C0F30803002585F31188BFF36F8F02F025
:1055F0007F46B6F17F4F07D102F00C06082E0ED180
:105600006049614838F0B2FB60495F4838F0AEFB52
:1056100000210846FFF73AFE2C37BD46F0BD1607BD
:105620004CBF0C460125002CEED00022FA71DA1E88
:10563000092A00F28580DFE802F0057B7E7783830C
:1056400083838381524950484D4E38F08FFB0023AD
:10565000FB71F36A9A0705D54E494B4838F086FB33
:1056600000232DE0F36A002B01DA4B49F5E7F36ADA
:105670005B00F5D54949444838F078FB7369A26965
:1056800043F480737361BFF34F8FBFF36F8F32F8B2
:10569000023C726922F480727261BFF34F8FBFF3D4
:1056A0006F8F03F47F42B2F55F4F27D1DBB2022B3D
:1056B00024D123683A4A3448012138F01DF923687F
:1056C000FA79002AA8D107F1080604F1200C206815
:1056D0006168324603C2083464451646F7D17A6AD7
:1056E000002D4AD0C2F3080121B96FEA52226FEAB5
:1056F00042227A6207F1080118468BE7204B9A6A2A
:10570000D2B222B1F91D0120FFF794FE0EE09A6A91
:1057100012F47F4F04D0F91D0120FFF7F3FE05E0DE
:105720009B6AB3F5803F9BD3FFF730FE0346C7E784
:10573000F91D0020E8E7F91D0020EEE719498CE784
:10574000194A1A4910F4F87F6E468AB018BF1146FC
:105750006A46103B079316484FF40073ADF82030AB
:10576000144BCDE9050142F8103F074800234FF4E0
:105770001151FEF7F7FFB54672E76FF30802B8E77D
:1057800000ED00E08CB0050090800500B7B005008A
:10579000F3B005000AB105002BB1050039B10500D1
:1057A00058B1050074B1050073B005005EB0050086
:1057B00098B1050004000001044B5A6942F0100240
:1057C0005A615A6922F008025A61704700ED00E000
:1057D000EFF30880EFF3098101B57246FFF7FAFE97
:1057E00001BD00BF0B4880F3088820F0D7F82020C7
:1057F00080F3118808484FF40061401880F309884D
:10580000EFF314800221084380F31488BFF36F8FF5
:1058100000F068F808280120C81401201EF0040FC9
:105820000CBFEFF30880EFF30980816911F8021CC7
:105830000229FFD001B5724638F08DFA01BD00BFD4
:105840000028ACBF00F16040064B4FEA4111ACBFED
:1058500000F5614000F00F00C9B2B4BF195480F8E0
:105860000013704714ED00E040B2002807DB044A43
:105870004109012300F01F00834042F821307047A6
:1058800000E100E040B200280CDB4309064900F0CB
:105890001F0020330122824041F82320BFF34F8FA5
:1058A000BFF36F8F704700BF00E100E0054B420976
:1058B00000F01F0053F82220012303FA00F01040EB
:1058C000704700BF00E100E0044B054A23F07F036E
:1058D0009360BFF34F8FBFF36F8F704700000000DE
:1058E00000ED00E008B5FFF7EFFF0B4AD2F8883073
:1058F00023F47003C2F88830EFF3148323F0040319
:1059000083F31488BFF36F8FFFF798FCFFF7A2FCB7
:1059100000F094F822F0EAFB00ED00E042F8203CB1
:10592000009B42F81C3C0A49019B42F8183C029B30
:1059300042F8143C21F001014FF0807342F8043C1E
:1059400042F8081C0023203A0265C0F880307047F6
:10595000ED51000000B50B4B98600B4B1546C26F24
:105960001A600E462C4686F309880020034B9847A0
:105970002046002100220023014C2047A5DD030022
:10598000ED51000030C50020349B0020014B102257
:105990001A61704700ED00E0054B5A699B689A4216
:1059A0001FBF044A536843F080535360704700BFE1
:1059B00030C5002000ED00E0084B9B6883420BD10E
:1059C000EFF3058343B1064B5A6842F080525A60A8
:1059D0005A6A22F400425A6243F0D5BC30C5002016
:1059E00000ED00E012498A684FF030001044EFF3F8
:1059F000098C80E8F01F202080F31288BFF36F8F9E
:105A00000C4F4FF000664A698A603E60D06F0A4CC6
:105A10002060D2F880000023C2F8803080F3118823
:105A200002F1300090E8F01F8CF309887047000005
:105A300030C5002004ED00E0349B00200448002322
:105A40002021C2180133302B82F80013F9D170479E
:105A500000E100E008B5EFF30583064A103B02EBD6
:105A6000C30152F8330049688847BDE80840FFF792
:105A700093BF00BFC80C00200148006870470000B9
:105A8000349B0020024B034A0348012100F07AB8FE
:105A90000000042000000020A485050008B503468E
:105AA0001048D0F89020C2F30722013A934207D958
:105AB0000D480E4A012137F01FFF6FF0150008BD99
:105AC000C0F898300A6822F01F021A4342F0100210
:105AD000C0F89C208A6842F00102C0F8A020184655
