:1000000068550020C1430000FDDE0100AD43000043
:10001000AD430000AD430000AD4300000000000010
:10002000000000000000000000000000F943000094
:10003000AD43000000000000C9450000AD430000D2
:1000400035460000F54D01003546000035460000FC
:1000500035460000354600003546000035460000B4
:1000600035460000354600003546000035460000A4
:100070003546000035460000354600003546000094
:100080003546000035460000354600003546000084
:100090003546000035460000354600003546000074
:1000A0003546000035460000354600003546000064
:1000B0003546000035460000354600003546000054
:1000C0003546000035460000354600003546000044
:1000D0003546000035460000354600003546000034
:1000E0003546000035460000354600003546000024
:1000F0003546000035460000354600003546000014
:1001000081F0004102E000BF83F0004330B54FEAC8
:1001100041044FEA430594EA050F08BF90EA020F35
:100120001FBF54EA000C55EA020C7FEA645C7FEAC8
:10013000655C00F0E2804FEA5454D4EB5555B8BFEB
:100140006D420CDD2C4480EA020281EA030382EA5C
:10015000000083EA010180EA020281EA0303362DEE
:1001600088BF30BD11F0004F4FEA01314FF4801CC1
:100170004CEA113102D0404261EB410113F0004FD3
:100180004FEA03334CEA133302D0524263EB43038A
:1001900094EA050F00F0A780A4F10104D5F1200E28
:1001A0000DDB02FA0EFC22FA05F2801841F1000183
:1001B00003FA0EF2801843FA05F359410EE0A5F157
:1001C00020050EF1200E012A03FA0EFC28BF4CF088
:1001D000020C43FA05F3C01851EBE37101F000453E
:1001E00007D54FF0000EDCF1000C7EEB00006EEB4B
:1001F0000101B1F5801F1BD3B1F5001F0CD34908D5
:100200005FEA30004FEA3C0C04F101044FEA44522B
:1002100012F5800F80F09A80BCF1004F08BF5FEAB2
:10022000500C50F1000041EB045141EA050130BD92
:100230005FEA4C0C404141EB0101013C28BFB1F5A4
:10024000801FE9D291F0000F04BF01460020B1FAEF
:1002500081F308BF2033A3F10B03B3F120020CDAC2
:100260000C3208DD02F1140CC2F10C0201FA0CF0A0
:1002700021FA02F10CE002F11402D8BFC2F1200C05
:1002800001FA02F120FA0CFCDCBF41EA0C019040BB
:10029000E41AA2BF01EB0451294330BD6FEA040404
:1002A0001F3C1CDA0C340EDC04F11404C4F12002EF
:1002B00020FA04F001FA02F340EA030021FA04F301
:1002C00045EA030130BDC4F10C04C4F1200220FA58
:1002D00002F001FA04F340EA0300294630BD21FA96
:1002E00004F0294630BD94F0000F83F4801306BF5C
:1002F00081F480110134013D4EE77FEA645C18BF50
:100300007FEA655C29D094EA050F08BF90EA020FE6
:1003100005D054EA000C04BF1946104630BD91EADE
:10032000030F1EBF0021002030BD5FEA545C05D1E1
:100330004000494128BF41F0004130BD14F5800420
:100340003CBF01F5801130BD01F0004545F0FE4194
:1003500041F470014FF0000030BD7FEA645C1ABFC9
:10036000194610467FEA655C1CBF0B46024650EA00
:10037000013406BF52EA033591EA030F41F400212C
:1003800030BD00BF90F0000F04BF0021704730B5B2
:100390004FF4806404F132044FF000054FF0000187
:1003A00050E700BF90F0000F04BF0021704730B548
:1003B0004FF4806404F1320410F0004548BF40421D
:1003C0004FF000013EE700BF42004FEAE2014FEA72
:1003D00031014FEA02701FBF12F07F4393F07F4F4D
:1003E00081F06051704732F07F4208BF704793F050
:1003F0007F4F04BF41F40021704730B54FF4607463
:1004000001F0004521F000411CE700BF50EA010265
:1004100008BF704730B54FF000050AE050EA01020E
:1004200008BF704730B511F0004502D5404261EB7E
:1004300041014FF4806404F132045FEA915C3FF4BF
:10044000D8AE4FF003025FEADC0C18BF03325FEA5C
:10045000DC0C18BF033202EBDC02C2F1200300FA0D
:1004600003FC20FA02F001FA03FE40EA0E0021FA32
:1004700002F11444BDE600BF80F0004002E000BF7E
:1004800081F0004142001FBF5FEA410392EA030F7F
:100490007FEA226C7FEA236C6AD04FEA1262D2EBC9
:1004A0001363C1BFD218414048404140B8BF5B42CE
:1004B000192B88BF704710F0004F40F4000020F067
:1004C0007F4018BF404211F0004F41F4000121F07D
:1004D0007F4118BF494292EA030F3FD0A2F10102C7
:1004E00041FA03FC10EB0C00C3F1200301FA03F105
:1004F00000F0004302D5494260EB4000B0F5000F28
:1005000013D3B0F1807F06D340084FEA310102F1E6
:100510000102FE2A51D2B1F1004F40EBC25008BF98
:1005200020F0010040EA03007047490040EB000062
:10053000013A28BFB0F5000FEDD2B0FA80FCACF163
:10054000080CB2EB0C0200FA0CF0AABF00EBC25090
:1005500052421843BCBFD0401843704792F0000F7E
:1005600081F4000106BF80F400000132013BB5E7D1
:100570004FEA41037FEA226C18BF7FEA236C21D047
:1005800092EA030F04D092F0000F08BF08467047AC
:1005900090EA010F1CBF0020704712F07F4F04D17A
:1005A000400028BF40F00040704712F100723CBF8D
:1005B00000F50000704700F0004343F0FE4040F4B7
:1005C000000070477FEA226216BF08467FEA236375
:1005D0000146420206BF5FEA412390EA010F40F460
:1005E000800070474FF0000304E000BF10F00043AC
:1005F00048BF40425FEA000C08BF704743F0964393
:1006000001464FF000001CE050EA010208BF7047AD
:100610004FF000030AE000BF50EA010208BF704734
:1006200011F0004302D5404261EB41015FEA010C49
:1006300002BF84460146002043F0B64308BFA3F141
:100640008053A3F50003BCFA8CF2083AA3EBC25323
:1006500010DB01FA02FC634400FA02FCC2F1200242
:10066000BCF1004F20FA02F243EB020008BF20F079
:100670000100704702F1200201FA02FCC2F12002DF
:1006800050EA4C0021FA02F243EB020008BF20EAD4
:10069000DC7070474FF0FF0C1CEAD0521EBF1CEA02
:1006A000D15392EA0C0F93EA0C0F6FD01A4480EAF0
:1006B000010C400218BF5FEA41211ED04FF00063D9
:1006C00043EA501043EA5111A0FB01310CF0004005
:1006D000B1F5000F3EBF490041EAD3715B0040EA2B
:1006E000010062F17F02FD2A1DD8B3F1004F40EBFB
:1006F000C25008BF20F00100704790F0000F0CF0CE
:10070000004C08BF49024CEA502040EA51207F3A91
:10071000C2BFD2F1FF0340EAC250704740F400006C
:100720004FF00003013A5DDC12F1190FDCBF00F05D
:1007300000407047C2F10002410021FA02F1C2F10B
:10074000200200FA02FC5FEA310040F1000053EAA7
:100750004C0308BF20EADC70704792F0000F00F0F5
:10076000004C02BF400010F4000F013AF9D040EAFB
:100770000C0093F0000F01F0004C02BF490011F48F
:10078000000F013BF9D041EA0C018FE70CEAD1538D
:1007900092EA0C0F18BF93EA0C0F0AD030F0004C0D
:1007A00018BF31F0004CD8D180EA010000F00040C1
:1007B000704790F0000F17BF90F0004F084691F07F
:1007C000000F91F0004F14D092EA0C0F01D14202B9
:1007D0000FD193EA0C0F03D14B0218BF084608D182
:1007E00080EA010000F0004040F0FE4040F40000CC
:1007F000704740F0FE4040F4400070474FF0FF0C5F
:100800001CEAD0521EBF1CEAD15392EA0C0F93EAA5
:100810000C0F69D0A2EB030280EA010C49024FEAF7
:10082000402037D04FF0805343EA111143EA1013B0
:100830000CF000408B4238BF5B0042F17D024FF468
:10084000000C8B4224BF5B1A40EA0C00B3EB510F43
:1008500024BFA3EB510340EA5C00B3EB910F24BF2C
:10086000A3EB910340EA9C00B3EBD10F24BFA3EBB1
:10087000D10340EADC001B0118BF5FEA1C1CE0D179
:10088000FD2A3FF650AF8B4240EBC25008BF20F02C
:10089000010070470CF0004C4CEA50207F32C2BF80
:1008A000D2F1FF0340EAC250704740F400004FF01D
:1008B0000003013A37E792F0000F00F0004C02BF4E
:1008C000400010F4000F013AF9D040EA0C0093F018
:1008D000000F01F0004C02BF490011F4000F013B72
:1008E000F9D041EA0C0195E70CEAD15392EA0C0FDA
:1008F00008D142027FF47DAF93EA0C0F7FF470AF12
:10090000084676E793EA0C0F04D14B023FF44CAF54
:1009100008466EE730F0004C18BF31F0004CCAD1E9
:1009200030F000427FF45CAF31F000437FF43CAF25
:100930005FE700BF53B94AB9002908BF00281CBFB0
:100940004FF0FF314FF0FF3000F00CB8ADF1080C64
:100950006DE904CE00F022F8DDF804E0DDE90223C1
:1009600004B07047704700BF10F8012B11F8013B2D
:10097000012A28BF9A42F7D0D01A7047034611F8CF
:10098000012B03F8012B002AF9D17047034613F815
:10099000012B002AFBD1181A013870472DE9F047C6
:1009A0008C468E46089E154604461946002B40F09C
:1009B000D080724547D9B2FA82F74FB1C7F1200310
:1009C0000EFA07FC20FA03F3BD4043EA0C0CBC40CE
:1009D0004FEA154EA8B2BCFBFEF8230C0EFB18CC58
:1009E00008FB00F943EA0C43994528D9EB1808F1B4
:1009F000FF3204D2994502D9A8F102022B44A3EB9D
:100A00000903A4B2B3FBFEFC0EFB1C330CFB00F08D
:100A100044EA0344A04214D92C190CF1FF3304D248
:100A2000A04202D9ACF102032C44241A43EA02404A
:100A30001EB1FC40002334607360BDE8F08742467D
:100A4000DDE76346F1E7002A79D0B2FA82F3002BA2
:100A50003FD01946C1F1200302FA01F52EFA03F244
:100A60000EFA01FE20FA03F343EA0E034FEA154E95
:100A700000FA01F4B2FBFEFCAFB20EFB1C201A0C14
:100A80000CFB07F842EA004290455AD9AA180CF12B
:100A9000FF3004D2904502D9ACF102002A44A2EB07
:100AA00008029BB2B2FBFEFC0EFB1C220CFB07F7FC
:100AB00043EA02439F4246D9EB180CF1FF3204D2BD
:100AC0009F4202D9ACF102022B44DB1B42EA0042F6
:100AD00002E0AEEB020301224FEA154EAFB2B3FBC8
:100AE000FEFC200C0EFB1C330CFB07F840EA034312
:100AF00098452AD9EB180CF1FF3004D2984502D959
:100B0000ACF102002B44A3EB0803A4B2B3FBFEFC40
:100B10000EFB1C330CFB07F744EA0344A74216D92B
:100B20002C190CF1FF3304D2A74202D9ACF1020315
:100B30002C44E41B43EA00400F46114678E71F218E
:100B400088E76046ABE76246BFE76046DBE763469F
:100B5000EFE7734506D916B9002108466DE7C6E9E7
:100B6000000EF9E7B3FA83F787B9734501D38242E0
:100B700007D8841A6EEB030301209C461EB900219E
:100B80005BE73846FAE7C6E9004CF8E7C7F1200C06
:100B9000BB4022FA0CF51D4320FA0CF12EFA0CF39F
:100BA0000EFA07FE41EA0E014FEA154900FA07F472
:100BB000B3FBF9F81FFA85FE09FB18300B0C08FB94
:100BC0000EFA43EA00439A4502FA07F240D9EB18BD
:100BD00008F1FF3004D29A4502D9A8F102002B4453
:100BE000A3EB0A0389B2B3FBF9F809FB183308FB3E
:100BF0000EFE41EA03418E452CD9691808F1FF33F6
:100C000004D28E4502D9A8F10203294443EA0040E8
:100C1000A0FB0298A1EB0E014145CE46434602D30C
:100C200006D14C4504D2B9EB020E68EB050301383E
:100C3000002EA4D0B4EB0E0261EB030101FA0CFC10
:100C400022FA07F34CEA0303F940C6E9003196E7BC
:100C50004046C5E74346D9E738B51B4C9DF810E040
:100C600094F84CC01CF0010524D163F3420C400100
:100C700094F83830A4F840104FEACE0E0EF0180E5B
:100C800000F0200040EA0E0023F0380303430F4831
:100C900084F838309121A2FB000384F84CC001FB9A
:100CA000023107A3D3E90023FFF744FEC4E9110092
:100CB000284638BD0C25284638BD00BFAFF300805C
:100CC0008D49FD1A0700000068130020002AE78400
:100CD00010B504469DF8080022864FEA411CC0006A
:100CE00094F8281000F018000CF0200C4CEA000CCE
:100CF0000B4821F038014CEA010CA3FB00029121C2
:100D000084F828C001FB032103A3D3E90023FFF7E4
:100D100011FE606310BD00BF8D49FD1A0700000081
:100D2000002AE784000000002DE9F043044600F1AA
:100D30003A0190F84C0094F838304D4DC0F3400023
:100D400060F386138DB084F838300DF005FA94F80E
:100D50003820B4F840304748246102F07902002777
:100D600084F838209121A3FB0002C4E902772770A0
:100D700001FB03213CA3D3E90023FFF7DBFDA26CB9
:100D80003D4B651BA3FB053502F1090398428EBF5D
:100D900019463A4601466264616006460DF090F9D4
:100DA0006369C5F3871500F10907002B41D00DF1E8
:100DB0002C08CDF820800694B4F840302D489121BD
:100DC000A3FB000201FB03212C4B07932C4B059343
:100DD0006368049302234FF000090B9322A3D3E925
:100DE0000023CDF80C90FFF7A5FD104619464FF4EF
:100DF0007A720023FFF79EFD0235EDB2CDE9016066
:100E00000321CDF800903B462A4648460DF03CF8B9
:100E100041460DF055FE40B994F84C3043F00103C3
:100E200084F84C300DB0BDE8F0830C200DB0BDE867
:100E3000F0830DF12C08CDE90A33616843460AAA14
:100E4000032000F06DFD0028B3D10B990D4806A3D7
:100E5000D3E90023A1FB0001FFF76CFD0A9B20F002
:100E60007F471F44A5E700BF8D49FD1A070000001A
:100E700068130020002AE784CDCCCCCCC1E100006F
:100E8000F105010000CA9A3B2DE9F0418468A28C6B
:100E90004FF6FF739A428AB000F0CA80054620469A
:100EA00011F04CFCAB7C012B00F0EA80022B00F02F
:100EB000C28033B994F8563003F01803182B00F0B1
:100EC000228194F81C81B8F1000F40F0B880A68D03
:100ED000EB89E78D0136B6B2002B00F0B780A4F89D
:100EE00048812B7C03F00303012B00F0C480B4F88D
:100EF0004C31002B00F0CA80B34240F225819B1B8D
:100F00009BB2062BA4F84C314FF000028CBF00239B
:100F10000123E285984694F83A2063F3820284F82C
:100F20003A2031460DF12702204611F0DFF97430E6
:100F300000F00481B4F846312BB1B34240F2D380C3
:100F40009B1BA4F84631B4F842312BB1B34240F2B6
:100F5000C3809B1BA4F8423194F89930E58D03F0CF
:100F60000101B8F1000F0AD1AF4200F0B1800135A4
:100F7000ADB241B9002D5BD04146404642E001355B
:100F8000ADB200293DD094F8993094F9372023F080
:100F90000103002A84F89930C0F2928094F83B0053
:100FA000C0F3C00100F0070014F048FA94F83B20A9
:100FB00094F83C1002F003030933C2F34002DB0053
:100FC000D340E28B02F23F12134401F003020932D4
:100FD000C1F34001D200CA40134418446A4A6B4B23
:100FE0000721E0FB0231184665A3D3E90023FFF790
:100FF000A1FC616820F07F40814280F09A80411A14
:1010000060600020A28C246903950023604DCDF818
:1010100010800332CDE9011006940093D2B2012171
:10102000184605950CF04CFF10F0FD0F40F0908035
:101030000AB0BDE8F0814FF03D0884F81C814146BC
:1010400020460AB0BDE8F0410FF0B2BF2B7C03F0A0
:101050000303012B0FD0B4F84831002B3FF447AF06
:10106000B34273D99B1BA4F84831B4F84C31002B20
:101070007FF442AF02E00023A4F84C3100234AE79A
:101080000023A4F84631A4F842311AE7E38C052B7B
:101090008BBF40F2E2424FF4FA725A4303FB022242
:1010A000B4F84A3142F2107101FB0323013BB3FB58
:1010B000F2F39BB2A4F84C31002B7FF41DAFDDE7B7
:1010C00094F83C00012100F0070014F0B9F96DE735
:1010D0000029ADD0454656E70023A4F8423120460A
:1010E00011F078F938E70DF0BBFC0146002836D046
:1010F0000023A4F84631A38CC3801B23037100682E
:101100000DF080FC1FE7218DB4F844218B1D9A421D
:10111000C4BF931F5B1AB4F84011CCBF9BB21346F7
:10112000994220D0A4F84031A4F84231A4F84621D5
:10113000C7E66060081A1CD0002163E79DF82710FD
:1011400020460FF035FF73E7082179E73E2177E766
:101150000DF0C8FC84423FF46BAF00DE68E701236A
:10116000A4F84631EFE6B4F8461100297FF4A9AEA1
:10117000DAE70DB1014645E7B8F1000FDCD157E7DA
:101180008D49FD1A0700000000CA9A3B8C49FD1AE0
:10119000F9080100000000002DE9F04F8FB0B0F811
:1011A00018610D930446B0F8DC3090F83B000B91C9
:1011B0001E44C0F3C001BDF86830BDF86C70BDF8C6
:1011C0006080BDF86490D4F8D4A00C9300F00700C0
:1011D00014F034F9E58CB6B2A6EB070B052D1FFA17
:1011E0008BFB40F2098115FB0BF5ADB240F2E24BEF
:1011F000B8F1050F40F2F48094F83C2094F83B10CD
:1012000002F003032833C2F34002DB00D34001F0B5
:1012100003022832B3F5A47FC1F340014FEAC202B2
:1012200022FA01F238BF4FF4A473B2F5A47F2CBFA9
:101230009B1803F5A47303F2D51318447A4A7B4B29
:101240000721E0FB023118464FF09613E361962325
:10125000238473A3D3E90023FFF76CFB434620F0FC
:101260007F4040F2E2420BFB05F102FB03FB4A1E0A
:101270005A44B2FBFBF293B20BFB03F3994260605A
:1012800095B280F09F806848591AA1FB000164A3C1
:10129000D3E90023FFF74EFB20F07F408244B4F8EF
:1012A000DC20B4F81831BF1B3D44ADB213442B44CD
:1012B000A4F81831638D1A4494F837301544DB09CB
:1012C00065857CD10D9B5848A3FB000154A3D3E94D
:1012D0000023FFF72FFB20F07F4501350C9BA4F87E
:1012E0004A3159462046A4F82680A4F8289011F0E7
:1012F00029F84F4B218D5B44881DB3FBFBF39AB259
:101300009042A4F8442104D2C1F57F41FA310A4445
:1013100092B20B9BA4F8402113B10023A4F84C31E6
:101320000221012015F076FD00220221064601204F
:101330000BF08CFC3F494FF4AC7220460BF012FCD2
:10134000C21C3D4B0093D7B2019453463A4601214B
:1013500000200CF031FE10F0FD0F5CD1324830A3BC
:10136000D3E90023ABFB0001FFF7E4FA1946334B46
:101370000793334B089406940593636804934FF6E0
:10138000FE7380460393104600234FF47A72FFF7F2
:10139000D1FA0095CDE9018053463A46012100205B
:1013A0000CF072FD10F0FD0F33D166BB94F81A31CA
:1013B00043F0010384F81A310FB0BDE8F08F00DE6E
:1013C00000258BE71848C91AA1FB000114A3D3E933
:1013D0000023FFF7AFFA20F07F40AAEB000A5EE798
:1013E0004FF0961208F10103E261962222849BB22B
:1013F0000A204FF4FA7236E7013515FB0BF5ADB252
:101400004FF4FA7BF4E60122022110460BF01EFC99
:10141000CCE700DEC9E700DEA0E700BFAFF3008045
:101420008D49FD1A0700000000CA9A3B8C49FD1A3D
:101430007FC3C901B8130020B9080100A108010049
:10144000214A0100000000002DE9F04F89B0CDE9EC
:10145000020100209DF84C80BDF850A0BDF854B0AA
:10146000BDF8589004921F460FF088F9002800F04C
:10147000218108F00105044628460CF05FFE002D8E
:1014800049D1636904F110020592002B4AD06669C4
:10149000356896F82B00C0F3C00100F0070013F088
:1014A000CDFFF3899E4A00F2CF3003449D480721C7
:1014B000E3FB020198A3D3E90023FFF73BFA20F0F6
:1014C0007F40686094F84C1068F3420184F84C1037
:1014D00094F8391067F30001DDE9022384F839102C
:1014E00012990968A16112998988A1830499A4F8C5
:1014F000249004F1100000910021FFF7E9FBA064A3
:1015000014F01AF9002840F0D9802046FFF70CFCAF
:1015100009B0BDE8F08F06210BF038FB0028B0D1F0
:101520001220F5E70DF056FA0590002800F0E38050
:101530000FF056FA0546002800F0DA80143005F165
:1015400010060BF0E5FC002840F0DB80032105F1DC
:10155000180013F095FE286DA5F828B04FF6FF721D
:10156000A5F826A0AA84002800F0C78005F144024F
:1015700005F140010BF016FB95F83B2022F07F02AD
:1015800042F0190285F83B2095F8562022F0070218
:1015900085F8562095F83C2001214FF0000B61F3AF
:1015A000020285F83C20C5F850B0A5F854B0A5F863
:1015B0002AB0C5F82EB005F1320013F061FB95F8A2
:1015C000372060F30502012185F837200DF11F0057
:1015D00013F056FE9DF81F10534A85F839B0A2FB50
:1015E0000102D20802EB4202A1EB820195F83720FA
:1015F000A5F818B102F03F0285F8372095F83A2097
:10160000A5F84CB1053122F0070240F2E24085F81E
:10161000381085F83A20298D444AA5F84A9100FBF4
:101620000AFA06205244A5F8480101F1060CB2FB63
:10163000FAF290B26045A5F846B1A5F842B1A5F816
:10164000440102DD0638401A80B2A5F84001284660
:1016500010F010FE5146284610F074FE4FF0000ABC
:10166000059BC5F8203185F81CA10FF0E1FB95F82A
:10167000542160F3020285F854210FF0DFFB95F846
:10168000542160F3C50285F8542195F81A216AF3B4
:10169000410285F81A2105F19C0010F025FC4FF05D
:1016A0009612C5E907226661C5E902AA85F800A07D
:1016B0002D61EEE60C2009B0BDE8F08F65692B6C5A
:1016C0002BBB05F1340105F130000BF06FFAE0B1EE
:1016D0002E682864D6F82001A8B10DF081F93046B3
:1016E0000FF084F900230320636109B0BDE8F08F97
:1016F00005980DF075F907200AE705F148002865FF
:1017000034E700DE22E700DEE7E700DEE0E700DEA8
:10171000D7E700BFAFF300808D49FD1A0700000036
:1017200000CA9A3B8C49FD1AABAAAAAA7FC3C90179
:101730002DE9F04F0446037F406A8DB08846154678
:10174000C3F3401AC3F3C012E107238DADF82C3068
:101750000A900AAB00F1CC809B880A98A2770027F8
:10176000A783A4F82330C4F81F00D8F800301E68FF
:10177000EB8AE3842B8B2385B38C638514F02EF8DE
:1017800084F82C00D5F8009048460FF035F939461A
:10179000A882E080484610F0E9FD20682146D8F88C
:1017A00004400DF023F9AA8A2768E2801C232371E4
:1017B000BAF1000F40F09080534623772146384617
:1017C0000DF020F995F82B00B5F816A0D8F80C709C
:1017D0004D4C40F2E243C0F3C00100F0070003FBB0
:1017E0000AFA13F02BFE002202213F1A01200BF00F
:1017F0002DFA30460EF09CFFA7FB044740A3D3E927
:101800000023054639462046FFF794F80196D8F89C
:1018100008303E49009120F07F46AA1C363BD2B2E8
:101820003344012100200CF0C7FB10F0FD0F61D103
:101830004FF0000B012211465B46CDF800B0584630
:101840000CF086FB48460FF0D7F805462E482CA32F
:10185000D3E90023AAFB0001FFF76CF81946D8F87A
:101860000830CDF81C90A3F13608294B0893294B7A
:10187000069340F272330993D9F804308246CDE9D9
:1018800004B3104600234FF47A72FFF753F8224B4B
:101890000722A6FB0331CDE902A002FB0611E01AE4
:1018A00067EB01014FF47A720023FFF743F8033529
:1018B000EDB2CDE9006043462A46012158460CF0BE
:1018C00095FA10F0FD0F17D10122022110460DB03C
:1018D000BDE8F04F0BF0BAB995F8273043F040035C
:1018E00085F82730281D13F017FA0123288564E7AF
:1018F00000DE31E700DE9BE700DEE5E7AFF30080C6
:101900008D49FD1A0700000000CA9A3B154A0100E4
:10191000194A0100214A01008D49FD1A000000000A
:101920002DE9F04F91B0FF270B930B1D0A93002375
:10193000CDE90D33054616468DF833709B46089366
:101940003C46984699460DF1340A0FAB0693644B1A
:101950000593644B03930EAB0020CDE900A3022353
:101960000F930490029033460DF1330229460CF098
:1019700059FB022813D00F9BBBB9FF2C18D033683A
:10198000434515D0002F00F09180013FFF24FFB2A6
:101990008DF83340D9E7294600200CF07FFB0F9BE0
:1019A000022BF8D00F9B002BE7D000DEFF2CE6D1F6
:1019B0009DF83330FF2B49D0032BC6D100200FF008
:1019C00023F80028C1D090F93730002B25DA43687E
:1019D00009939DF83330032B15D0FF2CDDF83480AC
:1019E00007D0594640460CF06DFB0A9B4B44984289
:1019F0002ED80E9BDDF824909DF833400893C34603
:101A0000D6F80080A1E700200EF0FEFF0028E4D009
:101A100090F93730002BE0DA97E790F83B00C0F3FD
:101A2000C00100F0070013F009FD2F4A2F4B00F210
:101A300065400721E0FB0231184625A3D3E90023C6
:101A4000FEF778FF20F07F430993C2E7FF2C2FD0E9
:101A500027480721A9FB000301FB09311EA3D3E995
:101A60000023FEF767FF044600B13E34089B214A7D
:101A7000A3F57423A3F5107393421ED81C480721C5
:101A8000ABFB000301FB0B3113A3D3E90023FEF7EB
:101A900051FF089A184BA3FB022304EB93440B9BC2
:101AA000044400201C6011B0BDE8F08F00DE6CE73C
:101AB0006FF0090011B0BDE8F08F089B03F1E873E7
:101AC00003F5D43303F5A5730BF1FF3B0893D5E77A
:101AD0008D49FD1A0700000000CA9A3B0000000073
:101AE000254C0100294C010000CA9A3B8C49FD1A83
:101AF0008D49FD1ABFBDF07F83DE1B43000000004F
:101B00002DE9F043C668476873683D491A68D0F804
:101B10000090A7F57423A3F510738B4283B0804621
:101B200007D907F1E87707F5D43709F1FF3907F549
:101B3000A57773685168DD8ACDF8049006F110032B
:101B400001AA0220FFF7ECFE00284ED10199A1EB7B
:101B500009031B0237D4084649460CF0B3FA034682
:101B600028480721A3FB000201FB032122A3D3E99C
:101B70000023FEF7DFFE34690444002C346109DBE6
:101B800040F2E24305FB03F3A3422FD2E41AA3423F
:101B9000FCD33461D8F800301A48A3EB0903A3FB47
:101BA0000002072101FB032113A3D3E90023FEF761
:101BB000C1FE154BA3FB0737A0EB974020443061D3
:101BC00003B0BDE8F08348460CF07CFA03460D48AC
:101BD0000721A3FB000201FB032107A3D3E9002394
:101BE000FEF7A8FE3469241AC7E73469002CD1D166
:101BF00003B0BDE8F08300BF00CA9A3B00000000BC
:101C0000BFBDF07F8D49FD1A83DE1B43000000003D
:101C10002DE9F041C46894F92830002B8CB0C0F253
:101C2000A880636805460E46002B40F0978094F824
:101C3000283023F0010384F8283014F0C1FC002080
:101C400014F0E2FC0021084614F0D0FC0820002229
:101C5000252114F037FD01200CF0E2FF002800F0F0
:101C60008F801C3014F058FD5F4B0B930BA814F0C1
:101C700015FD5E4940F25B6014F0C4FD94F8280045
:101C8000C0F34100253013F0A5FB5948214614F05C
:101C90006BFC94F828309B0602D46368002B5AD062
:101CA000962014F0DDFE00231A461946184614F05B
:101CB0000FFED4F800802F68404613F079FB0744EC
:101CC0006A6807F10901002014F0D6FE14F0AAFF9B
:101CD00014F06EFE20460EF037FD811CC9B240465E
:101CE0003A4613F067FB804600284FD10EB9636B6C
:101CF000D3B963687BB12B68A3616B68E3613D4B2B
:101D0000646204F1180199600122022100200AF0A6
:101D1000D1FF002838D1204613F018FB002831D11C
:101D200000200CB0BDE8F081334A0792334A059297
:101D300040F2F31200930892CDE90366CDE9016603
:101D400006943B46314601220CF09EF810F0FD0F40
:101D5000CFD000DECDE714F01BFEAAE7636893F84E
:101D60002A30D90705D4636893F82A309A077FF59B
:101D70005EAF2348214614F0F7FB14F0EFFCCFE7E9
:101D800000DE6EE700DECBE700DEC4E71D4A1E4939
:101D90001E4840F2E5131BF0D0FA1D4B0721A8FBAB
:101DA000030301FB08310EA3D3E90023FEF7C2FDB4
:101DB0001849024618481BF0C0FA002585F311881F
:101DC000BFF36F8F0323184602DF1448214614F037
:101DD000CBFB14F0C3FC6FF08B00A2E7AFF30080E5
:101DE00000CA9A3B00000000D6BE898E55555500AA
:101DF000C11E000090050020E1570100E9570100D5
:101E0000F1540100783B0200C43B0200DC3A0200BE
:101E10008D49FD1A183D0200C83B020075580100AB
:101E200038B5044613F0F4FC94F8283094F82820D0
:101E3000C3F34103013303F00303032B08BF002363
:101E400063F3420214BF03F12500252084F8282003
:101E500013F0C0FA63680BB123694BB90CF030F989
:101E6000C11C002014F07CFEBDE8384014F0DABE3E
:101E700014F0A4FE05460CF023F9C11C002014F058
:101E80006FFE14F0CFFE14F099FE29460CF01AF9FB
:101E9000094A03460721A0FB020201FB032104A318
:101EA000D3E90023FEF746FD23691B1A236138BDE1
:101EB00000CA9A3B000000008D49FD1A0000000096
:101EC0002DE9F0478AB0044614F088FCC0B200281F
:101ED00000F0E18014F0A2FC054614F0A1FD0746D5
:101EE00014F0A8FD14F07EFDEDB2064614F05EFD80
:101EF00013F0BAFA45B9B048214614F035FB0AB0E0
:101F0000BDE8F04714F02ABC01200CF089FE8046A1
:101F1000002800F0D88194F828502B07C5F3C10A97
:101F2000C5F3C00100F1BA80F7B2626898F81C608E
:101F300006F00F03002A00F0CA80626892F82A2097
:101F4000900700F1C480072BD5D0002900F0AB80AA
:101F5000002B40F0BA8198F81D30063B1F2BCAD8E1
:101F600004200CF05DFE0028C5D014F063FE636B06
:101F7000054643B9238E40F2712202FB03F3B0FB06
:101F8000F3F203FB120522688C4B52680721A2FB77
:101F9000030301FB023186A3D3E90023FEF7CAFC49
:101FA0006FF4427283181F3B4FF0000242F1FF3280
:101FB000AB4272F100029ED314F0EAFC94F8286060
:101FC000636814F039FC08F11E03019309AB049314
:101FD000C6F3801604F12A030296039398F81C3086
:101FE000C3F38013014605460022009320460123D7
:101FF00013F03EFD284614F095FB14F0E5FB002895
:1020000040F0A88121466E4814F0AEFA626892F85A
:102010002A3043F0010382F82A3094F8283043F044
:10202000800384F828300CF015FE172303714FF657
:10203000FF73C38098F81C200646C2F340112B465C
:1020400000F11C0205F12000D3F800C05F689D6814
:10205000D3F80CE0C2F80CE010338342C2F800C0A1
:102060005760956002F11002EED11B681360337F58
:10207000B46061F34513337714F0A0FD099BC6E902
:1020800004030CF0E7FDF060306831460AB0BDE8AB
:10209000F0470CF009BE13F0E7F92CE7FFB2002F70
:1020A0003FF429AF40E794F82920C6F3801102F0ED
:1020B000010291420BD1062208F11E0104F1080031
:1020C000079320F0B2FB079B00283FF441AF002BA1
:1020D0007AD198F81D20063A1F2A3FF60CAF05F07A
:1020E0002102202A40F0CA806268002A6ED1962020
:1020F000079214F0B5FC079A104614F0A1FB0320D8
:102100000CF08EFD054600283FF4F5AE0CF0A2FD64
:102110004FF6FF73EB8005232B71002F40F01681E3
:102120007F226B7E2A7623F001036B76294628688E
:102130000CF0BAFD14F080FB0278032161F3030276
:10214000027098F81C200178C2F3801262F3C71164
:102150000C220170427094F82820C9B2C2F3801298
:1021600062F38611024602F8021BD4F82A10C0F866
:102170000210E18D9180D8F81E208260B8F82220EC
:10218000828114F0CFFA14F01FFB002840F0E480A5
:1021900014F048FD94F828300A4843F00103214622
:1021A00084F828300AB0BDE8F04714F0DDB900BF6C
:1021B00000CA9A3B000000008D5801008D49FD1AAD
:1021C00085590100A1580100062B82D0062B3FF64D
:1021D00092AE4FF0450929FA03F919F0010947D1E8
:1021E000012B52D0042B7FF486AE98F81D30063BAD
:1021F0001F2B3FF680AEEB077FF57DAE14F01CFB86
:1022000098F81C600278C6F38013B3EBD21F7FF4FA
:1022100072AE0830062208F11E0120F006FB0028ED
:102220007FF469AE98F81D30002B3FF464AE63680C
:1022300023B106F00F06072E7FF45DAE03200CF0ED
:10224000EFFC054600283FF456AE0CF003FD4FF6B8
:10225000FF73EB8005232B719FB97F206B7E28765F
:1022600069F3000328686B7629460CF01DFD42E6F1
:1022700098F81D30063B1F2B3FF63DAE4FF000098E
:10228000D5E714F09FFBC0B2E8E798F81D300C2B9F
:102290007FF431AEC5F38015B5EBD61F4FEAD619E2
:1022A00036D0BAF1010F7FF626AEB9F1000F3FF438
:1022B00022AE98F8293003F0C003402B7FF41BAE08
:1022C0004FF00109B3E700DE25E6012B7FF47CAF78
:1022D00098F81D300C2B7FF40EAEC5F38013B3EBD2
:1022E000D61F4FEAD61926D0BAF1010F1AD9B9F183
:1022F000000F06D098F8293003F0C003402B3FF4BC
:102300002FAEC5F38015B5EBD61F4FEAD619CCD149
:10231000062208F1240104F12A0020F086FA0028A0
:10232000ACD0BEE7C5F38015B5EBD61F4FEAD61982
:102330007FF4E1ADECE7062208F1240104F12A0064
:1023400020F073FA00283FF40BAECDE714F03AFB0F
:10235000C2B2E6E600DE55E600DE19E70000000046
:10236000F0B5C468A28A4FF6FF739A4285B000F0B8
:10237000AD80054613F056FC2B89628B208C94F8B7
:102380002710A3831A4492B2104480B2431C2384C2
:102390000023638301F03F034906E28366D494F887
:1023A0002810009304F1290004F1220312F076FCB6
:1023B0000646204603A913F06DFD039B94F84610D2
:1023C0001A7861F3C3021A70039A94F846301178B0
:1023D000C3F3400363F38201117014F0F1F800209D
:1023E00014F012F9201D14F059F92389A17A40F252
:1023F0005B6043EA014114F005FA304612F0EAFF4F
:102400000399204613F01CFD2146374814F0ACF820
:10241000E08914F025FB94F82C0000F0070014F07C
:102420000FFA27682E68384612F0C2FF064406F1FC
:1024300009016A68012014F01FFB14F0F3FBA18A64
:1024400003313246C9B2384612F0B4FF0646A0B195
:10245000AB7A13F0020518D000252448214614F069
:1024600083F814F07BF9284605B0F0BD218D04F106
:10247000220212F055FC06469BE7204612F066FF4A
:1024800058BB0025284605B0F0BD194A19491A481D
:102490004FF480731AF051FF18480721A6FB000380
:1024A00001FB06310EA3D3E90023FEF743FA1449DA
:1024B000024614481AF041FF85F31188BFF36F8F6D
:1024C0000323184602DF6FF08B05C6E70E4821464E
:1024D00014F04AF814F042F9D3E700DED1E700BF68
:1024E00000CA9A3B000000009D5D0100D15401002C
:1024F000F43B0200C43B0200DC3A02008D49FD1AA5
:102500002C3D0200C83B0200F1540100024A03487E
:1025100003211BF0E5BB00BFC23F020000300200F8
:102520001FB50B4A0B493023CDE9012301A8002335
:10253000039306F093FA034638B1074A074801218E
:102540001AF033FB05B05DF804FBFFF7DFFFF9E796
:1025500001006000E5250000194002000030020083
:10256000F0B589B000AF0C460146384607F068F96F
:102570006E468AB06A460F4B0794CDE905370E4B7D
:1025800008930E4B09930E4B42F8103F00234FF473
:1025900043510C4801F0E0F80B48B5461CF0C1FF70
:1025A00018220021094820F038F9FFF7B9FF243735
:1025B000BD46F0BD344002008B460200000202041A
:1025C00005000002003002006418002038180020C6
:1025D000034B1B68834201D1FFF7C2BF704700BFA6
:1025E000641800202DE9F0411E4698B0404B1B684E
:1025F0000C4600AF05461146002B56D1002A54D197
:10260000212207F13C0020F008F93A4907F13C0289
:10261000304604F0C1F897F83C30002B45D007F164
:102620001C082946404603F0C5FF97F83D30002BB3
:102630003FD007F13D036E468AB06A462E49CDE988
:1026400007432E4B09932E4BCDE9051842F8103F56
:1026500000232C484FF4435101F07EF897F83D30A9
:10266000B546CBB1284C07F13D0821464046FEF760
:102670007BF988B18AB06A46244B0794CDE90538C6
:10268000234B0893234B42F8103F1E4800234FF47E
:10269000225101F061F8B54606F030FA034650B118
:1026A0001D4A184801211AF080FA6037BD46BDE87E
:1026B000F0811A4BBFE71A4B0FCB07F10C0484E8EB
:1026C0000F00184A4FF0C873C7E901232146084B91
:1026D0003A1D284607F00EF903460028E5D0124AB5
:1026E000084801211AF061FAFFF71AFFDDE700BF81
:1026F00064180020AFCB0100584002000002020421
:1027000005000002003002009A400200A6400200CC
:102710000002010304000002FD4002003B600200D1
:1027200060310200180028001A4102002DE9F04330
:1027300083B00E4602AF144652B91F481F4A032108
:102740001BF0CEFA348120460437BD46BDE8F08345
:10275000082B08D0082200921748194A02211BF0C2
:10276000D2FA0120F0E7B2F900005568FDF73EFF0C
:102770001449FEF743F8FDF727FE64880246CDE9C9
:10278000004580460B46104889466E461AF0C8FD43
:102790008AB002AA0D4B53610623C2E90689C2E939
:1027A000084542F8103F044800234FF4435100F01D
:1027B000D3FFB546D5E700BF003002003E4102001E
:1027C000694102000000C842A7410200D241020054
:1027D000F8B5054616460C4659B9394A394802211A
:1027E0001BF07EFA14222146304620F016F8002015
:1027F000F8BD354910681CF008FC28BB238A334A11
:10280000304803211AF0D1F9314B324A03F110015B
:10281000104653F8046B42F8046B8B42F9D11B78D5
:102820001370238A2C49013308600B812846032347
:102830000B7409F0A7FA03460028D8D0274A21488C
:1028400001211AF0B2F9D2E730682149244E1CF078
:10285000DCFB238AC0B9234A1A4803211AF0A5F9E0
:1028600020461DF0F9FE1C491F4B0B60238A308166
:1028700002330B81284604230B7409F083FA0346C4
:102880000028B4D0194ADAE7194A0E4803211AF091
:102890008CF9184B33600127238A7381314628460F
:1028A000B78109F02BFF034620B110F1780F01D05A
:1028B000114AC4E7114A034803211BF011FA96E7B5
:1028C0000542020000300200BE6C02004A420200D3
:1028D000AD6C02009E2E00205018002073420200B2
:1028E00038180020A542020014070020D54202003B
:1028F000074302002D2700002D430200634302001E
:102900002DE9F04190B0044600AF0D4609B30146F1
:10291000384606F095FF6C468AB06A46314B0795FB
:10292000CDE90537304B0893304B0993304B42F8D3
:10293000103F304800234FF4415100F00DFF2E4866
:10294000A5461CF0EEFDFFF7EBFD4037BD46BDE8A8
:10295000F081294B1B688342F7D107F1200601461D
:10296000304606F06DFFE84688B06A46234BCDE955
:1029700005364FF40073ADF81C30214B42F8103F80
:102980001C482B464FF4E65100F0E6FE1D4B1E4A54
:10299000C54603F11000114653F8045B42F8045B8E
:1029A0008342F9D11B781370184A194B53604FF6C4
:1029B000FF731160D3810125002311462046137453
:1029C000158109F0DFF9034628B1124A0948294662
:1029D0001AF0EBF8B9E7104A064803211BF080F91A
:1029E000B3E700BF894302008B46020000020204E5
:1029F000050000020030020064180020B14302000C
:102A000003000001BE6C02009E2E00205018002022
:102A1000D1270000BF430200E743020070B54478AD
:102A200014F00F0486B005460E4610D00F4A104829
:102A3000022106B0BDE870401BF052B9696810224F
:102A4000214401A81CF00EFB28B91034E4B26B78C5
:102A5000A342F3D807E0074901A81CF0D6FA0028E2
:102A6000F3D10123337006B070BD00BF14440200DF
:102A700000300200BE6C020037B5002301931748F6
:102A80001FF0AAF9F0B9002005F09CF90346E0B167
:102A9000134A144801211AF088F8002003B030BD11
:102AA000AB689B6C1BB101AA04212846984740F6ED
:102AB000CD4000211FF073FD019B002BE3D1013CB1
:102AC000EED1E0E7054D1F24F6E7074A054803214C
:102AD0001BF006F9FFF724FDDFE700BFA42C02007E
:102AE0003E440200003002005D4402002DE9F84F30
:102AF0008A4600AF002974D004680E1F361BF50803
:102B000026F0070604EB0608B8F802B01BF0010B2C
:102B100016D1E94688B06A46334BCDE90531032327
:102B200042F8103F31485B464FF4C25100F014FEAA
:102B3000CD468BF31188BFF36F8F0423184602DF55
:102B4000294620461AF04FF8284434F83030C01A8D
:102B5000854217D0E94688B06A46254BCDE9053A4B
:102B6000032342F8103F214800234FF4C25100F0E4
:102B7000F3FD0023CD4683F31188BFF36F8F042349
:102B8000184602DFB8F8023023F00103A8F802303B
:102B9000294620461AF027F805EB000804EBC80385
:102BA0005B88DA0708D4414620461AF065F84246A9
:102BB000294620461AF0A5F8A65BAE1B04EBC60317
:102BC0005B88DB0709D4314620461AF055F82A46BF
:102BD000314620461AF095F83546294620461AF027
:102BE00007F8BD46BDE8F88FCE440200D0300200A1
:102BF000A544020008B502481AF092FB002008BD67
:102C0000FB4402000E4A9042034602D30D4A904212
:102C100011D30D4A22B1934202D30C4A93420AD3F4
:102C20000B4A52B10B48834234BF0120002093422B
:102C300038BF00207047012070471046704700BF22
:102C4000B02B0200D46D0200000000000000000064
:102C500000000000000000002DE9F04F9BB000AF25
:102C60000446D7F890A0FA637B638B4649B9037892
:102C70004678807800EB830020445E4522D8A0EBA4
:102C8000040B0AF0010394F80280FB62E3783B63D3
:102C9000B8F1000F0CBF4FF000090AF0010913B1A1
:102CA0001AF0020F17D1B9F1000F14D1FB6B1BB151
:102CB0007A6B5946204698475D4628466C37BD4694
:102CC000BDE8F08F451C2846FDF760FE0130284422
:102CD0000BF1010BD1E7CAF3C003FB612378BB62A0
:102CE0009B00BB6163683B62BB6A04EB8301FB6BC7
:102CF000002B7DD15D468844B9F1000F1DD0A94E4F
:102D00008B4699461BF8013B54F82300002808BF66
:102D10003046FDF73BFED7F8943001304BB1D7F881
:102D200098304B4582BFD7F8943023F8190009F149
:102D30000109C3450544E5D1D8461AF0050F0AF04C
:102D400002030CBF4FF0020B4FF0010B0026FB6398
:102D50003B6B9E42B1D298F8013054F823A0504604
:102D6000FFF750FFFA6908F10208034602B3B8639F
:102D700018F8021C386A1AF0B2FABB6BC0B1EA4606
:102D80008AB06A46884B05933B6ACDE906314FF419
:102D90000073ADF82030854B42F8103F8448002383
:102DA0004FF4125100F0D8FC023DD5460136CFE772
:102DB00023B1FB6A2BB9A5EB0B05F7E7FB6B002BE7
:102DC000F4D07848BAF1000F18BF5046FDF7DEFD89
:102DD000D7F8943053B1D7F8983099453FBFD7F81A
:102DE0009420431C22F8193009F101090544DDE75C
:102DF000B9F1000F6CD04346102B28BF1023BB63E2
:102E000097F8389007F148000026BA6B79621FF0F6
:102E1000F6FC796A00227A620AF0020201EB0803EA
:102E20003A610AF004027B61FA6002337A6A396B14
:102E30008A4266D36378F96A7B621AF0020F4B44C8
:102E4000DBB20CBF72080022002940F0A9801AF002
:102E5000040F14BF314600216370A170E270B9699C
:102E60007A6BFB6B20469847051EFFF626AFBB6AC0
:102E700023707B6A63703B6BE37031467A6BFB6B4C
:102E800084F8028007F158009847061EC0F2C480FB
:102E90003A6BBB69386B03EB4203ABEB0301D7E939
:102EA0000D23C91A7B6903EB4000FB6B9847002890
:102EB000C0F2B4802E4435184FF0000807F1480ADC
:102EC000C84577D300217A6BFB6B08469847F4E638
:102ED000B8F1000F0CD01AF0040F0ED04346102B9F
:102EE00028BF1023BB6397F8386007F158008CE7C0
:102EF000C7F838804646C1468CE7C7F838804E464A
:102F000088E713F8015C13F8021C54F82500BB6035
:102F1000FFF778FE0246F869BB6838B1386AC7E93E
:102F200001321AF0DCF9D7E90132F0B912B3FA6ACA
:102F300072B1B9F10F0F18D809F1280107F140005B
:102F4000014409F1010201F8205C5FFA82F90CE00A
:102F5000FA6852B10F2E08D806F1280107F1400097
:102F6000721C0E1806F8105CD6B27A6A01327A62C8
:102F700002335BE73A69002ADBD10F2EF5D806F160
:102F8000280007F1400C6044721C00F8101C07F187
:102F9000680151FA82F20236F6B202F8105CE4E7F8
:102FA000002159E7374502003E45020004000001B8
:102FB0007830020018F80A3087F8473054F823B008
:102FC000D7F8943033B3D7F89830984522D2D7F851
:102FD000943033F818607A6BFB6B012107F14700DE
:102FE000984700281ADB0E4B0544BBF1000F08BFC1
:102FF0009B4626B95846FDF7C9FC461CB6B27A6B0B
:10300000FB6B314658469847002807DB054408F11A
:10301000010855E70026DEE735464EE605464CE654
:1030200037450200014B1860704700BF280200209E
:103030002DE9F047058B0446280717460CD50129D2
:103040000CBF45F0100545F02005258387F3118856
:10305000BFF36F8FBDE8F087022905F0070540F048
:10306000948020461AF0FCFB052864D801A353F88D
:1030700020F000BF4D3000008B31000037310000E0
:10308000F9300000133100002531000001F0070382
:103090005A1F012A1FD8002221F00701062BD4F85D
:1030A000008089B2C4E9002209D1434603E0628B63
:1030B000013262831B68002BF9D141F002012183A8
:1030C00020461AF0CDFB4FF0000900286DD041F0EA
:1030D0002001218369E0042B0AD121F0070189B284
:1030E000218320461AF0BCFB10B141F0200121835E
:1030F0004FF00008C14658E02369D3F80090238BB5
:1031000023F0070343F0060323834FF000084646ED
:103110004BE02369D3F80490238B23F0070343F09B
:103120000403F1E72369D3F80890238B23F0070306
:1031300043F00503E8E74FF00008C146E7E7012246
:1031400043F00803238387F31188BFF36F8F002AAE
:103150003BD1B8F1000F4AD1B9F1000F02D02D498F
:103160002046C847EFF31187202383F31288BFF36B
:103170006F8F238B23F008039BB22383D9063FD59F
:1031800023F01002228303F007056669218B002ECD
:10319000BFF67CAF0023D4F8008021F00701C4E91A
:1031A000003341F0010121839946238B03F0070A84
:1031B000AA4502D0A268002AC1D1B8F1000F02D1FD
:1031C000B9F1000FDAD00022BAE7A1680029C0D017
:1031D0000D680029BDD04F68334652462046B84797
:1031E0001DB12B6829461D46F3E72B46FAE74146F9
:1031F000334652462046D8F800801AF05DFBA8E717
:103200009A067FF523AF23F02002228303F00705FF
:1032100027E700BFE5D801002DE9F047DFF854802B
:10322000044607464FF0010994FAA4F5B5FA85F56E
:1032300009FA05F32E0108EB05156FEA030A24EAE3
:1032400003042B7B63B158F806301B696BB9464405
:10325000042273682846196807EA0A071AF0D0FCA6
:10326000002CE1D13846BDE8F08728469847002871
:10327000F6D1ECE75031020010B50F490F4888B085
:1032800000221FF02CFA00220023CDE9062300249F
:103290000E23CDE90334CDE90144094B09490094DB
:1032A0004FF44072084817F02BFD084906481FF0FC
:1032B00098F8204608B010BDD1320000100F002051
:1032C0000136000098300020800A0020FD450200F1
:1032D000014817F085B900BF840800202DE9F047A8
:1032E000804621480F461AF06BFC0646002833D072
:1032F00000252846BDE8F087237B83B12368DB687F
:103300000BB120469847636883F8069023681B69D1
:10331000D3B963680422196820461AF071FC01369B
:1033200010345445E8D3B8F1000FE2D0002DDFD0BF
:103330002846FFF771FF0546002FF7D000214FF414
:10334000A4701FF02CF9F1E7204698470028E0D040
:1033500009FA06F31D43E2E7044CDFF814A0054622
:103360004FF00109DDE700BF78180020503102005E
:1033700060310200014B53F8200070473C340200DA
:1033800008B5034608462BB1044A136000F056FC0A
:10339000002008BD6FF01500FBE700BF2C020020E5
:1033A00010B5044C237813B9034817F019F9012319
:1033B000237010BDAF2E00208408002010B50446F5
:1033C0000B481AF0FDFB5CB1BFF35B8F094B53E870
:1033D000001F013943E80012002AF8D1BFF35B8FC8
:1033E000054818F08DFA0548BDE8104017F0F8B808
:1033F0007018002074180020100F0020840800208E
:10340000064BBFF35B8F002253E8000F43E8002117
:103410000029F9D1BFF35B8F704700BF70180020FF
:1034200070B5FFF7EDFF084C084E0546B44200D3D7
:1034300070BD63685B792BB123685B6813B1294663
:10344000204698471034F1E7503102006031020005
:1034500010B5044C044920461AF07CF8034B1C605C
:1034600010BD00BF8C07002028340200681800201F
:103470000D4A0E48002310B513700D4A13600D4A13
:103480004FF400411360FFF77BFFFFF7E1FF0A4BAA
:103490000A4918468B4200D310BD1A1A5C681211F3
:1034A000013222711033F5E7B02E0020BDDB0100A0
:1034B00070180020741800205031020060310200A2
:1034C00001460022014800231AF065B88C0700204D
:1034D00001481AF0FCB800BF8C070020024B0146DF
:1034E00018681AF04FB900BF6818002001481AF098
:1034F00084B900BF8C07002070B52A4B1B78002BC5
:103500004ED0FFF7E5FF0446002846D1264B274D55
:103510001B68002B19DD1FF09AF84FF47A76A0FB98
:10352000063206FB0121D5E90020DB0B43EA4143CB
:103530009B1A4FEAD13140F2E93261EB000193422C
:1035400071F1000101D3FFF76BFFD5E9003213F5EC
:103550007A7342F10002C5E900320CB3BDE8704055
:10356000FFF7C4BF6B685B7923B12B6821461B68EA
:10357000284698471035B542F4D32046FFF7AEFFF2
:10358000BFF35B8F0A4B53E8001F013943E8001279
:10359000002AF8D1BFF35B8FB8E7064D064EEAE785
:1035A000002070BDAF2E002070180020080F0020F2
:1035B00074180020503102006031020070B50D4DCA
:1035C000297861B90120FFF789FE0B4C0B4EB442FC
:1035D00006D3FFF791FF0028FBD101232B7070BDAC
:1035E00063685B791BB1236820469B689847103459
:1035F000EDE700BFB02E0020503102006031020024
:1036000000212DE9F8430846FFF768FE044648B359
:1036100040F267684FF0000901F01EF81A4B1B4A90
:103620001B58136033B11A4B1B68092B02DD194874
:1036300016F0D6FF184F002544B12046FFF7ECFDE9
:10364000044618B94FF0FF384FF0FF39FFF754FF29
:10365000064628B9B5B90F4842464B4616F0F6FF64
:103660003546E9E74FF0FF384FF0FF39D4E72B68D4
:103670009B691BB100221146284698471035BD4270
:10368000F5D3E8E7054DFAE7080000006C180020C4
:1036900074180020840800206031020050310200BC
:1036A00013B518481AF08CFA174B1B7873B1EFF367
:1036B0001184202383F31288BFF36F8FFFF71CFF61
:1036C00084F31188BFF36F8F02B010BD0F4B1B68DE
:1036D000002BF9D050B900220023CDE900230C487B
:1036E0004FF40042002318F0E5F8EDE70928EBD18C
:1036F000074818F005F9074802B0BDE8104016F079
:103700006FBF00BF74180020B02E00206C1800207E
:10371000100F00208408002010B5064B1B680446DB
:1037200098472146A060044819F0B2FFBDE8104058
:10373000FFF7B6BF2C0200208C070020044A054B7F
:103740009B1AB1EBD30F34BF52F831000020704701
:1037500000300200503102002DE9F04F8FB004AF6D
:10376000C1F34A26B8600D4690467B600C0D002ED2
:1037700061D04FF000090A234FF0040B07F1140A3F
:10378000FE60C7E90799C7F824900093CDF808B008
:10379000CDF804A007F11C03F9684A464046FFF73C
:1037A0005BFAB0F5006F03461CD36C468AB0D8F8BC
:1037B000041004AB2448C3E9050140F2FF71D9614C
:1037C0001A464FF400711984204B42F8103F2048EC
:1037D0004B464FF41251FFF7BFFFA5462C37BD46AD
:1037E000BDE8F08FC0F30A0604F11700184420F07A
:1037F000070080083B60FFF763FE66F3532504462D
:1038000080B13B68134A00F11001C7E90839F9613A
:10381000CDE901AB0A230093F96807F11C03404688
:10382000FFF71AFA66F353257B68B9682A462046E3
:103830001AF006FAD2E704F1170020F0070080081A
:10384000FFF73EFE0446EDE71246020004000001C9
:103850009030020013DC01002DE9F04F87B0DDE964
:10386000127ADDE9106B0546884614469946BFB1C9
:103870001021CDF800A03B465A460020CDF814A0F8
:1038800019F054FBB0F5006F01460BD3194A1A48E2
:1038900040F2FF73022107B0BDE8F04F1AF029BAD9
:1038A0003946384604F0070305F00704E40044EA0B
:1038B000831444EA402444EA065406F117000844FD
:1038C00020F0070080080391FFF7FAFD054640B19C
:1038D0003FB10399CDF800A03B465A46103019F08D
:1038E00025FB4B4622464146284607B0BDE8F04F2F
:1038F0001AF0A6B95146020090300200406820B18B
:10390000034BC01A40F3CF0070474FF0FF307047B1
:10391000003002000EB403B503AB014653F8042B8C
:103920000448019300F0F6FF02B05DF804EB03B029
:10393000704700BF55DD0100CA0605D48B064CBF99
:1039400002490349FFF7E6BF704700BF8A460200FD
:10395000894602002DE9F04F8BB09946179B0793DB
:10396000DDE918A39DF858801A9F069204460D467B
:103970000593B8F1000F00F0BF80844B13F80830B6
:10398000089307F4807309931AF038F907F0020BD3
:10399000024600287DD07E492046FFF7BBFF064641
:1039A000BBF1000F08D017F0440F74D179492A46B3
:1039B0002046FFF7AFFF064407F0010353B1764BF3
:1039C000764953F82820764B2046002A08BF1A462D
:1039D000FFF7A0FF07F48073002B07F0080318BF60
:1039E0004FF00009002B00F082806E4B6E4953F8B7
:1039F00028202046FFF78EFF0546069B2BB16B491A
:103A00001A462046FFF786FF0544B9F1000F0DD096
:103A1000089B002B6ED06649664BB8F1040F18BFA7
:103A200019464A462046FFF775FF0544624835446B
:103A3000079B1BB16149224619F020FC059B002B16
:103A400000F09080DDF814903946B9F1100F20464F
:103A500028BF4FF01009FFF76FFF0026B54252DC78
:103A6000002633461AF8032055492046FFF752FF37
:103A70000136102E4DD0710703D152492046FFF771
:103A800049FF4E453346EDD34F492046FFF742FFED
:103A9000EEE7064684E74D4B186800288BD04C4B68
:103AA0004FF47A7B1B68B5FBF3F54FF46163B5FB0C
:103AB000F0F100FB11550BFB05F54FF03C0CB1FB91
:103AC000F3F203FB1211B5FBF0FEB1FBFCF300FBBC
:103AD0001E550CFB13110BFB05F50091B5FBF0F522
:103AE0003C49CDE901E52046FFF714FF63E707F005
:103AF000080582E72F4994E7B9F1010F0CBF2E4862
:103B00003548454694E72F492046FFF703FF013625
:103B1000A4E7324920460026FFF7FCFE33461AF898
:103B200003202F49A2F120035F2B28BF2E2220461D
:103B3000FFF7F0FE0136102E0DD0720703D1214998
:103B40002046FFF7E7FEB1453346E8D81D49204639
:103B5000FFF7E0FEEEE7059BB3EB0903CA440593CC
:103B60007FF470AFB8F1000F0AD0FB0704D50C4A00
:103B70000A492046FFF7CEFE39462046FFF7DCFE15
:103B800020460BB0BDE8F04F1AF0D7B8F76C020032
:103B90009A4602009E4602004C34020099580200E8
:103BA0008C46020060340200C4460200CA4602008D
:103BB000914602009546020055DD010015490000BE
:103BC000CE460200D6460200D446020080180020ED
:103BD0007C180020A84602008BDD0100D8460200B8
:103BE000DA46020073B542F20F738B4228BF0B46D0
:103BF00005680F4A04460521684617F005FF63680B
:103C00000C495B6806460B2228461AF088F8636860
:103C10003246694628465B681AF081F863680649AF
:103C20005B681B2228461AF07AF802B070BD00BF0C
:103C3000594E0200EB6C0200CF6C0200074A0021D3
:103C40000123904206D8064A01B901231360054BAF
:103C50001860704740085B000121F2E740420F0006
:103C60007C18002080180020F8B5074F0D46044648
:103C70004618B44201D12846F8BD14F8011BBB68B0
:103C800001485B689847F4E7A42C0200014B0360ED
:103C900000207047A8340200B0B582B03F494048C8
:103CA00002AF1AF00AFB0446A8B16D468AB002AA18
:103CB0003C4B53613C4BC2E906344FF40073138410
:103CC0003A4B42F8103F3A4800234FF41151FFF7A6
:103CD00043FDAD4632E0374931481AF0EEFA04466A
:103CE00030B16D468AB002AA2E4B5361324BE2E7E7
:103CF00032492B481AF0E1FA044630B16D468AB0D9
:103D000002AA284B53612E4BD5E72E4924481AF0BE
:103D1000D4FA044630B16D468AB002AA214B5361F1
:103D2000294BC8E70146294A1D4802F015F9044607
:103D300038B1274A1E48012119F0D2FF2046BD465E
:103D4000B0BD024623491648012302F0FBF90446A0
:103D500008B1214AEEE701230093014602231048EF
:103D6000EF221AF027FA04460028E7D10C4800F0A9
:103D700049FF044630B16D468AB002AA094B53612F
:103D8000164B98E7064800F07DFF04460028D5D082
:103D90006D468AB002AA124BF1E700BFAC020020C8
:103DA000E809002013470200304702000400000128
:103DB0008030020094020020444702007C02002070
:103DC0005C470200640200206F47020038020020B6
:103DD0007D47020099470200A3470200BE47020048
:103DE000CD47020080B505460E461746984617F0A7
:103DF000A3FA034600F030FCDFF81890044649F8B7
:103E00000030424630463946A84754F8090000F0D1
:103E1000C5FB00BF0800000008B50348034A0021A5
:103E2000121A1AF063F808BD800A002098300020AA
:103E30000748084A084908B5121A1AF059F80748FD
:103E4000074A0849BDE80840121A1AF051B800BFE5
:103E5000000000207C0A0020D46D02000000002039
:103E600000000020D46D02002DE9F047064600AFA7
:103E70000C46002936D0E9468AB0D1E90012A36881
:103E80006D462148E8464FF0050ACDE90501CDE928
:103E9000072348F810AF1D48424600234FF4215134
:103EA000FFF75AFCCD46D4E903126369AD461848C2
:103EB000C5F810A0C5E90501C5E90723134800238B
:103EC00042464FF42151FFF747FCCD46E369114AC2
:103ED0000E48012119F00DFFA3690F4A0B4801217B
:103EE00019F007FF012E07D1EFF305830B4A0748AE
:103EF000103B314619F0FDFE2146304615F0ACFF6F
:103F0000BD46BDE8F08700BFF5470200C83002009B
:103F10002448020053480200624802009048020010
:103F200030BFFFF7FDBF00BF2DE9F0410B4EDFF8BA
:103F3000308006EB0807CC1B05463246094920466F
:103F40001EF05DFCA01942460021083C1EF065FCF5
:103F5000AC6707F10800BDE8F08100BF0000000079
:103F6000080000006031020010B5204C20492148B3
:103F700019F0CBFFA36A990136D51E481E4919F0E6
:103F8000C4FF1E20A36ADA0104D51A481B4919F0A0
:103F9000BCFF1F20154CA36A1B0304D51548184904
:103FA00019F0B3FF2120A36A590304D5114815491C
:103FB00019F0ABFF22200D4CA36A9A0304D50D48DB
:103FC000114919F0A2FF2320A36ADB0304D5094895
:103FD0000E4919F09AFF2420044A936A6FEA0343BA
:103FE0006FEA1343936210BD1D20CBE700ED00E0A4
:103FF000A3480200C8300200BB480200CE480200BD
:10400000E8480200064902002B4902004549020027
:1040100070B506460D46294C29492A4819F075FF06
:10402000A36ADB0647D52748274919F06EFF112000
:10403000A36A1C0704D52348244919F066FF1220FF
:104040001E4CA36A990712D521491E4819F05DFF3D
:10405000636BA26A120609D51E4A1A48012119F09B
:1040600048FE1EB1A36A23F08003A3621320134C01
:10407000A36ADE0704D51348174919F046FF142038
:10408000A36A9C0604D50F48144919F03EFF152079
:104090000A4B9A6AD10658BF9A6A9A6A920642BF38
:1040A0005A6A22F400525A629A6A42F0FF029A62F5
:1040B00000232B7070BD1020BAE700BF00ED00E0B8
:1040C00070490200C830020086490200B949020066
:1040D000CC490200E4490200FA490200194A0200F0
:1040E00070B506460D46284C2849294819F00DFFA1
:1040F000A36AD9043CD52648264919F006FF1720A3
:10410000A36A1A0504D52248234919F0FEFE182097
:104110001D4CA36A9B0512D51D48204919F0F5FED8
:10412000A36BA26A100409D51D4A1948012119F090
:10413000E0FD1EB1A36A23F40043A3621920124CD0
:10414000A36A590504D51248164919F0DEFE1A2053
:10415000A36ADA050ED50E48134919F0D6FE1B20C6
:10416000094A936A43F47F43936200232B7070BD26
:104170001620C5E7A36A9B04F2D505480B4919F040
:10418000C4FE1C20ECE700BF00ED00E0484A02003E
:10419000C83002005E4A0200B94902006F4A0200BC
:1041A000884A02009D4A0200B84A0200194A0200E9
:1041B000F0B56A4B8BB00446586800AFC0F30803F3
:1041C000002585F31188BFF36F8F02F07F46B6F1AB
:1041D0007F4F07D102F00C06082E0ED160496148CE
:1041E00019F093FE60495F4819F08FFE00210846E0
:1041F000FFF73AFE2C37BD46F0BD16074CBF0C4604
:104200000125002CEED00022FA71DA1E092A00F2F4
:104210008580DFE802F0057B7E778383838383815B
:10422000524950484D4E19F070FE0023FB71F36A5D
:104230009A0705D54E494B4819F067FE00232DE03B
:10424000F36A002B01DA4B49F5E7F36A5B00F5D519
:104250004949444819F059FE7369A26943F48073CF
:104260007361BFF34F8FBFF36F8F32F8023C7269F7
:1042700022F480727261BFF34F8FBFF36F8F03F42C
:104280007F42B2F55F4F27D1DBB2022B24D12368E6
:104290003A4A3448012119F02CFD2368FA79002AA2
:1042A000A8D107F1080604F1200C206861683246A5
:1042B00003C2083464451646F7D17A6A002D4AD005
:1042C000C2F3080121B96FEA52226FEA42227A62F0
:1042D00007F1080118468BE7204B9A6AD2B222B147
:1042E000F91D0120FFF794FE0EE09A6A12F47F4F49
:1042F00004D0F91D0120FFF7F3FE05E09B6AB3F53A
:10430000803F9BD3FFF730FE0346C7E7F91D00202F
:10431000E8E7F91D0020EEE719498CE7194A1A4928
:1043200010F4F87F6E468AB018BF11466A46103BFB
:10433000079316484FF40073ADF82030144BCDE9C5
:10434000050142F8103F074800234FF41151FFF7D1
:1043500003FAB54672E76FF30802B8E700ED00E034
:10436000FE4A0200C8300200294B0200654B0200E1
:104370007C4B02009D4B0200AB4B0200CA4B02007B
:10438000E64B0200E54A0200D04A02000A4C020055
:1043900004000001044B5A6942F010025A615A6944
:1043A00022F008025A61704700ED00E0EFF3088048
:1043B000EFF3098101B57246FFF7FAFE01BD00BFB8
:1043C0000B4880F3088815F0F1F8202080F311885D
:1043D00008484FF40061401880F30988EFF3148017
:1043E0000221084380F31488BFF36F8F00F06CF84C
:1043F00068550020284800201EF0040F0CBFEFF382
:104400000880EFF30980816911F8021C0229FFD0AE
:1044100001B5724619F06EFD01BD00BF40B2002823
:1044200007DB044A4109012300F01F00834042F8E2
:104430002130704700E100E040B200280CDB430966
:10444000064900F01F0020330122824041F823205A
:10445000BFF34F8FBFF36F8F704700BF00E100E0E5
:10446000054B420900F01F0053F82220012303FAF4
:1044700000F01040704700BF00E100E040B20028AB
:10448000A8BF00F1604001F10101B8BF064B4FEA3F
:104490004111ACBF00F5614000F00F00C9B2B4BFDC
:1044A000195480F80013704714ED00E0044B054ADE
:1044B00023F07F039360BFF34F8FBFF36F8F70477D
:1044C0000000000000ED00E008B5FFF7EFFF0B4A29
:1044D000D2F8883023F47003C2F88830EFF31483E5
:1044E00023F0040383F31488BFF36F8FFFF794FC6A
:1044F000FFF79EFC00F092F815F0DAFD00ED00E009
:1045000042F8203C009B42F81C3C0A49019B42F8BF
:10451000183C029B42F8143C21F001014FF08073DB
:1045200042F8043C42F8081C0023203A0265C367A5
:10453000704700BFE53D000000B50B4B98600B4B8A
:104540001546826F1A600E462C4686F309880020B5
:10455000034B98472046002100220023014C2047AE
:1045600021DF0100E53D00004C2E0020A8180020AE
:10457000014B10221A61704700ED00E0054B5A69AB
:104580009B689A421FBF044A536843F080535360AC
:10459000704700BF4C2E002000ED00E0084B9B68E8
:1045A00083420BD1EFF3058343B1064B5A6842F0C7
:1045B00080525A605A6A22F400425A621DF016BFB5
:1045C0004C2E002000ED00E011498A684FF03000C9
:1045D0001044EFF3098C80E8F01F202080F312884C
:1045E000BFF36F8F0B4F4FF000664A698A603E60E1
:1045F000906F094C2060D06F0023D36780F311883F
:1046000002F1300090E8F01F8CF309887047000039
:104610004C2E002004ED00E0A818002004480023E0
:104620002021C2180133302B82F80013F9D17047D2
:1046300000E100E008B5EFF30583064A103B02EB0A
:10464000C30152F8330049688847BDE80840FFF7C6
:1046500095BF00BF4C2D0200014800687047000064
:10466000A8180020024B034A0348012100F07AB841
:1046700000000420000000200C35020008B50346AD
:104680001048D0F89020C2F30722013A934207D98C
:104690000D480E4A012119F02CFB6FF0150008BDE2
:1046A000C0F898300A6822F01F021A4342F0100244
:1046B000C0F89C208A6842F00102C0F8A020184689
:1046C000EDE700BF00ED00E0A8300200214C020041
:1046D000F0B50E4685B01F4604460025B5420DDAFA
:1046E000606810B397B1431E18420AD0104A1148AF
:1046F0002B46012119F0FDFA6FF01502104605B0A6
:10470000F0BD1F28F2D921680B42EFD12368019335
:1047100019F029FCA36801A90343D0B20393FFF762
:10472000ADFF10F1160FE7D0421C01350C34D5E770
:10473000474C0200A8300200044B0522C3F8942025
:10474000BFF34F8FBFF36F8F704700BF00ED00E0E6
:10475000BFF35F8F024B0022C3F89420704700BF65
:1047600000ED00E010B5034C01232278FFF7B0FF05
:10477000207010BDB12F00202DE9F0435F48604943
:10478000D0F890300C68C3F307239C4285B000F248
:10479000B280FFF7DDFF49680022944201F10C016D
:1047A0001AD1584F584D3C706846FFF76FFA574C76
:1047B000574E81464FF00008C14520D13B784F4904
:1047C0000020D1F89020C2F307229342C0F28D80DE
:1047D000FFF7B2FF002052E0C0F8982051F80C3CDF
:1047E00023F01F03134343F01003C0F89C3051F82B
:1047F000043C43F00103C0F8A0300132CDE700983B
:1048000000EB08114FEA081CCB682340B3F5000FFA
:104810004ED00BD8B3F5001F34D0B3F5800F3CD089
:10482000B3F5801F16D008F10108C5E7B3F1007F8A
:1048300046D0B3F1805F4BD0B3F1807FF3D150F815
:104840000C3088684A6819F08EFB40F0885040F4BC
:10485000801009E050F80C3088684A6819F083FB32
:1048600040F0885040F43020039001A93878CDE919
:104870000123FFF703FF002833DA6FF0150005B0BE
:10488000BDE8F08350F80C3088684A6819F06BFB7B
:1048900040F0885040F40020E6E750F80C3088687B
:1048A0004A6819F060FB40F0C06040F40030DBE77C
:1048B00050F80C3088684A6819F055FB2843D3E754
:1048C00050F80C3088684A6819F04DFB3043CBE74C
:1048D00050F80C3088684A6819F045FB40F0885061
:1048E000E3E73B7801333B709DE7C1F89830C1F8AE
:1048F000A000013365E74FF0FF30C0E700ED00E0B6
:1049000018350200B12F0020000004110000F0FF54
:1049100000000410F0B587B007460E46144600218B
:10492000102268461D461DF078FF02238DF80230E4
:104930002A46054B019321466846CDE9047617F0D7
:104940001DF907B0F0BD00BF87DF010008B5024BBD
:104950001B689847002008BDAC180020034B044A90
:104960001860937843F0020393707047AC180020EE
:10497000D402002008B50649064821F00701C1F11C
:10498000005202F5802218F090FA002008BD00BF06
:104990002F720020B018002070B54169867A0B4D47
:1049A000044659B1437ADB0706D4242303FB06539C
:1049B000DB691B689B6898470023636124202146BC
:1049C00000FB0650BDE870401DF0B8BBC8080020D1
:1049D000024B242202FB0030704700BFC8080020B1
:1049E000827A064B242101FB02331A6A1B7D1B339A
:1049F000801A23F00303B0FBF3F07047C8080020CF
:104A000038B5074B827A242404FB0233DB69D3E9EF
:104A100001240C601568FFF7E3FF04FB005038BD6C
:104A2000C80800202DE9F04385B00546684603918B
:104A300090461C461DF00DFEDDE90067EFF311897D
:104A4000202383F31288BFF36F8F6B8A002B41D032
:104A50002A8A9A4225D900220023284615F08AFD89
:104A60000446F0B189F31188BFF36F8F039B002BCD
:104A700041D032463B4668461DF010FEA27A264BD6
:104A8000242101FB02332046DB691B6803A91D6852
:104A9000DDE90023A847606170BB2046FFF77CFF7B
:104AA00024E0698A4B1E6B8289F31188BFF36F8FF4
:104AB0002B7D2A8A2C6A1B3323F00303521A02FB34
:104AC0000344154B154AEB1A9B105343A3722B7DDD
:104AD000E372CBE789F31188BFF36F8F2346424619
:104AE000284615F047FD04460028BFD10024204683
:104AF00005B0BDE8F0836361012300252381039B9A
:104B00006382E27A6560294604F118001DF085FE93
:104B100063692582E360EAE7C8080020398EE3383C
:104B2000F8B5124D0024242600B9F8BD00F10802A2
:104B30004768BFF35B8F52E8003F591E42E8001CF4
:104B4000BCF1000FF7D1BFF35B8FDBB2012BECD1CF
:104B5000837AC46006FB035344609B6913B1984792
:104B60003846E1E7FFF718FFFAE700BFC808002062
:104B7000044A0123C2F840354FF08042C2F878352C
:104B8000704700BF00E0014048B1054B054A1B6873
:104B9000B3FBF2F35843044B43F00103184770474B
:104BA000FC06002040420F009031020008B5054A83
:104BB000054B136010463C23536014F0CDFD0020DC
:104BC00008BD00BFBC1800203FC00F0008B50A4850
:104BD0001DF002F968B108481DF0FEF848B1074A17
:104BE0000548192119F0BBFA054A0348022119F0BA
:104BF000B6FA002008BD00BF882C02000100160094
:104C000001001A0038B5044616F072FB204619F070
:104C1000C3FAA069C8B194F86C30DB070DD5164A09
:104C20001648022119F0B6FA6FF07705201D19F029
:104C3000BAFA16F071FB284638BD1DF0CDF838B928
:104C40000F4A0E48012119F0A5FA6FF01205EDE7A1
:104C5000204600F091FF05460028E7D101462422B6
:104C600004F128001DF0D9FD94F86C3043F00103E5
:104C700084F86C30DAE700BF974C0200283102005C
:104C8000C14C020070B5044616F032FB204619F004
:104C900083FA94F86C30DA070DD4264A26480221AC
:104CA00019F078FA4FF0FF35201D19F07CFA16F054
:104CB00033FB284670BDC3F340019B0707D51F4A4D
:104CC0001D48022119F066FA6FF07705ECE7A0693C
:104CD0001CF0F2F80646A0691CF05DF9054628B103
:104CE000174A1548012119F055FADDE7A36F4BB1BA
:104CF0003146204619F011FC0546A0B1A0691CF010
:104D000076F9D1E7A0691CF0EEF8A0670028EFD192
:104D10000C4A0948012119F03DFAA0691CF067F915
:104D20006FF00B05C0E794F86C3043F0020384F891
:104D30006C30B9E7E44C0200283102000A4D020051
:104D4000304D02004C4D020038B580210446806988
:104D50001CF0ECF8054678B10146204601F0CCFA8B
:104D6000044638B10648074A012119F034FB2846A9
:104D7000FFF7D6FE204638BD6FF00B04FAE700BF00
:104D8000083102007B4D020038B50446806F19F0EF
:104D900046F9054619F00FF92046294601F0ACFA0C
:104DA000044638B10448054A012119F014FB28468D
:104DB000FFF7B6FE204638BD083102009E4D0200C6
:104DC0002DE9F04F95B002AF00237B610B7E33F0ED
:104DD00080050446884616460BD0B24AB2480121E7
:104DE00019F0F9FA6FF0040528464C37BD46BDE8C6
:104DF000F08F8AB10846FFF793FE98F81930DA076A
:104E000005D49E07F0D598F81830002BECD1204639
:104E1000FFF7BAFF00F095BC4A7E00F12809900721
:104E200005D5802B09D14046FFF77AFEDCE79107D4
:104E300000F0C784002B40F0C484D3072AD5B8F80B
:104E40001030082B13D1D8F80C201368A3625368D4
:104E5000C9F804304146002019F00BF97861D8B147
:104E60009148924A012119F0B6FA786905E08E4816
:104E70008F4A012119F0AFFA4046FFF751FE48462C
:104E800019F0A3FA0346A069002B00F0D584802115
:104E900000F0DBBCC7F81480FFF7DEFB94F8285065
:104EA000844A002315F0600F8350C5F3411375D079
:104EB000032B40F006846FF08505FFF7CDFB7D4B9B
:104EC0001B58002B41D0002D42D11DF0C0FB4FF4E8
:104ED0007A72A0FB020302FB0131C30B43EA414398
:104EE0007549BFF35B8F0868BFF35B8F41F2873270
:104EF0001E1A9642714A40F2EC83BFF35B8F51E871
:104F0000006F864204D141E8003CBCF1000FF6D1AD
:104F1000BFF35B8F40F0DD83BFF35B8F52E8003F50
:104F200042E800510029F9D1BFF35B8F23B1644AF5
:104F30005D48022118F0DDFE624A5B48022119F04B
:104F40004AFAFFF789FB5B4B1D58002D00F0D88310
:104F50005D4A5548032119F03EFA6E4688B002AA10
:104F60005A4B53615A4B93614FF400739383594BDF
:104F700042F8103F58494C484B46FEF7EDFB15F1FF
:104F8000860FB54640F0B183544A4748032119F0D3
:104F900022FA786900287FF470AF70E7484619F06C
:104FA00014FA94F82930002840F05181013B0A2B73
:104FB00081D801A252F823F059510000B74E0000E9
:104FC000C9510000B74E0000E54F0000B74E000089
:104FD000B74E0000B74E000053500000B74E00001F
:104FE0000F510000A069618D03697F2993F880301B
:104FF0003FF661AFA28D002A7FF45DAFE28D002AFB
:105000007FF459AFEE067FF456AF94F83020022AB1
:1050100002D14FF0FF3550E71D070BD5C9B219F08B
:105020000FFA054648B1638D2D4A1F48012118F03B
:1050300060FE42E7012384F8393094F83030012BC8
:1050400005D1638D1BB984F83030002535E7012385
:10505000F9E7204619F0A9F8628DFF2A01463FF6CC
:105060002AAFE38D002B7FF426AF94F82830D806C2
:105070007FF421AF94F83030002BCAD0A2BB618DF1
:1050800094F838308B42E0D0C9B2204600F00CFFD3
:10509000638D054678B3134A00900121024818F049
:1050A00032FE0AE7BD4D020008310200F54D020054
:1050B000DE4D02000C000000C8180020C4180020BB
:1050C000CA4E0200DE4E0200074F0200995802004D
:1050D000174F020003000001C01C8000F35E0200B5
:1050E000174E0200394E0200D2B2204619F054FA8F
:1050F0000028C4D18DE7002B14BF0222012284F8BE
:10510000302005211A46204619F0A2FB9DE705F044
:105110001F05012D7FF4CFAEE38D002B7FF4CBAEC6
:10512000628DFF2A3FF6C7AEA18DFF293FF6C3AEC1
:1051300094F83030022B7FF46CAFC9B2D2B2204663
:1051400019F0DAFA811C05467FF4B7AEA54AA648E5
:10515000032119F040F9B0E6E38DA68D002B7FF412
:10516000AAAE94F83030002B3FF453AF012B02D19C
:10517000002E7FF44EAF15F01F0517D0022D7FF4DF
:1051800064AFB4F82AA0BAF1000F7FF45EAFF6B2B4
:105190003146204601F018F9421C05463FF48DAE19
:1051A00052463146204619F018F986E6002E7FF463
:1051B00030AF638D012B7FF448AF94F86C3066F309
:1051C000C30384F86C3040E7A38DE28DDEB2002A81
:1051D0007FF471AE628D022A11D105F01F053543AF
:1051E0004FEA13217FF467AEA069012219F005F997
:1051F00000287FF460AE012384F8393025E794F865
:10520000301000293FF405AF012902D1002B7FF4B3
:1052100000AF15F01F050FD0022D7FF416AF002A46
:105220007FF413AF3146204601F0ACF8431C05462D
:105230003FF443AE0122B4E7002B7FF4EAAE012A2B
:105240007FF403AF94F86C3043F00803B9E70A2BFE
:1052500064D8DFE813F00B006300630063006300B1
:1052600063003A006300010263001602E38D022B23
:1052700054D194F83030002B50D0012BA18D01D1A6
:1052800000294BD115F01F050ED0022D17D0002696
:105290000221204619F0ADFA054618B131460C300E
:1052A00018F01BFF7D61D0E6002937D194F86C30EF
:1052B0009E0806F00206C3F300131E43E8E7C9B2D6
:1052C000204619F0BAFA0646E2E7668DED064FEA87
:1052D0001621F6B208D0002307F128012046BB6250
:1052E00019F0CAF8BD6ADDE701390E2916D8DFE8E2
:1052F00011F00F003300A100150015009D009D0066
:1053000015001500150015001500150015004001C9
:10531000204618F04AFF18B101281AD00025C1E72D
:10532000D4F870A0BAF1000FF8D0E68D9AF80030EA
:105330009E4228BF1E463146204619F05AFA0546BD
:105340000028AFD03246514605F10C0018F0B4FEEB
:10535000A8E7D4F874A0E5E7204618F026FF751CEE
:10536000F8600146EAB2204619F0EEF8064630B978
:105370001E4A1D482B46012118F0BBFCCEE7D0F891
:1053800004A0E18DBAF80220914228BF11462046C0
:1053900019F02FFA05460028C0D0018A428A00F190
:1053A0000C0B521AC1684069091A521A9AF8001077
:1053B0008A4228BF0A465846514618F07DFEF668D4
:1053C0004EB9298AE38D99427FF66CAFC91A5846C7
:1053D00018F08DFE66E770688268126B42B9366815
:1053E000EEE700BF5C4E020008310200824E020070
:1053F000F96890470028F2D0A0F1040A5AF8041F77
:105400000029ECD00B78002BE9D06A8A288AA2EB1D
:10541000000C6A69E868801AACEB000293428CBF0A
:1054200092B21A46584618F047FEE7E7204618F0B1
:10543000BCFE73E732460321204618F024FF824663
:1054400000283FF46BAF18F0BBFFE58D9AF81530DC
:10545000C0B99AF8146087F8286087F82930DAF81C
:105460001030AE4228BF2E461B887B853146204631
:1054700019F0BFF9054600283FF450AF324607F156
:10548000280161E7BA4A7B74DAF808301A40B94B50
:105490004FF0000B9A4287F810B05AD1102107F153
:1054A00018001BF04DFF061E3ADB07F12802102EF4
:1054B000B14807F11801924628BF1026B34502F102
:1054C000020236D3B6000236F6B23E74AE4228BFB0
:1054D0002E463146204619F08CF9054600283FF447
:1054E0001DAF022EB34600F10C0328BF4FF0020B94
:1054F0005A46A6EB0B06184607F11001FB60D3468F
:1055000018F0DAFD73080AEB5602934527D1F0072D
:105510007FF5C8AE1AF80310F86818F0D6FDC1E69A
:1055200058367FF4FBAE954A9548012118F053FF99
:10553000F4E611F8013B4FEA131C03F00F0310F8D7
:105540000CC0C35C02F802CC02F8013C0BF1010B69
:10555000B4E79AF814603E74DAF810A0B6E71BF8C6
:10556000011BF868C7E9013218F0B7FDD7E901322D
:10557000CBE7204618F019FE20B101287FF4CEAE0B
:10558000636F00E0236F002B3FF4C8AE5B88B3F578
:10559000007F7FF6C3AE7B4BBB62002387F82C30C5
:1055A000E36C04F14C0B9B4508BF00237A8D83B15B
:1055B000597D0F2907D1197D0A447A8597F82C2047
:1055C000013287F82C20226D9A4201D01B68EDE74A
:1055D0007A8DE68D964228BF16463146204619F050
:1055E00008F9054600283FF499AE97F8282000F105
:1055F0000C0AB24228BF324607F12801504618F083
:105600005BFD97F82830B34294BFF61AB61B002E04
:105610003FF448AEE36C5B453FF444AE002B3FF4EF
:1056200041AE5A7D0F2A11D11A7D1969FB60B24231
:1056300028BF3246504618F03FFDFB681A7DB24243
:1056400094BFB61AB61B002E3FF42CAE226D9A42C0
:105650003FF428AE1B68E1E794F83030002B3FF4AC
:105660005DAEE18D01297FF459AE94F83860204693
:1056700019F0BFF8054600283FF414AE31460C304F
:105680004BE705F01F05012D7FF448AE204618F0CA
:105690006FFF00283FF442AEA38D4268FF2B3FF618
:1056A0003DAE12799A42FFF439AEDAB20F2A3FF6D4
:1056B00035AEE18D01297FF431AE234493F83A6091
:1056C000D5E707F11401204618F0D6FE0546FFF78E
:1056D000F4BBBFF35B8F52E8003F013342E8003177
:1056E0000029F8D1BFF35B8F2BE401357FF451AC77
:1056F00094F83030244A2248032118F0FAFA48E49A
:1057000098F81930E28DD90708D4EAB92046FFF796
:105710001BFB00287FF4B3ABFFF779BB484618F0BA
:1057200054FE0028F1D1002AF0D02946A0691BF0D0
:10573000E9FB0146786100283FF4A1AB204600F068
:10574000DBFD0546FFF750BB484618F03EFE7D697D
:1057500018B92846FFF7E4F9D8E7002D3FF48FABDE
:105760002946204600F0C8FD80B12846FFF785BBDA
:1057700000FF020000030200326D0200A84E02008A
:1057800008310200050F05001E4F0200A0690369E1
:1057900093F8801011F004017FF439AB1BF0C6FBC5
:1057A000054600283FF46BAB0146204600F0A4FDFF
:1057B00000283FF42CAB274A2748012118F00BFEA4
:1057C000D3E752077FF55BAB002B3FF42CAB404691
:1057D000FFF7A6F994F83930002B3FF405AB94F8A5
:1057E0002930052B0CD1618DA069C9B218F028FEB3
:1057F000064628B1638D194A1748012118F079FA35
:1058000094F82930032B11D1638D022B0ED1A18D79
:10581000A0690D0A0022294618F0EFFD064628B1BE
:105820000F4A0D482B46012118F063FA002384F833
:1058300039303546FFF7D8BAE38D002B3FF427AB5C
:105840007969003918BF0121C9011BF095FAFFF7EA
:10585000DEBA00BF3F4F020008310200174E0200BF
:10586000634F02000B78062B10B414D10369D3F8F0
:105870009C20EFF31184202383F31288BFF36F8FF2
:105880004B6800201860506A58B9C2E9083384F3A5
:105890001188BFF36F8F044810BC002200231CF056
:1058A00086BB03605362F2E74C08002030B589B034
:1058B00000220023CDE9062300246FF00703CDE981
:1058C0000334CDE901441A4B1A4900944FF4806225
:1058D000194815F015FA194917481CF082FD184BA4
:1058E00018498B4207D3184B184900208B4210D31C
:1058F000002009B030BD03F11402BFF35B8F52E802
:10590000000F42E80045002DF9D1BFF35B8F18333B
:10591000E7E703F11402BFF35B8F52E8004F42E860
:105920000005002DF9D1BFF35B8F1833DEE700BF10
:10593000A959000098330020480F00208A4F020028
:10594000640A00207C0A00207C0A00207C0A0020D7
:1059500038B50D4618F00CFE30B9114A1148BDE8B3
:105960003840012118F0BCB9C46804B938BD2B789F
:10597000032B05D0052B0ED0022B08D02468F4E7AA
:10598000606883685B69002BF8D09847F6E7606829
:1059900083689B69F7E760688368DB69F3E700BFAA
:1059A0008F4F0200183102002DE9FF4120274FF0F0
:1059B000FF336B484FF0FF3201A914F0B5FC039B95
:1059C0001B69D3F89C40236A93B1EFF3118287F3EC
:1059D0001288BFF36F8F216A29B1606A0B68236256
:1059E000814208BF636282F31188BFF36F8FC9B928
:1059F0009DF80430062BDAD0072BD8D801A252F834
:105A000023F000BF495A00003D5A0000715A0000BF
:105A10004F5A0000A55A0000935A0000AF590000E9
:105A2000515B00000B7ED1F81E205D06204602D19E
:105A3000FFF7C6F9C7E718F0EDFDC4E70022012122
:105A4000204618F005FFB2E700221146F8E794F867
:105A50006C3043F0040384F86C3094F83030022B3F
:105A600003D101A92046FFF773FF00220321E7E7D6
:105A700094F86C3023F0040384F86C3094F83030E0
:105A8000022B03D101A92046FFF762FF0022022169
:105A9000D6E794F83030022B89D101A92046FFF7D0
:105AA00057FF84E794F86C30A66923F0040384F868
:105AB0006C30D6F808803369BFF35B8FD3F8A03021
:105AC000BFF35B8F9A071ED5D8F83C303046984715
:105AD000D8F82430002130469847D8F840300546A1
