:1000000080250120B9560000D7DB0300A55600006B
:10001000A5560000A5560000A556000000000000EF
:10002000000000000000000000000000F156000089
:10003000A556000000000000B9580000A5560000B9
:1000400029590000ED6801002959000029590000D4
:100050002959000029590000295900002959000098
:100060002959000029590000295900002959000088
:100070002959000029590000295900002959000078
:100080002959000029590000295900002959000068
:100090002959000029590000295900002959000058
:1000A0002959000029590000295900002959000048
:1000B0002959000029590000295900002959000038
:1000C0002959000029590000295900002959000028
:1000D0002959000029590000295900002959000018
:1000E0002959000029590000295900002959000008
:1000F00029590000295900002959000029590000F8
:1001000081F0004102E000BF83F0004330B54FEAC8
:1001100041044FEA430594EA050F08BF90EA020F35
:100120001FBF54EA000C55EA020C7FEA645C7FEAC8
:10013000655C00F0E2804FEA5454D4EB5555B8BFEB
:100140006D420CDD2C4480EA020281EA030382EA5C
:10015000000083EA010180EA020281EA0303362DEE
:1001600088BF30BD11F0004F4FEA01314FF4801CC1
:100170004CEA113102D0404261EB410113F0004FD3
:100180004FEA03334CEA133302D0524263EB43038A
:1001900094EA050F00F0A780A4F10104D5F1200E28
:1001A0000DDB02FA0EFC22FA05F2801841F1000183
:1001B00003FA0EF2801843FA05F359410EE0A5F157
:1001C00020050EF1200E012A03FA0EFC28BF4CF088
:1001D000020C43FA05F3C01851EBE37101F000453E
:1001E00007D54FF0000EDCF1000C7EEB00006EEB4B
:1001F0000101B1F5801F1BD3B1F5001F0CD34908D5
:100200005FEA30004FEA3C0C04F101044FEA44522B
:1002100012F5800F80F09A80BCF1004F08BF5FEAB2
:10022000500C50F1000041EB045141EA050130BD92
:100230005FEA4C0C404141EB0101013C28BFB1F5A4
:10024000801FE9D291F0000F04BF01460020B1FAEF
:1002500081F308BF2033A3F10B03B3F120020CDAC2
:100260000C3208DD02F1140CC2F10C0201FA0CF0A0
:1002700021FA02F10CE002F11402D8BFC2F1200C05
:1002800001FA02F120FA0CFCDCBF41EA0C019040BB
:10029000E41AA2BF01EB0451294330BD6FEA040404
:1002A0001F3C1CDA0C340EDC04F11404C4F12002EF
:1002B00020FA04F001FA02F340EA030021FA04F301
:1002C00045EA030130BDC4F10C04C4F1200220FA58
:1002D00002F001FA04F340EA0300294630BD21FA96
:1002E00004F0294630BD94F0000F83F4801306BF5C
:1002F00081F480110134013D4EE77FEA645C18BF50
:100300007FEA655C29D094EA050F08BF90EA020FE6
:1003100005D054EA000C04BF1946104630BD91EADE
:10032000030F1EBF0021002030BD5FEA545C05D1E1
:100330004000494128BF41F0004130BD14F5800420
:100340003CBF01F5801130BD01F0004545F0FE4194
:1003500041F470014FF0000030BD7FEA645C1ABFC9
:10036000194610467FEA655C1CBF0B46024650EA00
:10037000013406BF52EA033591EA030F41F400212C
:1003800030BD00BF90F0000F04BF0021704730B5B2
:100390004FF4806404F132044FF000054FF0000187
:1003A00050E700BF90F0000F04BF0021704730B548
:1003B0004FF4806404F1320410F0004548BF40421D
:1003C0004FF000013EE700BF42004FEAE2014FEA72
:1003D00031014FEA02701FBF12F07F4393F07F4F4D
:1003E00081F06051704732F07F4208BF704793F050
:1003F0007F4F04BF41F40021704730B54FF4607463
:1004000001F0004521F000411CE700BF50EA010265
:1004100008BF704730B54FF000050AE050EA01020E
:1004200008BF704730B511F0004502D5404261EB7E
:1004300041014FF4806404F132045FEA915C3FF4BF
:10044000D8AE4FF003025FEADC0C18BF03325FEA5C
:10045000DC0C18BF033202EBDC02C2F1200300FA0D
:1004600003FC20FA02F001FA03FE40EA0E0021FA32
:1004700002F11444BDE600BF80F0004002E000BF7E
:1004800081F0004142001FBF5FEA410392EA030F7F
:100490007FEA226C7FEA236C6AD04FEA1262D2EBC9
:1004A0001363C1BFD218414048404140B8BF5B42CE
:1004B000192B88BF704710F0004F40F4000020F067
:1004C0007F4018BF404211F0004F41F4000121F07D
:1004D0007F4118BF494292EA030F3FD0A2F10102C7
:1004E00041FA03FC10EB0C00C3F1200301FA03F105
:1004F00000F0004302D5494260EB4000B0F5000F28
:1005000013D3B0F1807F06D340084FEA310102F1E6
:100510000102FE2A51D2B1F1004F40EBC25008BF98
:1005200020F0010040EA03007047490040EB000062
:10053000013A28BFB0F5000FEDD2B0FA80FCACF163
:10054000080CB2EB0C0200FA0CF0AABF00EBC25090
:1005500052421843BCBFD0401843704792F0000F7E
:1005600081F4000106BF80F400000132013BB5E7D1
:100570004FEA41037FEA226C18BF7FEA236C21D047
:1005800092EA030F04D092F0000F08BF08467047AC
:1005900090EA010F1CBF0020704712F07F4F04D17A
:1005A000400028BF40F00040704712F100723CBF8D
:1005B00000F50000704700F0004343F0FE4040F4B7
:1005C000000070477FEA226216BF08467FEA236375
:1005D0000146420206BF5FEA412390EA010F40F460
:1005E000800070474FF0000304E000BF10F00043AC
:1005F00048BF40425FEA000C08BF704743F0964393
:1006000001464FF000001CE050EA010208BF7047AD
:100610004FF000030AE000BF50EA010208BF704734
:1006200011F0004302D5404261EB41015FEA010C49
:1006300002BF84460146002043F0B64308BFA3F141
:100640008053A3F50003BCFA8CF2083AA3EBC25323
:1006500010DB01FA02FC634400FA02FCC2F1200242
:10066000BCF1004F20FA02F243EB020008BF20F079
:100670000100704702F1200201FA02FCC2F12002DF
:1006800050EA4C0021FA02F243EB020008BF20EAD4
:10069000DC7070474FF0FF0C1CEAD0521EBF1CEA02
:1006A000D15392EA0C0F93EA0C0F6FD01A4480EAF0
:1006B000010C400218BF5FEA41211ED04FF00063D9
:1006C00043EA501043EA5111A0FB01310CF0004005
:1006D000B1F5000F3EBF490041EAD3715B0040EA2B
:1006E000010062F17F02FD2A1DD8B3F1004F40EBFB
:1006F000C25008BF20F00100704790F0000F0CF0CE
:10070000004C08BF49024CEA502040EA51207F3A91
:10071000C2BFD2F1FF0340EAC250704740F400006C
:100720004FF00003013A5DDC12F1190FDCBF00F05D
:1007300000407047C2F10002410021FA02F1C2F10B
:10074000200200FA02FC5FEA310040F1000053EAA7
:100750004C0308BF20EADC70704792F0000F00F0F5
:10076000004C02BF400010F4000F013AF9D040EAFB
:100770000C0093F0000F01F0004C02BF490011F48F
:10078000000F013BF9D041EA0C018FE70CEAD1538D
:1007900092EA0C0F18BF93EA0C0F0AD030F0004C0D
:1007A00018BF31F0004CD8D180EA010000F00040C1
:1007B000704790F0000F17BF90F0004F084691F07F
:1007C000000F91F0004F14D092EA0C0F01D14202B9
:1007D0000FD193EA0C0F03D14B0218BF084608D182
:1007E00080EA010000F0004040F0FE4040F40000CC
:1007F000704740F0FE4040F4400070474FF0FF0C5F
:100800001CEAD0521EBF1CEAD15392EA0C0F93EAA5
:100810000C0F69D0A2EB030280EA010C49024FEAF7
:10082000402037D04FF0805343EA111143EA1013B0
:100830000CF000408B4238BF5B0042F17D024FF468
:10084000000C8B4224BF5B1A40EA0C00B3EB510F43
:1008500024BFA3EB510340EA5C00B3EB910F24BF2C
:10086000A3EB910340EA9C00B3EBD10F24BFA3EBB1
:10087000D10340EADC001B0118BF5FEA1C1CE0D179
:10088000FD2A3FF650AF8B4240EBC25008BF20F02C
:10089000010070470CF0004C4CEA50207F32C2BF80
:1008A000D2F1FF0340EAC250704740F400004FF01D
:1008B0000003013A37E792F0000F00F0004C02BF4E
:1008C000400010F4000F013AF9D040EA0C0093F018
:1008D000000F01F0004C02BF490011F4000F013B72
:1008E000F9D041EA0C0195E70CEAD15392EA0C0FDA
:1008F00008D142027FF47DAF93EA0C0F7FF470AF12
:10090000084676E793EA0C0F04D14B023FF44CAF54
:1009100008466EE730F0004C18BF31F0004CCAD1E9
:1009200030F000427FF45CAF31F000437FF43CAF25
:100930005FE700BF7BB972B90029BEBF00204FF04E
:10094000004106E008BF00281CBF6FF000414FF0D7
:10095000FF3000F057B8ADF1080C6DE904CE002966
:1009600009DB002B1ADB00F069F8DDF804E0DDE9B3
:10097000022304B07047404261EB4101002B1BDBB6
:1009800000F05CF8DDF804E0DDE9022304B0404249
:1009900061EB4101524263EB43037047524263EB08
:1009A000430300F04BF8DDF804E0DDE9022304B076
:1009B000404261EB41017047524263EB430300F058
:1009C0003DF8DDF804E0DDE9022304B0524263EBB8
:1009D0004303704753B94AB9002908BF00281CBF18
:1009E0004FF0FF314FF0FF3000F00CB8ADF1080CC4
:1009F0006DE904CE00F022F8DDF804E0DDE9022321
:100A000004B07047704700BF10F8012B11F8013B8C
:100A1000012A28BF9A42F7D0D01A7047034611F82E
:100A2000012B03F8012B002AF9D17047034613F874
:100A3000012B002AFBD1181A013870472DE9F04725
:100A40008C468E46089E154604461946002B40F0FB
:100A5000D080724547D9B2FA82F74FB1C7F120036F
:100A60000EFA07FC20FA03F3BD4043EA0C0CBC402D
:100A70004FEA154EA8B2BCFBFEF8230C0EFB18CCB7
:100A800008FB00F943EA0C43994528D9EB1808F113
:100A9000FF3204D2994502D9A8F102022B44A3EBFC
:100AA0000903A4B2B3FBFEFC0EFB1C330CFB00F0ED
:100AB00044EA0344A04214D92C190CF1FF3304D2A8
:100AC000A04202D9ACF102032C44241A43EA0240AA
:100AD0001EB1FC40002334607360BDE8F0874246DD
:100AE000DDE76346F1E7002A79D0B2FA82F3002B02
:100AF0003FD01946C1F1200302FA01F52EFA03F2A4
:100B00000EFA01FE20FA03F343EA0E034FEA154EF4
:100B100000FA01F4B2FBFEFCAFB20EFB1C201A0C73
:100B20000CFB07F842EA004290455AD9AA180CF18A
:100B3000FF3004D2904502D9ACF102002A44A2EB66
:100B400008029BB2B2FBFEFC0EFB1C220CFB07F75B
:100B500043EA02439F4246D9EB180CF1FF3204D21C
:100B60009F4202D9ACF102022B44DB1B42EA004255
:100B700002E0AEEB020301224FEA154EAFB2B3FB27
:100B8000FEFC200C0EFB1C330CFB07F840EA034371
:100B900098452AD9EB180CF1FF3004D2984502D9B8
:100BA000ACF102002B44A3EB0803A4B2B3FBFEFCA0
:100BB0000EFB1C330CFB07F744EA0344A74216D98B
:100BC0002C190CF1FF3304D2A74202D9ACF1020375
:100BD0002C44E41B43EA00400F46114678E71F21EE
:100BE00088E76046ABE76246BFE76046DBE76346FF
:100BF000EFE7734506D916B9002108466DE7C6E947
:100C0000000EF9E7B3FA83F787B9734501D382423F
:100C100007D8841A6EEB030301209C461EB90021FD
:100C20005BE73846FAE7C6E9004CF8E7C7F1200C65
:100C3000BB4022FA0CF51D4320FA0CF12EFA0CF3FE
:100C40000EFA07FE41EA0E014FEA154900FA07F4D1
:100C5000B3FBF9F81FFA85FE09FB18300B0C08FBF3
:100C60000EFA43EA00439A4502FA07F240D9EB181C
:100C700008F1FF3004D29A4502D9A8F102002B44B2
:100C8000A3EB0A0389B2B3FBF9F809FB183308FB9D
:100C90000EFE41EA03418E452CD9691808F1FF3355
:100CA00004D28E4502D9A8F10203294443EA004048
:100CB000A0FB0298A1EB0E014145CE46434602D36C
:100CC00006D14C4504D2B9EB020E68EB050301389E
:100CD000002EA4D0B4EB0E0261EB030101FA0CFC70
:100CE00022FA07F34CEA0303F940C6E9003196E71C
:100CF0004046C5E74346D9E738B51B4C9DF810E0A0
:100D000094F84CC01CF0010524D163F3420C40015F
:100D100094F83830A4F840104FEACE0E0EF0180EBA
:100D200000F0200040EA0E0023F0380303430F4890
:100D300084F838309121A2FB000384F84CC001FBF9
:100D4000023107A3D3E90023FFF744FEC4E91100F1
:100D5000284638BD0C25284638BD00BFAFF30080BB
:100D60008D49FD1A07000000581F0020002AE78463
:100D700010B504469DF8080022864FEA411CC000C9
:100D800094F8281000F018000CF0200C4CEA000C2D
:100D90000B4821F038014CEA010CA3FB0002912121
:100DA00084F828C001FB032103A3D3E90023FFF744
:100DB00011FE606310BD00BF8D49FD1A07000000E1
:100DC000002AE784000000002DE9F043044600F10A
:100DD0003A0190F84C0094F838304D4DC0F3400083
:100DE00060F386138DB084F838300EF061FE94F80D
:100DF0003820B4F840304748246102F079020027D7
:100E000084F838209121A3FB0002C4E902772770FF
:100E100001FB03213CA3D3E90023FFF7DBFDA26C18
:100E20003D4B651BA3FB053502F1090398428EBFBC
:100E300019463A4601466264616006460EF0ECFDD2
:100E40006369C5F3871500F10907002B41D00DF147
:100E50002C08CDF820800694B4F840302D4891211C
:100E6000A3FB000201FB03212C4B07932C4B0593A2
:100E70006368049302234FF000090B9322A3D3E984
:100E80000023CDF80C90FFF7A5FD104619464FF44E
:100E90007A720023FFF79EFD0235EDB2CDE90160C5
:100EA0000321CDF800903B462A4648460EF098FCB8
:100EB00041460FF0C5FA40B994F84C3043F00103B5
:100EC00084F84C300DB0BDE8F0830C200DB0BDE8C7
:100ED000F0830DF12C08CDE90A33616843460AAA74
:100EE000032000F06DFD0028B3D10B990D4806A337
:100EF000D3E90023A1FB0001FFF76CFD0A9B20F062
:100F00007F471F44A5E700BF8D49FD1A0700000079
:100F1000581F0020002AE784CDCCCCCC19FB000060
:100F2000711F010000CA9A3B2DE9F0418468A28C30
:100F30004FF6FF739A428AB000F0CA8005462046F9
:100F400013F0BCF8AB7C012B00F0EA80022B00F020
:100F5000C28033B994F8563003F01803182B00F010
:100F6000228194F81C81B8F1000F40F0B880A68D62
:100F7000EB89E78D0136B6B2002B00F0B780A4F8FC
:100F800048812B7C03F00303012B00F0C480B4F8EC
:100F90004C31002B00F0CA80B34240F225819B1BEC
:100FA0009BB2062BA4F84C314FF000028CBF0023FB
:100FB0000123E285984694F83A2063F3820284F88C
:100FC0003A2031460DF12702204612F04FFE7430D0
:100FD00000F00481B4F846312BB1B34240F2D38023
:100FE0009B1BA4F84631B4F842312BB1B34240F216
:100FF000C3809B1BA4F8423194F89930E58D03F02F
:101000000101B8F1000F0AD1AF4200F0B180013503
:10101000ADB241B9002D5BD04146404642E00135BA
:10102000ADB200293DD094F8993094F9372023F0DF
:101030000103002A84F89930C0F2928094F83B00B2
:10104000C0F3C00100F0070015F074FF94F83B20D6
:1010500094F83C1002F003030933C2F34002DB00B2
:10106000D340E28B02F23F12134401F00302093233
:10107000C1F34001D200CA40134418446A4A6B4B82
:101080000721E0FB0231184665A3D3E90023FFF7EF
:10109000A1FC616820F07F40814280F09A80411A73
:1010A00060600020A28C246903950023604DCDF878
:1010B00010800332CDE9011006940093D2B20121D1
:1010C000184605950EF0A8FB10F0FD0F40F090803B
:1010D0000AB0BDE8F0814FF03D0884F81C8141461C
:1010E00020460AB0BDE8F04111F022BC2B7C03F091
:1010F0000303012B0FD0B4F84831002B3FF447AF66
:10110000B34273D99B1BA4F84831B4F84C31002B7F
:101110007FF442AF02E00023A4F84C3100234AE7F9
:101120000023A4F84631A4F842311AE7E38C052BDA
:101130008BBF40F2E2424FF4FA725A4303FB0222A1
:10114000B4F84A3142F2107101FB0323013BB3FBB7
:10115000F2F39BB2A4F84C31002B7FF41DAFDDE716
:1011600094F83C00012100F0070015F0E5FE6DE762
:101170000029ADD0454656E70023A4F84231204669
:1011800012F0E8FD38E70FF017F90146002836D0D5
:101190000023A4F84631A38CC3801B23037100688D
:1011A0000FF0DCF81FE7218DB4F844218B1D9A4223
:1011B000C4BF931F5B1AB4F84011CCBF9BB2134657
:1011C000994220D0A4F84031A4F84231A4F8462135
:1011D000C7E66060081A1CD0002163E79DF827105D
:1011E000204611F0A5FB73E7082179E73E2177E758
:1011F0000FF038F984423FF46BAF00DE68E701235B
:10120000A4F84631EFE6B4F8461100297FF4A9AE00
:10121000DAE70DB1014645E7B8F1000FDCD157E739
:101220008D49FD1A0700000000CA9A3B8C49FD1A3F
:1012300079220100000000002DE9F04F8FB0B0F8D6
:1012400018610D930446B0F8DC3090F83B000B9128
:101250001E44C0F3C001BDF86830BDF86C70BDF825
:101260006080BDF86490D4F8D4A00C9300F007001F
:1012700015F060FEE58CB6B2A6EB070B052D1FFA44
:101280008BFB40F2098115FB0BF5ADB240F2E24B4E
:10129000B8F1050F40F2F48094F83C2094F83B102C
:1012A00002F003032833C2F34002DB00D34001F015
:1012B00003022832B3F5A47FC1F340014FEAC20212
:1012C00022FA01F238BF4FF4A473B2F5A47F2CBF09
:1012D0009B1803F5A47303F2D51318447A4A7B4B89
:1012E0000721E0FB023118464FF09613E361962385
:1012F000238473A3D3E90023FFF76CFB434620F05C
:101300007F4040F2E2420BFB05F102FB03FB4A1E69
:101310005A44B2FBFBF293B20BFB03F399426060B9
:1013200095B280F09F806848591AA1FB000164A320
:10133000D3E90023FFF74EFB20F07F408244B4F84E
:10134000DC20B4F81831BF1B3D44ADB213442B442C
:10135000A4F81831638D1A4494F837301544DB092A
:1013600065857CD10D9B5848A3FB000154A3D3E9AC
:101370000023FFF72FFB20F07F4501350C9BA4F8DD
:101380004A3159462046A4F82680A4F8289012F045
:1013900099FC4F4B218D5B44881DB3FBFBF39AB244
:1013A0009042A4F8442104D2C1F57F41FA310A44A5
:1013B00092B20B9BA4F8402113B10023A4F84C3146
:1013C0000221012017F0A2FA002202210646012084
:1013D0000DF0DCF83F494FF4AC7220460DF062F896
:1013E000C21C3D4B0093D7B2019453463A460121AB
:1013F00000200EF08DFA10F0FD0F5CD1324830A3C2
:10140000D3E90023ABFB0001FFF7E4FA1946334BA5
:101410000793334B089406940593636804934FF63F
:10142000FE7380460393104600234FF47A72FFF751
:10143000D1FA0095CDE9018053463A4601210020BA
:101440000EF0CEF910F0FD0F33D166BB94F81A31CF
:1014500043F0010384F81A310FB0BDE8F08F00DECD
:1014600000258BE71848C91AA1FB000114A3D3E992
:101470000023FFF7AFFA20F07F40AAEB000A5EE7F7
:101480004FF0961208F10103E261962222849BB28A
:101490000A204FF4FA7236E7013515FB0BF5ADB2B1
:1014A0004FF4FA7BF4E60122022110460DF06EF8AB
:1014B000CCE700DEC9E700DEA0E700BFAFF30080A5
:1014C0008D49FD1A0700000000CA9A3B8C49FD1A9D
:1014D0007FC3C901A81F0020392201002122010079
:1014E000A1630100000000002DE9F04F89B0CDE9B3
:1014F000020100209DF84C80BDF850A0BDF854B00A
:10150000BDF8589004921F4610F0F8FD002800F036
:10151000218108F00105044628460EF0BBFA002D93
:1015200049D1636904F110020592002B4AD0666923
:10153000356896F82B00C0F3C00100F0070015F0E5
:10154000F9FCF3899E4A00F2CF3003449D480721FD
:10155000E3FB020198A3D3E90023FFF73BFA20F055
:101560007F40686094F84C1068F3420184F84C1096
:1015700094F8391067F30001DDE9022384F839108B
:1015800012990968A16112998988A1830499A4F824
:10159000249004F1100000910021FFF7E9FBA06402
:1015A00015F046FE002840F0D9802046FFF70CFCDD
:1015B00009B0BDE8F08F06210CF088FF0028B0D1FB
:1015C0001220F5E70EF0B2FE0590002800F0E3804F
:1015D00010F0C6FE0546002800F0DA80143005F150
:1015E00010060DF035F9002840F0DB80032105F1ED
:1015F000180015F0C1FB286DA5F828B04FF6FF7252
:10160000A5F826A0AA84002800F0C78005F14402AE
:1016100005F140010CF066FF95F83B2022F07F02B7
:1016200042F0190285F83B2095F8562022F0070277
:1016300085F8562095F83C2001214FF0000B61F30E
:10164000020285F83C20C5F850B0A5F854B0A5F8C2
:101650002AB0C5F82EB005F1320014F0D1FF95F88C
:10166000372060F30502012185F837200DF11F00B6
:1016700015F082FB9DF81F10534A85F839B0A2FB84
:101680000102D20802EB4202A1EB820195F8372059
:10169000A5F818B102F03F0285F8372095F83A20F6
:1016A000A5F84CB1053122F0070240F2E24085F87E
:1016B000381085F83A20298D444AA5F84A9100FB54
:1016C0000AFA06205244A5F8480101F1060CB2FBC3
:1016D000FAF290B26045A5F846B1A5F842B1A5F876
:1016E000440102DD0638401A80B2A5F840012846C0
:1016F00012F080FA5146284612F0E4FA4FF0000A40
:10170000059BC5F8203185F81CA111F051F895F81A
:10171000542160F3020285F8542111F04FF895F836
:10172000542160F3C50285F8542195F81A216AF313
:10173000410285F81A2105F19C0012F095F84FF04E
:101740009612C5E907226661C5E902AA85F800A0DC
:101750002D61EEE60C2009B0BDE8F08F65692B6CB9
:101760002BBB05F1340105F130000CF0BFFEE0B1F8
:101770002E682864D6F82001A8B10EF0DDFD3046B1
:1017800010F0F4FD00230320636109B0BDE8F08F81
:1017900005980EF0D1FD07200AE705F148002865FD
:1017A00034E700DE22E700DEE7E700DEE0E700DE08
:1017B000D7E700BFAFF300808D49FD1A0700000096
:1017C00000CA9A3B8C49FD1AABAAAAAA7FC3C901D9
:1017D0002DE9F04F0446037F406A8DB088461546D8
:1017E000C3F3401AC3F3C012E107238DADF82C30C8
:1017F0000A900AAB00F1CC809B880A98A277002758
:10180000A783A4F82330C4F81F00D8F800301E685E
:10181000EB8AE3842B8B2385B38C638515F05AFD0B
:1018200084F82C00D5F80090484610F0A5FD394604
:10183000A882E080484612F059FA20682146D8F87C
:1018400004400EF07FFDAA8A2768E2801C232371E2
:10185000BAF1000F40F09080534623772146384676
:101860000EF07CFD95F82B00B5F816A0D8F80C709A
:101870004D4C40F2E243C0F3C00100F0070003FB0F
:101880000AFA15F057FB002202213F1A01200CF042
:101890007DFE304610F00CFCA7FB044740A3D3E9C3
:1018A0000023054639462046FFF794F80196D8F8FC
:1018B00008303E49009120F07F46AA1C363BD2B248
:1018C0003344012100200EF023F810F0FD0F61D108
:1018D0004FF0000B012211465B46CDF800B0584690
:1018E0000DF0E2FF484610F047FD05462E482CA3B8
:1018F000D3E90023AAFB0001FFF76CF81946D8F8DA
:101900000830CDF81C90A3F13608294B0893294BD9
:10191000069340F272330993D9F804308246CDE938
:1019200004B3104600234FF47A72FFF753F8224BAA
:101930000722A6FB0331CDE902A002FB0611E01A43
:1019400067EB01014FF47A720023FFF743F8033588
:10195000EDB2CDE9006043462A46012158460DF01C
:10196000F1FE10F0FD0F17D10122022110460DB03B
:10197000BDE8F04F0CF00ABE95F8273043F0400365
:1019800085F82730281D14F087FE0123288564E799
:1019900000DE31E700DE9BE700DEE5E7AFF3008025
:1019A0008D49FD1A0700000000CA9A3B95630100AB
:1019B00099630100A16301008D49FD1A0000000038
:1019C0002DE9F04F91B0FF270B930B1D0A930023D5
:1019D000CDE90D33054616468DF833709B460893C6
:1019E0003C46984699460DF1340A0FAB0693644B7A
:1019F0000593644B03930EAB0020CDE900A30223B3
:101A00000F930490029033460DF1330229460DF0F6
:101A1000B5FF022813D00F9BBBB9FF2C18D0336839
:101A2000434515D0002F00F09180013FFF24FFB205
:101A30008DF83340D9E7294600200DF0DBFF0F9BDE
:101A4000022BF8D00F9B002BE7D000DEFF2CE6D155
:101A50009DF83330FF2B49D0032BC6D1002010F066
:101A600093FC0028C1D090F93730002B25DA436869
:101A700009939DF83330032B15D0FF2CDDF834800B
:101A800007D0594640460DF0C9FF0A9B4B44984287
:101A90002ED80E9BDDF824909DF833400893C34662
:101AA000D6F80080A1E7002010F06EFC0028E4D0FA
:101AB00090F93730002BE0DA97E790F83B00C0F35D
:101AC000C00100F0070015F035FA2F4A2F4B00F245
:101AD00065400721E0FB0231184625A3D3E9002326
:101AE000FEF778FF20F07F430993C2E7FF2C2FD049
:101AF00027480721A9FB000301FB09311EA3D3E9F5
:101B00000023FEF767FF044600B13E34089B214ADC
:101B1000A3F57423A3F5107393421ED81C48072124
:101B2000ABFB000301FB0B3113A3D3E90023FEF74A
:101B300051FF089A184BA3FB022304EB93440B9B21
:101B4000044400201C6011B0BDE8F08F00DE6CE79B
:101B50006FF0090011B0BDE8F08F089B03F1E87346
:101B600003F5D43303F5A5730BF1FF3B0893D5E7D9
:101B70008D49FD1A0700000000CA9A3B00000000D2
:101B8000A5650100A965010000CA9A3B8C49FD1AB0
:101B90008D49FD1ABFBDF07F83DE1B4300000000AE
:101BA0002DE9F043C668476873683D491A68D0F864
:101BB0000090A7F57423A3F510738B4283B0804681
:101BC00007D907F1E87707F5D43709F1FF3907F5A9
:101BD000A57773685168DD8ACDF8049006F110038B
:101BE00001AA0220FFF7ECFE00284ED10199A1EBDB
:101BF00009031B0237D4084649460DF00FFF034680
:101C000028480721A3FB000201FB032122A3D3E9FB
:101C10000023FEF7DFFE34690444002C346109DB45
:101C200040F2E24305FB03F3A3422FD2E41AA3429E
:101C3000FCD33461D8F800301A48A3EB0903A3FBA6
:101C40000002072101FB032113A3D3E90023FEF7C0
:101C5000C1FE154BA3FB0737A0EB97402044306132
:101C600003B0BDE8F08348460DF0D8FE03460D48AA
:101C70000721A3FB000201FB032107A3D3E90023F3
:101C8000FEF7A8FE3469241AC7E73469002CD1D1C5
:101C900003B0BDE8F08300BF00CA9A3B000000001B
:101CA000BFBDF07F8D49FD1A83DE1B43000000009D
:101CB0002DE9F04F8DB0484E484D82460DF0ACFEF8
:101CC000F16807460DF0AAFE7168F76040A3D3E9FA
:101CD00000230446A1FB0501FEF77CFE20F07F43B4
:101CE0009C4257D30DF12F010DF12E000EF094FB05
:101CF000DFF8E8803568A5FB085935A3D3E9002350
:101D000028464946FEF766FECDF818A004467068DE
:101D1000334B0593A0FB08012DA3D3E900234FF01B
:101D20000008CDE90788FEF755FE2E4BCDF80C8054
:101D300024F07F44A4FB033120F07F40072202FB04
:101D400004110490E81A69EB01014FF47A72002340
:101D5000FEF740FE9DF82FB09DF82EA0CDF8008034
:101D6000CDE901403B465A46504603210DF038FD6F
:101D700010F0FD0404D06FF08B000DB0BDE8F08FC3
:101D800019481A4A002326F0F3FB90B930690DB0C8
:101D9000BDE8F08F30680EA3D3E90023A0FB050156
:101DA000FEF718FE20F07F4138460DF037FE07465B
:101DB00098E79DF82F209DF82E00009423460321DC
:101DC0000DF072FD6FF07300D7E700BFAFF3008036
:101DD0008D49FD1A070000001021002000CA9A3B1F
:101DE000856801008D49FD1A40AB0020447B0B0043
:101DF00038B50F4D04460DF00FFEA9680DF00EFE2C
:101E0000696803460B48B3FBF4F4A1FB00011C44D2
:101E100005A3D3E90023FEF7DDFD20F07F408442D7
:101E200094BF0020012038BD8D49FD1A0700000035
:101E30001021002000CA9A3B2DE9F041C46894F9B2
:101E40002830002B8CB0C0F2A880636805460E468F
:101E5000002B40F0978094F8283023F0010384F899
:101E6000283016F029F9002016F04AF9002108461A
:101E700016F038F908200022252116F09FF90120DC
:101E80000EF08EFB002800F08F801C3016F0C0F999
:101E90005F4B0B930BA816F07DF95E4940F25B6037
:101EA00016F02CFA94F82800C0F34100253015F004
:101EB0000DF85948214616F0D3F894F828309B06BF
:101EC00002D46368002B5AD0962016F045FB0023FD
:101ED0001A461946184616F077FAD4F800802F688B
:101EE000404614F0E1FF07446A6807F10901002049
:101EF00016F03EFB16F012FC16F0D6FA204610F053
:101F0000E3F8811CC9B240463A4614F0CFFF804640
:101F100000284FD10EB9636BD3B963687BB12B68CE
:101F2000A3616B68E3613D4B646204F11801996041
:101F30000122022100200CF05DFB002838D1204650
:101F400014F080FF002831D100200CB0BDE8F081F2
:101F5000334A0792334A059240F2F31200930892F3
:101F6000CDE90366CDE9016606943B463146012280
:101F70000DF036FC10F0FD0FCFD000DECDE716F0EF
:101F800083FAAAE7636893F82A30D90705D463680F
:101F900093F82A309A077FF55EAF2348214616F062
:101FA0005FF816F057F9CFE700DE6EE700DECBE70B
:101FB00000DEC4E71D4A1E491E4840F2E5133AF010
:101FC000D2FB1D4B0721A8FB030301FB08310EA325
:101FD000D3E90023FEF7FEFC1849024618483AF000
:101FE000C2FB002585F31188BFF36F8F03231846CA
:101FF00002DF1448214616F033F816F02BF96FF083
:102000008B00A2E7AFF3008000CA9A3B00000000FB
:10201000D6BE898E55555500E9200000B80600202F
:10202000D9720100E1720100E96F01008C8A05009C
:10203000D88A0500F08905008D49FD1A2C8C050011
:10204000DC8A05006D73010038B5044615F05CF9B3
:1020500094F8283094F82820C3F34103013303F0A7
:102060000303032B08BF002363F3420214BF03F1F1
:102070002500252084F8282014F028FF63680BB180
:1020800023694BB90DF0C8FCC11C002016F0E4FA1E
:10209000BDE8384016F042BB16F00CFB05460DF0CB
:1020A000BBFCC11C002016F0D7FA16F037FB16F067
:1020B00001FB29460DF0B2FC094A03460721A0FBAB
:1020C000020201FB032104A3D3E90023FEF782FCF3
:1020D00023691B1A236138BD00CA9A3B0000000027
:1020E0008D49FD1A000000002DE9F0478AB0044632
:1020F00016F0F0F8C0B2002800F0E18016F00AF9FE
:10210000054616F009FA074616F010FA16F0E6F939
:10211000EDB2064616F0C6F914F022FF45B9B048F4
:10212000214615F09DFF0AB0BDE8F04716F092B8C1
:1021300001200EF035FA8046002800F0D88194F88E
:1021400028502B07C5F3C10AC5F3C00100F1BA80BE
:10215000F7B2626898F81C6006F00F03002A00F0DE
:10216000CA80626892F82A20900700F1C480072B89
:10217000D5D0002900F0AB80002B40F0BA8198F850
:102180001D30063B1F2BCAD804200EF009FA002888
:10219000C5D016F0CBFA636B054643B9238E40F2E7
:1021A000712202FB03F3B0FBF3F203FB120522687A
:1021B0008C4B52680721A2FB030301FB023186A36B
:1021C000D3E90023FEF706FC6FF4427283181F3B2D
:1021D0004FF0000242F1FF32AB4272F100029ED397
:1021E00016F052F994F82860636816F0A1F808F127
:1021F0001E03019309AB0493C6F3801604F12A036E
:102200000296039398F81C30C3F3801301460546E9
:10221000002200932046012315F0A6F9284615F068
:10222000FDFF16F04DF8002840F0A88121466E48C9
:1022300015F016FF626892F82A3043F0010382F825
:102240002A3094F8283043F0800384F828300EF0C8
:10225000C1F9172303714FF6FF73C38098F81C2050
:102260000646C2F340112B4600F11C0205F1200086
:10227000D3F800C05F689D68D3F80CE0C2F80CE0AA
:1022800010338342C2F800C05760956002F110021B
:10229000EED11B681360337FB46061F3451333776D
:1022A00016F008FA099BC6E904030EF093F9F060F2
:1022B000306831460AB0BDE8F0470EF0B5B914F009
:1022C0004FFE2CE7FFB2002F3FF429AF40E794F810
:1022D0002920C6F3801102F0010291420BD106229F
:1022E00008F11E0104F10800079355F024F9079B3B
:1022F00000283FF441AF002B7AD198F81D20063A10
:102300001F2A3FF60CAF05F02102202A40F0CA80B8
:102310006268002A6ED19620079216F01DF9079A7E
:10232000104616F009F803200EF03AF90546002889
:102330003FF4F5AE0EF04EF94FF6FF73EB80052338
:102340002B71002F40F016817F226B7E2A7623F0BE
:1023500001036B76294628680EF066F915F0E8FF50
:102360000278032161F30302027098F81C200178BF
:10237000C2F3801262F3C7110C220170427094F80C
:102380002820C9B2C2F3801262F38611024602F815
:10239000021BD4F82A10C0F80210E18D9180D8F801
:1023A0001E208260B8F82220828115F037FF15F0D8
:1023B00087FF002840F0E48016F0B0F994F8283048
:1023C0000A4843F00103214684F828300AB0BDE8EA
:1023D000F04715F045BE00BF00CA9A3B0000000060
:1023E000857301008D49FD1A7D7401009973010008
:1023F000062B82D0062B3FF692AE4FF0450929FA04
:1024000003F919F0010947D1012B52D0042B7FF4B5
:1024100086AE98F81D30063B1F2B3FF680AEEB07CB
:102420007FF57DAE15F084FF98F81C600278C6F346
:102430008013B3EBD21F7FF472AE0830062208F18E
:102440001E0155F078F800287FF469AE98F81D3029
:10245000002B3FF464AE636823B106F00F06072E2D
:102460007FF45DAE03200EF09BF8054600283FF494
:1024700056AE0EF0AFF84FF6FF73EB8005232B71CD
:102480009FB97F206B7E287669F3000328686B76FE
:1024900029460EF0C9F842E698F81D30063B1F2B7E
:1024A0003FF63DAE4FF00009D5E716F007F8C0B291
:1024B000E8E798F81D300C2B7FF431AEC5F380159A
:1024C000B5EBD61F4FEAD61936D0BAF1010F7FF619
:1024D00026AEB9F1000F3FF422AE98F8293003F090
:1024E000C003402B7FF41BAE4FF00109B3E700DEC1
:1024F00025E6012B7FF47CAF98F81D300C2B7FF480
:102500000EAEC5F38013B3EBD61F4FEAD61926D013
:10251000BAF1010F1AD9B9F1000F06D098F8293095
:1025200003F0C003402B3FF42FAEC5F38015B5EB8D
:10253000D61F4FEAD619CCD1062208F1240104F1A6
:102540002A0054F0F8FF0028ACD0BEE7C5F3801590
:10255000B5EBD61F4FEAD6197FF4E1ADECE70622C2
:1025600008F1240104F12A0054F0E5FF00283FF4AB
:102570000BAECDE715F0A2FFC2B2E6E600DE55E6EF
:1025800000DE19E700000000F0B5C468A28A4FF62B
:10259000FF739A4285B000F0AD80054615F0BEF895
:1025A0002B89628B208C94F82710A3831A4492B253
:1025B000104480B2431C23840023638301F03F0353
:1025C0004906E28366D494F82810009304F12900A8
:1025D00004F1220314F022F80646204603A915F060
:1025E000D5F9039B94F846101A7861F3C3021A7068
:1025F000039A94F846301178C3F3400363F38201E1
:10260000117015F059FD002015F07AFD201D15F010
:10261000C1FD2389A17A40F25B6043EA014115F0D4
:102620006DFE304614F052FC0399204615F084F9F3
:102630002146374815F014FDE08915F08DFF94F818
:102640002C0000F0070015F077FE27682E6838464A
:1026500014F02AFC064406F109016A68012015F00D
:1026600087FF16F05BF8A18A03313246C9B23846BB
:1026700014F01CFC0646A0B1AB7A13F0020518D08A
:1026800000252448214615F0EBFC15F0E3FD284613
:1026900005B0F0BD218D04F1220214F001F80646C8
:1026A0009BE7204614F0CEFB58BB0025284605B01A
:1026B000F0BD194A19491A484FF480733AF053F89B
:1026C00018480721A6FB000301FB06310EA3D3E93E
:1026D0000023FEF77FF91449024614483AF043F804
:1026E00085F31188BFF36F8F0323184602DF6FF065
:1026F0008B05C6E70E48214615F0B2FC15F0AAFD81
:10270000D3E700DED1E700BF00CA9A3B000000001B
:1027100095780100C96F0100088B0500D88A050073
:10272000F08905008D49FD1A408C0500DC8A050002
:10273000E96F0100F8B5054616460C4659B9394A05
:102740003948022139F03FFC14222146304654F02A
:10275000DAFE0020F8BD354910683CF0ECFA28BBE1
:10276000238A334A3048032139F02BFC314B324A5B
:1027700003F11001104653F8046B42F8046B8B42CE
:10278000F9D11B781370238A2C49013308600B811F
:10279000284603230B740AF083FF03460028D8D091
:1027A000274A2148012139F00CFCD2E73068214941
:1027B000244E3CF0C0FA238AC0B9234A1A480321A8
:1027C00039F0FFFB20463DF0A5FE1C491F4B0B6076
:1027D000238A308102330B81284604230B740AF0CC
:1027E0005FFF03460028B4D0194ADAE7194A0E48B9
:1027F000032139F0E6FB184B33600127238A7381EC
:1028000031462846B7810BF007FC034620B110F192
:10281000780F01D0114AC4E7114A0348032139F067
:10282000D2FB96E7EA9C0500E87D050020DC050068
:102830002F9D05000FDC0500AAC70020C8990020C5
:10284000589D0500B09900208A9D0500640C002069
:10285000BA9D0500EC9D05006D2A0000129E050042
:10286000489E0500024A0348032139F0ACBB00BF73
:102870006E9E0500E87D05001FB50B4A0B4930230D
:10288000CDE9012301A80023039307F01BFC0346B5
:1028900038B1074A0748012139F093FB05B05DF8CC
:1028A00004FBFFF7DFFFF9E701006000A52B000044
:1028B000C59E0500E87D050070B5447814F00F044E
:1028C00086B005460E4610D00F4A1048022106B0C9
:1028D000BDE8704039F077BB69681022214401A837
:1028E0003CF056FA28B91034E4B26B78A342F3D81E
:1028F00007E0074901A83CF01EFA0028F3D10123A4
:10290000337006B070BD00BFE09E0500E87D050095
:1029100020DC050010B50446034A0448032139F0C1
:1029200052FB0020208110BD0A9F0500E87D0500B4
:102930002DE9F04100AF24F0D9F948F0DCFF6D46F5
:10294000044648F0DDFF88B06A46184B184E4FF435
:102950000078CDE90530ADF81C80164842F8106FBC
:102960004FF4E65139F04DFB012CAD4618D0A31EB3
:10297000DBB2022B11D8204648F0C2FF88B06A466D
:102980000D4BADF81C80CDE905304FF4E65142F80F
:10299000106F084839F035FBAD46BD46BDE8F08103
:1029A000064A0448022139F00EFBF6E7359F050080
:1029B00003000001E87D05004D9F05007C9F050098
:1029C0002DE9F047082982B0044602AF154617D01A
:1029D0006C468AB002AA1E4BD161C2E905350823B4
:1029E00013624FF4007393841A4B42F8103F4FF474
:1029F0003251194839F005FBA546BD46BDE8F087C0
:102A00004668B0F90000FDF7F1FD1449FDF7F6FE48
:102A1000FDF7DAFCB4F802A00246CDE900A6804634
:102A20000B460F4889466C4639F090FE8EB002AADC
:102A30000C4BC2E905354FF4007313860A4BC2E90B
:102A40000889C2E90AA644F2C04142F8103FD0E723
:102A5000B29F050005000001E87D05000000C842A6
:102A6000EE9F050019A005000800000110B50846FA
:102A7000144619461AB9FFF74DFF204610BD2046EF
:102A8000024AFFF79DFF0120F8E700BF47A00500BD
:102A9000F0B591B0044600AF0D46F9B10146384695
:102AA00008F002FA6C468AB06A46304B0795CDE9C9
:102AB00005372F4B08932F4B09932F4B42F8103FAC
:102AC0002E484FF4415139F09CFA2D48A5463CF070
:102AD000BEFBFFF7D1FE4437BD46F0BD284B1B6857
:102AE0008342F8D107F120050146284608F0DCF9B9
:102AF0006E4688B06A46234B2048CDE905354FF431
:102B00000073ADF81C30204B42F8103F4FF4E651F3
:102B100039F077FA1D4B1E4AB54603F110001146F5
:102B200053F8045B42F8045B8342F9D11B781370BD
:102B3000184A194B53604FF6FF731160D38101257A
:102B4000002311462046137415810AF0A9FD03469F
:102B500028B1124A0948294639F033FABBE7104A2E
:102B60000648032139F02FFAB5E700BF4BA0050056
:102B7000B6A905000002020405000002E87D050078
:102B8000DC99002073A005000300000120DC050093
:102B9000AAC70020C89900203527000081A00500A1
:102BA000A9A005002DE9F0411E4698B03F4B1B68D7
:102BB0000C4600AF05461146002B54D1002A52D1D5
:102BC000212207F13C0054F09EFC394907F13C02F8
:102BD000304605F015F997F83C30002B43D007F14B
:102BE0001C082946404604F0F7FF97F83D30002BBB
:102BF0003DD007F13D036E468AB06A462D492E4806
:102C0000CDE907432D4B09932D4BCDE9051842F82B
:102C1000103F4FF4435139F0F4F997F83D30B54681
:102C2000C3B1284C07F13D0821464046FDF7ECFEB4
:102C300080B18AB06A46244B0794CDE90538234B0E
:102C40000893234B42F8103F1B484FF4225139F0B0
:102C5000D8F9B54607F086FA034650B11D4A164822
:102C6000012139F0AEF96037BD46BDE8F0811A4B5D
:102C7000C1E71A4B0FCB07F10C0484E80F00184A88
:102C80004FF0C873C7E901232146084B3A1D284677
:102C900008F064F903460028E5D0124A06480121ED
:102CA00039F08FF9FFF7E8FDDDE700BFDC99002080
:102CB000CBBF0300D6A00500E87D0500000202049A
:102CC0000500000218A1050024A10500000201036F
:102CD000040000027BA10500A8C30500A07F050039
:102CE0001800280098A10500F0B589B000AF0C4687
:102CF0000146384608F0D8F86E468AB06A460F4B4F
:102D00000794CDE905370E4B08930E4B09930E4BF4
:102D100042F8103F4FF443510C4839F072F90C4817
:102D2000B5463CF094FA182200210A4854F0EBFB17
:102D3000FFF7A2FD2437BD46F0BD00BFBCA10500D2
:102D4000B6A905000002020405000002E87D0500A6
:102D5000DC990020B0990020034B1B68834201D10D
:102D6000FFF7C2BF704700BFDC9900201FB5104AB3
:102D70001048114C032139F026F92068002308225D
:102D80000DEB0201CDE9003315F046FF011E09DA13
:102D900002F0DCFD094B1B58094A0648022139F0B4
:102DA00010F9EAE7074A02A8FFF70AFEE5E700BFC5
:102DB000E0A10500E87D0500140300200C000000E0
:102DC00006A2050021A2050008B54FF0FF33084810
:102DD0004FF0FF3225F0CCFB064B1B78012B05D1C1
:102DE000054B1B68002B01DBFFF7C0FF08BD00BFD0
:102DF0005C110020BBC70020140300202DE9F04F18
:102E000091B002AF00233B62B14845F06BFE002851
:102E100067D1B04DB048A86245F064FE002863D188
:102E2000AE4AAF48012139F0CEF86FF01204AD4A36
:102E3000AB482346012139F0C4F8AB4B0024AB4A20
:102E4000E84688B0147002AAA949DFF8A8B2A448DD
:102E50004FF40079C2E90513A2F81C904FF4E65133
:102E600042F810BF39F0CDF8C546002C40F009817A
:102E7000204606F0DBFA0446002800F0F7809E4A60
:102E800003460121964839F09CF8974B6D468AB06D
:102E900002AA9A49D461C2E905134FF4007313845E
:102EA000974B42F8103F8E484FF4115139F0A9F872
:102EB000AD4600203C37BD46BDE8F08FAB689B6C4B
:102EC00023B107F1200204212846984740F6CD405F
:102ED000002146F091FA3B6A002B9AD1013CEDD1DA
:102EE00097E77B4D1F24F6E74FF47821A86A296005
:102EF00007F1200243F04CFE044630B1814A0346FC
:102F00000121774839F05DF891E77B6AEB6028464C
:102F100002232B8200F002FE0446002887D1012301
:102F200007F12002194628463AF06EFB012803D12A
:102F300097F82040012C0ED9734A6948032139F0D3
:102F400042F801230024634887F8204007F120025B
:102F5000194600F08DFF6D4D284645F0C3FD48B978
:102F60006B4A5F48012139F02EF8002C3FF465AF21
:102F7000684B64E72E69D5F808803368664A43F4E5
:102F800000633360D8F800300B2128469847034689
:102F900028B1624A5248012139F013F8E5E7D8F820
:102FA000043007F120012846984720B93368386A71
:102FB0005840C0F3C0200128D7D184F00108002C6C
:102FC00038D1494B534E6D468AB002AA5449D66156
:102FD000C2E90513534B1362534B42F8103F40486C
:102FE0004FF4235139F00DF80123AD461946394805
:102FF00087F8208007F1200200F03AFF002800EA5D
:10300000E0711ADA384A434B8AB0002C08BF1346E5
:1030100002AA4648D36140F201331384384BC2E917
:10302000050142F8103F2E484FF4115138F0E9FFE6
:10303000AD469AE7374B2C4EC5E788B002AA3C4B09
:103040002748C2E905364FF400739383294B42F8B1
:10305000103F4FF4E65138F0D4FFAD4640F26760C0
:10306000002146F0C9F9012000F0F0FB314A1C486C
:10307000032138F0A8FFFFF7FFFB2F4825F03CFAAB
:1030800017E78AB002AA2D4B53614FF6ED610F236B
:10309000C2E906132A4B136240F202439384294B80
:1030A00042F8103F4FF433510D4838F0AAFF26483C
:1030B000C54623F047FE23F0B1FE0446002847D062
:1030C000224A03460121064838F07BFF114BDDE61A
:1030D000847A0500E0990020487B050038A20500AD
:1030E000E87D05009FA205001DA30500BBC70020C9
:1030F00011A40500030000011FA4050003A605009C
:103100000400000161A20500F0A20500687A050034
:103110002AA3050028A205001100010058A30500FC
:1031200098A305000002010304000002C5A30500E6
:10313000F8A305003EA405005C11002054A405007E
:1031400093A4050005000001080300209DA40500CC
:103150005F4A6048032138F036FF022111220846F9
:1031600015F0FCFC5C4D0028064628600EDA02F0E3
:10317000EDFB5A4D04464359594A5648012138F04F
:1031800020FF64596442002CA0D176E7554B7C6344
:103190000FCB07F1240C8CE80F00534B3B62182235
:1031A00007F12001304615F00BFDA0B102F0CEFB77
:1031B0004A4E044683594D4A0093464841F29203D1
:1031C00001213AF0DFFA28683DF0B5FB4FF0FF33FC
:1031D000A4592B60D6E74FF0140A2B687B60524647
:1031E000214607F10C0054F08EF9414E07F10C0214
:1031F000314602203DF0A1FB012817D088B002AA79
:103200003C4BA2F81C90C2E90536324842F810BF88
:103210004FF4E25138F0F5FE6FF01504C54628680A
:103220003DF089FB4FF0FF332B604FE7FC61CDF899
:1032300000A0786807F10C035246292115F022FD01
:10324000E0B102F083FBDFF894A08AB050F80A30B6
:10325000044602AA2849D361284BA2F82090C2E96B
:1032600005161C4842F8103F4FF4115138F0C9FEC2
:1032700054F80A40C546A4B16442D0E78AB002AA15
:103280001F4BA2F82090C2E9053641F29203D361A8
:103290001A4B42F8103F0F484FF4135138F0B1FE6B
:1032A000C5466C468AB002AA164B0A48C2E90536E2
:1032B00041F29203D3614FF4007313840F4B42F831
:1032C000103F4FF4135138F09CFEA546D5E600BFE1
:1032D000D9A40500E87D0500140300200C000000BF
:1032E00004A50500948C0500020010922BA5050092
:1032F0005BA5050066A505008DA50500040000017D
:10330000BCA50500DBA505002DE9F84F8A4600AFF6
:10331000002974D004680E1F361BF50826F0070636
:1033200004EB0608B8F802B01BF0010B16D1E94611
:1033300088B06A46334BCDE90531032342F8103F8C
:1033400031485B464FF4C25101F076F9CD468BF31C
:103350001188BFF36F8F0423184602DF29462046E9
:1033600038F057FE284434F83030C01A854217D060
:10337000E94688B06A46254BCDE9053A032342F871
:10338000103F214800234FF4C25101F055F90023AA
:10339000CD4683F31188BFF36F8F0423184602DFF5
:1033A000B8F8023023F00103A8F80230294620467D
:1033B00038F02FFE05EB000804EBC8035B88DA0742
:1033C00008D44146204638F06DFE42462946204644
:1033D00038F0ADFEA65BAE1B04EBC6035B88DB07D3
:1033E00009D43146204638F05DFE2A463146204653
:1033F00038F09DFE35462946204638F00FFEBD4682
:10340000BDE8F88F88A60500E07E05005FA60500F0
:1034100008B5024839F09AF9002008BDB5A60500A4
:103420000E4A9042034602D30D4A904211D30D4AF0
:1034300022B1934202D30C4A93420AD30B4A52B1AF
:103440000B48834234BF01200020934238BF002044
:103450007047012070471046704700BF287905006B
:10346000DCE005000000000000000000000000009B
:10347000000000002DE9F04F9BB000AF0446D7F8E4
:1034800090A0FA637B638B4649B9037846788078CD
:1034900000EB830020445E4522D8A0EB040B0AF029
:1034A000010394F80280FB62E3783B63B8F1000FFC
:1034B0000CBF4FF000090AF0010913B11AF0020F16
:1034C00017D1B9F1000F14D1FB6B1BB17A6B5946C0
:1034D000204698475D4628466C37BD46BDE8F08FCC
:1034E000451C2846FDF7A2FA013028440BF1010BD8
:1034F000D1E7CAF3C003FB612378BB629B00BB61C9
:1035000063683B62BB6A04EB8301FB6B002B7DD1DC
:103510005D468844B9F1000F1DD0A94E8B469946EF
:103520001BF8013B54F82300002808BF3046FDF784
:103530007DFAD7F8943001304BB1D7F898304B452D
:1035400082BFD7F8943023F8190009F10109C34567
:103550000544E5D1D8461AF0050F0AF002030CBF66
:103560004FF0020B4FF0010B0026FB633B6B9E42BA
:10357000B1D298F8013054F823A05046FFF750FF1D
:10358000FA6908F10208034602B3B86318F8021C8E
:10359000386A39F0BAF8BB6BC0B1EA468AB06A46FD
:1035A000884B05933B6ACDE906314FF40073ADF8C3
:1035B0002030854B42F8103F844800234FF41251CD
:1035C00001F03AF8023DD5460136CFE723B1FB6A58
:1035D0002BB9A5EB0B05F7E7FB6B002BF4D0784874
:1035E000BAF1000F18BF5046FDF720FAD7F8943013
:1035F00053B1D7F8983099453FBFD7F89420431C72
:1036000022F8193009F101090544DDE7B9F1000F8D
:103610006CD04346102B28BF1023BB6397F838901B
:1036200007F148000026BA6B796253F045FF796ACA
:1036300000227A620AF0020201EB08033A610AF002
:1036400004027B61FA6002337A6A396B8A4266D37C
:103650006378F96A7B621AF0020F4B44DBB20CBF4D
:1036600072080022002940F0A9801AF0040F14BF4C
:10367000314600216370A170E270B9697A6BFB6B0F
:1036800020469847051EFFF626AFBB6A23707B6A6B
:1036900063703B6BE37031467A6BFB6B84F802809E
:1036A00007F158009847061EC0F2C4803A6BBB6908
:1036B000386B03EB4203ABEB0301D7E90D23C91AC7
:1036C0007B6903EB4000FB6B98470028C0F2B48095
:1036D0002E4435184FF0000807F1480AC84577D343
:1036E00000217A6BFB6B08469847F4E6B8F1000FAF
:1036F0000CD01AF0040F0ED04346102B28BF102315
:10370000BB6397F8386007F158008CE7C7F838803A
:103710004646C1468CE7C7F838804E4688E713F81E
:10372000015C13F8021C54F82500BB60FFF778FE1B
:103730000246F869BB6838B1386AC7E9013238F027
:10374000E4FFD7E90132F0B912B3FA6A72B1B9F104
:103750000F0F18D809F1280107F14000014409F1C1
:10376000010201F8205C5FFA82F90CE0FA6852B1BC
:103770000F2E08D806F1280107F14000721C0E1820
:1037800006F8105CD6B27A6A01327A6202335BE7DD
:103790003A69002ADBD10F2EF5D806F1280007F18F
:1037A000400C6044721C00F8101C07F1680151FACB
:1037B00082F20236F6B202F8105CE4E7002159E723
:1037C000F1A60500F8A6050004000001607E0500D2
:1037D00018F80A3087F8473054F823B0D7F89430F7
:1037E00033B3D7F89830984522D2D7F8943033F8CD
:1037F00018607A6BFB6B012107F14700984700289E
:103800001ADB0E4B0544BBF1000F08BF9B4626B9DF
:103810005846FDF70BF9461CB6B27A6BFB6B314686
:1038200058469847002807DB054408F1010855E78A
:103830000026DEE735464EE605464CE6F1A60500D5
:10384000014B1860704700BF1803002008B50446FC
:10385000EFF31183202383F31288BFF36F8F1EF0E1
:10386000EBF9204602F076FC024838F06FFF3AF0A0
:10387000DCF9FCE7ACA705002DE9F047858B044691
:10388000280717460CD501290CBF45F0100545F057
:103890002005A58387F31188BFF36F8FBDE8F087FC
:1038A000022905F0070540F09480204639F0EEF932
:1038B000052864D801A353F820F000BF9538000014
:1038C000D33900007F390000413900005B39000026
:1038D0006D39000001F007035A1F012A1FD800228A
:1038E00021F00701062BD4F8008089B2C4E9002238
:1038F00009D1434603E0E28B0132E2831B68002BCF
:10390000F9D141F00201A183204639F0BFF94FF00F
:10391000000900286DD041F02001A18369E0042B4B
:103920000AD121F0070189B2A183204639F0AEF90E
:1039300010B141F02001A1834FF00008C14658E0CA
:103940002369D3F80090A38B23F0070343F0060309
:10395000A3834FF0000846464BE02369D3F8049058
:10396000A38B23F0070343F00403F1E72369D3F8A3
:103970000890A38B23F0070343F00503E8E74FF01B
:103980000008C146E7E7012243F00803A38387F359
:103990001188BFF36F8F002A3BD1B8F1000F4AD1D5
:1039A000B9F1000F02D02D492046C847EFF3118727
:1039B000202383F31288BFF36F8FA38B23F00803B8
:1039C0009BB2A383D9063FD523F01002A28303F054
:1039D0000705A669A18B002EBFF67CAF0023D4F8A3
:1039E000008021F00701C4E9003341F00101A18307
:1039F0009946A38B03F0070AAA4502D0A268002AC1
:103A0000C1D1B8F1000F02D1B9F1000FDAD0002214
:103A1000BAE7A1680029C0D00D680029BDD04F6861
:103A2000334652462046B8471DB12B6829461D46ED
:103A3000F3E72B46FAE74146334652462046D8F88C
:103A4000008039F04FF9A8E79A067FF523AF23F0FD
:103A50002002A28303F0070527E700BF11CD030072
:103A600037B504460821C06A124D39F0C9FB00235E
:103A70004FF6FF72ADF804306368ADF800208DF8A2
:103A80000620E26819182B401344181A6060684633
:103A9000ADF8021039F00CFB6946204639F0CFFB37
:103AA000211D204639F0DCFA63682B40A36003B087
:103AB00030BD00BF0000FFFF2DE9F7430F468146F0
:103AC0000821C06A144D39F09BFB3C68241A8046DB
:103AD0003C6004EA0506B4421CD3A0B210B903B09E
:103AE000BDE8F08308236A462146484639F07FFA4C
:103AF0000028F4D16946A0B239F06EFB38B1BDF8A8
:103B00000230BDF804203C602E4013441E44A4EB58
:103B10000804E0E70020E2E70000FFFF2DE9F0479E
:103B200004468AB000F11407384645F0D7F8A06A79
:103B30008368DB689847E06250B99F4A9F4801213B
:103B400039F09BFA6FF0150528460AB0BDE8F087FA
:103B5000A06A8368DB6898470368013B1F2B01D983
:103B6000974AEBE7E368B3F5803F08D94FF480321A
:103B700000929248934A012139F004FEE2E7A06ADC
:103B8000216807AA43F004F808B18F4AD6E7E56830
:103B90002DB1089BB5FBF3F203FB12550DB18B4A17
:103BA000CCE7238A012B01D8894AC7E7E36A02954B
:103BB00093F805804FF0FF334FF0FF32384624F082
:103BC000A5FBE06A082139F01BFBA9460646238ABB
:103BD0001FFA85FA534544D8238A4B4500F02D81BE
:103BE00053450BD1029908234246891B204639F0E0
:103BF0000CFA18B902A9204639F032FA02A9204677
:103C0000FFF75AFF0546002840F0B2800299616034
:103C10004FEA11494FEA0949C4F80890A3688B425A
:103C20000DD8082303AA204639F0E1F9B8B903AB4F
:103C300013F8012B904532D101300828F8D1636880
:103C400002A96FF30F032046029339F009FAE368E3
:103C500002994246204639F0D8F900283CDA054658
:103C600086E0E1682B04891B13FA81F142460823A0
:103C70002046029139F0C9F978B102A9204639F0FD
:103C8000EFF909F1010902990823424620461FFA7B
:103C900089F939F0BAF900289ED0013597E7A08854
:103CA00003A939F099FA626810B9911B6160B5E710
:103CB000BDF810A0BDF80E10E06AC4F80890514499
:103CC00039F09EFA48448242A060EED1BAF1000F6A
:103CD000EBD06FF01C054BE000F08B8063684FF673
:103CE000FF7906EB0308E368CDF808801FFA88F235
:103CF0009B1B9A4223D3374A3048032139F0BDF940
:103D00006168204639F0BBF9014680BB6368324ADE
:103D1000E06813400344A3EB460363601340A360D1
:103D2000204639F02DFB002899D1E368A288A3EB47
:103D300046039A421CD1204639F09EFA8FE70823A9
:103D400005AA4146204639F052F9002887D105A935
:103D50001FFA88F039F040FA38B1BDF814304B45FD
:103D600003D1BDF81830002B6AD0B044BBE70D4634
:103D7000384624F03DFB002D7FF4E6AE0123A3740A
:103D8000E268238A0D4800920321144A39F0FAFCB4
:103D900063689AB200920948114A1B0C032139F05A
:103DA000F1FCA3689AB2009204480E4A1B0C03214E
:103DB00039F0E8FCC8E600BFF4A70500887E0500DE
:103DC00016A8050033A805005CA8050074A8050026
:103DD00088A80500FAA805000000FFFFABA80500B1
:103DE000C2A80500D4A80500E26AA36812681344BB
:103DF000A360D4E901318B4208D95B1A42462046C0
:103E000039F003F90028FFF62AAFEDD16168E368C5
:103E100001EB46029A4288D1124BA06801EA0302E4
:103E2000904282D0204639F02AF900287FF417AF5B
:103E300062680C4B1A40A26077E76FF02C0597E799
:103E4000094A0A48032139F018F9636802A96FF397
:103E50000F032046029339F003F90299204639F006
:103E60000EF960E70000FFFFE5A80500887E050069
:103E70002DE9F04F1E46837C95B004468946904656
:103E800053B96B4A6B48012139F0F7F86FF00C0514
:103E9000284615B0BDE8F08FC26A0821104639F0F7
:103EA000AFF9B1B20190104639F0AAF9E368019A6E
:103EB000A3EB820383420746C0F0B6801EB1B8F17F
:103EC000000F00F0B180D4F804A0CDF810A005AA2E
:103ED00004A9204639F00AFA05460028D8D1BDF8D1
:103EE00014304B4507D0DDF810A063685345EED180
:103EF000002E39D1CCE705A91FFA8AF039F06CF908
:103F00000028F0D0BDF8183066B3B3422CD14FEA88
:103F10001A43BDF816A0CDF800801B049A44E36A4A
:103F20001B685B4203F020030293B346029B5B4590
:103F300028BF5B460CAA51462046039339F057F838
:103F400000284DD1039B00981A460CA953F0F3FAB0
:103F500050B9039B009ABBEB030B1A449A4400929E
:103F6000E4D195E7002B93D0002F3CD1BA4604F161
:103F7000140B4FF0FF324FF0FF33584624F0C6F9D0
:103F8000238A9D424DD0D4E901320AEB02018B42D3
:103F90002ED39BB263B3FF23ADF81E20002118225D
:103FA0000CA88DF82230ADF81C90ADF8206053F0CD
:103FB000AAFA0CA92046CDE90E8639F02BF907465E
:103FC00048B907A839F074F807A9204639F037F93D
:103FD000074600B93746584624F00AFA3D4657E7E7
:103FE000C2DC054654E7019B1F441FFA87FABEE76F
:103FF0002046FFF735FD3DB9ADF82490CDF8288077
:10400000ADF82C608DF82E5009A9204639F0B8F98A
:1040100007460028DFD19DF82E300135002BAFD0A8
:10402000D8E76FF01B07D6E76FF0150530E700BF44
:10403000E0A70500887E05002DE9FF471E46837C2A
:10404000BDF8309004460F4690464BB92848294A9F
:10405000012139F012F86FF00C0004B0BDE8F087D0
:10406000C06A082139F0CCF8E368A3EB4003B342FF
:104070003AD3656801954FF0000A02AA01A92046CB
:1040800039F034F90028E8D1BDF80830BB4206D138
:1040900002A9A8B239F0A0F850441FFA80FA019B97
:1040A00062689A4219D0CA4515D9BDF80C30C3B11F
:1040B000CA4516D3BDF80A10B3426FF30F0528BFE7
:1040C000334642462944204638F091FF0028C4D1A7
:1040D000BDF80C00C1E71D46CFE7BDF80830BB4274
:1040E000E3D06FF00100B8E76FF01500B5E700BF4F
:1040F000887E0500E0A705002DE9F047DFF8548031
:10410000044607464FF0010994FAA4F5B5FA85F57F
:1041100009FA05F32E0108EB05156FEA030A24EAF4
:1041200003042B7B63B158F806301B696BB9464416
:10413000042273682846196807EA0A0739F09FFACB
:10414000002CE1D13846BDE8F08728469847002882
:10415000F6D1ECE7907F050010B50F490F4888B005
:10416000002245F004FA00220023CDE906230024B2
:104170000E23CDE90334CDE90144094B09490094EC
:104180004FF44072084824F0A5FD0849064845F060
:1041900031F8204608B010BDB1410000F0190020F0
:1041A000E1440000A0E100206015002028A90500DE
:1041B000014824F0A1B900BF141100202DE9F047F7
:1041C000804621480F4639F03AFA0646002833D097
:1041D00000252846BDE8F087237B83B12368DB6890
:1041E0000BB120469847636883F8069023681B69E3
:1041F000D3B9636804221968204639F040FA0136C1
:1042000010345445E8D3B8F1000FE2D0002DDFD0D0
:104210002846FFF771FF0546002FF7D000214FF425
:10422000A47045F0E9F8F1E7204698470028E0D06F
:1042300009FA06F31D43E2E7044CDFF814A0054633
:104240004FF00109DDE700BF209A0020907F0500B4
:10425000A07F0500014B53F8200070479C820500A9
:1042600008B5034608462BB1044A136000F056FC1B
:10427000002008BD6FF01500FBE700BF1C03002005
:1042800010B5044C237813B9034824F035F9012301
:10429000237010BDBCC700201411002010B50446C7
:1042A0000B4839F0CCF95CB1BFF35B8F094B53E895
:1042B000001F013943E80012002AF8D1BFF35B8FD9
:1042C000054825F01FFB0548BDE8104024F014B94F
:1042D000189A00201C9A0020F019002014110020C8
:1042E000064BBFF35B8F002253E8000F43E8002129
:1042F0000029F9D1BFF35B8F704700BF189A0020E7
:1043000070B5FFF7EDFF084C084E0546B44200D3E8
:1043100070BD63685B792BB123685B6813B1294674
:10432000204698471034F1E7907F0500A07F0500F4
:1043300010B5044C0449204638F022FB034B1C60A6
:1043400010BD00BF680E002088820500109A002072
:104350000D4A0E48002310B513700D4A13600D4A24
:104360004FF400411360FFF77BFFFFF7E1FF0A4BBB
:104370000A4918468B4200D310BD1A1A5C68121104
:10438000013222711033F5E7BDC700203BD6030090
:10439000189A00201C9A0020907F0500A07F05003D
:1043A000014600220148002338F00BBB680E0020B4
:1043B000014838F0A2BB00BF680E0020024B014646
:1043C000186838F0F5BB00BF109A0020014838F09B
:1043D0002ABC00BF680E002070B52A4B1B78002B4A
:1043E0004ED0FFF7E5FF0446002846D1264B274D67
:1043F0001B68002B19DD45F072F84FF47A76A0FBAC
:10440000063206FB0121D5E90020DB0B43EA4143DC
:104410009B1A4FEAD13140F2E93261EB000193423D
:1044200071F1000101D3FFF76BFFD5E9003213F5FD
:104430007A7342F10002C5E900320CB3BDE8704066
:10444000FFF7C4BF6B685B7923B12B6821461B68FB
:10445000284698471035B542F4D32046FFF7AEFF03
:10446000BFF35B8F0A4B53E8001F013943E800128A
:10447000002AF8D1BFF35B8FB8E7064D064EEAE796
:10448000002070BDBCC70020189A0020E819002049
:104490001C9A0020907F0500A07F050070B50D4D8F
:1044A000297861B90120FFF789FE0B4C0B4EB4420D
:1044B00006D3FFF791FF0028FBD101232B7070BDBD
:1044C00063685B791BB1236820469B68984710346A
:1044D000EDE700BFBDC70020907F0500A07F05006D
:1044E00000212DE9F8430846FFF768FE044648B36B
:1044F00040F267684FF0000901F028FA1A4B1B4A96
:104500001B58136033B11A4B1B68092B02DD194885
:1045100023F0F2FF184F002544B12046FFF7ECFDD1
:10452000044618B94FF0FF384FF0FF39FFF754FF3A
:10453000064628B9B5B90F4842464B4624F018F84C
:104540003546E9E74FF0FF384FF0FF39D4E72B68E5
:104550009B691BB100221146284698471035BD4281
:10456000F5D3E8E7054DFAE708000000149A0020AB
:104570001C9A002014110020A07F0500907F0500E8
:1045800013B5184839F05BF8174B1B7873B1EFF38C
:104590001184202383F31288BFF36F8FFFF71CFF72
:1045A00084F31188BFF36F8F02B010BD0F4B1B68EF
:1045B000002BF9D050B900220023CDE900230C488C
:1045C0004FF40042002325F077F9EDE70928EBD1FD
:1045D000074825F097F9074802B0BDE8104023F0DE
:1045E0008BBF00BF1C9A0020BDC70020149A00207A
:1045F000F01900201411002010B5064B1B6804466A
:1046000098472146A060044838F058FABDE81040A9
:10461000FFF7B6BF1C030020680E0020044A054BBC
:104620009B1AB1EBD30F34BF52F831000020704712
:10463000E07D0500907F05002DE9F04F8FB004AFBD
:10464000C1F34A26B8600D4690467B600C0D002EE3
:1046500061D04FF000090A234FF0040B07F1140A50
:10466000FE60C7E90799C7F824900093CDF808B019
:10467000CDF804A007F11C03F9684A464046FEF74E
:10468000F9FEB0F5006F03461CD36C468AB0D8F82B
:10469000041004AB2448C3E9050140F2FF71D9615D
:1046A0001A464FF400711984204B42F8103F2048FD
:1046B0004B464FF41251FFF7BFFFA5462C37BD46BE
:1046C000BDE8F08FC0F30A0604F11700184420F08B
:1046D000070080083B60FFF763FE66F3532504463E
:1046E00080B13B68134A00F11001C7E90839F9614C
:1046F000CDE901AB0A230093F96807F11C0340469A
:10470000FEF7B8FE66F353257B68B9682A46204653
:1047100038F0D5FFD2E704F1170020F00700800839
:10472000FFF73EFE0446EDE73DA905000400000149
:10473000987E050091D603002DE9F04F87B0DDE9A2
:10474000127ADDE9106B0546884614469946BFB1DA
:104750001021CDF800A03B465A460020CDF814A009
:1047600037F0FAFDB0F5006F01460BD3194A1A482D
:1047700040F2FF73022107B0BDE8F04F38F0F8BFF8
:104780003946384604F0070305F00704E40044EA1C
:10479000831444EA402444EA065406F1170008440E
:1047A00020F0070080080391FFF7FAFD054640B1AD
:1047B0003FB10399CDF800A03B465A46103037F080
:1047C000CBFD4B4622464146284607B0BDE8F04F98
:1047D00038F075BF7CA90500987E0500406820B1BF
:1047E000034BC01A40F3CF0070474FF0FF307047C3
:1047F000E07D05000EB403B503AB014653F8042B6E
:104800000448019301F000FA02B05DF804EB03B034
:10481000704700BFD3D70300CA0605D48B064CBF30
:1048200002490349FFF7E6BF704700BFB5A905007D
:10483000B4A905002DE9F04F8BB09946179B07935B
:10484000DDE918A39DF858801A9F069204460D468C
:104850000593B8F1000F00F0BF80844B13F80830C7
:10486000089307F48073099338F007FF07F0020BF1
:10487000024600287DD07E492046FFF7BBFF064652
:10488000BBF1000F08D017F0440F74D179492A46C4
:104890002046FFF7AFFF064407F0010353B1764B04
:1048A000764953F82820764B2046002A08BF1A463E
:1048B000FFF7A0FF07F48073002B07F0080318BF71
:1048C0004FF00009002B00F082806E4B6E4953F8C8
:1048D00028202046FFF78EFF0546069B2BB16B492B
:1048E0001A462046FFF786FF0544B9F1000F0DD0A8
:1048F000089B002B6ED06649664BB8F1040F18BFB9
:1049000019464A462046FFF775FF0544624835447C
:10491000079B1BB16149224637F0C6FE059B002B61
:1049200000F09080DDF814903946B9F1100F204660
:1049300028BF4FF01009FFF76FFF0026B54252DC89
:10494000002633461AF8032055492046FFF752FF48
:104950000136102E4DD0710703D152492046FFF782
:1049600049FF4E453346EDD34F492046FFF742FFFE
:10497000EEE7064684E74D4B186800288BD04C4B79
:104980004FF47A7B1B68B5FBF3F54FF46163B5FB1D
:10499000F0F100FB11550BFB05F54FF03C0CB1FBA2
:1049A000F3F203FB1211B5FBF0FEB1FBFCF300FBCD
:1049B0001E550CFB13110BFB05F50091B5FBF0F533
:1049C0003C49CDE901E52046FFF714FF63E707F016
:1049D000080582E72F4994E7B9F1010F0CBF2E4873
:1049E0003548454694E72F492046FFF703FF013637
:1049F000A4E7324920460026FFF7FCFE33461AF8AA
:104A000003202F49A2F120035F2B28BF2E2220462E
:104A1000FFF7F0FE0136102E0DD0720703D12149A9
:104A20002046FFF7E7FEB1453346E8D81D4920464A
:104A3000FFF7E0FEEEE7059BB3EB0903CA440593DD
:104A40007FF470AFB8F1000F0AD0FB0704D50C4A11
:104A50000A492046FFF7CEFE39462046FFF7DCFE26
:104A600020460BB0BDE8F04F38F0A6BE59DC05007B
:104A7000C5A90500C9A90500AC82050006BC050052
:104A8000B7A90500C0820500EFA90500F5A905003A
:104A9000BCA90500C0A90500D3D70300095C00002C
:104AA000F9A9050001AA0500FFA90500289A002020
:104AB000249A0020D3A9050009D8030003AA050001
:104AC00005AA050073B542F20F738B4228BF0B464F
:104AD00005680F4A04460521684636F01FF96368E9
:104AE0000C495B6806460B22284638F057FE63687F
:104AF0003246694628465B6838F050FE63680649CE
:104B00005B681B22284638F049FE02B070BD00BF2A
:104B1000BDB105004DDC050031DC0500074A002170
:104B20000123904206D8064A01B901231360054BC0
:104B30001860704740085B000121F2E740420F0017
:104B4000249A0020289A0020F8B5074F0D46044605
:104B50004618B44201D12846F8BD14F8011BBB68C1
:104B600001485B689847F4E7847A0500014B0360CD
:104B7000002070470883050070B5104B1C680D4677
:104B8000B4B10F4B196800238B4202DB6FF00100B8
:104B900070BD224612F8106B864202D001331446D3
:104BA000F2E7E06843F09EFF28B12C600020EFE7B9
:104BB0006FF00C00ECE76FF01200E9E7280300202B
:104BC0000883050010B588B0436802938368C06805
:104BD000CDE903320A680023CDE906230C4601AA79
:104BE0000449059341F0D8FF079808B9059B236055
:104BF00008B010BD03D90300B0B582B03F494048AA
:104C000002AF39F0F0F90446A8B16D468AB002AAA5
:104C10003C4B53613C4BC2E906344FF400731384A0
:104C20003A4B42F8103F3A4800234FF41151FFF736
:104C300003FDAD4632E03749314839F0D4F9044636
:104C400030B16D468AB002AA2E4B5361324BE2E777
:104C500032492B4839F0C7F9044630B16D468AB065
:104C600002AA284B53612E4BD5E72E49244839F030
:104C7000BAF9044630B16D468AB002AA214B53619D
:104C8000294BC8E70146294A1D4802F077FC044633
:104C900038B1274A1E48012138F061FD2046BD4643
:104CA000B0BD024623491648012302F05DFD0446CB
:104CB00008B1214AEEE70123009301460223104880
:104CC000EF2239F00DF904460028E7D10C4801F035
:104CD000ABFA044630B16D468AB002AA094B536163
:104CE000164B98E7064801F0DFFA04460028D5D0B5
:104CF0006D468AB002AA124BF1E700BFA003002064
:104D00003C1400203EAA05005BAA05000400000137
:104D1000687E0500880300206FAA0500700300204C
:104D200087AA0500580300209AAA05002C0300203A
:104D3000A8AA0500C4AA0500CEAA0500E9AA050094
:104D4000F8AA05002DE9F0410C4B1C6805460E46FB
:104D500017467CB100F0EEF863682046D3F8108067
:104D600032463B462946C047044600F0EDF820464F
:104D7000BDE8F0816FF00104F9E700BF589A002008
:104D800000230360044B5A6812B9C3E9000070475E
:104D900010605860704700BF5C9A0020014B18609B
:104DA000704700BF589A00201FB5CDE9010103925A
:104DB00000F0C0F8074B1C6824B900F0C5F8204685
:104DC00004B010BD636820461B6801A99847246899
:104DD000F2E700BF5C9A0020024B0022C3E90022E8
:104DE000704700BF5C9A0020024B0022C3E90022FA
:104DF000FFF7F2BF649A00202DE9F74307460C46FF
:104E000009B100230B601F4DDFF87C9000264D4553
:104E10000FD31E4B1D6885B355F8188C01AA414667
:104E20003846183D38F0DBFD10B3D6B914BB2E461A
:104E30001EE0D5F8008001AA4146384638F0CFFD83
:104E400050B116B954B92E4606E0316800224046EA
:104E500038F0C5FD0028F5D11835D8E7019B23604F
:104E6000F1E731680022404638F0B9FD0028DDD175
:104E7000AD69D0E7019B2360D9E7304603B0BDE8B8
:104E8000F08300BFA07F0500A07F0500649A00208A
:104E90002DE9F04784B002AF0446D7F82890786037
:104EA0000D4616469846B9F1000F07D0D9F8001004
:104EB00031BBD9F804A0BAF1000F28D1391D204622
:104EC000FFF79AFF08B3D0F80C9078684346324653
:104ED0002946C847C8B16D468AB002AA124BD061B4
:104EE000C2E905344FF400731384104B42F8103FAD
:104EF0000F4800234FF41151FFF79EFBAD4604E02D
:104F00003A1D38F06CFD0028D3D1002007E0D9F815
:104F1000083000937868434632462946D047083720
:104F2000BD46BDE8F08700BF20AB050004000001CE
:104F3000F07E050003484FF0FF324FF0FF3323F0BF
:104F4000E5B900BF9C100020014823F051BA00BF12
:104F50009C10002038B5094DFFF7ECFF2B785BB9AA
:104F6000FFF742FF00F06AF8044608B901232B70EE
:104F7000FFF7EAFF204638BD0024F9E7BEC800204D
:104F80002DE9F043048F013499B006460F46A4B2D0
:104F900000F10808651EADB2B5F5004F4AD04A23AE
:104FA00005AA2946404638F02FFB04F57F543F34CC
:104FB000A4B28146214601230DF10B02404638F090
:104FC00023FBB9F1000F014610DC002810DC338F01
:104FD000AB4209D132466B1E22F8383F4FF40041F4
:104FE00002234046FEF744FF2C46D3E7002808DCA6
:104FF0002946404638F004FB2146404638F000FB85
:10500000E5E7B9F1490FEFD809F160030DEB0309AA
:10501000002309F84C3C084A009703AB05A8CDF8DB
:105020000C80ADF81040FFF733FF0028DCD019B03A
:10503000BDE8F0830020FAE72BDA03007FB50123F7
:10504000694603200193FFF797FD044660BB02AA5F
:1050500001A9032038F077FC044610B110F10C0FC1
:1050600022D10399B1F5803F23D2009A002394689E
:105070001846084484421AD30133082BF9D10E4D47
:1050800069612B835368AB602846D368EB6338F0C3
:1050900064FD044640B9094E6E602846FFF770FE75
:1050A00028466E60FFF77AFE204604B070BD9BB2C2
:1050B000E5E76FF02004F7E76C9A0020B083050065
:1050C00080B505460E461746984624F01FF903465C
:1050D00000F03CFCDFF81890044649F800304246E6
:1050E00030463946A84754F8090000F0CFFB00BF0E
:1050F0000800000038B50C46154638F063FD034B38
:1051000043F8305003EBC0035C6038BDC80C00208E
:1051100008B50348034A0021121A38F054FD08BDAF
:10512000D81400209CD900200748084A084908B52F
:10513000121A38F04AFD0748074A0849BDE80840F6
:10514000121A38F042BD00BF00000020D414002025
:10515000DCE005000000002000000020DCE005008D
:105160002DE9F047064600AF0C46002936D0E94647
:105170008AB0D1E90012A3686D462148E8464FF095
:10518000050ACDE90501CDE9072348F810AF1D4810
:10519000424600234FF42151FFF74EFACD46D4E9A1
:1051A00003126369AD461848C5F810A0C5E90501AA
:1051B000C5E907231348002342464FF42151FFF766
:1051C0003BFACD46E369114A0E48012138F0D0FA86
:1051D000A3690F4A0B48012138F0CAFA012E07D102
:1051E000EFF305830B4A0748103B314638F0C0FA0D
:1051F0002146304622F0AAFDBD46BDE8F08700BF3B
:1052000054AB0500D87E050083AB0500B2AB0500AA
:10521000C1AB0500EFAB050030BFFFF7FDBF00BF1E
:105220002DE9F0410B4EDFF8308006EB0807CC1B70
:10523000054632460949204652F03EF9A019424639
:105240000021083C52F05FF9EC6707F10800BDE867
:10525000F08100BF0000000008000000A07F0500F2
:1052600010B5204C2049214838F0BCFCA36A9901B4
:1052700036D51E481E4938F0B5FC1E20A36ADA0157
:1052800004D51A481B4938F0ADFC1F20154CA36A01
:105290001B0304D51548184938F0A4FC2120A36A43
:1052A000590304D51148154938F09CFC22200D4CB7
:1052B000A36A9A0304D50D48114938F093FC2320C2
:1052C000A36ADB0304D509480E4938F08BFC24207F
:1052D000044A936A6FEA03436FEA1343936210BD73
:1052E0001D20CBE700ED00E002AC0500D87E0500F4
:1052F0001AAC05002DAC050047AC050065AC0500F7
:105300008AAC0500A4AC050070B506460D46294CD4
:1053100029492A4838F066FCA36ADB0647D52748A6
:10532000274938F05FFC1120A36A1C0704D52348E5
:10533000244938F057FC12201E4CA36A990712D555
:1053400021491E4838F04EFC636BA26A120609D54B
:105350001E4A1A48012138F00BFA1EB1A36A23F045
:105360008003A3621320134CA36ADE0704D51348FD
:10537000174938F037FC1420A36A9C0604D50F485F
:10538000144938F02FFC15200A4B9A6AD10658BFF1
:105390009A6A9A6A920642BF5A6A22F400525A6284
:1053A0009A6A42F0FF029A6200232B7070BD1020AF
:1053B000BAE700BF00ED00E0CFAC0500D87E0500E5
:1053C000E5AC050018AD05002BAD050043AD0500AB
:1053D00059AD050078AD050070B506460D46284C60
:1053E0002849294838F0FEFBA36AD9043CD5264851
:1053F000264938F0F7FB1720A36A1A0504D522487E
:10540000234938F0EFFB18201D4CA36A9B0512D5E9
:105410001D48204938F0E6FBA36BA26A100409D5A9
:105420001D4A1948012138F0A3F91EB1A36A23F4DB
:105430000043A3621920124CA36A590504D51248EF
:10544000164938F0CFFB1A20A36ADA050ED50E48AC
:10545000134938F0C7FB1B20094A936A43F47F4382
:10546000936200232B7070BD1620C5E7A36A9B04CE
:10547000F2D505480B4938F0B5FB1C20ECE700BF1E
:1054800000ED00E0A7AD0500D87E0500BDAD05002C
:1054900018AD0500CEAD0500E7AD0500FCAD05007B
:1054A00017AE050078AD0500F0B56A4B8BB0044629
:1054B000586800AFC0F30803002585F31188BFF3D7
:1054C0006F8F02F07F46B6F17F4F07D102F00C06D6
:1054D000082E0ED16049614838F084FB60495F486E
:1054E00038F080FB00210846FFF73AFE2C37BD4616
:1054F000F0BD16074CBF0C460125002CEED0002253
:10550000FA71DA1E092A00F28580DFE802F0057BD5
:105510007E77838383838381524950484D4E38F090
:1055200061FB0023FB71F36A9A0705D54E494B488E
:1055300038F058FB00232DE0F36A002B01DA4B49C9
:10554000F5E7F36A5B00F5D54949444838F04AFB72
:105550007369A26943F480737361BFF34F8FBFF324
:105560006F8F32F8023C726922F480727261BFF36D
:105570004F8FBFF36F8F03F47F42B2F55F4F27D198
:10558000DBB2022B24D123683A4A3448012138F097
:10559000EFF82368FA79002AA8D107F1080604F188
:1055A000200C20686168324603C208346445164600
:1055B000F7D17A6A002D4AD0C2F3080121B96FEA07
:1055C00052226FEA42227A6207F1080118468BE7FD
:1055D000204B9A6AD2B222B1F91D0120FFF794FE46
:1055E0000EE09A6A12F47F4F04D0F91D0120FFF7F4
:1055F000F3FE05E09B6AB3F5803F9BD3FFF730FED7
:105600000346C7E7F91D0020E8E7F91D0020EEE793
:1056100019498CE7194A1A4910F4F87F6E468AB086
:1056200018BF11466A46103B079316484FF40073A3
:10563000ADF82030144BCDE9050142F8103F074882
:1056400000234FF41151FEF7F7FFB54672E76FF3F1
:105650000802B8E700ED00E05DAE0500D87E050069
:1056600088AE0500C4AE0500DBAE0500FCAE05004B
:105670000AAF050029AF050045AF050044AE05009F
:105680002FAE050069AF050004000001044B5A6904
:1056900042F010025A615A6922F008025A617047BA
:1056A00000ED00E0EFF30880EFF3098101B57246E9
:1056B000FFF7FAFE01BD00BF0B4880F3088820F019
:1056C000D7F8202080F3118808484FF40061401873
:1056D00080F30988EFF314800221084380F31488D3
:1056E000BFF36F8F00F068F8802501204012012081
:1056F0001EF0040F0CBFEFF30880EFF309808169FF
:1057000011F8021C0229FFD001B5724638F05FFA89
:1057100001BD00BF0028ACBF00F16040064B4FEA5E
:105720004111ACBF00F5614000F00F00C9B2B4BF39
:10573000195480F80013704714ED00E040B20028BF
:1057400007DB044A4109012300F01F00834042F8AF
:105750002130704700E100E040B200280CDB430933
:10576000064900F01F0020330122824041F8232027
:10577000BFF34F8FBFF36F8F704700BF00E100E0B2
:10578000054B420900F01F0053F82220012303FAC1
:1057900000F01040704700BF00E100E0044B054AF4
:1057A00023F07F039360BFF34F8FBFF36F8F70477A
:1057B0000000000000ED00E008B5FFF7EFFF0B4A26
:1057C000D2F8883023F47003C2F88830EFF31483E2
:1057D00023F0040383F31488BFF36F8FFFF798FC63
:1057E000FFF7A2FC00F094F822F0EAFB00ED00E0E5
:1057F00042F8203C009B42F81C3C0A49019B42F8BD
:10580000183C029B42F8143C21F001014FF08073D8
:1058100042F8043C42F8081C0023203A0265C0F814
:1058200080307047C150000000B50B4B98600B4BA7
:105830001546C26F1A600E462C4686F30988002072
:10584000034B98472046002100220023014C2047AB
:105850001DDC0300C1500000A8C40020AC9A002049
:10586000014B10221A61704700ED00E0054B5A69A8
:105870009B689A421FBF044A536843F080535360A9
:10588000704700BFA8C4002000ED00E0084B9B68F3
:1058900083420BD1EFF3058343B1064B5A6842F0C4
:1058A00080525A605A6A22F400425A6243F0A7BCFE
:1058B000A8C4002000ED00E012498A684FF03000D3
:1058C0001044EFF3098C80E8F01F202080F3128849
:1058D000BFF36F8F0C4F4FF000664A698A603E60DD
:1058E000D06F0A4C2060D2F880000023C2F88030CC
:1058F00080F3118802F1300090E8F01F8CF30988E2
:1059000070470000A8C4002004ED00E0AC9A00201D
:10591000044800232021C2180133302B82F80013E1
:10592000F9D1704700E100E008B5EFF30583064ABE
:10593000103B02EBC30152F8330049688847BDE8C9
:105940000840FFF793BF00BFC80C00200148006863
:1059500070470000AC9A0020024B034A0348012123
:1059600000F07AB80000042000000020CC8305007D
:1059700008B503461048D0F89020C2F30722013A38
:10598000934207D90D480E4A012137F0F1FE6FF01E
:10599000150008BDC0F898300A6822F01F021A43AB
:1059A00042F01002C0F89C208A6842F00102C0F860
:1059B000A0201846EDE700BF00ED00E0B07E050036
:1059C00080AF0500F0B50E4685B01F4604460025A1
:1059D000B5420DDA606810B397B1431E18420AD081
:1059E000104A11482B46012137F0C2FE6FF0150214
:1059F000104605B0F0BD1F28F2D921680B42EFD147
:105A00002368019338F02DF9A36801A90343D0B2AC
:105A10000393FFF7ADFF10F1160FE7D0421C0135DD
:105A20000C34D5E7A6AF0500B07E0500044B052277
:105A3000C3F89420BFF34F8FBFF36F8F704700BF41
:105A400000ED00E0BFF35F8F024B0022C3F894200B
:105A5000704700BF00ED00E010B5034C0123227831
:105A6000FFF7B0FF207010BDBFC800202DE9F04344
:105A70005F486049D0F890300C68C3F307239C421C
:105A800085B000F2B280FFF7DDFF49680022944242
:105A900001F10C011AD1584F584D3C706846FFF780
:105AA00065F8574C574E81464FF00008C14520D14C
:105AB0003B784F490020D1F89020C2F3072293424F
:105AC000C0F28D80FFF7B2FF002052E0C0F89820AE
:105AD00051F80C3C23F01F03134343F01003C0F8AC
