:1000000020290120C14800002FB60300AD480000A0
:10001000AD480000AD480000AD4800000000000001
:10002000000000000000000000000000F94800008F
:10003000AD48000000000000E14A0000AD480000AB
:10004000514B00006FB60300514B0000514B0000B4
:10005000514B0000514B0000514B0000514B000030
:10006000514B0000514B0000514B0000514B000020
:10007000514B0000514B0000514B0000514B000010
:10008000514B0000514B0000514B0000514B000000
:10009000514B0000514B0000514B0000514B0000F0
:1000A000514B0000514B0000514B0000514B0000E0
:1000B000514B0000514B0000514B0000514B0000D0
:1000C000514B0000514B0000514B0000514B0000C0
:1000D000514B0000514B0000514B0000514B0000B0
:1000E000514B0000514B0000514B0000514B0000A0
:1000F000514B0000514B0000514B0000514B000090
:100100007BB972B90029BEBF00204FF0004106E064
:1001100008BF00281CBF6FF000414FF0FF3000F017
:1001200057B8ADF1080C6DE904CE002909DB002BAE
:100130001ADB00F069F8DDF804E0DDE9022304B021
:100140007047404261EB4101002B1BDB00F05CF883
:10015000DDF804E0DDE9022304B0404261EB410137
:10016000524263EB43037047524263EB430300F098
:100170004BF8DDF804E0DDE9022304B0404261EB16
:1001800041017047524263EB430300F03DF8DDF854
:1001900004E0DDE9022304B0524263EB43037047FD
:1001A00053B94AB9002908BF00281CBF4FF0FF31DE
:1001B0004FF0FF3000F00CB8ADF1080C6DE904CE43
:1001C00000F022F8DDF804E0DDE9022304B0704716
:1001D000704700BF10F8012B11F8013B012A28BF1E
:1001E0009A42F7D0D01A7047034611F8012B03F852
:1001F000012B002AF9D17047034613F8012B002A7E
:10020000FBD1181A013870472DE9F0478C468E460D
:10021000089E154604461946002B40F0D0807245D2
:1002200047D9B2FA82F74FB1C7F120030EFA07FCA3
:1002300020FA03F3BD4043EA0C0CBC404FEA154ED4
:10024000A8B2BCFBFEF8230C0EFB18CC08FB00F98F
:1002500043EA0C43994528D9EB1808F1FF3204D240
:10026000994502D9A8F102022B44A3EB0903A4B2D9
:10027000B3FBFEFC0EFB1C330CFB00F044EA034412
:10028000A04214D92C190CF1FF3304D2A04202D998
:10029000ACF102032C44241A43EA02401EB1FC4094
:1002A000002334607360BDE8F0874246DDE76346B3
:1002B000F1E7002A79D0B2FA82F3002B3FD0194639
:1002C000C1F1200302FA01F52EFA03F20EFA01FE43
:1002D00020FA03F343EA0E034FEA154E00FA01F445
:1002E000B2FBFEFCAFB20EFB1C201A0C0CFB07F895
:1002F00042EA004290455AD9AA180CF1FF3004D2C4
:10030000904502D9ACF102002A44A2EB08029BB24C
:10031000B2FBFEFC0EFB1C220CFB07F743EA024378
:100320009F4246D9EB180CF1FF3204D29F4202D90A
:10033000ACF102022B44DB1B42EA004202E0AEEBCE
:10034000020301224FEA154EAFB2B3FBFEFC200CB4
:100350000EFB1C330CFB07F840EA034398452AD9EF
:10036000EB180CF1FF3004D2984502D9ACF1020031
:100370002B44A3EB0803A4B2B3FBFEFC0EFB1C331F
:100380000CFB07F744EA0344A74216D92C190CF1D9
:10039000FF3304D2A74202D9ACF102032C44E41B80
:1003A00043EA00400F46114678E71F2188E7604680
:1003B000ABE76246BFE76046DBE76346EFE77345BE
:1003C00006D916B9002108466DE7C6E9000EF9E71F
:1003D000B3FA83F787B9734501D3824207D8841AE9
:1003E0006EEB030301209C461EB900215BE73846F3
:1003F000FAE7C6E9004CF8E7C7F1200CBB4022FA47
:100400000CF51D4320FA0CF12EFA0CF30EFA07FE40
:1004100041EA0E014FEA154900FA07F4B3FBF9F877
:100420001FFA85FE09FB18300B0C08FB0EFA43EA95
:1004300000439A4502FA07F240D9EB1808F1FF3061
:1004400004D29A4502D9A8F102002B44A3EB0A0377
:1004500089B2B3FBF9F809FB183308FB0EFE41EA39
:1004600003418E452CD9691808F1FF3304D28E451B
:1004700002D9A8F10203294443EA0040A0FB0298F4
:10048000A1EB0E014145CE46434602D306D14C4571
:1004900004D2B9EB020E68EB05030138002EA4D09C
:1004A000B4EB0E0261EB030101FA0CFC22FA07F334
:1004B0004CEA0303F940C6E9003196E74046C5E738
:1004C0004346D9E7000000002DE9F843D0E907389A
:1004D000856903EB08042F34A5420F46164619D848
:1004E000DFF86C80A3FB080117A3D3E90023FFF713
:1004F00057FE0346601BA0FB080123F07F4412A3B4
:10050000D3E90023FFF74CFE20F07F403C603060D1
:10051000BDE8F883DFF838900BA3D3E90023A5FBEF
:100520000901FFF73DFE20F07F440A480A2106A397
:10053000D3E90023E8FB0901FFF732FE20F07F40FA
:100540003C603060BDE8F8838D49FD1A070000006B
:1005500000CA9A3B00166BF1002800F03E812DE99D
:10056000F04FC54C94F85E30DA078DB000F1318160
:10057000627F94F8293004EB820204EB8303166A4D
:10058000D3F82C800EB3354615F8020BC0F380105B
:100590000DF016FC0368C6F802308388AB80337810
:1005A0005B0606D5062128460CF08AF8002800F0E4
:1005B0004681454615F8020BC0F380100DF000FC93
:1005C0000368C8F802308388AB80337813F00E0FCD
:1005D00040F08B8063691BB10C200DB0BDE8F08F3B
:1005E0000EF06EF88146002800F032810EF074F8AB
:1005F0008246002800F0298110F05EFA05460028A6
:1006000000F02C81C06E4FF6FF73AB8405F1100B28
:10061000002800F01F8105F1600205F15C010CF07B
:100620005BF8B5F8583023F4EF6323F0070343F485
:100630008C7343F00103A5F8583095F8373003F078
:100640003F0363F07F0385F8373095F8723023F06D
:10065000070385F8723095F83C3023F00F0300272C
:1006600085F83C304FF4C023C5F86E312846C5E903
:100670001277EF66A5F8707085F839706F85C5F848
:100680002E702F65A5F84071A5F87471A5F86A71F0
:1006900011F092FE85F84471C5F8489110F080FC85
:1006A00095F87C3160F3020385F87C3110F07EFC14
:1006B00095F87C3160F3C50385F87C3195F84231BB
:1006C00067F3410385F8423105F1C40011F0AEFC37
:1006D000C4E9159AC4F814B0C5E902772F702D61EA
:1006E00015F048F8002840F0AC80237E0121C3F3C8
:1006F00042030DF12B008DF82B300CF08FF90246E0
:1007000000286CD0414630460FF000FE5B4A5C4B3F
:10071000B4F85C800721E0FB023100251846C4E9EB
:10072000025553A3D3E900232570FFF739FD60601C
:100730000DF00AFB00F10907B8F1000F07D1357879
:1007400005F00F05A5F10105B5FA85F56D09207EC7
:10075000636865F3000010F00105207646D0494A31
:100760000992002010600225474ADFF82081049397
:100770000BAE019305920321CDE90200069400908F
:100780003B46CDF81C8008962A460B950DF000FAE2
:1007900031460EF02BF810BB3D4905914AF2D83393
:1007A0000093CDE90300CDE90100CDF81C80089647
:1007B00006943B46012203210B950DF0CDF93146FD
:1007C0000EF014F858B994F85E3043F0010384F841
:1007D0005E3000200DB0BDE8F08F0FF031BD6369D1
:1007E000002B3FF4F9AE0FF001FDF5E6254A29484C
:1007F000049303F247130694029591211360A8FB1A
:10080000000301FB0831214B07931F4B05934FF663
:10081000FF7309924FF0020803930BAE14A3D3E9C0
:100820000023CDF82C800896FFF7BAFC3B46CDE9B3
:1008300000504246284603210DF0AAF9BFE71220D6
:10084000CBE60FF0D3FC0320C7E648460DF03EFF91
:100850000720C2E605F16400E866DCE650460DF0CC
:1008600041FF48460DF032FFF2E700BFAFF30080D2
:100870008D49FD1A07000000FCA8002000CA9A3B21
:100880008C49FD1AF0A800208503010045DE000018
:10089000A9000100002AE78470B5037E8AB0C3F383
:1008A00042030D46044601210DF1230016468DF842
:1008B00023300CF0B3F83146024628460FF026FDEF
:1008C0001D4A1E4B0721E0FB0231184618A3D3E94D
:1008D0000023FFF765FC63689842054621D21B1A86
:1008E00000220192164A0293164BA21AA3FB02326F
:1008F0000221920900230A4409AE09911249059187
:10090000CDE9033303210696D2B2009318460DF0C9
:1009100095F931460DF06AFF38B9656000200AB0DC
:1009200070BDFBD9C21A0023DBE70C200AB070BDF2
:100930008D49FD1A0700000000CA9A3B8C49FD1A38
:10094000FCA80020ABAAAAAA45DE00000000000017
:100950002DE9F04F05468BB08B46012002219946C8
:10096000144616F099FB00220221824601200BF06A
:1009700007FF2F494FF4C07228460BF08DFEC61CAE
:100980002C4B0093F6B201954B46324601210020D4
:100990000DF0A2F910F0FD0F42D1274BA4FB034844
:1009A000204621A3D3E900234146FFF7F9FB089530
:1009B00006956B680493214B20F07F47A7FB03311A
:1009C000E01A1F4B07934FF007021E4B059302FBE3
:1009D00007114FF6FE7368EB010103934FF47A722F
:1009E0000023FFF7DDFBCDF800B0CDE901704B46E9
:1009F0003246012100200DF0AFF810F0FD0F0DD1AF
:100A0000BAF1000F02D10BB0BDE8F08F0122022134
:100A100010460BB0BDE8F04F0BF0B2BE00DEEFE7C2
:100A200000DEBAE7AFF300808D49FD1A0700000031
:100A3000202000209109010000CA9A3B8D49FD1A2F
:100A400079090100BD4901002DE9F0418468A28CBB
:100A50004FF6FF739A428CB000F0DA8005462046CC
:100A600011F0FCFE2B7D012B00F00081022B00F029
:100A7000D28033B994F8723003F01803182B00F0C9
:100A8000378194F84471002F40F0C8802B8AE68D9E
:100A900094F93720CDE90A77002B00F0C680002AB0
:100AA000C0F23C810023A4F87031AB7CA28D03F02E
:100AB0000303551C012BADB200F0D480B4F874319F
:100AC000002B00F0D980AB4240F252815B1B9BB2FD
:100AD000062BA4F874314FF000028CBF00230123D1
:100AE000E2851F4694F83C2063F3820284F83C20A0
:100AF00029460DF12702204611F09AFC743000F0CF
:100B00003181B4F86E312BB1AB4240F2DA805B1B1D
:100B1000A4F86E31B4F86A312BB1AB4240F2E180F7
:100B20005B1BA4F86A31E58D17B9AE4200F0C780AF
:100B30000135ADB294F8B53013F001060AD1DDE904
:100B40000AC3002B4FD1BCF1000F00F003811E46F9
:100B5000194649E094F9372023F00103002A84F86C
:100B6000B530C0F2A38094F85800C0F3C00100F083
:100B7000070014F081FC014694F8583094F859604D
:100B800003F003022832C3F34003D200DA40E38BC0
:100B900003F23F10B2F5A07F2CBF801800F5A070C3
:100BA00006F003022832D200C6F34006F240B2F546
:100BB000A07F2CBF831800F5A07358188E4A8F4B66
:100BC0000721E0FB0231184689A3D3E90023FFF790
:100BD000E7FA616820F07F408142DDE90AC380F0D6
:100BE000B380461A60600021A28C24690694CDE986
:100BF00003570332824D0291CDE900C6D2B20121E2
:100C0000002005950DF01AF810F0FD0F40F0B580AA
:100C10000CB0BDE8F0813D2784F844713946204688
:100C20000CB0BDE8F04110F07BBA002AB8BF84F8E0
:100C3000B970AB7CA28D03F00303551C012BADB240
:100C400010D0B4F87031002B3FF438AFAB4240F213
:100C50009B805B1BA4F87031B4F87431002B7FF4D7
:100C600032AF3FE70023A4F874313BE70023A4F838
:100C70006E31A4F86A3104E7E38C052B8BBF40F298
:100C8000E2424FF4FA725A4303FB0222B4F8723183
:100C900042F2107101FB0323013BB3FBF2F39BB261
:100CA000A4F87431002B7FF40EAF1BE794F85900C1
:100CB000012100F0070014F0E1FB01465CE73D462E
:100CC00038E70DF04FFD0146002864D00023A4F85A
:100CD0006E31A38CC3801B23037100680DF014FDDB
:100CE00018E70023A4F86A31204611F033FC1AE714
:100CF000218DB4F86C218B1D9A42C4BF931F5B1ADF
:100D0000B4F86811CCBF9BB21346994256D0A4F8F0
:100D10006831A4F86A31A4F86E21B2E694F8B930CB
:100D2000002B3CD0013B84F8B93004F1C4084046A4
:100D300011F0BEF9002855D0404611F0B9F900284D
:100D400042D00023E385ADE6091A6060A3BB51EAF7
:100D50000C021ED115B9002F3FF45AAF00263146C0
:100D6000334641E79DF82710204610F0D9F94FE7A8
:100D70000821204610F0D4F94AE70DF061FD8442C5
:100D80003FF446AF00DE43E73E21204610F0C8F9AD
:100D90003EE71E4628E70123A4F86E31BAE60AAA08
:100DA0000BA92846FFF790FBDDE90A231343BCD0CB
:100DB000237884F8B930B8E7002615E7B4F86E1147
:100DC00000297FF45EAEA4E70246D4E917010BF0D8
:100DD0009BFC0028B5D194F83C301B0744BF238D01
:100DE000E3855FE6FF2010F05DF9A5E7AFF3008033
:100DF0008D49FD1A0700000000CA9A3B8C49FD1A74
:100E0000D1090100000000002DE9F04F87B0B0F8D3
:100E10004071BDF84C900091CDE90423B0F8043145
:100E2000BDF840A01F44BFB20446A7EB090390F8E9
:100E30005800D4F8FC809EB2BDF844300193C0F352
:100E4000C001BDF84830039600F00700029314F08B
:100E500013FBE58C052D40F2BE8015FB06F5ADB207
:100E600040F2E24BBAF1050F40F2A98094F8592004
:100E700094F8581002F003032833C2F34002DB0059
:100E8000D34001F003022832B3F5A47FC1F340013F
:100E90004FEAC20222FA01F238BF4FF4A473B2F54E
:100EA000A47F2CBF9B1803F5A47303F2D513184439
:100EB000774A784B0721E0FB023118464FF0961332
:100EC000E3619623238470A3D3E90023FFF768F935
:100ED000564620F07F4040F2E2430BFB05F103FB56
:100EE00006F64B1E3344B3FBF6F31FFA83FB06FBF7
:100EF0000BF3994260605D4653D26548591AA1FBD5
:100F0000000161A3D3E90023FFF74AF920F07F40F5
:100F10008044B4F80421B4F84031A9EB07094D44EA
:100F2000ADB213442B44A4F84031638D13441D44E7
:100F300094F837306585DB0955D100DE002735464A
:100F4000019B2385029BA4F8723131462046A4F808
:100F500026A011F099FA504B218D3344881DB3FB24
:100F6000F6F39AB29042A4F86C2104D2C1F57F4105
:100F7000FA310A4492B2009BA4F8682113B100230D
:100F8000A4F8743143462A4639462046FFF7E0FC70
:100F900094F8423143F0010384F8423107B0BDE8D0
:100FA000F08F3B48C91AA1FB000137A3D3E9002306
:100FB000FFF7F6F820F07F40A8EB0008A9E74FF014
:100FC00096130AF10106E36196232384B6B20A2040
:100FD0004FF4FA7381E7039B013515FB03F5ADB2BE
:100FE0004FF4FA7B3EE7216CA36C294F01FB0233DF
:100FF000039A01FB1233A3640023C4F8C03014F039
:101000000BFC054694F8B800C0F3420014F006FC4F
:10101000054406FB05F5214B1E4805F5742505F230
:101020003F25A3FB0535AD0CA36C25640BFB05FB2D
:1010300072085B44963A934228BF1346C4E91123D1
:10104000049B40F2E24909FB03F307212365EBFB14
:1010500007010DA3D3E90023FFF7A2F8104B059A6F
:10106000A8EB0008A3FB0230800A09FB00F0A0FBFC
:10107000070105A3D3E90023FFF792F8751B20F0C1
:101080007F475DE7AFF300808D49FD1A0700000040
:1010900000CA9A3B8C49FD1A7FC3C90183DE1B43FA
:1010A0005917B7D1000000002DE9F04F0D4609682F
:1010B000B0F82EE0D1F800900146144651F82EAB5E
:1010C00052F8086B91F802C0834691B0D0F81E0028
:1010D000BBF822109BF81C70A4F808E082F802C04C
:1010E000DBF82A206260DBF83A20C4F82220ADF851
:1010F0003C109BF83E100E9084F8261010AB13E9BC
:10110000030004F122020C90ADF8341010460521C2
:101110000BF084FC94F8272000F03F0060F30502F8
:1011200084F827209BF83F20C2F3040184F828109C
:10113000BBF83410E1820128C7F380170DD902F003
:101140001F021B3202F01F020B2A06D889B2063991
:1011500089B240F67A42914219D90021C9F80810A3
:1011600094F82C2061F3000284F82C200125DBF890
:101170000C408BF80450504659460DF0B9FA2068DF
:101180002571214611B0BDE8F04F0DF0BDBA2A68B7
:1011900000215160BBF836202283B4F81680BBF8DA
:1011A00032300A9340F2E242304602FB08F811F076
:1011B0007FF99BF83F1096F8B800490961F34300A6
:1011C00086F8B80014F028FB0B9096F8B800C0F32E
:1011D000420014F023FB0B99084408FB00F0A649D9
:1011E00000F5742000F23F20A1FB00104FEA5801E7
:1011F000800C9639206361639BF8311040F2E24223
:1012000001FB02F26264BBF83820A6F87221414665
:10121000304611F039F9994A9949C6F87811424493
:10122000B2FBF8F290B2A6F86C01218B01F1060C2A
:10123000604504DDC1F57F41FA31014488B2594669
:10124000A6F8680111F81C2FC907C2F3401200F17B
:101250000381BDF83410ABF823100C988BF81E7086
:101260004FF48071CBF81F00ABF81C10E18AABF88B
:101270002610218BABF82810B6F87211ABF82A10A3
:1012800096F8B8100B92C1F342018BF82C1030463F
:101290000FF01EFC5946A082ABF8060050466F685E
:1012A0000DF026FA0B9AA18AD7F800A0F9801C232A
:1012B0003B71002A40F0BC803A77394650460DF029
:1012C00023FA94F849A094F848200AF0070A02F09B
:1012D0000702012150460B9214F0D0F80B9A02F04D
:1012E00003032833C2F34002DB00D3400AF00302B9
:1012F0002832B3F5A47FCAF3400A4FEAC20238BFCE
:101300004FF4A47322FA0AF2B2F5A47F2CBF9B1803
:1013100003F5A47303F2D513DFF868A1074603446D
:1013200059480721E3FB0A014FF09613C4E9033340
:101330004FA3D3E90023FEF733FF20F07F40706016
:10134000EB680A98226B40F2E24101FB003404F2A0
:10135000B3440221A41A0120A8EB020800220BF0DA
:101360000FFA48460FF09EF9E41B41A3D3E900238E
:101370000746A4FB0A01FEF713FFCDF80490AB6803
:101380004249009120F07F4ABA1C363BD2B2534406
:10139000012100200CF0A0FC01285FD099F8183042
:1013A000DB0751D430460FF093FB364CA8FB0448C2
:1013B0002FA3D3E90023834641462046FEF7F0FEE3
:1013C000AB68334A0792A3F13609324B069620F0F8
:1013D0007F47A7FB0331E01A2F4B05934FF4F873B7
:1013E0000893736804934FF0070303FB071168EB3E
:1013F000010100244FF47A7200230394FEF7D0FE1B
:101400000BF10305EDB2CDE90170CDF800A04B461C
:101410002A46012120460CF09FFB10F0FD0F23D13E
:1014200001220221104611B0BDE8F04F0BF0A8B91F
:1014300094F8273043F0400384F82730201D13F040
:10144000ABFB0122208537E70023012200931846D9
:1014500011460CF00BFCA5E700DEFAE60DF0F0F902
:1014600081459BD000DE99E700DED9E7AFF300802D
:101470008D49FD1A0700000083DE1B437FC3C901AD
:10148000404B4C0000CA9A3B8C49FD1A454A01006A
:10149000954901008D49FD1ABD4901000000000079
:1014A0002DE9F04F8DB0484E484D82460CF04CFC73
:1014B000F16807460CF04AFC7168F76040A3D3E975
:1014C00000230446A1FB0501FEF76AFE20F07F43DE
:1014D0009C4257D30DF12F010DF12E000DF072F942
:1014E000DFF8E8803568A5FB085935A3D3E9002368
:1014F00028464946FEF754FECDF818A00446706809
:10150000334B0593A0FB08012DA3D3E900234FF033
:101510000008CDE90788FEF743FE2E4BCDF80C807E
:1015200024F07F44A4FB033120F07F40072202FB1C
:1015300004110490E81A69EB01014FF47A72002358
:10154000FEF72EFE9DF82FB09DF82EA0CDF800805E
:10155000CDE901403B465A46504603210CF0FCFAC7
:1015600010F0FD0404D06FF08B000DB0BDE8F08FDB
:1015700019481A4A002325F077FB90B930690DB05D
:10158000BDE8F08F30680EA3D3E90023A0FB05016E
:10159000FEF706FE20F07F4138460CF0D7FB0746E9
:1015A00098E79DF82F209DF82E00009423460321F4
:1015B0000CF05CFB6FF07300D7E700BFAFF3008067
:1015C0008D49FD1A07000000B021002000CA9A3B97
:1015D000854D01008D49FD1A48AC0020447B0B006D
:1015E00038B50F4D04460CF0AFFBA9680CF0AEFB0C
:1015F000696803460B48B3FBF4F4A1FB00011C44EB
:1016000005A3D3E90023FEF7CBFD20F07F40844201
:1016100094BF0020012038BD8D49FD1A070000004D
:10162000B021002000CA9A3BF0B5C468636883B05B
:101630000546002B40D115F02BF9002015F04CF990
:101640000021084615F03AF900222521082015F05E
:10165000A1F9374B019301A815F088F9354940F2FB
:101660005B6015F039FA237AC3F3420262F3061382
:101670002372204614F056FA27682E68384613F075
:10168000B5FE06446A6806F10901012015F04CFB1D
:1016900015F00AFC20460FF011F8811C3246C9B241
:1016A000384613F0A5FE054698B9204613F07AFE99
:1016B00068B9002003B0F0BD93F82C309B07BAD076
:1016C0001D48214615F0B8F815F0B0F9F1E700DE35
:1016D000EFE71A4A1A491B4840F2114338F06FFDF0
:1016E000194B0721A5FB030301FB05310EA3D3E929
:1016F0000023FEF755FD15490246154838F05FFDF9
:10170000002585F31188BFF36F8F0323184602DF8E
:101710001048214615F090F815F088F96FF08B000D
:10172000C8E700BFAFF3008000CA9A3B000000008A
:10173000D6BE898E555555002D550100AC58050073
:10174000F8580500505805008D49FD1A445A050007
:10175000FC580500295801002DE9F043C468A28A0D
:101760004FF6FF739A4283B000F0FD80064614F0F6
:10177000FFFB3389628B208C94F82710A3831A44D3
:1017800092B2104480B2431C23840023638301F08F
:101790003F034906E28300F1A48094F828100093E7
:1017A00004F1290004F1220313F0B8F90546D4E945
:1017B0000C31A26BA08BA36303FB0022E36B8A4274
:1017C00094BF9B185B188B4228BF0B46626CE36387
:1017D000236C94F849101A4494F82C3061F30613E2
:1017E0000021C4E9101294F8622084F82C3012F021
:1017F000040200F0898015F04BF8002015F06CF819
:10180000201D15F0B3F82389A17A40F25B6043EA0A
:10181000014115F061F9284613F0FAFD21465848B8
:1018200015F00AF8A08915F073FA94F8482094F896
:101830004900C2F3C003002102F0070200F00700D4
:1018400015F0B0F9204614F02DFCD4F8008037686C
:10185000404613F0CBFD0744726807F109010020F0
:1018600015F062FA814615F0F3FA002015F00AFB34
:10187000E36B94F8490003F12F02636C012100F03F
:10188000070003EB420515F0C3F84D44054494F8F6
:10189000490000F00700022834D004280CBF4FF4A0
:1018A000BC73282301211D4415F0B4F8284415F019
:1018B000C1FAA18A03313A46C9B2404613F098FDF5
:1018C0000546A8B1B37A13F002062BD000252D48A7
:1018D000214614F0B1FF15F0A9F8284603B0BDE881
:1018E000F083218D04F1220213F05AF905465EE7D8
:1018F000204613F057FD00283CD10025284603B0B0
:10190000BDE8F0831823CDE7D4E913010AF0FCFE0B
:1019100000287FF470AF94F8623043F0040384F839
:10192000623068E7184A194919484FF4AC7338F027
:1019300046FC18480721A5FB000301FB05310EA357
:10194000D3E90023FEF72CFC13490246134838F074
:1019500036FC86F31188BFF36F8F0323184602DF2E
:101960006FF08B05B3E70E48214614F065FF15F0C4
:101970005DF8C2E700DEC0E700CA9A3B0000000045
:10198000BD6201000D55010028590500F8580500F9
:10199000505805008D49FD1A505A0500FC580500A5
:1019A0002D5501000346024A0248012138F03EB895
:1019B000126A05006850050008B521B1BDE808406D
:1019C0000846FFF7EFBF3BF050F9064B1860064B97
:1019D00001221A70054A0648BDE80840032138F084
:1019E00027B800BF689A00206FC90020316A05003F
:1019F000685005002DE9F04100AF23F0F3FC47F0FB
:101A000023F96D46044647F024F988B06A461A4B1C
:101A10001A4E4FF40078CDE90530ADF81C80184817
:101A200042F8106F4FF4E65138F004F8012CAD463F
:101A30001BD0A31EDBB2022B1CD8204647F009F9AD
:101A400088B06A460F4BADF81C80CDE905304FF4E5
:101A5000E65142F8106F0A4837F0ECFF0123AD461B
:101A6000094A1370BD46BDE8F081084A04480221C6
:101A700037F0DEFF0023F3E7436A050003000001AF
:101A8000685005005B6A05006EC900208A6A05007F
:101A9000B0B588B002AF14220021381D52F0DCFE30
:101AA00003223023C7E90223012560233B61134948
:101AB000134B00950222381D07F0ACF9044648B1DB
:101AC000104A03462946104837F0B0FF2046183721
:101AD000BD46B0BD6D4688B002AA0C4B53610C4B9D
:101AE00093614FF4007393830A4B42F8103F06480A
:101AF0004FF4E65137F09EFFAD46E7E7E8500500AA
:101B0000E0500500C06A050068500500E56A050060
:101B1000016B05000300000110B50B460A4C0B4891
:101B20000B4A032137F082FF206818B107F046FD09
:101B300000232360074A00231370074A1370BDE88F
:101B40001040FFF7A5BF00BF689A0020685005004D
:101B50000D6B05006FC9002070C9002080B50129F8
:101B60000E4B0CBF012200221A700D4A0D4B00AF24
:101B700088B008BF13466A460B490C48CDE90513E7
:101B80004FF40073ADF81C30094B42F8103F4FF48E
:101B9000E65137F04FFFBD4680BD00BF70C9002041
:101BA000326B0500406B0500526B05006850050064
:101BB000030000012DE9F041054686B00E461746A8
:101BC00098464FF0FF324FF0FF330D4824F01AFFD4
:101BD0000C4B1868596804AC03C4094824F084FF0E
:101BE0000823029304AB0193BDF8303000933A46CA
:101BF0004346314628463BF005FF06B0BDE8F0817C
:101C0000D010002071C900202DE9F0412B4A07CAED
:101C100086B003AB83E807001E46002556F8044B48
:101C2000206844F00AF940B9254A26482B4601218C
:101C300006B0BDE8F04137F0F9BEE28820682179AE
:101C400042F4B01237F0D7FE044648B11E4A009065
:101C50002B461C48012139F0C1FA06B0BDE8F081DD
:101C60000135032DDAD1194E194F3378EBB9194BE1
:101C7000194D93F800801948002137F0E3FE3078C1
:101C8000154B0021884208BF3B46184637F0DAFE64
:101C9000B8F1000F0ED00121284637F0D3FE002105
:101CA00043F2343044F051FDDFE70D4B3D4693F8ED
:101CB0000080E0E784F001042146EDE78050050054
:101CC000756B050068500500926B050079C900200E
:101CD000D05005006FC90020C8500500D85005003D
:101CE0006EC900202DE9F04F8DB002AF4FF0FF32EA
:101CF0004FF0FF33B44824F0B7FFDFF8D0824046FE
:101D000044F09BF860B9B24AB248012137F090FE26
:101D10006FF01203B04AAF48012137F087FE08E0A8
:101D2000D8F80830AD491B6840469847034600285C
:101D3000F0D1DFF8ACB2AB4A9BF80010AA4B6C466E
:101D40008AB0002908BF134602AAA849516105219B
:101D5000C2E9061340F201331384A54B42F8103F49
:101D60009C48DFF890A24FF4135137F063FE002631
:101D7000A54600214FF4203044F0E7FC9D4844F094
:101D80005CF800286CD19C4A9248012137F050FE43
:101D900000240021142207F11000F98052F05CFDAC
:101DA00001237B61BB1DBB6102250C23FD6187F80C
:101DB0002030D8F8083085485B6807F11001984753
:101DC00007F108090346002870D08C4A814829464B
:101DD00037F02CFE002501364FF0FF324FF0FF3375
:101DE000874824F00FFE874B1C805D805E6018687A
:101DF00059684A4603C2824824F076FE002C4FF010
:101E0000640394FBF3F2B4BF644203FB124411B2C7
:101E1000AEBF23B2B4FBF3F203FB12436C468AB0AD
:101E200002AA79485562C2E907130623C2E90506EA
:101E30004FF4435142F8103F664837F0FBFD9BF8E2
:101E40000050A546002D40F08F80704B1B78002B72
:101E50005CD16F4A5F483346032137F0E7FD88E7DE
:101E6000DAF808404E21E36850469847034628B107
:101E7000684A5848012137F0D9FD89E70C212369C8
:101E800007F1100250469847034608B1624AF0E74E
:101E90003B697C6903EB830303EB830342F210721B
:101EA00094FBF2F404EB830424B272E7B7F9062042
:101EB0004FF4167382FB03234946C7E902231BF044
:101EC000D5F9034600BBD7E90221120B42EA0152C1
:101ED0000913C7E902214FF0FF3012F1004241F12E
:101EE0000001904273EB010102D24C4838F067F9CF
:101EF000BD68002D7FF76EAF4FF6FE739D42D4BFD5
:101F0000ADB24FF6FF7566E7454A5FE729461822EE
:101F100007F1100052F0A0FC424B07F11001C7E995
:101F2000053928460823BB830AF0D6F938B13E4A62
:101F3000009033462748022139F050F919E78AB05A
:101F4000F868B7F908107B8902AA384DC2E907136F
:101F50000523C2E9055042F8103F4FF423511D48B4
:101F600037F068FDA54604E7314B18680028FFF6F6
:101F700000AF182301932F4B0093082200234946FA
:101F800015F0BEF90028FB6806DA02F0F3FD2A4AD4
:101F900012580092294ACDE78CB0B7F90800798928
:101FA00002AA274DC2E90553264B536241F2920320
:101FB000936240F203539385234BC2E9070142F831
:101FC000103F4FF47351CAE790110020D04B050029
:101FD000CD6B050068500500E46B050070690500D5
:101FE00079C90020336F0500BD6B05001F6C05002B
:101FF000040000015C4C05004D6C0500C16C05003F
:10200000D010002071C90020356D050070C9002076
:102010005B6D05006E6C0500986C0500DF6C0500BB
:10202000036D050020510500896D0500AF6D0500A9
:102030001C030020509A00200C000000DA6D0500FF
:102040000E6E0500436E0500070000012DE9F04308
:10205000A94DAA4889B002AFA86243F0EEFE00285D
:1020600056D1A74AA748012137F0E2FC6FF01204CD
:10207000A54AA4482346012137F0D8FC0024A34BED
:102080001C700023FB60A24843F0D7FE002840F0FC
:102090002381A04BA04D6E4688B0002C18BF1D4672
:1020A00002AA9E4B9748C2E905354FF4007393830B
:1020B0009B4B42F8103F4FF4E65137F0BBFCB5465E
:1020C000002C40F05381204606F006FA0446002812
:1020D00000F00581934A03468A48012137F0A6FCA7
:1020E0006E468AB002AA904BD461C2E905354FF41E
:1020F000007313848D4B42F8103F82484FF4115106
:1021000037F098FCB54600201C37BD46BDE8F0838B
:102110004FF47821A86A296007F10C0241F001FF11
:10212000044630B1824A03460121764837F07EFCEE
:102130009EE73B69EB60284602232B8200F0DCFD22
:102140000446002894D1012307F10C0219462846C1
:1021500038F086FF012802D13C7B012C0DD9754A4D
:102160006848032137F064FC0123002462483C7373
:1021700007F10C02194600F069FF6F4D284643F045
:102180005CFE28B96D4A5F48012137F051FC76E7C3
:102190006B4A0B21284637F02EFC064630B1694ABF
:1021A00003460121574837F041FC68E72B697B6003
:1021B000AB6807F10C015B682846984728B97B6833
:1021C000FA6818685040C0F3C02001287FF457AF68
:1021D00084F00109002C3AD14F4BDFF838816D466D
:1021E0008AB002AA5849C2F81C80C2E90513574BAD
:1021F0001362574B42F8103F42484FF4235137F0D7
:1022000019FC0123AD4619463B4887F80C9007F1AD
:102210000C0200F01BFF002800EAE0711BDA3E4AC6
:102220003C4B8AB0002C08BF134602AA4948D36130
:1022300040F2013313843D4BC2E9050142F8103FDF
:1022400030484FF4115137F0F5FBAD4617E7314BED
:10225000DFF8C480C3E788B002AA3F4B2948C2E92F
:1022600005384FF4007393832D4B42F8103F4FF421
:10227000E65137F0DFFB39480021AD4637F0E2FB8D
:102280003748002137F0DEFB364806F0010137F011
:10229000D9FB40F65D700021013644F056FA062E57
:1022A000F2D13048002137F0CDFB012000F0BCFB1B
:1022B000B3689B6C23B107F10C02042130469847A8
:1022C00040F6CD40002144F040FAFB68002B7FF43B
:1022D000E0AE013DECD1DCE60D4E1F25F5E7224ACC
:1022E0000848032137F0A4FBFFF7D2FB0446002C7B
:1022F00000F0CD80F4E600BF6C9A0020EC4B0500A6
:102300004E6E050068500500B56E050079C90020C5
:10231000444B0500BD6B0500336F050027700500B9
:102320000300000135700500C971050004000001BB
:10233000776E0500066F0500284B0500406F05000D
:10234000110001006E6F0500AE6F05000002010371
:1023500004000002DB6F05000E700500C850050088
:10236000D0500500D85005005470050008238AB0ED
:10237000FB600DEB0302484B53614FF6ED610F23F9
:10238000C2E90613454B136240F202439384444B67
:1023900042F8103F4FF43351424837F04BFB42486C
:1023A000B54623F04BF823F0B5F8044610B13F4A88
:1023B000034691E63E4A3B48032137F039FB0221B0
:1023C0001122084614F06AFF3A4E002830600CDAF9
:1023D00002F0D0FB384E04468359384A3148012177
:1023E00037F024FBA459644281E7042300931222AE
:1023F00007F10C03292114F0B9FF40B102F0BAFB38
:102400002D4B1B582E4A2748022137F00FFB142270
:1024100000212C4852F020FA2A4A2B4B42F8043C67
:102420002A4C022021463BF051FC01281AD0E846F4
:1024300088B002AA264B1B48C2E905344FF400734A
:102440009383244B42F8103F4FF4E25137F0F2FAF5
:10245000C54630683BF038FC4FF0FF3333606FF017
:1024600015043DE66D468AB002AA1B4B0D48C2E931
:10247000053441F29203D3614FF400731384174B78
:1024800042F8103F4FF4135137F0D4FAAD461448D8
:1024900024F0AEFB37E600BF6A700500A9700500A6
:1024A000050000016850050010030020B37005000E
:1024B000EF7005001C0300200C0000001A710500DD
:1024C00041710500549A002002001092436E0500ED
:1024D0007F71050003000001A671050004000001E2
:1024E000901100202DE9F84F8A4600AF002974D0E2
:1024F00004680E1F361BF50826F0070604EB0608D5
:10250000B8F802B01BF0010B16D1E94688B06A4654
:10251000334BCDE90531032342F8103F31485B4688
:102520004FF4C25101F076F9CD468BF31188BFF319
:102530006F8F0423184602DF2946204637F095FAAC
:10254000284434F83030C01A854217D0E94688B0A4
:102550006A46254BCDE9053A032342F8103F21484E
:1025600000234FF4C25101F055F90023CD4683F307
:102570001188BFF36F8F0423184602DFB8F80230CA
:1025800023F00103A8F802302946204637F06DFAFF
:1025900005EB000804EBC8035B88DA0708D4414662
:1025A000204637F0ABFA42462946204637F0EBFA90
:1025B000A65BAE1B04EBC6035B88DB0709D4314680
:1025C000204637F09BFA2A463146204637F0DBFAA0
:1025D00035462946204637F04DFABD46BDE8F88F0E
:1025E0005B720500B84F05003272050008B502485D
:1025F00037F0D8FD002008BD887205000E4A9042D1
:10260000034602D30D4A904211D30D4A22B19342A0
:1026100002D30C4A93420AD30B4A52B10B4883426D
:1026200034BF01200020934238BF002070470120B2
:1026300070471046704700BFF049050024AA050006
:10264000000000000000000000000000000000008A
:102650002DE9F04F9BB000AF0446D7F890A0FA6385
:102660007B638B4649B903784678807800EB83001A
:1026700020445E4522D8A0EB040B0AF0010394F835
:102680000280FB62E3783B63B8F1000F0CBF4FF0B0
:1026900000090AF0010913B11AF0020F17D1B9F1BC
:1026A000000F14D1FB6B1BB17A6B5946204698473B
:1026B0005D4628466C37BD46BDE8F08F451C284670
:1026C000FDF79AFD013028440BF1010BD1E7CAF365
:1026D000C003FB612378BB629B00BB6163683B6204
:1026E000BB6A04EB8301FB6B002B7DD15D46884404
:1026F000B9F1000F1DD0A94E8B4699461BF8013B3E
:1027000054F82300002808BF3046FDF775FDD7F8C0
:10271000943001304BB1D7F898304B4582BFD7F891
:10272000943023F8190009F10109C3450544E5D1A6
:10273000D8461AF0050F0AF002030CBF4FF0020B47
:102740004FF0010B0026FB633B6B9E42B1D298F821
:10275000013054F823A05046FFF750FFFA6908F102
:102760000208034602B3B86318F8021C386A37F04F
:10277000F8FCBB6BC0B1EA468AB06A46884B059349
:102780003B6ACDE906314FF40073ADF82030854B3C
:1027900042F8103F844800234FF4125101F03AF8F8
:1027A000023DD5460136CFE723B1FB6A2BB9A5EB35
:1027B0000B05F7E7FB6B002BF4D07848BAF1000F5C
:1027C00018BF5046FDF718FDD7F8943053B1D7F82D
:1027D000983099453FBFD7F89420431C22F8193010
:1027E00009F101090544DDE7B9F1000F6CD043465A
:1027F000102B28BF1023BB6397F8389007F14800CF
:102800000026BA6B796252F000F8796A00227A6287
:102810000AF0020201EB08033A610AF004027B614C
:10282000FA6002337A6A396B8A4266D36378F96A4E
:102830007B621AF0020F4B44DBB20CBF720800221D
:10284000002940F0A9801AF0040F14BF314600217E
:102850006370A170E270B9697A6BFB6B2046984790
:10286000051EFFF626AFBB6A23707B6A63703B6B65
:10287000E37031467A6BFB6B84F8028007F15800F5
:102880009847061EC0F2C4803A6BBB69386B03EBF5
:102890004203ABEB0301D7E90D23C91A7B6903EBB4
:1028A0004000FB6B98470028C0F2B4802E443518D6
:1028B0004FF0000807F1480AC84577D300217A6B2A
:1028C000FB6B08469847F4E6B8F1000F0CD01AF0FD
:1028D000040F0ED04346102B28BF1023BB6397F87C
:1028E000386007F158008CE7C7F838804646C14683
:1028F0008CE7C7F838804E4688E713F8015C13F878
:10290000021C54F82500BB60FFF778FE0246F86908
:10291000BB6838B1386AC7E9013237F022FCD7E921
:102920000132F0B912B3FA6A72B1B9F10F0F18D8C7
:1029300009F1280107F14000014409F1010201F801
:10294000205C5FFA82F90CE0FA6852B10F2E08D8C9
:1029500006F1280107F14000721C0E1806F8105C01
:10296000D6B27A6A01327A6202335BE73A69002AA8
:10297000DBD10F2EF5D806F1280007F1400C60449A
:10298000721C00F8101C07F1680151FA82F202363D
:10299000F6B202F8105CE4E7002159E7C4720500C2
:1029A000CB72050004000001384F050018F80A300A
:1029B00087F8473054F823B0D7F8943033B3D7F8BA
:1029C0009830984522D2D7F8943033F818607A6B53
:1029D000FB6B012107F14700984700281ADB0E4BDB
:1029E0000544BBF1000F08BF9B4626B95846FDF7CA
:1029F00003FC461CB6B27A6BFB6B314658469847CF
:102A0000002807DB054408F1010855E70026DEE74A
:102A100035464EE605464CE6C4720500014B18608B
:102A2000704700BF4003002008B50446EFF3118350
:102A3000202383F31288BFF36F8F1DF079FC2046AB
:102A400002F09CFC024837F0ADFB38F025FEFCE7B5
:102A50007F7305002DE9F047858B0446280717464C
:102A60000CD501290CBF45F0100545F02005A583C4
:102A700087F31188BFF36F8FBDE8F087022905F057
:102A8000070540F09480204637F02CFE052864D8D6
:102A900001A353F820F000BF712A0000AF2B000003
:102AA0005B2B00001D2B0000372B0000492B000082
:102AB00001F007035A1F012A1FD8002221F0070145
:102AC000062BD4F8008089B2C4E9002209D143461C
:102AD00003E0E28B0132E2831B68002BF9D141F065
:102AE0000201A183204637F0FDFD4FF000090028C8
:102AF0006DD041F02001A18369E0042B0AD121F0BF
:102B0000070189B2A183204637F0ECFD10B141F0F6
:102B10002001A1834FF00008C14658E02369D3F893
:102B20000090A38B23F0070343F00603A3834FF029
:102B3000000846464BE02369D3F80490A38B23F0AA
:102B4000070343F00403F1E72369D3F80890A38B4C
:102B500023F0070343F00503E8E74FF00008C14600
:102B6000E7E7012243F00803A38387F31188BFF34B
:102B70006F8F002A3BD1B8F1000F4AD1B9F1000F95
:102B800002D02D492046C847EFF31187202383F355
:102B90001288BFF36F8FA38B23F008039BB2A3832C
:102BA000D9063FD523F01002A28303F00705A669DA
:102BB000A18B002EBFF67CAF0023D4F8008021F05B
:102BC0000701C4E9003341F00101A1839946A38BB9
:102BD00003F0070AAA4502D0A268002AC1D1B8F1C1
:102BE000000F02D1B9F1000FDAD00022BAE7A168D4
:102BF0000029C0D00D680029BDD04F683346524629
:102C00002046B8471DB12B6829461D46F3E72B46E1
:102C1000FAE74146334652462046D8F8008037F05E
:102C20008DFDA8E79A067FF523AF23F02002A2834B
:102C300003F0070527E700BF69A7030037B504467F
:102C40000821C06A124D38F007F800234FF6FF72D2
:102C5000ADF804306368ADF800208DF80620E26816
:102C600019182B401344181A60606846ADF802101A
:102C700037F04AFF6946204638F00DF8211D2046FE
:102C800037F01AFF63682B40A36003B030BD00BF6C
:102C90000000FFFF2DE9F7430F4681460821C06A77
:102CA000144D37F0D9FF3C68241A80463C6004EA92
:102CB0000506B4421CD3A0B210B903B0BDE8F0833E
:102CC00008236A462146484637F0BDFE0028F4D165
:102CD0006946A0B237F0ACFF38B1BDF80230BDF89C
:102CE00004203C602E4013441E44A4EB0804E0E79B
:102CF0000020E2E70000FFFF2DE9F04704468AB01C
:102D000000F11407384643F094F9A06A8368DB6841
:102D10009847E06250B99F4A9F48012137F0D9FE99
:102D20006FF0150528460AB0BDE8F087A06A8368F1
:102D3000DB6898470368013B1F2B01D9974AEBE7F3
:102D4000E368B3F5803F08D94FF48032009292488F
:102D5000934A012138F042FAE2E7A06A216807AA03
:102D600041F0DFF808B18F4AD6E7E5682DB1089B3E
:102D7000B5FBF3F203FB12550DB18B4ACCE7238A66
:102D8000012B01D8894AC7E7E36A029593F80580C9
:102D90004FF0FF334FF0FF32384623F033FEE06A46
:102DA000082137F059FFA9460646238A1FFA85FAFB
:102DB000534544D8238A4B4500F02D8153450BD110
:102DC000029908234246891B204637F04AFE18B96B
:102DD00002A9204637F070FE02A92046FFF75AFFED
:102DE0000546002840F0B280029961604FEA11491F
:102DF0004FEA0949C4F80890A3688B420DD808230C
:102E000003AA204637F01FFEB8B903AB13F8012B15
:102E1000904532D101300828F8D1636802A96FF3D8
:102E20000F032046029337F047FEE36802994246BB
:102E3000204637F016FE00283CDA054686E0E168B9
:102E40002B04891B13FA81F1424608232046029184
:102E500037F007FE78B102A9204637F02DFE09F1C0
:102E6000010902990823424620461FFA89F937F0E2
:102E7000F8FD00289ED0013597E7A08803A937F018
:102E8000D7FE626810B9911B6160B5E7BDF810A06C
:102E9000BDF80E10E06AC4F80890514437F0DCFE2B
:102EA00048448242A060EED1BAF1000FEBD06FF03F
:102EB0001C054BE000F08B8063684FF6FF7906EB52
:102EC0000308E368CDF808801FFA88F29B1B9A423A
:102ED00023D3374A3048032137F0FBFD6168204691
:102EE00037F0F9FD014680BB6368324AE068134061
:102EF0000344A3EB460363601340A360204637F00E
:102F00006BFF002899D1E368A288A3EB46039A429D
:102F10001CD1204637F0DCFE8FE7082305AA414686
:102F2000204637F090FD002887D105A91FFA88F0C8
:102F300037F07EFE38B1BDF814304B4503D1BDF8F3
:102F40001830002B6AD0B044BBE70D46384623F05A
:102F5000CBFD002D7FF4E6AE0123A374E268238A43
:102F60000D4800920321144A38F038F963689AB288
:102F700000920948114A1B0C032138F02FF9A3686D
:102F80009AB2009204480E4A1B0C032138F026F92D
:102F9000C8E600BFC7730500604F0500E973050070
:102FA000067405002F740500477405005B74050066
:102FB000CD7405000000FFFF7E74050095740500C8
:102FC000A7740500E26AA36812681344A360D4E9F9
:102FD00001318B4208D95B1A4246204637F041FD49
:102FE0000028FFF62AAFEDD16168E36801EB4602E5
:102FF0009A4288D1124BA06801EA0302904282D023
:10300000204637F068FD00287FF417AF62680C4B4C
:103010001A40A26077E76FF02C0597E7094A0A4843
:10302000032137F056FD636802A96FF30F032046B2
:10303000029337F041FD0299204637F04CFD60E7DE
:103040000000FFFFB8740500604F05002DE9F04F48
:103050001E46837C95B004468946904653B96B4A18
:103060006B48012137F035FD6FF00C05284615B08F
:10307000BDE8F08FC26A0821104637F0EDFDB1B20D
:103080000190104637F0E8FDE368019AA3EB820354
:1030900083420746C0F0B6801EB1B8F1000F00F0C1
:1030A000B180D4F804A0CDF810A005AA04A9204648
:1030B00037F048FE05460028D8D1BDF814304B45FE
:1030C00007D0DDF810A063685345EED1002E39D14A
:1030D000CCE705A91FFA8AF037F0AAFD0028F0D046
:1030E000BDF8183066B3B3422CD14FEA1A43BDF88D
:1030F00016A0CDF800801B049A44E36A1B685B426B
:1031000003F020030293B346029B5B4528BF5B4656
:103110000CAA51462046039337F095FC00284DD168
:10312000039B00981A460CA951F0AEFB50B9039BC3
:10313000009ABBEB030B1A449A440092E4D195E742
:10314000002B93D0002F3CD1BA4604F1140B4FF062
:10315000FF324FF0FF33584623F054FC238A9D4240
:103160004DD0D4E901320AEB02018B422ED39BB23F
:1031700063B3FF23ADF81E20002118220CA88DF8A0
:103180002230ADF81C90ADF8206051F065FB0CA921
:103190002046CDE90E8637F069FD074648B907A8F5
:1031A00037F0B2FC07A9204637F075FD074600B995
:1031B0003746584623F098FC3D4657E7C2DC0546A3
:1031C00054E7019B1F441FFA87FABEE72046FFF72A
:1031D00035FD3DB9ADF82490CDF82880ADF82C60D0
:1031E0008DF82E5009A9204637F0F6FD0746002835
:1031F000DFD19DF82E300135002BAFD0D8E76FF02E
:103200001B07D6E76FF0150530E700BFB373050065
:10321000604F05002DE9FF471E46837CBDF83090C6
:1032200004460F4690464BB92848294A012137F0F9
:1032300050FC6FF00C0004B0BDE8F087C06A0821B4
:1032400037F00AFDE368A3EB4003B3423AD3656865
:1032500001954FF0000A02AA01A9204637F072FD3D
:103260000028E8D1BDF80830BB4206D102A9A8B2B7
:1032700037F0DEFC50441FFA80FA019B62689A42E4
:1032800019D0CA4515D9BDF80C30C3B1CA4516D3FB
:10329000BDF80A10B3426FF30F0528BF334642460C
:1032A0002944204637F0CFFB0028C4D1BDF80C00DC
:1032B000C1E71D46CFE7BDF80830BB42E3D06FF051
:1032C0000100B8E76FF01500B5E700BF604F0500DB
:1032D000B37305002DE9F047DFF854800446074634
:1032E0004FF0010994FAA4F5B5FA85F509FA05F34A
:1032F0002E0108EB05156FEA030A24EA03042B7B71
:1033000063B158F806301B696BB9464404227368F0
:103310002846196807EA0A0737F0DDFE002CE1D1DC
:103320003846BDE8F087284698470028F6D1ECE7F4
:103330007050050010B50F490F4888B0002243F0C7
:10334000BFFA00220023CDE9062300240E23CDE995
:103350000334CDE90144094B094900944FF440720C
:10336000084824F033F80849064843F0ECF82046B2
:1033700008B010BD8D330000B01A0020BD3600002B
:1033800040E5002020160020FB740500014823F0D2
:103390002FBC00BF481100202DE9F047804621488E
:1033A0000F4637F078FE0646002833D00025284621
:1033B000BDE8F087237B83B12368DB680BB120462F
:1033C0009847636883F8069023681B69D3B96368DC
:1033D00004221968204637F07EFE01361034544529
:1033E000E8D3B8F1000FE2D0002DDFD02846FFF778
:1033F00071FF0546002FF7D000214FF4A47043F071
:10340000A4F9F1E7204698470028E0D009FA06F32E
:103410001D43E2E7044CDFF814A005464FF0010914
:10342000DDE700BFAC9A0020705005008050050019
:10343000014B53F8200070475C51050008B5034666
:1034400008462BB1044A136000F056FC002008BD6A
:103450006FF01500FBE700BF4403002010B5044CDB
:10346000237813B9034823F0C3FB0123237010BD55
:103470007AC900204811002010B504460B4837F0E7
:103480000AFE5CB1BFF35B8F094B53E8001F0139A3
:1034900043E80012002AF8D1BFF35B8F054824F0FF
:1034A000ADFD0548BDE8104023F0A2BBA49A002062
:1034B000A89A0020B01A002048110020064BBFF344
:1034C0005B8F002253E8000F43E800210029F9D167
:1034D000BFF35B8F704700BFA49A002070B5FFF761
:1034E000EDFF084C084E0546B44200D370BD63683A
:1034F0005B792BB123685B6813B129462046984756
:103500001034F1E7705005008050050010B5044CF0
:103510000449204636F060FF034B1C6010BD00BF1D
:10352000840E0020485105009C9A00200D4A0E4848
:10353000002310B513700D4A13600D4A4FF400417B
:103540001360FFF77BFFFFF7E1FF0A4B0A491846BC
:103550008B4200D310BD1A1A5C681211013222711D
:103560001033F5E77BC9002093B00300A49A002034
:10357000A89A0020705005008050050001460022E6
:103580000148002336F049BF840E0020014836F080
:10359000E0BF00BF840E0020024B0146186837F0E0
:1035A00033B800BF9C9A0020014837F068B800BFCC
:1035B000840E002070B52A4B1B78002B4ED0FFF7ED
:1035C000E5FF0446002846D1264B274D1B68002BFB
:1035D00019DD43F02DF94FF47A76A0FB063206FB95
:1035E0000121D5E90020DB0B43EA41439B1A4FEA56
:1035F000D13140F2E93261EB0001934271F10001F7
:1036000001D3FFF76BFFD5E9003213F57A7342F16E
:103610000002C5E900320CB3BDE87040FFF7C4BF3B
:103620006B685B7923B12B6821461B682846984755
:103630001035B542F4D32046FFF7AEFFBFF35B8FE2
:103640000A4B53E8001F013943E80012002AF8D161
:10365000BFF35B8FB8E7064D064EEAE7002070BD6A
:103660007AC90020A49A0020A81A0020A89A002055
:10367000705005008050050070B50D4D297861B976
:103680000120FFF789FE0B4C0B4EB44206D3FFF727
:1036900091FF0028FBD101232B7070BD63685B791B
:1036A0001BB1236820469B6898471034EDE700BFA4
:1036B0007BC90020705005008050050000212DE9D5
:1036C000F8430846FFF768FE044648B340F26768CF
:1036D0004FF0000901F04EFA1A4B1B4A1B581360B9
:1036E00033B11A4B1B68092B02DD194823F080FA0D
:1036F000184F002544B12046FFF7ECFD044618B9E9
:103700004FF0FF384FF0FF39FFF754FF064628B956
:10371000B5B90F4842464B4623F0A6FA3546E9E7CD
:103720004FF0FF384FF0FF39D4E72B689B691BB18E
:1037300000221146284698471035BD42F5D3E8E7E8
:10374000054DFAE708000000A09A0020A89A002082
:1037500048110020805005007050050013B518482E
:1037600037F099FC174B1B7873B1EFF311842023CA
:1037700083F31288BFF36F8FFFF71CFF84F3118868
:10378000BFF36F8F02B010BD0F4B1B68002BF9D039
:1037900050B900220023CDE900230C484FF4004229
:1037A000002324F005FCEDE70928EBD1074824F0BD
:1037B00025FC074802B0BDE8104023F019BA00BF4D
:1037C000A89A00207BC90020A09A0020B01A0020EF
:1037D0004811002010B5064B1B6804469847214647
:1037E000A060044836F096FEBDE81040FFF7B6BF73
:1037F00044030020840E0020044A054B9B1AB1EBC1
:10380000D30F34BF52F8310000207047C04E05007E
:10381000705005002DE9F04F8FB004AFC1F34A2678
:10382000B8600D4690467B600C0D002E61D04FF0C5
:1038300000090A234FF0040B07F1140AFE60C7E9E0
:103840000799C7F824900093CDF808B0CDF804A0EC
:1038500007F11C03F9684A464046FEF7F9FEB0F549
:10386000006F03461CD36C468AB0D8F8041004AB32
:103870002448C3E9050140F2FF71D9611A464FF4AB
:1038800000711984204B42F8103F20484B464FF4FA
:103890001251FFF7BFFFA5462C37BD46BDE8F08F9C
:1038A000C0F30A0604F11700184420F0070080084E
:1038B0003B60FFF763FE66F35325044680B13B6827
:1038C000134A00F11001C7E90839F961CDE901ABEC
:1038D0000A230093F96807F11C034046FEF7B8FE7F
:1038E00066F353257B68B9682A46204637F013FCF7
:1038F000D2E704F1170020F007008008FFF73EFE32
:103900000446EDE71075050004000001704F050046
:10391000E9B003002DE9F04F87B0DDE9127ADDE967
:10392000106B0546884614469946BFB11021CDF864
:1039300000A03B465A460020CDF814A036F038FAD5
:10394000B0F5006F01460BD3194A1A4840F2FF73D5
:10395000022107B0BDE8F04F37F036BC3946384693
:1039600004F0070305F00704E40044EA831444EA82
:10397000402444EA065406F11700084420F00700EA
:1039800080080391FFF7FAFD054640B13FB1039966
:10399000CDF800A03B465A46103036F009FA4B46A7
:1039A00022464146284607B0BDE8F04F37F0B3BB8A
:1039B0004F750500704F0500406820B1034BC01AD9
:1039C00040F3CF0070474FF0FF307047C04E050006
:1039D0000EB403B503AB014653F8042B044801931E
:1039E00001F026FA02B05DF804EB03B0704700BFA7
:1039F0002BB20300CA0605D48B064CBF024903490B
:103A0000FFF7E6BF704700BF8875050087750500A2
:103A10002DE9F04F8BB09946179B0793DDE918A36A
:103A20009DF858801A9F069204460D460593B8F1FA
:103A3000000F00F0BF80844B13F80830089307F4A0
:103A40008073099337F045FB07F0020B024600280C
:103A50007DD07E492046FFF7BBFF0646BBF1000F35
:103A600008D017F0440F74D179492A462046FFF751
:103A7000AFFF064407F0010353B1764B764953F884
:103A80002820764B2046002A08BF1A46FFF7A0FFE1
:103A900007F48073002B07F0080318BF4FF00009EC
:103AA000002B00F082806E4B6E4953F82820204690
:103AB000FFF78EFF0546069B2BB16B491A46204641
:103AC000FFF786FF0544B9F1000F0DD0089B002BCE
:103AD0006ED06649664BB8F1040F18BF19464A46C6
:103AE0002046FFF775FF054462483544079B1BB12C
:103AF0006149224636F004FB059B002B00F09080C4
:103B0000DDF814903946B9F1100F204628BF4FF068
:103B10001009FFF76FFF0026B54252DC002633463E
:103B20001AF8032055492046FFF752FF0136102EA0
:103B30004DD0710703D152492046FFF749FF4E454A
:103B40003346EDD34F492046FFF742FFEEE70646E6
:103B500084E74D4B186800288BD04C4B4FF47A7B90
:103B60001B68B5FBF3F54FF46163B5FBF0F100FBA7
:103B700011550BFB05F54FF03C0CB1FBF3F203FBC9
:103B80001211B5FBF0FEB1FBFCF300FB1E550CFB64
:103B900013110BFB05F50091B5FBF0F53C49CDE9A0
:103BA00001E52046FFF714FF63E707F0080582E709
:103BB0002F4994E7B9F1010F0CBF2E48354845460F
:103BC00094E72F492046FFF703FF0136A4E7324967
:103BD00020460026FFF7FCFE33461AF803202F4943
:103BE000A2F120035F2B28BF2E222046FFF7F0FE14
:103BF0000136102E0DD0720703D121492046FFF760
:103C0000E7FEB1453346E8D81D492046FFF7E0FE00
:103C1000EEE7059BB3EB0903CA4405937FF470AF4D
:103C2000B8F1000F0AD0FB0704D50C4A0A49204618
:103C3000FFF7CEFE39462046FFF7DCFE20460BB0EC
:103C4000BDE8F04F37F0E4BAA1A50500987505006E
:103C50009C7505006C510500D18705008A7505002B
:103C600080510500C2750500C87505008F750500F7
:103C7000937505002BB20300314E0000CC75050092
:103C8000D4750500D2750500B49A0020B09A0020C2
:103C9000A675050061B20300D6750500D87505004C
:103CA00073B542F20F738B4228BF0B4605680F4A6B
:103CB00004460521684635F0ADFB63680C495B6836
:103CC00006460B22284637F095FA63683246694665
:103CD00028465B6837F08EFA636806495B681B22EA
:103CE000284637F087FA02B070BD00BF947D05000A
:103CF00095A5050079A50500074A002101239042FA
:103D000006D8064A01B901231360054B18607047B5
:103D100040085B000121F2E740420F00B09A00200A
:103D2000B49A0020F8B5074F0D4604464618B44231
:103D300001D12846F8BD14F8011BBB6801485B6837
:103D40009847F4E7444B0500014B0360002070479F
:103D5000C851050070B5104B1C680D46B4B10F4B2F
:103D6000196800238B4202DB6FF0010070BD224610
:103D700012F8106B864202D001331446F2E7E06875
:103D800042F05BF828B12C600020EFE76FF00C00E8
:103D9000ECE76FF01200E9E750030020C85105007E
:103DA00010B588B0436802938368C068CDE90332D8
:103DB0000A680023CDE906230C4601AA04490593AD
:103DC00040F0B3F8079808B9059B236008B010BD10
:103DD0005BB30300B0B582B03F49404802AF37F053
:103DE00033FE0446A8B16D468AB002AA3C4B53612B
:103DF0003C4BC2E906344FF4007313843A4B42F84B
:103E0000103F3A4800234FF41151FFF703FDAD4630
:103E100032E03749314837F017FE044630B16D467D
:103E20008AB002AA2E4B5361324BE2E732492B484B
:103E300037F00AFE044630B16D468AB002AA284B1C
:103E400053612E4BD5E72E49244837F0FDFD04463B
:103E500030B16D468AB002AA214B5361294BC8E7A5
:103E60000146294A1D4802F09DFC044638B1274A04
:103E70001E48012137F09FF92046BD46B0BD0246DD
:103E800023491648012302F083FD044608B1214A64
:103E9000EEE701230093014602231048EF2237F09A
:103EA00050FD04460028E7D10C4801F0D1FA044641
:103EB00030B16D468AB002AA094B5361164B98E7A0
:103EC000064801F005FB04460028D5D06D468AB0AF
:103ED00002AA124BF1E700BFC803002074140020AF
:103EE000157605003276050004000001404F0500FC
:103EF000B003002046760500980300205E7605009A
:103F00008003002071760500540300207F760500B1
:103F10009B760500A5760500C0760500CF760500E6
:103F200010B5DFF824C086B04FF42814CDE904C4DE
:103F30000824029404AC0194BDF82040009439F0A8
:103F400061FD06B010BD00BF180028002DE9F0414A
:103F50000C4B1C6805460E4617467CB100F0EEF887
:103F600063682046D3F8108032463B462946C04756
:103F7000044600F0EDF82046BDE8F0816FF0010442
:103F8000F9E700BFE49A002000230360044B5A685D
:103F900012B9C3E90000704710605860704700BF55
:103FA000E89A0020014B1860704700BFE49A002097
:103FB0001FB5CDE90101039200F0C0F8074B1C6862
:103FC00024B900F0C5F8204604B010BD636820464F
:103FD0001B6801A998472468F2E700BFE89A00200F
:103FE000024B0022C3E90022704700BFE89A00207C
:103FF000024B0022C3E90022FFF7F2BFF09A002033
:104000002DE9F74307460C4609B100230B601F4D0D
:10401000DFF87C9000264D450FD31E4B1D6885B3FD
:1040200055F8188C01AA41463846183D37F003FA76
:1040300010B3D6B914BB2E461EE0D5F8008001AAF5
:104040004146384637F0F7F950B116B954B92E4603
:1040500006E031680022404637F0EDF90028F5D13E
:104060001835D8E7019B2360F1E73168002240460C
:1040700037F0E1F90028DDD1AD69D0E7019B23607D
:10408000D9E7304603B0BDE8F08300BF805005009B
:1040900080500500F09A00202DE9F04784B002AF6F
:1040A0000446D7F8289078600D4616469846B9F130
:1040B000000F07D0D9F8001031BBD9F804A0BAF12D
:1040C000000F28D1391D2046FFF79AFF08B3D0F81A
:1040D0000C907868434632462946C847C8B16D46B9
:1040E0008AB002AA124BD061C2E905344FF40073C2
:1040F0001384104B42F8103F0F4800234FF4115126
:10410000FFF788FBAD4604E03A1D37F094F900282C
:10411000D3D1002007E0D9F80830009378684346EF
:1041200032462946D0470837BD46BDE8F08700BF74
:10413000F776050004000001C84F050003484FF062
:10414000FF324FF0FF3322F05DBC00BFBC100020F7
:10415000014822F0C9BC00BFBC10002038B5094D91
:10416000FFF7ECFF2B785BB9FFF742FF00F06AF82E
:10417000044608B901232B70FFF7EAFF204638BD3B
:104180000024F9E77CCA00202DE9F043048F0134B4
:1041900099B006460F46A4B200F10808651EADB2FC
:1041A000B5F5004F4AD04A2305AA2946404636F0C5
:1041B00057FF04F57F543F34A4B2814621460123C2
:1041C0000DF10B02404636F04BFFB9F1000F0146EE
:1041D00010DC002810DC338FAB4209D132466B1E55
:1041E00022F8383F4FF4004102234046FEF72EFFED
:1041F0002C46D3E7002808DC2946404636F02CFF41
:104200002146404636F028FFE5E7B9F1490FEFD8DF
:1042100009F160030DEB0309002309F84C3C084A3F
:10422000009703AB05A8CDF80C80ADF81040FFF760
:1042300033FF0028DCD019B0BDE8F0830020FAE796
:1042400083B403007FB50123694603200193FFF780
:1042500081FD044660BB02AA01A9032037F09FF844
:10426000044610B110F10C0F22D10399B1F5803F33
:1042700023D2009A002394681846084484421AD333
:104280000133082BF9D10E4D69612B835368AB6064
:104290002846D368EB6337F08CF9044640B9094EE1
:1042A0006E602846FFF770FE28466E60FFF77AFEC4
:1042B000204604B070BD9BB2E5E76FF02004F7E73D
:1042C000F89A00209852050080B505460E4617461C
:1042D000984623F097FB034600F04CFCDFF818905B
:1042E000044649F80030424630463946A84754F85B
:1042F000090000F0DFFB00BF0800000038B50C46E5
:10430000154637F08BF9034B43F8305003EBC003ED
:104310005C6038BDE40C002008B50348034A002166
:10432000121A37F07CF908BD101500203CDB002084
:104330000748084A084908B5121A37F072F90748C1
:10434000074A0849BDE80840121A37F06AB900BFA9
:10435000000000200C15002024AA05000000002009
:104360000000002024AA05002DE9F047064600AF12
:104370000C46002936D0E9468AB0D1E90012A3687C
:104380006D462148E8464FF0050ACDE90501CDE923
:10439000072348F810AF1D48424600234FF421512F
:1043A000FFF738FACD46D4E903126369AD461848E1
:1043B000C5F810A0C5E90501C5E907231348002386
:1043C00042464FF42151FFF725FACD46E369114AE1
:1043D0000E48012136F0F8FEA3690F4A0B4801216F
:1043E00036F0F2FE012E07D1EFF305830B4A0748A2
:1043F000103B314636F0E8FE2146304622F022F8E6
:10440000BD46BDE8F08700BF2B770500B04F050023
:104410005A7705008977050098770500C67705006B
:1044200030BFFFF7FDBF00BF2DE9F0410B4EDFF8B5
:10443000308006EB0807CC1B05463246094920466A
:1044400050F0E3F9A01942460021083C50F004FA6C
:10445000EC6707F10800BDE8F08100BF0000000034
:10446000080000008050050010B5204C204921486C
:1044700037F0E4F8A36A990136D51E481E4937F093
:10448000DDF81E20A36ADA0104D51A481B4937F06B
:10449000D5F81F20154CA36A1B0304D515481849ED
:1044A00037F0CCF82120A36A590304D511481549E7
:1044B00037F0C4F822200D4CA36A9A0304D50D48A6
:1044C000114937F0BBF82320A36ADB0304D5094860
:1044D0000E4937F0B3F82420044A936A6FEA034385
:1044E0006FEA1343936210BD1D20CBE700ED00E09F
:1044F000D9770500B04F0500F17705000478050075
:104500001E7805003C780500617805007B78050081
:1045100070B506460D46294C29492A4837F08EF8D1
:10452000A36ADB0647D52748274937F087F81120CB
:10453000A36A1C0704D52348244937F07FF81220CA
:104540001E4CA36A990712D521491E4837F076F808
:10455000636BA26A120609D51E4A1A48012136F079
:1045600033FE1EB1A36A23F08003A3621320134C11
:10457000A36ADE0704D51348174937F05FF8142003
:10458000A36A9C0604D50F48144937F057F8152044
:104590000A4B9A6AD10658BF9A6A9A6A920642BF33
:1045A0005A6A22F400525A629A6A42F0FF029A62F0
:1045B00000232B7070BD1020BAE700BF00ED00E0B3
:1045C000A6780500B04F0500BC780500EF7805001F
:1045D000027905001A790500307905004F79050048
:1045E00070B506460D46284C2849294837F026F86C
:1045F000A36AD9043CD52648264937F01FF817206E
:10460000A36A1A0504D52248234937F017F8182061
:104610001D4CA36A9B0512D51D48204937F00EF8A2
:10462000A36BA26A100409D51D4A1948012136F06E
:10463000CBFD1EB1A36A23F40043A3621920124CE0
:10464000A36A590504D51248164936F0F7FF1A2017
:10465000A36ADA050ED50E48134936F0EFFF1B208A
:10466000094A936A43F47F43936200232B7070BD21
:104670001620C5E7A36A9B04F2D505480B4936F01E
:10468000DDFF1C20ECE700BF00ED00E07E790500B7
:10469000B04F050094790500EF780500A579050075
:1046A000BE790500D3790500EE7905004F79050044
:1046B000F0B56A4B8BB00446586800AFC0F30803EE
:1046C000002585F31188BFF36F8F02F07F46B6F1A6
:1046D0007F4F07D102F00C06082E0ED160496148C9
:1046E00036F0ACFF60495F4836F0A8FF002108466D
:1046F000FFF73AFE2C37BD46F0BD16074CBF0C46FF
:104700000125002CEED00022FA71DA1E092A00F2EF
:104710008580DFE802F0057B7E7783838383838156
:10472000524950484D4E36F089FF0023FB71F36A21
:104730009A0705D54E494B4836F080FF00232DE0FF
:10474000F36A002B01DA4B49F5E7F36A5B00F5D514
:104750004949444836F072FF7369A26943F4807393
:104760007361BFF34F8FBFF36F8F32F8023C7269F2
:1047700022F480727261BFF34F8FBFF36F8F03F427
:104780007F42B2F55F4F27D1DBB2022B24D12368E1
:104790003A4A3448012136F017FD2368FA79002A95
:1047A000A8D107F1080604F1200C206861683246A0
:1047B00003C2083464451646F7D17A6A002D4AD000
:1047C000C2F3080121B96FEA52226FEA42227A62EB
:1047D00007F1080118468BE7204B9A6AD2B222B142
:1047E000F91D0120FFF794FE0EE09A6A12F47F4F44
:1047F00004D0F91D0120FFF7F3FE05E09B6AB3F535
:10480000803F9BD3FFF730FE0346C7E7F91D00202A
:10481000E8E7F91D0020EEE719498CE7194A1A4923
:1048200010F4F87F6E468AB018BF11466A46103BF6
:10483000079316484FF40073ADF82030144BCDE9C0
:10484000050142F8103F074800234FF41151FEF7CD
:10485000E1FFB54672E76FF30802B8E700ED00E04C
:10486000347A0500B04F05005F7A05009B7A050099
:10487000B27A0500D37A0500E17A0500007B0500D5
:104880001C7B05001B7A0500067A0500407B0500AD
:1048900004000001044B5A6942F010025A615A693F
:1048A00022F008025A61704700ED00E0EFF3088043
:1048B000EFF3098101B57246FFF7FAFE01BD00BFB3
:1048C0000B4880F308881FF04FFB202080F31188ED
:1048D00008484FF40061401880F30988EFF3148012
:1048E0000221084380F31488BFF36F8F00F078F83B
:1048F00020290120E01501201EF0040F0CBFEFF36A
:104900000880EFF30980816911F8021C0229FFD0A9
:1049100001B5724636F087FE01BD00BF0028ACBF6E
:1049200000F16040064B4FEA4111ACBF00F5614019
:1049300000F00F00C9B2B4BF195480F800137047DB
:1049400014ED00E0EFF30583103B2F2B06D8044A4B
:1049500002EBC30152F8330049680847704700BFB3
:10496000E40C002040B2002807DB044A410901237F
:1049700000F01F00834042F82130704700E100E062
:1049800040B200280CDB4309064900F01F00203329
:104990000122824041F82320BFF34F8FBFF36F8F76
:1049A000704700BF00E100E0054B420900F01F0026
:1049B00053F82220012303FA00F01040704700BF93
:1049C00000E100E0044B054A23F07F039360BFF34E
:1049D0004F8FBFF36F8F70470000000000ED00E0C5
:1049E00008B5FFF7EFFF0B4AD2F8883023F47003C5
:1049F000C2F88830EFF3148323F0040383F31488A0
:104A0000BFF36F8FFFF788FCFFF792FC00F094F87C
:104A100021F052FE00ED00E042F8203C009B42F8FD
:104A20001C3C0A49019B42F8183C029B42F8143C8A
:104A300021F001014FF0807342F8043C42F8081C59
:104A40000023203A0265C0F880307047C942000058
:104A500000B50B4B98600B4B1546C26F1A600E46A3
:104A60002C4686F309880020034B984720460021F6
:104A700000220023014C20478BB60300C9420000EE
:104A80006CC60020389B0020014B10221A61704731
:104A900000ED00E0054B5A699B689A421FBF044A2B
:104AA000536843F080535360704700BF6CC60020CA
:104AB00000ED00E0084B9B6883420BD1EFF30583C8
:104AC00043B1064B5A6842F080525A605A6A22F447
:104AD00000425A6241F03CBD6CC6002000ED00E08F
:104AE00012498A684FF030001044EFF3098C80E8D7
:104AF000F01F202080F31288BFF36F8F0C4F4FF010
:104B000000664A698A603E60D06F0A4C2060D2F825
:104B100080000023C2F8803080F3118802F1300059
:104B200090E8F01F8CF30988704700006CC60020E5
:104B300004ED00E0389B0020044800232021C21827
:104B40000133302B82F80013F9D1704700E100E007
:104B500008B5EFF30583064A103B02EBC30152F898
:104B6000330049688847BDE80840FFF793BF00BF9E
:104B7000E40C00200148006870470000389B0020CA
:104B8000024B034A0348012100F07AB800000420D8
:104B900000000020B452050008B503461048D0F8C4
:104BA0009020C2F30722013A934207D90D480E4ADA
:104BB000012136F009FB6FF0150008BDC0F89830F0
:104BC0000A6822F01F021A4342F01002C0F89C202B
:104BD0008A6842F00102C0F8A0201846EDE700BF45
:104BE00000ED00E0884F0500577B0500F0B50E464C
:104BF00085B01F4604460025B5420DDA606810B343
:104C000097B1431E18420AD0104A11482B46012181
:104C100036F0DAFA6FF01502104605B0F0BD1F2825
:104C2000F2D921680B42EFD12368019336F050FD91
:104C3000A36801A90343D0B20393FFF7ADFF10F1BE
:104C4000160FE7D0421C01350C34D5E77D7B0500FB
:104C5000884F0500044B0522C3F89420BFF34F8F03
:104C6000BFF36F8F704700BF00ED00E0BFF35F8FB1
:104C7000024B0022C3F89420704700BF00ED00E013
:104C800010B5034C01232278FFF7B0FF207010BD50
:104C90007DCA00202DE9F0435F486049D0F890308C
:104CA0000C68C3F307239C4285B000F2B280FFF783
:104CB000DDFF49680022944201F10C011AD1584FDE
:104CC000584D3C706846FFF73FF8574C574E8146A9
:104CD0004FF00008C14520D13B784F490020D1F862
:104CE0009020C2F307229342C0F28D80FFF7B2FFFB
:104CF000002052E0C0F8982051F80C3C23F01F032C
:104D0000134343F01003C0F89C3051F8043C43F0C7
:104D10000103C0F8A0300132CDE7009800EB081184
:104D20004FEA081CCB682340B3F5000F4ED00BD8D8
:104D3000B3F5001F34D0B3F5800F3CD0B3F5801F1E
:104D400016D008F10108C5E7B3F1007F46D0B3F1F2
:104D5000805F4BD0B3F1807FF3D150F80C3088687E
:104D60004A6836F0B5FC40F0885040F4801009E005
:104D700050F80C3088684A6836F0AAFC40F0885039
:104D800040F43020039001A93878CDE90123FFF7E2
:104D900003FF002833DA6FF0150005B0BDE8F0839B
:104DA00050F80C3088684A6836F092FC40F0885021
:104DB00040F40020E6E750F80C3088684A6836F086
:104DC00087FC40F0007040F40030DBE750F80C3016
:104DD00088684A6836F07CFC2843D3E750F80C30EA
:104DE00088684A6836F074FC3043CBE750F80C30E2
:104DF00088684A6836F06CFC40F08850E3E73B78FE
:104E000001333B709DE7C1F89830C1F8A000013331
:104E100065E74FF0FF30C0E700ED00E0C05205004D
:104E20007DCA0020000004110000F0FF0000041003
:104E3000F0B587B007460E4614460021102268469A
:104E40001D464FF009FD02238DF802302A46054B1E
:104E5000019321466846CDE9047634F079FB07B02A
:104E6000F0BD00BFF1B6030008B5024834F0B2FA55
:104E7000FEE700BFB27B050008B5024B1B689847F0
:104E8000002008BD3C9B0020034B044A1860937827
:104E900043F00203937070473C9B0020F80300200E
:104EA00008B50649064821F00701C1F1005202F594
:104EB000802234F03CFF002008BD00BF5F5D012070
:104EC000409B002003484FF0FF324FF0FF3321F0AA
:104ED00099BD00BF08040020014821F005BE00BFB5
:104EE0000804002038B50546FFF7ECFF08482A46BD
:104EF000082134F0ABFE044628B925B1FFF73AFE8D
:104F0000044B0C221A50FFF7E7FF204638BD00BFC4
:104F1000409B00200C00000010B50446FFF7D2FFB4
:104F200021460348FDF7DEFABDE81040FFF7D4BF85
:104F3000409B002070B5A0FB015434B92846FFF710
:104F4000D1FF064640B9304670BDFFF713FE054B52
:104F50000C221A500026F6E72A4621464FF07CFC28
:104F6000F1E700BF0C00000070B54169867A0B4D77
:104F7000044659B1437ADB0706D4302303FB0653BA
:104F80009B6A1B689B689847002363613020214619
:104F900000FB0650BDE8704041F01BB91412002020
:104FA000024B302202FB0030704700BF1412002079
:104FB000827A074B302101FB0233DA6A93F8223000
:104FC0001B33801A23F00303B0FBF3F0704700BFDC
:104FD0001412002038B5074B827A302404FB0233C8
:104FE0009B6AD3E901240C601568FFF7E1FF04FB1D
:104FF000005038BD141200202DE9F04385B005465D
:105000006846039190461C4641F014FCDDE90067B8
:10501000EFF31189202383F31288BFF36F8F2B8C5A
:10502000002B43D0EA8B9A4225D900220023284640
:1050300021F0AAFD0446F0B189F31188BFF36F8F08
:10504000039B002B43D032463B46684641F017FC99
:10505000A27A274B302101FB023320469B6A1B6852
:1050600003A91D68DDE90023A847606180BB2046D5
:10507000FFF77AFF26E0298C4B1E2B8489F31188D9
:10508000BFF36F8F95F82230EA8BEC6A1B3323F065
:105090000303521A02FB0344154B164AEB1A1B1169
:1050A0005343A37295F82230E372C9E789F311885C
:1050B000BFF36F8F23464246284621F065FD044624
:1050C0000028BDD10024204605B0BDE8F08363610F
:1050D000012300252381039B6382E27A65602946D0
:1050E00004F118004FF0B8FB63692582E360EAE73A
:1050F00014120020ABAAAAAAF8B5124D002430263B
:1051000000B9F8BD00F108024768BFF35B8F52E8B1
:10511000003F591E42E8001CBCF1000FF7D1BFF35D
:105120005B8FDBB2012BECD1837AC46006FB0353A7
:1051300044605B6A13B198473846E1E7FFF714FF14
:10514000FAE700BF14120020062800B508D9FFF7BF
:1051500011FD094B09221A504FF0FF305DF804FB96
:1051600030235843054BBFF35B8F1B58BFF35B8F56
:10517000002BECD00020F1E70C000000549B002035
:1051800030B530231049434308330B44BFF35B8FE2
:105190001A68BFF35B8FB2B1BFF35B8F541E53E845
:1051A000005F954204D143E8004CBCF1000FF6D1FA
:1051B000BFF35B8FEAD1012A05D1302358430A1887
:1051C00000230B50536030BD4C9B002038B5044683
:1051D0001546FFF7B9FF01300DD0084A302363436D
:1051E000D0184068086015B10C3313442B6030238D
:1051F0005C43105938BD0020FCE700BF4C9B0020E9
:1052000070B54FF0FF331D484FF0FF3236F065FBAD
:105210001B4B0025BFF35B8F1A68BFF35B8F82B116
:105220000135072D03F13003F4D1FFF7A3FC154B33
:1052300017221A504FF0FF35104836F050FB284621
:1052400070BD30246C43BFF35B8F53E8000F013017
:1052500043E800010029F8D1BFF35B8F0A4E3319F0
:1052600032515A609A6204F10C00304440F0E1FE81
:1052700004F12000304441F05CF9DDE744100020E7
:10528000549B00200C0000004C9B00202DE9F041B5
:10529000164630240F4A4443101911514660C36228
:1052A000B6B1F368A3B1FFF765FC0B4F0C3450F8AF
:1052B00007801319054640F20512304636F0FEFA13
:1052C000B8F15F0F04D0EB595F2B08BF45F807809A
:1052D000BDE8F0814C9B00200C0000002DE9F0415E
:1052E0000546FFF731FF431C044621D03026DFF886
:1052F0004C806E4306F10C0747444FF0FF324FF0ED
:10530000FF33384636F0E9FA08EB06035A6894682A
:1053100044B1DB6A58F8060013F4404F0BD029461D
:10532000A0470446384636F0DAFA2846FFF728FF49
:105330002046BDE8F081A047F3E700BF4C9B00206A
:10534000044A0123C2F840354FF08042C2F8783554
:10535000704700BF00E0014048B1054B054A1B689B
:10536000B3FBF2F35843044B43F001031847704773
:10537000240C002040420F00C0500500BFF34F8FA7
:105380000549064BCA6802F4E0621343CB60BFF3E1
:105390004F8F00BFFDE700BF00ED00E00400FA05FD
:1053A00008B5054A054B136010463C2353601EF0B8
:1053B000B1FE002008BD00BF9C9C00203FC00F0034
:1053C00008B50A4840F039FD68B1084840F035FD9D
:1053D00048B1074A0548182136F085FA054A0348BE
:1053E000192136F080FA002008BD00BF284B0500C7
:1053F0000100160001001A00F7B506460D461446D6
:10540000124F384640F019FDE0B1BB68AAB21B68E4
:10541000314638469847002802DB002003B0F0BD33
:10542000002CFBD1AC42F8D22F1B042F28BF04273D
:105430003FF0E8FA3A46019001A930194FF0E5F93A
:105440003C44EFE76FF01200E8E700BF604B050057
:1054500038B5044622F0B2FA204636F064FAA06964
:10546000C8B194F87030DB070DD5164A16480221F2
:1054700036F057FA6FF07705201D36F05BFA22F010
:10548000B1FA284638BD40F0D8FC38B90F4A0E486A
:10549000012136F046FA6FF01205EDE7204600F0E4
:1054A00091FF05460028E7D10146242204F12C0093
:1054B0004FF0D2F994F8703043F0010384F8703063
:1054C000DAE700BFD27B050038500500FC7B050001
:1054D00070B5044622F072FA204636F024FA94F8A9
:1054E0007030DA070DD4264A2648022136F019FA20
:1054F0004FF0FF35201D36F01DFA22F073FA2846D2
:1055000070BDC3F340019B0707D51F4A1D48022108
:1055100036F007FA6FF07705ECE7A0693EF0E5FAA0
:105520000646A0693EF050FB054628B1174A1548CB
:10553000012136F0F6F9DDE7E36F4BB13146204645
:1055400036F0B2FB0546A0B1A0693EF069FBD1E799
:10555000A0693EF0E1FAE0670028EFD10C4A094863
:10556000012136F0DEF9A0693EF05AFB6FF00B0521
:10557000C0E794F8703043F0020384F87030B9E764
:105580001F7C050038500500457C05006B7C05003C
:10559000877C050038B58021044680693EF0DFFA3B
:1055A000054678B10146204601F0CCFA044638B1F0
:1055B0000648074A012136F0D5FA2846FFF79CFD38
:1055C000204638BD6FF00B04FAE700BF1850050005
:1055D000B67C050038B50446C06F36F0D5F80546F0
:1055E00036F09EF82046294601F0ACFA044638B160
:1055F0000448054A012136F0B5FA2846FFF77CFD3C
:10560000204638BD18500500D97C05002DE9F04F23
:1056100095B002AF00237B610B7E33F0800504461A
:10562000884616460BD0B24AB248012136F09AFAA3
:105630006FF0040528464C37BD46BDE8F08F8AB1AF
:105640000846FFF759FD98F81930DA0705D49E0788
:10565000F0D598F81830002BECD12046FFF7BAFFB0
:1056600000F095BC4A7E00F12C09900705D5802BEF
:1056700009D14046FFF740FDDCE7910700F0C78401
:10568000002B40F0C484D3072AD5B8F81030082B7B
:1056900013D1D8F80C201368E3625368C9F80430BA
:1056A0004146002036F09AF87861D8B19148924A84
:1056B000012136F057FA786905E08E488F4A0121BA
:1056C00036F050FA4046FFF717FD484636F044FAE8
:1056D0000346A069002B00F0D584802100F0DBBCDC
:1056E000C7F81480FFF746FA94F82C50844A002338
:1056F00015F0600F8350C5F3411375D0032B40F0B4
:1057000006846FF08505FFF735FA7D4B1B58002B9B
:1057100041D0002D42D141F08BF84FF47A72A0FBBA
:10572000020302FB0131C30B43EA41437549BFF356
:105730005B8F0868BFF35B8F41F287321E1A964277
:10574000714A40F2EC83BFF35B8F51E8006F8642F1
:1057500004D141E8003CBCF1000FF6D1BFF35B8FF0
:1057600040F0DD83BFF35B8F52E8003F42E8005119
:105770000029F9D1BFF35B8F23B1644A5D48022150
:1057800035F022FD624A5B48022136F0EBF9FFF763
:10579000F1F95B4B1D58002D00F0D8835D4A554848
:1057A000032136F0DFF96E4688B002AA5A4B5361E6
:1057B0005A4B93614FF400739383594B42F8103F57
:1057C00058494C484B46FEF725F815F1860FB5466B
:1057D00040F0B183544A4748032136F0C3F9786951
:1057E00000287FF470AF70E7484636F0B5F994F8BA
:1057F0002D30002840F05181013B0A2B81D801A2B5
:1058000052F823F0A559000003570000155A000074
:1058100003570000315800000357000003570000F1
:10582000035700009F580000035700005B59000019
:10583000A069E18D03697F2993F880303FF661AF5D
:10584000228E002A7FF45DAF628E002A7FF459AF6A
:10585000EE067FF456AF94F83420022A02D14FF0BE
:10586000FF3550E71D070BD5C9B236F0B0F9054634
:1058700048B1E38D2D4A1F48012135F0A5FC42E7D0
:10588000012384F83D3094F83430012B05D1E38DA9
:105890001BB984F83430002535E70123F9E72046A9
:1058A00036F04AF8E28DFF2A01463FF62AAF638EB2
:1058B000002B7FF426AF94F82C30D8067FF421AF6C
:1058C00094F83430002BCAD0A2BBE18D94F83C3060
:1058D0008B42E0D0C9B2204600F00CFFE38D0546B4
:1058E00078B3134A00900121024835F077FC0AE7AB
:1058F000F87C050018500500307D0500197D050075
:105900000C000000A89C0020A49C0020057E05003F
:10591000197E0500427E0500D1870500527E0500F4
:1059200003000001C01C80001B9E0500527D050085
:10593000747D0500D2B2204636F0F5F90028C4D1B6
:105940008DE7002B14BF0222012284F834200521A8
:105950001A46204636F043FB9DE705F01F05012D52
:105960007FF4CFAE638E002B7FF4CBAEE28DFF2AA7
:105970003FF6C7AE218EFF293FF6C3AE94F8343010
:10598000022B7FF46CAFC9B2D2B2204636F07BFA5C
:10599000811C05467FF4B7AEA54AA648032136F020
:1059A000E1F8B0E6638E268E002B7FF4AAAE94F861
:1059B0003430002B3FF453AF012B02D1002E7FF483
:1059C0004EAF15F01F0517D0022D7FF464AFB4F869
:1059D0002EA0BAF1000F7FF45EAFF6B2314620463A
:1059E00001F018F9421C05463FF48DAE524631468F
:1059F000204636F0B9F886E6002E7FF430AFE38D0E
:105A0000012B7FF448AF94F8703066F3C30384F839
:105A1000703040E7238E628EDEB2002A7FF471AED2
:105A2000E28D022A11D105F01F0535434FEA1321FB
:105A30007FF467AEA069012236F0A6F800287FF453
:105A400060AE012384F83D3025E794F83410002936
:105A50003FF405AF012902D1002B7FF400AF15F010
:105A60001F050FD0022D7FF416AF002A7FF413AF6D
:105A70003146204601F0ACF8431C05463FF443AEE6
:105A80000122B4E7002B7FF4EAAE012A7FF403AFD2
:105A900094F8703043F00803B9E70A2B64D8DFE8C4
:105AA00013F00B00630063006300630063003A00BF
:105AB0006300010263001602638E022B54D194F836
:105AC0003430002B50D0012B218E01D100294BD135
:105AD00015F01F050ED0022D17D0002602212046FA
