:1000000028090120254A000007410300114A000089
:10001000114A0000114A0000114A000000000000CF
:100020000000000000000000000000005D4A000029
:10003000114A000000000000454C0000114A000079
:10004000B54C000047410300B54C0000B54C000022
:10005000B54C0000B54C0000B54C0000B54C00009C
:10006000B54C0000B54C0000B54C0000B54C00008C
:10007000B54C0000B54C0000B54C0000B54C00007C
:10008000B54C0000B54C0000B54C0000B54C00006C
:10009000B54C0000B54C0000B54C0000B54C00005C
:1000A000B54C0000B54C0000B54C0000B54C00004C
:1000B000B54C0000B54C0000B54C0000B54C00003C
:1000C000B54C0000B54C0000B54C0000B54C00002C
:1000D000B54C0000B54C0000B54C0000B54C00001C
:1000E000B54C0000B54C0000B54C0000B54C00000C
:1000F000B54C0000B54C0000B54C0000B54C0000FC
:100100007BB972B90029BEBF00204FF0004106E064
:1001100008BF00281CBF6FF000414FF0FF3000F017
:1001200057B8ADF1080C6DE904CE002909DB002BAE
:100130001ADB00F069F8DDF804E0DDE9022304B021
:100140007047404261EB4101002B1BDB00F05CF883
:10015000DDF804E0DDE9022304B0404261EB410137
:10016000524263EB43037047524263EB430300F098
:100170004BF8DDF804E0DDE9022304B0404261EB16
:1001800041017047524263EB430300F03DF8DDF854
:1001900004E0DDE9022304B0524263EB43037047FD
:1001A00053B94AB9002908BF00281CBF4FF0FF31DE
:1001B0004FF0FF3000F00CB8ADF1080C6DE904CE43
:1001C00000F022F8DDF804E0DDE9022304B0704716
:1001D000704700BF10F8012B11F8013B012A28BF1E
:1001E0009A42F7D0D01A7047034611F8012B03F852
:1001F000012B002AF9D17047034613F8012B002A7E
:10020000FBD1181A013870472DE9F0478C468E460D
:10021000089E154604461946002B40F0D0807245D2
:1002200047D9B2FA82F74FB1C7F120030EFA07FCA3
:1002300020FA03F3BD4043EA0C0CBC404FEA154ED4
:10024000A8B2BCFBFEF8230C0EFB18CC08FB00F98F
:1002500043EA0C43994528D9EB1808F1FF3204D240
:10026000994502D9A8F102022B44A3EB0903A4B2D9
:10027000B3FBFEFC0EFB1C330CFB00F044EA034412
:10028000A04214D92C190CF1FF3304D2A04202D998
:10029000ACF102032C44241A43EA02401EB1FC4094
:1002A000002334607360BDE8F0874246DDE76346B3
:1002B000F1E7002A79D0B2FA82F3002B3FD0194639
:1002C000C1F1200302FA01F52EFA03F20EFA01FE43
:1002D00020FA03F343EA0E034FEA154E00FA01F445
:1002E000B2FBFEFCAFB20EFB1C201A0C0CFB07F895
:1002F00042EA004290455AD9AA180CF1FF3004D2C4
:10030000904502D9ACF102002A44A2EB08029BB24C
:10031000B2FBFEFC0EFB1C220CFB07F743EA024378
:100320009F4246D9EB180CF1FF3204D29F4202D90A
:10033000ACF102022B44DB1B42EA004202E0AEEBCE
:10034000020301224FEA154EAFB2B3FBFEFC200CB4
:100350000EFB1C330CFB07F840EA034398452AD9EF
:10036000EB180CF1FF3004D2984502D9ACF1020031
:100370002B44A3EB0803A4B2B3FBFEFC0EFB1C331F
:100380000CFB07F744EA0344A74216D92C190CF1D9
:10039000FF3304D2A74202D9ACF102032C44E41B80
:1003A00043EA00400F46114678E71F2188E7604680
:1003B000ABE76246BFE76046DBE76346EFE77345BE
:1003C00006D916B9002108466DE7C6E9000EF9E71F
:1003D000B3FA83F787B9734501D3824207D8841AE9
:1003E0006EEB030301209C461EB900215BE73846F3
:1003F000FAE7C6E9004CF8E7C7F1200CBB4022FA47
:100400000CF51D4320FA0CF12EFA0CF30EFA07FE40
:1004100041EA0E014FEA154900FA07F4B3FBF9F877
:100420001FFA85FE09FB18300B0C08FB0EFA43EA95
:1004300000439A4502FA07F240D9EB1808F1FF3061
:1004400004D29A4502D9A8F102002B44A3EB0A0377
:1004500089B2B3FBF9F809FB183308FB0EFE41EA39
:1004600003418E452CD9691808F1FF3304D28E451B
:1004700002D9A8F10203294443EA0040A0FB0298F4
:10048000A1EB0E014145CE46434602D306D14C4571
:1004900004D2B9EB020E68EB05030138002EA4D09C
:1004A000B4EB0E0261EB030101FA0CFC22FA07F334
:1004B0004CEA0303F940C6E9003196E74046C5E738
:1004C0004346D9E7000000002DE9F843D0E907389A
:1004D000856903EB08042F34A5420F46164619D848
:1004E000DFF86C80A3FB080117A3D3E90023FFF713
:1004F00057FE0346601BA0FB080123F07F4412A3B4
:10050000D3E90023FFF74CFE20F07F403C603060D1
:10051000BDE8F883DFF838900BA3D3E90023A5FBEF
:100520000901FFF73DFE20F07F440A480A2106A397
:10053000D3E90023E8FB0901FFF732FE20F07F40FA
:100540003C603060BDE8F8838D49FD1A070000006B
:1005500000CA9A3B00166BF1002800F03E812DE99D
:10056000F04FC54C94F85E30DA078DB000F1318160
:10057000627F94F8293004EB820204EB8303166A4D
:10058000D3F82C800EB3354615F8020BC0F380105B
:100590000DF0C8FC0368C6F802308388AB8033785E
:1005A0005B0606D5062128460CF03CF9002800F031
:1005B0004681454615F8020BC0F380100DF0B2FCE1
:1005C0000368C8F802308388AB80337813F00E0FCD
:1005D00040F08B8063691BB10C200DB0BDE8F08F3B
:1005E0000EF020F98146002800F032810EF026F945
:1005F0008246002800F0298110F010FB05460028F3
:1006000000F02C81C06E4FF6FF73AB8405F1100B28
:10061000002800F01F8105F1600205F15C010CF07B
:100620000DF9B5F8583023F4EF6323F0070343F4D2
:100630008C7343F00103A5F8583095F8373003F078
:100640003F0363F07F0385F8373095F8723023F06D
:10065000070385F8723095F83C3023F00F0300272C
:1006600085F83C304FF4C023C5F86E312846C5E903
:100670001277EF66A5F8707085F839706F85C5F848
:100680002E702F65A5F84071A5F87471A5F86A71F0
:1006900011F044FF85F84471C5F8489110F032FD1F
:1006A00095F87C3160F3020385F87C3110F030FD61
:1006B00095F87C3160F3C50385F87C3195F84231BB
:1006C00067F3410385F8423105F1C40011F060FD84
:1006D000C4E9159AC4F814B0C5E902772F702D61EA
:1006E00015F0FAF8002840F0AC80237E0121C3F316
:1006F00042030DF12B008DF82B300CF041FA02462D
:1007000000286CD0414630460FF0B2FE5B4A5C4B8D
:10071000B4F85C800721E0FB023100251846C4E9EB
:10072000025553A3D3E900232570FFF739FD60601C
:100730000DF0BCFB00F10907B8F1000F07D13578C7
:1007400005F00F05A5F10105B5FA85F56D09207EC7
:10075000636865F3000010F00105207646D0494A31
:100760000992002010600225474ADFF82081049397
:100770000BAE019305920321CDE90200069400908F
:100780003B46CDF81C8008962A460B950DF0B2FA30
:1007900031460EF0DDF810BB3D4905914AF2D833E1
:1007A0000093CDE90300CDE90100CDF81C80089647
:1007B00006943B46012203210B950DF07FFA31464A
:1007C0000EF0C6F858B994F85E3043F0010384F88F
:1007D0005E3000200DB0BDE8F08F0FF0E3BD63691F
:1007E000002B3FF4F9AE0FF0B3FDF5E6254A29489A
:1007F000049303F247130694029591211360A8FB1A
:10080000000301FB0831214B07931F4B05934FF663
:10081000FF7309924FF0020803930BAE14A3D3E9C0
:100820000023CDF82C800896FFF7BAFC3B46CDE9B3
:1008300000504246284603210DF05CFABFE7122023
:10084000CBE60FF085FD0320C7E648460DF0F0FF2C
:100850000720C2E605F16400E866DCE650460DF0CC
:10086000F3FF48460DF0E4FFF2E700BFAFF300806E
:100870008D49FD1A070000000889002000CA9A3B34
:100880008C49FD1AFC880020E9040100A9DF000062
:100890000D020100002AE78470B5037E8AB0C3F31D
:1008A00042030D46044601210DF1230016468DF842
:1008B00023300CF065F93146024628460FF0D8FD8A
:1008C0001D4A1E4B0721E0FB0231184618A3D3E94D
:1008D0000023FFF765FC63689842054621D21B1A86
:1008E00000220192164A0293164BA21AA3FB02326F
:1008F0000221920900230A4409AE09911249059187
:10090000CDE9033303210696D2B2009318460DF0C9
:1009100047FA31460EF01CF838B9656000200AB07D
:1009200070BDFBD9C21A0023DBE70C200AB070BDF2
:100930008D49FD1A0700000000CA9A3B8C49FD1A38
:1009400008890020ABAAAAAAA9DF000000000000C5
:100950002DE9F04F05468BB08B46012002219946C8
:10096000144616F04BFC00220221824601200BF0B7
:10097000B9FF2F494FF4C07228460BF03FFFC61C49
:100980002C4B0093F6B201954B46324601210020D4
:100990000DF054FA10F0FD0F42D1274BA4FB034891
:1009A000204621A3D3E900234146FFF7F9FB089530
:1009B00006956B680493214B20F07F47A7FB03311A
:1009C000E01A1F4B07934FF007021E4B059302FBE3
:1009D00007114FF6FE7368EB010103934FF47A722F
:1009E0000023FFF7DDFBCDF800B0CDE901704B46E9
:1009F0003246012100200DF061F910F0FD0F0DD1FC
:100A0000BAF1000F02D10BB0BDE8F08F0122022134
:100A100010460BB0BDE8F04F0BF064BF00DEEFE70F
:100A200000DEBAE7AFF300808D49FD1A0700000031
:100A300020200020F50A010000CA9A3B8D49FD1ACA
:100A4000DD0A0100214B01002DE9F0418468A28CF0
:100A50004FF6FF739A428CB000F0DA8005462046CC
:100A600011F0AEFF2B7D012B00F00081022B00F076
:100A7000D28033B994F8723003F01803182B00F0C9
:100A8000378194F84471002F40F0C8802B8AE68D9E
:100A900094F93720CDE90A77002B00F0C680002AB0
:100AA000C0F23C810023A4F87031AB7CA28D03F02E
:100AB0000303551C012BADB200F0D480B4F874319F
:100AC000002B00F0D980AB4240F252815B1B9BB2FD
:100AD000062BA4F874314FF000028CBF00230123D1
:100AE000E2851F4694F83C2063F3820284F83C20A0
:100AF00029460DF12702204611F04CFD743000F01C
:100B00003181B4F86E312BB1AB4240F2DA805B1B1D
:100B1000A4F86E31B4F86A312BB1AB4240F2E180F7
:100B20005B1BA4F86A31E58D17B9AE4200F0C780AF
:100B30000135ADB294F8B53013F001060AD1DDE904
:100B40000AC3002B4FD1BCF1000F00F003811E46F9
:100B5000194649E094F9372023F00103002A84F86C
:100B6000B530C0F2A38094F85800C0F3C00100F083
:100B7000070014F033FD014694F8583094F859609A
:100B800003F003022832C3F34003D200DA40E38BC0
:100B900003F23F10B2F5A07F2CBF801800F5A070C3
:100BA00006F003022832D200C6F34006F240B2F546
:100BB000A07F2CBF831800F5A07358188E4A8F4B66
:100BC0000721E0FB0231184689A3D3E90023FFF790
:100BD000E7FA616820F07F408142DDE90AC380F0D6
:100BE000B380461A60600021A28C24690694CDE986
:100BF00003570332824D0291CDE900C6D2B20121E2
:100C0000002005950DF0CCF810F0FD0F40F0B580F8
:100C10000CB0BDE8F0813D2784F844713946204688
:100C20000CB0BDE8F04110F02DBB002AB8BF84F82D
:100C3000B970AB7CA28D03F00303551C012BADB240
:100C400010D0B4F87031002B3FF438AFAB4240F213
:100C50009B805B1BA4F87031B4F87431002B7FF4D7
:100C600032AF3FE70023A4F874313BE70023A4F838
:100C70006E31A4F86A3104E7E38C052B8BBF40F298
:100C8000E2424FF4FA725A4303FB0222B4F8723183
:100C900042F2107101FB0323013BB3FBF2F39BB261
:100CA000A4F87431002B7FF40EAF1BE794F85900C1
:100CB000012100F0070014F093FC01465CE73D467B
:100CC00038E70DF001FE0146002864D00023A4F8A7
:100CD0006E31A38CC3801B23037100680DF0C6FD29
:100CE00018E70023A4F86A31204611F0E5FC1AE762
:100CF000218DB4F86C218B1D9A42C4BF931F5B1ADF
:100D0000B4F86811CCBF9BB21346994256D0A4F8F0
:100D10006831A4F86A31A4F86E21B2E694F8B930CB
:100D2000002B3CD0013B84F8B93004F1C4084046A4
:100D300011F070FA002855D0404611F06BFA0028E7
:100D400042D00023E385ADE6091A6060A3BB51EAF7
:100D50000C021ED115B9002F3FF45AAF00263146C0
:100D6000334641E79DF82710204610F08BFA4FE7F5
:100D70000821204610F086FA4AE70DF013FE84425F
:100D80003FF446AF00DE43E73E21204610F07AFAFA
:100D90003EE71E4628E70123A4F86E31BAE60AAA08
:100DA0000BA92846FFF790FBDDE90A231343BCD0CB
:100DB000237884F8B930B8E7002615E7B4F86E1147
:100DC00000297FF45EAEA4E70246D4E917010BF0D8
:100DD0004DFD0028B5D194F83C301B0744BF238D4E
:100DE000E3855FE6FF2010F00FFAA5E7AFF3008080
:100DF0008D49FD1A0700000000CA9A3B8C49FD1A74
:100E0000350B0100000000002DE9F04F87B0B0F86D
:100E10004071BDF84C900091CDE90423B0F8043145
:100E2000BDF840A01F44BFB20446A7EB090390F8E9
:100E30005800D4F8FC809EB2BDF844300193C0F352
:100E4000C001BDF84830039600F00700029314F08B
:100E5000C5FBE58C052D40F2BE8015FB06F5ADB255
:100E600040F2E24BBAF1050F40F2A98094F8592004
:100E700094F8581002F003032833C2F34002DB0059
:100E8000D34001F003022832B3F5A47FC1F340013F
:100E90004FEAC20222FA01F238BF4FF4A473B2F54E
:100EA000A47F2CBF9B1803F5A47303F2D513184439
:100EB000774A784B0721E0FB023118464FF0961332
:100EC000E3619623238470A3D3E90023FFF768F935
:100ED000564620F07F4040F2E2430BFB05F103FB56
:100EE00006F64B1E3344B3FBF6F31FFA83FB06FBF7
:100EF0000BF3994260605D4653D26548591AA1FBD5
:100F0000000161A3D3E90023FFF74AF920F07F40F5
:100F10008044B4F80421B4F84031A9EB07094D44EA
:100F2000ADB213442B44A4F84031638D13441D44E7
:100F300094F837306585DB0955D100DE002735464A
:100F4000019B2385029BA4F8723131462046A4F808
:100F500026A011F04BFB504B218D3344881DB3FB71
:100F6000F6F39AB29042A4F86C2104D2C1F57F4105
:100F7000FA310A4492B2009BA4F8682113B100230D
:100F8000A4F8743143462A4639462046FFF7E0FC70
:100F900094F8423143F0010384F8423107B0BDE8D0
:100FA000F08F3B48C91AA1FB000137A3D3E9002306
:100FB000FFF7F6F820F07F40A8EB0008A9E74FF014
:100FC00096130AF10106E36196232384B6B20A2040
:100FD0004FF4FA7381E7039B013515FB03F5ADB2BE
:100FE0004FF4FA7B3EE7216CA36C294F01FB0233DF
:100FF000039A01FB1233A3640023C4F8C03014F039
:10100000BDFC054694F8B800C0F3420014F0B8FCEB
:10101000054406FB05F5214B1E4805F5742505F230
:101020003F25A3FB0535AD0CA36C25640BFB05FB2D
:1010300072085B44963A934228BF1346C4E91123D1
:10104000049B40F2E24909FB03F307212365EBFB14
:1010500007010DA3D3E90023FFF7A2F8104B059A6F
:10106000A8EB0008A3FB0230800A09FB00F0A0FBFC
:10107000070105A3D3E90023FFF792F8751B20F0C1
:101080007F475DE7AFF300808D49FD1A0700000040
:1010900000CA9A3B8C49FD1A7FC3C90183DE1B43FA
:1010A0005917B7D1000000002DE9F04F0D4609682F
:1010B000B0F82EE0D1F800900146144651F82EAB5E
:1010C00052F8086B91F802C0834691B0D0F81E0028
:1010D000BBF822109BF81C70A4F808E082F802C04C
:1010E000DBF82A206260DBF83A20C4F82220ADF851
:1010F0003C109BF83E100E9084F8261010AB13E9BC
:10110000030004F122020C90ADF8341010460521C2
:101110000BF036FD94F8272000F03F0060F3050245
:1011200084F827209BF83F20C2F3040184F828109C
:10113000BBF83410E1820128C7F380170DD902F003
:101140001F021B3202F01F020B2A06D889B2063991
:1011500089B240F67A42914219D90021C9F80810A3
:1011600094F82C2061F3000284F82C200125DBF890
:101170000C408BF80450504659460DF06BFB20682C
:101180002571214611B0BDE8F04F0DF06FBB2A6804
:1011900000215160BBF836202283B4F81680BBF8DA
:1011A00032300A9340F2E242304602FB08F811F076
:1011B00031FA9BF83F1096F8B800490961F34300F3
:1011C00086F8B80014F0DAFB0B9096F8B800C0F37C
:1011D000420014F0D5FB0B99084408FB00F0A64927
:1011E00000F5742000F23F20A1FB00104FEA5801E7
:1011F000800C9639206361639BF8311040F2E24223
:1012000001FB02F26264BBF83820A6F87221414665
:10121000304611F0EBF9994A9949C6F878114244E1
:10122000B2FBF8F290B2A6F86C01218B01F1060C2A
:10123000604504DDC1F57F41FA31014488B2594669
:10124000A6F8680111F81C2FC907C2F3401200F17B
:101250000381BDF83410ABF823100C988BF81E7086
:101260004FF48071CBF81F00ABF81C10E18AABF88B
:101270002610218BABF82810B6F87211ABF82A10A3
:1012800096F8B8100B92C1F342018BF82C1030463F
:101290000FF0D0FC5946A082ABF8060050466F68AC
:1012A0000DF0D8FA0B9AA18AD7F800A0F9801C2378
:1012B0003B71002A40F0BC803A77394650460DF029
:1012C000D5FA94F849A094F848200AF0070A02F0E9
:1012D0000702012150460B9214F082F90B9A02F09A
:1012E00003032833C2F34002DB00D3400AF00302B9
:1012F0002832B3F5A47FCAF3400A4FEAC20238BFCE
:101300004FF4A47322FA0AF2B2F5A47F2CBF9B1803
:1013100003F5A47303F2D513DFF868A1074603446D
:1013200059480721E3FB0A014FF09613C4E9033340
:101330004FA3D3E90023FEF733FF20F07F40706016
:10134000EB680A98226B40F2E24101FB003404F2A0
:10135000B3440221A41A0120A8EB020800220BF0DA
:10136000C1FA48460FF050FAE41B41A3D3E9002329
:101370000746A4FB0A01FEF713FFCDF80490AB6803
:101380004249009120F07F4ABA1C363BD2B2534406
:10139000012100200CF052FD01285FD099F818308F
:1013A000DB0751D430460FF045FC364CA8FB04480F
:1013B0002FA3D3E90023834641462046FEF7F0FEE3
:1013C000AB68334A0792A3F13609324B069620F0F8
:1013D0007F47A7FB0331E01A2F4B05934FF4F873B7
:1013E0000893736804934FF0070303FB071168EB3E
:1013F000010100244FF47A7200230394FEF7D0FE1B
:101400000BF10305EDB2CDE90170CDF800A04B461C
:101410002A46012120460CF051FC10F0FD0F23D18B
:1014200001220221104611B0BDE8F04F0BF05ABA6C
:1014300094F8273043F0400384F82730201D13F040
:101440005DFC0122208537E7002301220093184626
:1014500011460CF0BDFCA5E700DEFAE60DF0A2FA9D
:1014600081459BD000DE99E700DED9E7AFF300802D
:101470008D49FD1A0700000083DE1B437FC3C901AD
:10148000404B4C0000CA9A3B8C49FD1AA94B010005
:10149000F94A01008D49FD1A214B010000000000AE
:1014A0002DE9F04F8DB0484E484D82460CF0FEFCC1
:1014B000F16807460CF0FCFC7168F76040A3D3E9C3
:1014C00000230446A1FB0501FEF76AFE20F07F43DE
:1014D0009C4257D30DF12F010DF12E000DF024FA8F
:1014E000DFF8E8803568A5FB085935A3D3E9002368
:1014F00028464946FEF754FECDF818A00446706809
:10150000334B0593A0FB08012DA3D3E900234FF033
:101510000008CDE90788FEF743FE2E4BCDF80C807E
:1015200024F07F44A4FB033120F07F40072202FB1C
:1015300004110490E81A69EB01014FF47A72002358
:10154000FEF72EFE9DF82FB09DF82EA0CDF800805E
:10155000CDE901403B465A46504603210CF0AEFB14
:1015600010F0FD0404D06FF08B000DB0BDE8F08FDB
:1015700019481A4A002325F03BFB90B930690DB099
:10158000BDE8F08F30680EA3D3E90023A0FB05016E
:10159000FEF706FE20F07F4138460CF089FC074636
:1015A00098E79DF82F209DF82E00009423460321F4
:1015B0000CF00EFC6FF07300D7E700BFAFF30080B4
:1015C0008D49FD1A07000000B021002000CA9A3B97
:1015D000E94E01008D49FD1A548C0020447B0B001C
:1015E00038B50F4D04460CF061FCA9680CF060FCA6
:1015F000696803460B48B3FBF4F4A1FB00011C44EB
:1016000005A3D3E90023FEF7CBFD20F07F40844201
:1016100094BF0020012038BD8D49FD1A070000004D
:10162000B021002000CA9A3BF0B5C468636883B05B
:101630000546002B40D115F0DDF9002015F0FEF92C
:101640000021084615F0ECF900222521082015F0AC
:1016500053FA374B019301A815F03AFA354940F295
:101660005B6015F0EBFA237AC3F3420262F30613D0
:101670002372204614F008FB27682E68384613F0C2
:1016800067FF06446A6806F10901012015F0FEFBB8
:1016900015F0BCFC20460FF0C3F8811C3246C9B2DD
:1016A000384613F057FF054698B9204613F02CFF33
:1016B00068B9002003B0F0BD93F82C309B07BAD076
:1016C0001D48214615F06AF915F062FAF1E700DECF
:1016D000EFE71A4A1A491B4840F2114331F0DBFA8E
:1016E000194B0721A5FB030301FB05310EA3D3E929
:1016F0000023FEF755FD15490246154831F0CBFA97
:10170000002585F31188BFF36F8F0323184602DF8E
:101710001048214615F042F915F03AFA6FF08B00A7
:10172000C8E700BFAFF3008000CA9A3B000000008A
:10173000D6BE898E5555550091560100FCAA04006D
:1017400048AB0400A0AA04008D49FD1A94AC040023
:101750004CAB04008D5901002DE9F043C468A28A06
:101760004FF6FF739A4283B000F0FD80064614F0F6
:10177000B1FC3389628B208C94F82710A3831A4420
:1017800092B2104480B2431C23840023638301F08F
:101790003F034906E28300F1A48094F828100093E7
:1017A00004F1290004F1220313F06AFA0546D4E992
:1017B0000C31A26BA08BA36303FB0022E36B8A4274
:1017C00094BF9B185B188B4228BF0B46626CE36387
:1017D000236C94F849101A4494F82C3061F30613E2
:1017E0000021C4E9101294F8622084F82C3012F021
:1017F000040200F0898015F0FDF8002015F01EF9B4
:10180000201D15F065F92389A17A40F25B6043EA57
:10181000014115F013FA284613F0ACFE2146584852
:1018200015F0BCF8A08915F025FB94F8482094F831
:101830004900C2F3C003002102F0070200F00700D4
:1018400015F062FA204614F0DFFCD4F80080376807
:10185000404613F07DFE0744726807F1090100203D
:1018600015F014FB814615F0A5FB002015F0BCFB1C
:10187000E36B94F8490003F12F02636C012100F03F
:10188000070003EB420515F075F94D44054494F843
:10189000490000F00700022834D004280CBF4FF4A0
:1018A000BC73282301211D4415F066F9284415F066
:1018B00073FBA18A03313A46C9B2404613F04AFE8F
:1018C0000546A8B1B37A13F002062BD000252D48A7
:1018D000214615F063F815F05BF9284603B0BDE822
:1018E000F083218D04F1220213F00CFA05465EE725
:1018F000204613F009FE00283CD10025284603B0FD
:10190000BDE8F0831823CDE7D4E913010AF0AEFF58
:1019100000287FF470AF94F8623043F0040384F839
:10192000623068E7184A194919484FF4AC7331F02E
:10193000B2F918480721A5FB000301FB05310EA3EE
:10194000D3E90023FEF72CFC13490246134831F07B
:10195000A2F986F31188BFF36F8F0323184602DFC5
:101960006FF08B05B3E70E48214615F017F815F018
:101970000FF9C2E700DEC0E700CA9A3B0000000092
:10198000216401007156010078AB040048AB0400EB
:10199000A0AA04008D49FD1AA0AC04004CAB0400C1
:1019A000915601000346024A0248012130F0A8BDC9
:1019B00062BC0400B8A2040008B521B1BDE808402B
:1019C0000846FFF7EFBF33F0BCFE064B1860064B2E
:1019D00001221A70054A0648BDE80840032130F08C
:1019E00091BD00BF747A00207BA9002081BC040057
:1019F000B8A204002DE9F04100AF23F0A5FD804618
:101A00003FF08AFE6D4604463FF08BFE88B06A4682
:101A10001F4B4FF40076CDE905301E4BADF81C602E
:101A20001D4842F8103F4FF4E65130F06DFD012C97
:101A3000AD4626D0A31EDBB2022B27D840463FF08E
:101A400072FEDFF85880C8F8000020463FF069FEBB
:101A50008AB0D8F800306A4611490793114BADF8A7
:101A60002060CDE9051042F8103F0B484FF41351A8
:101A700030F04AFD0123AD460B4A1370BD46BDE868
:101A8000F0810A4A0448022130F03CFD0023F3E7CC
:101A900093BC040003000001B8A20400587A00209F
:101AA000ABBC0400040000017AA90020ECBC0400D7
:101AB000B0B588B002AF14220021381D47F0F5FF01
:101AC00003223023C7E90223012560233B61134928
:101AD000134B00950222381D07F04EFA044648B118
:101AE000104A03462946104830F00AFD20461837B0
:101AF000BD46B0BD6D4688B002AA0C4B53610C4B7D
:101B000093614FF4007393830A4B42F8103F0648E9
:101B10004FF4E65130F0F8FCAD46E7E738A3040097
:101B200030A3040022BD0400B8A2040047BD040095
:101B300063BD04000300000110B50B460A4C0B48BE
:101B40000B4A032130F0DCFC206818B107F0E8FDF7
:101B500000232360074A00231370074A1370BDE86F
:101B60001040FFF7A5BF00BF747A0020B8A20400A0
:101B70006FBD04007BA900207CA9002080B501294D
:101B80000E4B0CBF012200221A700D4A0D4B00AF04
:101B900088B008BF13466A460B490C48CDE90513C7
:101BA0004FF40073ADF81C30094B42F8103F4FF46E
:101BB000E65130F0A9FCBD4680BD00BF7CA90020E5
:101BC00094BD0400A2BD0400B4BD0400B8A204008A
:101BD0000300000113B50A4B187870B109488368F7
:101BE00004695B6801A9984720B9236801985840A7
:101BF000C0F3C020431E5842584102B010BD00BF80
:101C000086A900207C9D04002DE9F041054688B09E
:101C10000E46174698464FF0FF324FF0FF330E48FE
:101C200024F0B4FE0D4B186859681B7A05AC03C448
:101C30002370094824F01CFF0923029305AB01938C
:101C4000BDF8383000933A4643463146284634F0D2
:101C500045FC08B0BDE8F081D01000207DA900202F
:101C600070B5174A07CA86B003AB83E807001E4663
:101C7000002556F8044B20683CF047FE50B9114A45
:101C800011482B46012130F03BFC6FF01204204636
:101C900006B070BDE2882068217942F4B01230F0BD
:101CA00014FC044638B1094A00902B46064801212D
:101CB00032F000F8EBE70135032DDAD1E7E700BF9A
:101CC000D0A20400D7BD0400B8A20400F4BD0400F3
:101CD0002DE9F041FFF7C4FF044650BB164E174FE5
:101CE0003378EBB9164B174D93F800801648002156
:101CF00030F012FC3078134B0021884208BF3B467D
:101D0000184630F009FCB8F1000F0ED0012128462A
:101D100030F002FC43F23430002130F010FCDFE7F9
:101D20000A4B3D4693F80080E0E784F00104214629
:101D3000EDE7BDE8F08100BF87A9002020A30400E3
:101D40007BA9002018A3040028A304007AA900207E
:101D50002DE9F04F91B002AF4FF0FF324FF0FF335B
:101D6000AF4824F045FFDFF8BC8240463CF0CDFD93
:101D700060B9AD4AAD48012130F0C4FB6FF01203E9
:101D8000AB4AAA48012130F0BBFB08E0D8F8083084
:101D9000A8491B684046984703460028F0D1DFF861
:101DA00098B2A64A9BF80010A54B6C468AB0002951
:101DB00008BF134602AAA34951610521C2E90613CF
:101DC00040F201331384A04B42F8103F9748DFF8EC
:101DD0007CA24FF4135130F097FB0026A5464FF438
:101DE0002030002130F0ABFB98483CF08EFD0028FD
:101DF00074D1974A8D48012130F084FB00240021E2
:101E0000142207F12000F98147F04FFE01237B6285
:101E100007F10E03BB6202250C23FD6287F8303008
:101E2000D8F808307F485B6807F12001984707F130
:101E300010090346002877D0864A7C48294630F0AE
:101E40005FFB002501364FF0FF324FF0FF33824831
:101E500024F09CFD814B824A1C805D805E60186886
:101E6000596892F800C083F808C04A4603C282F855
:101E700000C0794824F0FCFD002C4FF0640394FB73
:101E8000F3F2B4BF644203FB124411B2AEBF23B2FB
:101E9000B4FBF3F203FB12436C468AB002AA71480A
:101EA00055620625C2E90713C2E905064FF44351FE
:101EB00042F8105F5D4830F027FB9BF80030A546E4
:101EC000002B40F09480684A1278002A5CD1674A5F
:101ED00056483346032130F013FB80E7DAF8084018
:101EE0004E21E36850469847034628B1604A4F4860
:101EF000012130F005FB81E70C21236907F1200265
:101F000050469847034608B15A4AF0E73B6A7C6A54
:101F100003EB830303EB830342F2107294FBF2F4AE
:101F200004EB830424B26AE7B7F90E204FF416736A
:101F300082FB03234946C7E904231BF049FA034601
:101F400000BBD7E90421120B42EA01520913C7E989
:101F500004214FF0FF3012F1004241F100019042A4
:101F600073EB010102D2444830F095FE3D69002D2B
:101F70007FF767AF4FF6FE739D42D4BFADB24FF609
:101F8000FF755FE73D4A58E71946182207F1200020
:101F90007B6047F08AFD3A4A7B68C7E9092907F167
:101FA000200109221846BA850AF048FA38B1354AA4
:101FB000009033461D48022131F07CFE0FE78AB0C5
:101FC00097F818C07869B7F910107B8A02AADFF871
:101FD000B8E05362C2E90701C2E905EC42F8105FBC
:101FE0004FF44351114830F08FFAA546F7E6274BDE
:101FF00018680028FFF6F3AE18230193244B0093D2
:1020000009220023494615F02DFA00287B6945DA9C
:1020100002F062FE1F4A125800921F4ACAE700BF30
:1020200090110020249E04002FBE0400B8A20400DA
:1020300046BE0400C0BB040087A9002092C2040071
:102040001FBE040081BE040004000001B09E040015
:10205000AFBE040023BF0400D01000207DA90020E3
:1020600088A9002097BF04007CA90020BDBF040000
:10207000D0BE0400FABE040041BF040065BF0400E6
:1020800070A30400EBBF040011C004001C03002077
:102090005C7A00200C00000048C004008EB03D7E39
:1020A000B7F91000798A02AAC2E90730094B936296
:1020B00041F29203D362DFF820C0516240F2046320
:1020C0001386064BC2E905C544F2C04142F8103FF1
:1020D00088E700BFBDC004007CC004000800000108
:1020E0002DE9F04786B002AFFFF7BAFDB0483CF0EB
:1020F0000CFCD8B9AF4AB048012130F003FA0024F3
:10210000C7E901440821381D3AF0E2FE002819DB36
:10211000391D2246234682427AD1A8490B70A6482F
:1021200000920321A64A31F0C5FD13E0A54AA0485C
:102130000B2130F0CAF908B1A34ADCE7A34B012216
:102140001A70DCE7A24A034602219B4830F0D8F916
:102150009A4B1C709F4DA048A8623CF0D6FB00280B
:102160005BD19E4A9448012130F0CCF96FF0120403
:102170009B4A91482346012130F0C2F90024994B33
:102180001C7000237B6098483CF0BFFB002840F0A7
:102190008C81964B964D6E4688B0002C08BF1D462C
:1021A00002AA944B8448C2E905354FF40073938327
:1021B000914B42F8103F4FF4E65130F0A5F9B54687
:1021C000002C40F08181204606F038FA04460028B1
:1021D00000F06E81894A03467748012130F090F97A
:1021E0006E468AB002AA864BD461C2E905354FF427
:1021F00000731384834B42F8103F6F484FF4115122
:1022000030F082F9B54600201037BD46BDE8F087B2
:1022100011F8014B013263407DE74FF47821A86A41
:1022200029603A1D3AF0E9FB044630B1764A03468C
:102230000121614830F064F99AE7BB68EB602846F9
:1022400002232B8200F00AFE0446002890D10123CD
:102250003A1D1946284631F06FFC012802D13C791D
:10226000012C0CD9694A5448032130F04BF9012361
:10227000002458483C713A1D194600F099FFFFF7B9
:10228000A9FC00283FF47BAF84F00108002C54D156
:10229000564B574D6E468AB002AA5D49D561C2E9D8
:1022A00005135C4B13625C4B42F8103F42484FF4FD
:1022B000235130F029F9B546002C41D0574EDFF8B4
:1022C0006091584825F022F85748002130F024F951
:1022D0005248002130F020F95148002130F01CF91B
:1022E0004FF0040A0121304630F016F9002141F682
:1022F0009A1030F024F9FFF76DFC014620BB304600
:1023000030F00AF9474825F021F8384A384B6D4635
:1023100088B0002C08BF134602AA4449C2E905133D
:102320004FF400739383344B42F8103F4FF4E6515F
:10233000214830F0E9F8AD4621E72D4B2B4DA9E7B8
:10234000374EDFF8D890BCE70021304630F0E4F893
:1023500041F69A10002130F0F2F8FFF73BFC00281C
:10236000D0D0BAF1010ABDD1FFF734FC002861D109
:102370000123184887F804803A1D194600F018FF19
:1023800000286ADA194A1A4B6D468AB0002C08BF39
:10239000134602AA2649D36140F201331384194B34
:1023A000C2E9051042F8103F4FF41151C0E700BFD9
:1023B0007C9D0400C8C00400B8A2040088A90020C5
:1023C00074C1040011000100FBC0040086A90020B4
:1023D00037C10400787A0020409E0400ADC104009B
:1023E00014C2040087A90020989D040092C2040032
:1023F0001FBE04004DC30400030000015BC30400C2
:10240000EFC4040004000001D6C1040065C204004A
:102410009FC20400000201030400000220A3040084
:1024200018A304009815002028A3040025C3040065
:10243000CDC204004846012130F06EF841F69A10F2
:10244000002130F07CF84846002130F065F841F674
:102450009A10002130F073F886E76C4688B002AA23
:10246000634B6448C2E905354FF400739383624BB4
:1024700042F8103F4FF4E65130F046F80120A546EF
:1024800000F084FBB3689B6C1BB13A1D04213046FD
:10249000984740F6CD40002130F051F87B68002B82
:1024A0007FF477AE013DEDD173E6544E1F25F5E77D
:1024B000534A5048032130F025F8FFF7F9FA044653
:1024C000002C00F091808BE608238AB07B600DEB36
:1024D00003024C4B53614FF6ED610F23C2E9061323
:1024E000494B136240F202439384484B42F8103F39
:1024F0004FF433513F4830F007F84548B54623F0D4
:102500004FF823F0B9F8044610B1424A034663E697
:10251000414A384803212FF0F5FF022111220846D5
:1025200014F06EFF3D4E002830600CDA02F0D4FB50
:102530003B4E044683593B4A2E4801212FF0E0FFD1
:10254000A4596442BCE7042300931222FB182921FA
:1025500014F0BEFF40B102F0BFFB314B1B58324AB2
:10256000244802212FF0CCFF142200212F4847F0ED
:102570009CFA2E4A2E4B42F8043C2E4C0220214657
:1025800034F010F901281AD0E84688B002AA2A4B84
:102590001848C2E905344FF400739383164B42F890
:1025A000103F4FF4E2512FF0AFFFC546306834F0D2
:1025B000F7F84FF0FF3333606FF0150410E66D4607
:1025C0008AB002AA1D4B0B48C2E9053441F29203BE
:1025D000D3614FF400731384194B42F8103F4FF44A
:1025E00013512FF091FFAD46164824F0C5FA0AE6C4
:1025F00000C30400B8A2040003000001989D040079
:102600007AC3040090C30400CFC304000500000196
:1026100010030020D9C3040015C404001C030020CB
:102620000C00000040C4040067C40400607A00206D
:1026300002001092BDC00400A5C40400CCC4040074
:1026400004000001901100202DE9F84F8A4600AFE8
:10265000002974D004680E1F361BF50826F0070603
:1026600004EB0608B8F802B01BF0010B16D1E946DE
:1026700088B06A46334BCDE90531032342F8103F59
:1026800031485B464FF4C25101F076F9CD468BF3E9
:102690001188BFF36F8F0423184602DF29462046B6
:1026A0002FF04FFF284434F83030C01A854217D03D
:1026B000E94688B06A46254BCDE9053A032342F83E
:1026C000103F214800234FF4C25101F055F9002377
:1026D000CD4683F31188BFF36F8F0423184602DFC2
:1026E000B8F8023023F00103A8F80230294620464A
:1026F0002FF027FF05EB000804EBC8035B88DA071F
:1027000008D4414620462FF065FF42462946204620
:102710002FF0A5FFA65BAE1B04EBC6035B88DB07AF
:1027200009D4314620462FF055FF2A46314620462F
:102730002FF095FF3546294620462FF007FFBD466E
:10274000BDE8F88F81C5040008A2040058C5040044
:1027500008B5024830F092FA002008BDAEC504006A
:102760000E4A9042034602D30D4A904211D30D4ABD
:1027700022B1934202D30C4A93420AD30B4A52B17C
:102780000B48834234BF01200020934238BF002011
:102790007047012070471046704700BF449C0400FA
:1027A00020FD040000000000000000000000000008
:1027B000000000002DE9F04F9BB000AF0446D7F8B1
:1027C00090A0FA637B638B4649B90378467880789A
:1027D00000EB830020445E4522D8A0EB040B0AF0F6
:1027E000010394F80280FB62E3783B63B8F1000FC9
:1027F0000CBF4FF000090AF0010913B11AF0020FE3
:1028000017D1B9F1000F14D1FB6B1BB17A6B59468C
:10281000204698475D4628466C37BD46BDE8F08F98
:10282000451C2846FDF7E8FC013028440BF1010B5C
:10283000D1E7CAF3C003FB612378BB629B00BB6195
:1028400063683B62BB6A04EB8301FB6B002B7DD1A9
:102850005D468844B9F1000F1DD0A94E8B469946BC
:102860001BF8013B54F82300002808BF3046FDF751
:10287000C3FCD7F8943001304BB1D7F898304B45B2
:1028800082BFD7F8943023F8190009F10109C34534
:102890000544E5D1D8461AF0050F0AF002030CBF33
:1028A0004FF0020B4FF0010B0026FB633B6B9E4287
:1028B000B1D298F8013054F823A05046FFF750FFEA
:1028C000FA6908F10208034602B3B86318F8021C5B
:1028D000386A30F0B2F9BB6BC0B1EA468AB06A46DA
:1028E000884B05933B6ACDE906314FF40073ADF890
:1028F0002030854B42F8103F844800234FF412519A
:1029000001F03AF8023DD5460136CFE723B1FB6A24
:102910002BB9A5EB0B05F7E7FB6B002BF4D0784840
:10292000BAF1000F18BF5046FDF766FCD7F8943097
:1029300053B1D7F8983099453FBFD7F89420431C3E
:1029400022F8193009F101090544DDE7B9F1000F5A
:102950006CD04346102B28BF1023BB6397F83890E8
:1029600007F148000026BA6B796247F077F8796A78
:1029700000227A620AF0020201EB08033A610AF0CF
:1029800004027B61FA6002337A6A396B8A4266D349
:102990006378F96A7B621AF0020F4B44DBB20CBF1A
:1029A00072080022002940F0A9801AF0040F14BF19
:1029B000314600216370A170E270B9697A6BFB6BDC
:1029C00020469847051EFFF626AFBB6A23707B6A38
:1029D00063703B6BE37031467A6BFB6B84F802806B
:1029E00007F158009847061EC0F2C4803A6BBB69D5
:1029F000386B03EB4203ABEB0301D7E90D23C91A94
:102A00007B6903EB4000FB6B98470028C0F2B48061
:102A10002E4435184FF0000807F1480AC84577D30F
:102A200000217A6BFB6B08469847F4E6B8F1000F7B
:102A30000CD01AF0040F0ED04346102B28BF1023E1
:102A4000BB6397F8386007F158008CE7C7F8388007
:102A50004646C1468CE7C7F838804E4688E713F8EB
:102A6000015C13F8021C54F82500BB60FFF778FEE8
:102A70000246F869BB6838B1386AC7E9013230F0FC
:102A8000DCF8D7E90132F0B912B3FA6A72B1B9F1E0
:102A90000F0F18D809F1280107F14000014409F18E
:102AA000010201F8205C5FFA82F90CE0FA6852B189
:102AB0000F2E08D806F1280107F14000721C0E18ED
:102AC00006F8105CD6B27A6A01327A6202335BE7AA
:102AD0003A69002ADBD10F2EF5D806F1280007F15C
:102AE000400C6044721C00F8101C07F1680151FA98
:102AF00082F20236F6B202F8105CE4E7002159E7F0
:102B0000EAC50400F1C504000400000188A1040026
:102B100018F80A3087F8473054F823B0D7F89430C3
:102B200033B3D7F89830984522D2D7F8943033F899
:102B300018607A6BFB6B012107F14700984700286A
:102B40001ADB0E4B0544BBF1000F08BF9B4626B9AC
:102B50005846FDF751FB461CB6B27A6BFB6B31460B
:102B600058469847002807DB054408F1010855E757
:102B70000026DEE735464EE605464CE6EAC504008B
:102B8000014B1860704700BF4003002008B50446A1
:102B9000EFF31183202383F31288BFF36F8F1DF0AF
:102BA00079FC204602F09CFC024830F067F831F0D6
:102BB000DFFAFCE7A5C604002DE9F047858B044643
:102BC000280717460CD501290CBF45F0100545F024
:102BD0002005A58387F31188BFF36F8FBDE8F087C9
:102BE000022905F0070540F09480204630F0E6FA0F
:102BF000052864D801A353F820F000BFD52B0000AE
:102C0000132D0000BF2C0000812C00009B2C000025
:102C1000AD2C000001F007035A1F012A1FD8002223
:102C200021F00701062BD4F8008089B2C4E9002204
:102C300009D1434603E0E28B0132E2831B68002B9B
:102C4000F9D141F00201A183204630F0B7FA4FF0EC
:102C5000000900286DD041F02001A18369E0042B18
:102C60000AD121F0070189B2A183204630F0A6FAEB
:102C700010B141F02001A1834FF00008C14658E097
:102C80002369D3F80090A38B23F0070343F00603D6
:102C9000A3834FF0000846464BE02369D3F8049025
:102CA000A38B23F0070343F00403F1E72369D3F870
:102CB0000890A38B23F0070343F00503E8E74FF0E8
:102CC0000008C146E7E7012243F00803A38387F326
:102CD0001188BFF36F8F002A3BD1B8F1000F4AD1A2
:102CE000B9F1000F02D02D492046C847EFF31187F4
:102CF000202383F31288BFF36F8FA38B23F0080385
:102D00009BB2A383D9063FD523F01002A28303F020
:102D10000705A669A18B002EBFF67CAF0023D4F86F
:102D2000008021F00701C4E9003341F00101A183D3
:102D30009946A38B03F0070AAA4502D0A268002A8D
:102D4000C1D1B8F1000F02D1B9F1000FDAD00022E1
:102D5000BAE7A1680029C0D00D680029BDD04F682E
:102D6000334652462046B8471DB12B6829461D46BA
:102D7000F3E72B46FAE74146334652462046D8F859
:102D8000008030F047FAA8E79A067FF523AF23F0DA
:102D90002002A28303F0070527E700BF41320300AA
:102DA00037B504460821C06A124D30F0C1FC00233B
:102DB0004FF6FF72ADF804306368ADF800208DF86F
:102DC0000620E26819182B401344181A6060684600
:102DD000ADF8021030F004FC6946204630F0C7FC24
:102DE000211D204630F0D4FB63682B40A36003B064
:102DF00030BD00BF0000FFFF2DE9F7430F468146BD
:102E00000821C06A144D30F093FC3C68241A8046B7
:102E10003C6004EA0506B4421CD3A0B210B903B06A
:102E2000BDE8F08308236A462146484630F077FB28
:102E30000028F4D16946A0B230F066FC38B1BDF884
:102E40000230BDF804203C602E4013441E44A4EB25
:102E50000804E0E70020E2E70000FFFF2DE9F0476B
:102E600004468AB000F1140738463BF04AFEA06AD7
:102E70008368DB689847E06250B99F4A9F48012108
:102E800030F093FB6FF0150528460AB0BDE8F087D7
:102E9000A06A8368DB6898470368013B1F2B01D950
:102EA000974AEBE7E368B3F5803F08D94FF48032E7
:102EB00000929248934A012130F0FCFEE2E7A06ABA
:102EC000216807AA39F099FD08B18F4AD6E7E5686D
:102ED0002DB1089BB5FBF3F203FB12550DB18B4AE4
:102EE000CCE7238A012B01D8894AC7E7E36A029518
:102EF00093F805804FF0FF334FF0FF32384623F050
:102F000045FDE06A082130F013FCA9460646238AF5
:102F10001FFA85FA534544D8238A4B4500F02D818A
:102F200053450BD1029908234246891B204630F0B5
:102F300004FB18B902A9204630F02AFB02A920465A
:102F4000FFF75AFF0546002840F0B2800299616001
:102F50004FEA11494FEA0949C4F80890A3688B4227
:102F60000DD8082303AA204630F0D9FAB8B903AB2C
:102F700013F8012B904532D101300828F8D163684D
:102F800002A96FF30F032046029330F001FBE368C0
:102F900002994246204630F0D0FA00283CDA054635
:102FA00086E0E1682B04891B13FA81F1424608236D
:102FB0002046029130F0C1FA78B102A9204630F0E3
:102FC000E7FA09F1010902990823424620461FFA4F
:102FD00089F930F0B2FA00289ED0013597E7A08831
:102FE00003A930F091FB626810B9911B6160B5E7ED
:102FF000BDF810A0BDF80E10E06AC4F80890514466
:1030000030F096FB48448242A060EED1BAF1000F46
:10301000EBD06FF01C054BE000F08B8063684FF63F
:10302000FF7906EB0308E368CDF808801FFA88F201
:103030009B1B9A4223D3374A3048032130F0B5FA1C
:103040006168204630F0B3FA014680BB6368324ABB
:10305000E06813400344A3EB460363601340A3609E
:10306000204630F025FC002899D1E368A288A3EB24
:1030700046039A421CD1204630F096FB8FE7082386
:1030800005AA4146204630F04AFA002887D105A912
:103090001FFA88F030F038FB38B1BDF814304B45DA
:1030A00003D1BDF81830002B6AD0B044BBE70D4601
:1030B000384623F0DDFC002D7FF4E6AE0123A37437
:1030C000E268238A0D4800920321144A30F0F2FD91
:1030D00063689AB200920948114A1B0C032130F030
:1030E000E9FDA3689AB2009204480E4A1B0C032122
:1030F00030F0E0FDC8E600BFEDC60400B0A104005A
:103100000FC704002CC7040055C704006DC7040096
:1031100081C70400F3C704000000FFFFA4C7040038
:10312000BBC70400CDC70400E26AA3681268134459
:10313000A360D4E901318B4208D95B1A424620468C
:1031400030F0FBF90028FFF62AAFEDD16168E368A3
:1031500001EB46029A4288D1124BA06801EA0302B1
:10316000904282D0204630F022FA00287FF417AF38
:1031700062680C4B1A40A26077E76FF02C0597E766
:10318000094A0A48032130F010FA636802A96FF374
:103190000F032046029330F0FBF90299204630F0ED
:1031A00006FA60E70000FFFFDEC70400B0A10400DC
:1031B0002DE9F04F1E46837C95B004468946904623
:1031C00053B96B4A6B48012130F0EFF96FF00C05F1
:1031D000284615B0BDE8F08FC26A0821104630F0CD
:1031E000A7FAB1B20190104630F0A2FAE368019A52
:1031F000A3EB820383420746C0F0B6801EB1B8F14C
:10320000000F00F0B180D4F804A0CDF810A005AAFA
:1032100004A9204630F002FB05460028D8D1BDF8AD
:1032200014304B4507D0DDF810A063685345EED14C
:10323000002E39D1CCE705A91FFA8AF030F064FAE4
:103240000028F0D0BDF8183066B3B3422CD14FEA55
:103250001A43BDF816A0CDF800801B049A44E36A17
:103260001B685B4203F020030293B346029B5B455D
:1032700028BF5B460CAA51462046039330F04FF915
:1032800000284DD1039B00981A460CA946F025FC56
:1032900050B9039B009ABBEB030B1A449A4400926B
:1032A000E4D195E7002B93D0002F3CD1BA4604F12E
:1032B000140B4FF0FF324FF0FF33584623F066FBFC
:1032C000238A9D424DD0D4E901320AEB02018B42A0
:1032D0002ED39BB263B3FF23ADF81E20002118222A
:1032E0000CA88DF82230ADF81C90ADF8206046F0A7
:1032F000DCFB0CA92046CDE90E8630F023FA074608
:1033000048B907A830F06CF907A9204630F02FFA29
:10331000074600B93746584623F0AAFB3D4657E713
:10332000C2DC054654E7019B1F441FFA87FABEE73B
:103330002046FFF735FD3DB9ADF82490CDF8288043
:10334000ADF82C608DF82E5009A9204630F0B0FA67
:1033500007460028DFD19DF82E300135002BAFD075
:10336000D8E76FF01B07D6E76FF0150530E700BF11
:10337000D9C60400B0A104002DE9FF471E46837C96
:10338000BDF8309004460F4690464BB92848294A6C
:10339000012130F00AF96FF00C0004B0BDE8F087AD
:1033A000C06A082130F0C4F9E368A3EB4003B342DC
:1033B0003AD3656801954FF0000A02AA01A9204698
:1033C00030F02CFA0028E8D1BDF80830BB4206D115
:1033D00002A9A8B230F098F950441FFA80FA019B74
:1033E00062689A4219D0CA4515D9BDF80C30C3B1EC
:1033F000CA4516D3BDF80A10B3426FF30F0528BFB4
:10340000334642462944204630F089F80028C4D18A
:10341000BDF80C00C1E71D46CFE7BDF80830BB4240
:10342000E3D06FF00100B8E76FF01500B5E700BF1B
:10343000B0A10400D9C604002DE9F047DFF854809C
:10344000044607464FF0010994FAA4F5B5FA85F54C
:1034500009FA05F32E0108EB05156FEA030A24EAC1
:1034600003042B7B63B158F806301B696BB94644E3
:10347000042273682846196807EA0A0730F097FBA8
:10348000002CE1D13846BDE8F0872846984700284F
:10349000F6D1ECE7C0A2040010B50F490F4888B080
:1034A00000223BF075FF00220023CDE90623002413
:1034B0000E23CDE90334CDE90144094B09490094B9
:1034C0004FF44072084823F083FF084906483BF058
:1034D000A2FD204608B010BDF1340000B01A002053
:1034E0002138000048C500202016002021C8040013
:1034F000014823F041BB00BF481100202DE9F047EF
:10350000804621480F4630F032FB0646002833D073
:1035100000252846BDE8F087237B83B12368DB685C
:103520000BB120469847636883F8069023681B69AF
:10353000D3B9636804221968204630F038FB01369D
:1035400010345445E8D3B8F1000FE2D0002DDFD09D
:103550002846FFF771FF0546002FF7D000214FF4F2
:10356000A4703BF05AFEF1E7204698470028E0D0CF
:1035700009FA06F31D43E2E7044CDFF814A0054600
:103580004FF00109DDE700BFB87A0020C0A20400B7
:10359000D0A20400014B53F820007047ACA30400F4
:1035A00008B5034608462BB1044A136000F056FCE8
:1035B000002008BD6FF01500FBE700BF44030020AA
:1035C00010B5044C237813B9034823F0D5FA01232E
:1035D000237010BD89A900204811002010B50446B1
:1035E0000B4830F0C4FA5CB1BFF35B8F094B53E872
:1035F000001F013943E80012002AF8D1BFF35B8FA6
:10360000054824F023FD0548BDE8104023F0B4BA76
:10361000B07A0020B47A0020B01A002048110020AF
:10362000064BBFF35B8F002253E8000F43E80021F5
:103630000029F9D1BFF35B8F704700BFB07A00203B
:1036400070B5FFF7EDFF084C084E0546B44200D3B5
:1036500070BD63685B792BB123685B6813B1294641
:10366000204698471034F1E7C0A20400D0A204001D
:1036700010B5044C044920462FF01AFC034B1C6083
:1036800010BD00BF840E002098A30400A87A00207B
:103690000D4A0E48002310B513700D4A13600D4AF1
:1036A0004FF400411360FFF77BFFFFF7E1FF0A4B88
:1036B0000A4918468B4200D310BD1A1A5C681211D1
:1036C000013222711033F5E78AA900206B3B030019
:1036D000B07A0020B47A0020C0A20400D0A2040076
:1036E00001460022014800232FF003BC840E002075
:1036F00001482FF09ABC00BF840E0020024B014607
:1037000018682FF0EDBC00BFA87A002001482FF008
:1037100022BD00BF840E002070B52A4B1B78002B01
:103720004ED0FFF7E5FF0446002846D1264B274D33
:103730001B68002B19DD3BF0E3FD4FF47A76A0FB0C
:10374000063206FB0121D5E90020DB0B43EA4143A9
:103750009B1A4FEAD13140F2E93261EB000193420A
:1037600071F1000101D3FFF76BFFD5E9003213F5CA
:103770007A7342F10002C5E900320CB3BDE8704033
:10378000FFF7C4BF6B685B7923B12B6821461B68C8
:10379000284698471035B542F4D32046FFF7AEFFD0
:1037A000BFF35B8F0A4B53E8001F013943E8001257
:1037B000002AF8D1BFF35B8FB8E7064D064EEAE763
:1037C000002070BD89A90020B07A0020A81A00202E
:1037D000B47A0020C0A20400D0A2040070B50D4D40
:1037E000297861B90120FFF789FE0B4C0B4EB442DA
:1037F00006D3FFF791FF0028FBD101232B7070BD8A
:1038000063685B791BB1236820469B689847103436
:10381000EDE700BF8AA90020C0A20400D0A20400E6
:1038200000212DE9F8430846FFF768FE044648B337
:1038300040F267684FF0000901F04EFA1A4B1B4A3C
:103840001B58136033B11A4B1B68092B02DD194852
:1038500023F092F9184F002544B12046FFF7ECFD04
:10386000044618B94FF0FF384FF0FF39FFF754FF07
:10387000064628B9B5B90F4842464B4623F0B8F979
:103880003546E9E74FF0FF384FF0FF39D4E72B68B2
:103890009B691BB100221146284698471035BD424E
:1038A000F5D3E8E7054DFAE708000000AC7A002000
:1038B000B47A002048110020D0A20400C0A2040065
:1038C00013B5184830F053F9174B1B7873B1EFF369
:1038D0001184202383F31288BFF36F8FFFF71CFF3F
:1038E00084F31188BFF36F8F02B010BD0F4B1B68BC
:1038F000002BF9D050B900220023CDE900230C4859
:103900004FF40042002324F07BFBEDE70928EBD1C4
:10391000074824F09BFB074802B0BDE8104023F0A5
:103920002BB900BFB47A00208AA90020AC7A00200D
:10393000B01A00204811002010B5064B1B68044641
:1039400098472146A06004482FF050FBBDE8104086
:10395000FFF7B6BF44030020840E0020044A054B45
:103960009B1AB1EBD30F34BF52F8310000207047DF
:1039700010A10400C0A204002DE9F04F8FB004AFE5
:10398000C1F34A26B8600D4690467B600C0D002EB0
:1039900061D04FF000090A234FF0040B07F1140A1D
:1039A000FE60C7E90799C7F824900093CDF808B0E6
:1039B000CDF804A007F11C03F9684A464046FEF71B
:1039C000F9FEB0F5006F03461CD36C468AB0D8F8F8
:1039D000041004AB2448C3E9050140F2FF71D9612A
:1039E0001A464FF400711984204B42F8103F2048CA
:1039F0004B464FF41251FFF7BFFFA5462C37BD468B
:103A0000BDE8F08FC0F30A0604F11700184420F057
:103A1000070080083B60FFF763FE66F3532504460A
:103A200080B13B68134A00F11001C7E90839F96118
:103A3000CDE901AB0A230093F96807F11C03404666
:103A4000FEF7B8FE66F353257B68B9682A46204620
:103A500030F0CDF8D2E704F1170020F0070080081D
:103A6000FFF73EFE0446EDE736C8040004000001FF
:103A7000C0A10400C13B03002DE9F04F87B0DDE990
:103A8000127ADDE9106B0546884614469946BFB1A7
:103A90001021CDF800A03B465A460020CDF814A0D6
:103AA0002EF0F2FEB0F5006F01460BD3194A1A480A
:103AB00040F2FF73022107B0BDE8F04F30F0F0B8DC
:103AC0003946384604F0070305F00704E40044EAE9
:103AD000831444EA402444EA065406F117000844DB
:103AE00020F0070080080391FFF7FAFD054640B17A
:103AF0003FB10399CDF800A03B465A4610302EF056
:103B0000C3FE4B4622464146284607B0BDE8F04F6B
:103B100030F06DB875C80400C0A10400406820B141
:103B2000034BC01A40F3CF0070474FF0FF3070478F
:103B300010A104000EB403B503AB014653F8042BE7
:103B40000448019301F026FA02B05DF804EB03B0DB
:103B5000704700BF033D0300CA0605D48B064CBF67
:103B600002490349FFF7E6BF704700BFAEC8040033
:103B7000ADC804002DE9F04F8BB09946179B079311
:103B8000DDE918A39DF858801A9F069204460D4659
:103B90000593B8F1000F00F0BF80844B13F8083094
:103BA000089307F4807309932FF0FFFF07F0020BCF
:103BB000024600287DD07E492046FFF7BBFF06461F
:103BC000BBF1000F08D017F0440F74D179492A4691
:103BD0002046FFF7AFFF064407F0010353B1764BD1
:103BE000764953F82820764B2046002A08BF1A460B
:103BF000FFF7A0FF07F48073002B07F0080318BF3E
:103C00004FF00009002B00F082806E4B6E4953F894
:103C100028202046FFF78EFF0546069B2BB16B49F7
:103C20001A462046FFF786FF0544B9F1000F0DD074
:103C3000089B002B6ED06649664BB8F1040F18BF85
:103C400019464A462046FFF775FF05446248354449
:103C5000079B1BB1614922462EF0BEFF059B002B3E
:103C600000F09080DDF814903946B9F1100F20462D
:103C700028BF4FF01009FFF76FFF0026B54252DC56
:103C8000002633461AF8032055492046FFF752FF15
:103C90000136102E4DD0710703D152492046FFF74F
:103CA00049FF4E453346EDD34F492046FFF742FFCB
:103CB000EEE7064684E74D4B186800288BD04C4B46
:103CC0004FF47A7B1B68B5FBF3F54FF46163B5FBEA
:103CD000F0F100FB11550BFB05F54FF03C0CB1FB6F
:103CE000F3F203FB1211B5FBF0FEB1FBFCF300FB9A
:103CF0001E550CFB13110BFB05F50091B5FBF0F500
:103D00003C49CDE901E52046FFF714FF63E707F0E2
:103D1000080582E72F4994E7B9F1010F0CBF2E483F
:103D20003548454694E72F492046FFF703FF013603
:103D3000A4E7324920460026FFF7FCFE33461AF876
:103D400003202F49A2F120035F2B28BF2E222046FB
:103D5000FFF7F0FE0136102E0DD0720703D1214976
:103D60002046FFF7E7FEB1453346E8D81D49204617
:103D7000FFF7E0FEEEE7059BB3EB0903CA440593AA
:103D80007FF470AFB8F1000F0AD0FB0704D50C4ADE
:103D90000A492046FFF7CEFE39462046FFF7DCFEF3
:103DA00020460BB0BDE8F04F2FF09EBFBCF80400DA
:103DB000BEC80400C2C80400BCA30400F7DA0400B3
:103DC000B0C80400D0A30400E8C80400EEC8040092
:103DD000B5C80400B9C80400033D0300954F0000B6
:103DE000F2C80400FAC80400F8C80400C07A002031
:103DF000BC7A0020CCC80400393D0300FCC8040094
:103E0000FEC8040073B542F20F738B4228BF0B4605
:103E100005680F4A0446052168462EF065F8636878
:103E20000C495B6806460B2228462FF04FFF63685B
:103E30003246694628465B682FF048FF63680649AA
:103E40005B681B2228462FF041FF02B070BD00BF07
:103E5000BAD00400B0F8040094F80400074A002126
:103E60000123904206D8064A01B901231360054B8D
:103E70001860704740085B000121F2E740420F00E4
:103E8000BC7A0020C07A0020F8B5074F0D460446E2
:103E90004618B44201D12846F8BD14F8011BBB688E
:103EA00001485B689847F4E7989D0400014B036064
:103EB0000020704718A4040070B5104B1C680D4614
:103EC000B4B10F4B196800238B4202DB6FF0010085
:103ED00070BD224612F8106B864202D001331446A0
:103EE000F2E7E0683AF011FD28B12C600020EFE71E
:103EF0006FF00C00ECE76FF01200E9E750030020D0
:103F000018A4040010B588B0436802938368C068A1
:103F1000CDE903320A680023CDE906230C4601AA45
:103F20000449059338F06DFD079808B9059B236097
:103F300008B010BD333E0300B0B582B03F494048E1
:103F400002AF30F0EDFA0446A8B16D468AB002AA7D
:103F50003C4B53613C4BC2E906344FF4007313846D
:103F60003A4B42F8103F3A4800234FF41151FFF703
:103F700003FDAD4632E03749314830F0D1FA04460E
:103F800030B16D468AB002AA2E4B5361324BE2E744
:103F900032492B4830F0C4FA044630B16D468AB03D
:103FA00002AA284B53612E4BD5E72E49244830F006
:103FB000B7FA044630B16D468AB002AA214B53616C
:103FC000294BC8E70146294A1D4802F09DFC0446DA
:103FD00038B1274A1E4801212FF059FE2046BD4620
:103FE000B0BD024623491648012302F083FD044672
:103FF00008B1214AEEE7012300930146022310484D
:10400000EF2230F00AFA04460028E7D10C4801F00C
:10401000D1FA044630B16D468AB002AA094B536109
:10402000164B98E7064801F005FB04460028D5D05A
:104030006D468AB002AA124BF1E700BFC803002008
:10404000741400203BC9040058C904000400000196
:1040500090A10400B00300206CC904009803002064
:1040600084C904008003002097C904005403002081
:10407000A5C90400C1C90400CBC90400E6C90400F5
:10408000F5C9040010B5DFF824C086B04FF4281439
:10409000CDE904C40824029404AC0194BDF8204086
:1040A000009432F01BFA06B010BD00BF18002800C3
:1040B0002DE9F0410C4B1C6805460E4617467CB1B5
:1040C00000F0EEF863682046D3F8108032463B4695
:1040D0002946C047044600F0EDF82046BDE8F081CF
:1040E0006FF00104F9E700BFF07A002000230360BD
:1040F000044B5A6812B9C3E9000070471060586059
:10410000704700BFF47A0020014B1860704700BF71
:10411000F07A00201FB5CDE90101039200F0C0F84C
:10412000074B1C6824B900F0C5F8204604B010BD48
:10413000636820461B6801A998472468F2E700BF1E
:10414000F47A0020024B0022C3E90022704700BF2E
:10415000F47A0020024B0022C3E90022FFF7F2BFED
:10416000FC7A00202DE9F74307460C4609B10023ED
:104170000B601F4DDFF87C9000264D450FD31E4B82
:104180001D6885B355F8188C01AA41463846183D7C
:104190002FF0BDFE10B3D6B914BB2E461EE0D5F8E5
:1041A000008001AA414638462FF0B1FE50B116B941
:1041B00054B92E4606E03168002240462FF0A7FE93
:1041C0000028F5D11835D8E7019B2360F1E7316865
:1041D000002240462FF09BFE0028DDD1AD69D0E7DC
:1041E000019B2360D9E7304603B0BDE8F08300BFF0
:1041F000D0A20400D0A20400FC7A00202DE9F047F0
:1042000084B002AF0446D7F8289078600D46164671
:104210009846B9F1000F07D0D9F8001031BBD9F892
:1042200004A0BAF1000F28D1391D2046FFF79AFFEC
:1042300008B3D0F80C907868434632462946C84700
:10424000C8B16D468AB002AA124BD061C2E90534EA
:104250004FF400731384104B42F8103F0F480023B3
:104260004FF41151FFF788FBAD4604E03A1D2FF0E3
:104270004EFE0028D3D1002007E0D9F80830009383
:104280007868434632462946D0470837BD46BDE8E0
:10429000F08700BF1DCA04000400000118A204003A
:1042A00003484FF0FF324FF0FF3322F06FBB00BFE7
:1042B000BC100020014822F0DBBB00BFBC10002076
:1042C00038B5094DFFF7ECFF2B785BB9FFF742FFDC
:1042D00000F06AF8044608B901232B70FFF7EAFFE3
:1042E000204638BD0024F9E78BAA00202DE9F043D1
:1042F000048F013499B006460F46A4B200F10808B5
:10430000651EADB2B5F5004F4AD04A2305AA29462D
:1043100040462FF011FC04F57F543F34A4B281468F
:10432000214601230DF10B0240462FF005FCB9F1A7
:10433000000F014610DC002810DC338FAB4209D19E
:1043400032466B1E22F8383F4FF4004102234046AC
:10435000FEF72EFF2C46D3E7002808DC294640460E
:104360002FF0E6FB214640462FF0E2FBE5E7B9F1EE
:10437000490FEFD809F160030DEB0309002309F899
:104380004C3C084A009703AB05A8CDF80C80ADF86B
:104390001040FFF733FF0028DCD019B0BDE8F083F0
:1043A0000020FAE75B3F03007FB501236946032045
:1043B0000193FFF781FD044660BB02AA01A9032017
:1043C0002FF059FD044610B110F10C0F22D10399C2
:1043D000B1F5803F23D2009A002394681846084420
:1043E00084421AD30133082BF9D10E4D69612B8316
:1043F0005368AB602846D368EB632FF046FE044653
:1044000040B9094E6E602846FFF770FE28466E6080
:10441000FFF77AFE204604B070BD9BB2E5E76FF06F
:104420002004F7E7047B0020E8A4040080B50546DB
:104430000E461746984623F00DFB034600F04CFC51
:10444000DFF81890044649F80030424630463946B5
:10445000A84754F8090000F0DFFB00BF0800000087
:1044600038B50C4615462FF045FE034B43F8305047
:1044700003EBC0035C6038BDE40C002008B50348C2
:10448000034A0021121A2FF036FE08BD1015002035
:1044900048BB00200748084A084908B5121A2FF0FF
:1044A0002CFE0748074A0849BDE80840121A2FF0B9
:1044B00024BE00BF000000200C15002020FD0400D9
:1044C000000000200000002020FD04002DE9F0473E
:1044D000064600AF0C46002936D0E9468AB0D1E93D
:1044E0000012A3686D462148E8464FF0050ACDE961
:1044F0000501CDE9072348F810AF1D4842460023C7
:104500004FF42151FFF738FACD46D4E9031263691D
:10451000AD461848C5F810A0C5E90501C5E907234F
:104520001348002342464FF42151FFF725FACD46A8
:10453000E369114A0E4801212FF0B2FBA3690F4A2B
:104540000B4801212FF0ACFB012E07D1EFF30583BF
:104550000B4A0748103B31462FF0A2FB214630465C
:1045600021F034FFBD46BDE8F08700BF51CA04000A
:1045700000A2040080CA0400AFCA0400BECA04003E
:10458000ECCA040030BFFFF7FDBF00BF2DE9F041CA
:104590000B4EDFF8308006EB0807CC1B0546324691
:1045A0000949204645F05AFAA01942460021083C24
:1045B00045F07BFAEC6707F10800BDE8F08100BF29
:1045C0000000000008000000D0A2040010B5204C3C
:1045D000204921482FF09EFDA36A990136D51E4837
:1045E0001E492FF097FD1E20A36ADA0104D51A4850
:1045F0001B492FF08FFD1F20154CA36A1B0304D508
:10460000154818492FF086FD2120A36A590304D5C7
:10461000114815492FF07EFD22200D4CA36A9A0304
:1046200004D50D4811492FF075FD2320A36ADB0343
:1046300004D509480E492FF06DFD2420044A936AE1
:104640006FEA03436FEA1343936210BD1D20CBE76B
:1046500000ED00E0FFCA040000A2040017CB040034
:104660002ACB040044CB040062CB040087CB0400B7
:10467000A1CB040070B506460D46294C29492A48AD
:104680002FF048FDA36ADB0647D5274827492FF0BE
:1046900041FD1120A36A1C0704D5234824492FF0AB
:1046A00039FD12201E4CA36A990712D521491E48D4
:1046B0002FF030FD636BA26A120609D51E4A1A4814
:1046C00001212FF0EDFA1EB1A36A23F08003A3624B
:1046D0001320134CA36ADE0704D5134817492FF0A3
:1046E00019FD1420A36A9C0604D50F4814492FF025
:1046F00011FD15200A4B9A6AD10658BF9A6A9A6A28
:10470000920642BF5A6A22F400525A629A6A42F0F2
:10471000FF029A6200232B7070BD1020BAE700BF21
:1047200000ED00E0CCCB040000A20400E2CB0400CA
:1047300015CC040028CC040040CC040056CC040066
:1047400075CC040070B506460D46284C284929480A
:104750002FF0E0FCA36AD9043CD5264826492FF067
:10476000D9FC1720A36A1A0504D5224823492FF043
:10477000D1FC18201D4CA36A9B0512D51D48204969
:104780002FF0C8FCA36BA26A100409D51D4A194872
:1047900001212FF085FA1EB1A36A23F40043A3621E
:1047A0001920124CA36A590504D5124816492FF056
:1047B000B1FC1A20A36ADA050ED50E4813492FF072
:1047C000A9FC1B20094A936A43F47F4393620023A8
:1047D0002B7070BD1620C5E7A36A9B04F2D505486F
:1047E0000B492FF097FC1C20ECE700BF00ED00E028
:1047F000A4CC040000A20400BACC040015CC040030
:10480000CBCC0400E4CC0400F9CC040014CD0400AB
:1048100075CC0400F0B56A4B8BB00446586800AF05
:10482000C0F30803002585F31188BFF36F8F02F0F2
:104830007F46B6F17F4F07D102F00C06082E0ED14D
:10484000604961482FF066FC60495F482FF062FCC8
:1048500000210846FFF73AFE2C37BD46F0BD16078B
:104860004CBF0C460125002CEED00022FA71DA1E56
:10487000092A00F28580DFE802F0057B7E778383DA
:1048800083838381524950484D4E2FF043FC0023CF
:10489000FB71F36A9A0705D54E494B482FF03AFC55
:1048A00000232DE0F36A002B01DA4B49F5E7F36AA8
:1048B0005B00F5D5494944482FF02CFC7369A26987
:1048C00043F480737361BFF34F8FBFF36F8F32F880
:1048D000023C726922F480727261BFF34F8FBFF3A2
:1048E0006F8F03F47F42B2F55F4F27D1DBB2022B0B
:1048F00024D123683A4A344801212FF0D1F92368A2
:10490000FA79002AA8D107F1080604F1200C2068E2
:104910006168324603C2083464451646F7D17A6AA4
:10492000002D4AD0C2F3080121B96FEA52226FEA82
:1049300042227A6207F1080118468BE7204B9A6AF7
:10494000D2B222B1F91D0120FFF794FE0EE09A6A5F
:1049500012F47F4F04D0F91D0120FFF7F3FE05E0AC
:104960009B6AB3F5803F9BD3FFF730FE0346C7E752
:10497000F91D0020E8E7F91D0020EEE719498CE752
:10498000194A1A4910F4F87F6E468AB018BF1146CA
:104990006A46103B079316484FF40073ADF8203079
:1049A000144BCDE9050142F8103F074800234FF4AE
:1049B0001151FEF7E1FFB54672E76FF30802B8E761
:1049C00000ED00E05ACD040000A2040085CD0400F3
:1049D000C1CD0400D8CD0400F9CD040007CE0400F9
:1049E00026CE040042CE040041CD04002CCD0400AC
:1049F00066CE040004000001044B5A6942F0100224
:104A00005A615A6922F008025A61704700ED00E0CD
:104A1000EFF30880EFF3098101B57246FFF7FAFE64
:104A200001BD00BF0B4880F308881FF04FFB20201A
:104A300080F3118808484FF40061401880F309881A
:104A4000EFF314800221084380F31488BFF36F8FC3
:104A500000F078F828090120E8F500201EF0040F86
:104A60000CBFEFF30880EFF30980816911F8021C95
:104A70000229FFD001B572462FF041FB01BD00BFF6
:104A80000028ACBF00F16040064B4FEA4111ACBFBB
:104A900000F5614000F00F00C9B2B4BF195480F8AE
:104AA0000013704714ED00E0EFF30583103B2F2B4C
:104AB00006D8044A02EBC30152F83300496808479C
:104AC000704700BFE40C002040B2002807DB044A16
:104AD0004109012300F01F00834042F82130704754
:104AE00000E100E040B200280CDB4309064900F079
:104AF0001F0020330122824041F82320BFF34F8F53
:104B0000BFF36F8F704700BF00E100E0054B420923
:104B100000F01F0053F82220012303FA00F0104098
:104B2000704700BF00E100E0044B054A23F07F031B
:104B30009360BFF34F8FBFF36F8F7047000000008B
:104B400000ED00E008B5FFF7EFFF0B4AD2F8883020
:104B500023F47003C2F88830EFF3148323F00403C6
:104B600083F31488BFF36F8FFFF788FCFFF792FC85
:104B700000F094F821F064FD00ED00E042F8203CE4
:104B8000009B42F81C3C0A49019B42F8183C029BDE
:104B900042F8143C21F001014FF0807342F8043CCC
:104BA00042F8081C0023203A0265C0F880307047A4
:104BB0002D44000000B50B4B98600B4B1546C26F9F
:104BC0001A600E462C4686F309880020034B98474E
:104BD0002046002100220023014C204763410300AE
:104BE0002D44000078A60020447B0020014B1022B9
:104BF0001A61704700ED00E0054B5A699B689A42C4
:104C00001FBF044A536843F080535360704700BF8E
:104C100078A6002000ED00E0084B9B6883420BD192
:104C2000EFF3058343B1064B5A6842F080525A6055
:104C30005A6A22F400425A623AF0F2B978A6002089
:104C400000ED00E012498A684FF030001044EFF3A5
:104C5000098C80E8F01F202080F31288BFF36F8F4B
:104C60000C4F4FF000664A698A603E60D06F0A4C74
:104C70002060D2F880000023C2F8803080F31188D1
:104C800002F1300090E8F01F8CF3098870470000B3
:104C900078A6002004ED00E0447B002004480023B7
:104CA0002021C2180133302B82F80013F9D170474C
:104CB00000E100E008B5EFF30583064A103B02EB84
:104CC000C30152F8330049688847BDE80840FFF740
:104CD00093BF00BFE40C002001480068704700004B
:104CE000447B0020024B034A0348012100F07AB8BC
:104CF000000004200000002004A5040008B50346BD
:104D00001048D0F89020C2F30722013A934207D905
:104D10000D480E4A01212EF0C3FF6FF0150008BDAB
:104D2000C0F898300A6822F01F021A4342F01002BD
:104D3000C0F89C208A6842F00102C0F8A020184602
:104D4000EDE700BF00ED00E0D8A104007DCE040037
:104D5000F0B50E4685B01F4604460025B5420DDA73
:104D6000606810B397B1431E18420AD0104A114828
:104D70002B4601212EF094FF6FF01502104605B06E
:104D8000F0BD1F28F2D921680B42EFD123680193AF
:104D90002FF00AFAA36801A90343D0B20393FFF7E7
:104DA000ADFF10F1160FE7D0421C01350C34D5E7EA
:104DB000A3CE0400D8A10400044B0522C3F894201C
:104DC000BFF34F8FBFF36F8F704700BF00ED00E060
:104DD000BFF35F8F024B0022C3F89420704700BFDF
:104DE00000ED00E010B5034C01232278FFF7B0FF7F
:104DF000207010BD8CAA00202DE9F0435F48604967
:104E0000D0F890300C68C3F307239C4285B000F2C1
:104E1000B280FFF7DDFF49680022944201F10C01E6
:104E20001AD1584F584D3C706846FFF73FF8574C21
:104E3000574E81464FF00008C14520D13B784F497D
:104E40000020D1F89020C2F307229342C0F28D8057
:104E5000FFF7B2FF002052E0C0F8982051F80C3C58
:104E600023F01F03134343F01003C0F89C3051F8A4
:104E7000043C43F00103C0F8A0300132CDE70098B4
:104E800000EB08114FEA081CCB682340B3F5000F74
:104E90004ED00BD8B3F5001F34D0B3F5800F3CD003
:104EA000B3F5801F16D008F10108C5E7B3F1007F04
:104EB00046D0B3F1805F4BD0B3F1807FF3D150F88F
:104EC0000C3088684A682FF06FF940F0885040F441
:104ED000801009E050F80C3088684A682FF064F9B7
:104EE00040F0885040F43020039001A93878CDE993
:104EF0000123FFF703FF002833DA6FF0150005B038
:104F0000BDE8F08350F80C3088684A682FF04CF9FF
:104F100040F0885040F40020E6E750F80C308868F4
:104F20004A682FF041F940F0007040F40030DBE7B0
:104F300050F80C3088684A682FF036F92843D3E7D8
:104F400050F80C3088684A682FF02EF93043CBE7D0
:104F500050F80C3088684A682FF026F940F08850E5
:104F6000E3E73B7801333B709DE7C1F89830C1F827
:104F7000A000013365E74FF0FF30C0E700ED00E02F
:104F800010A504008CAA0020000004110000F0FF0E
:104F900000000410F0B587B007460E461446002105
:104FA000102268461D4644F080FD02238DF8023031
:104FB0002A46054B019321466846CDE904762DF03B
:104FC00031F807B0F0BD00BFC941030008B5024881
:104FD0002CF06AFFFEE700BFD8CE040008B5024BF4
:104FE0001B689847002008BD487B0020034B044AFB
:104FF0001860937843F0020393707047487B002059
:10500000F803002008B50649064821F00701C1F160
:10501000005202F580222DF0F6FB002008BD00BFF3
:10502000673D01204C7B002003484FF0FF324FF0DA
:10503000FF3321F0ABBC00BF08040020014821F081
:1050400017BD00BF0804002038B50546FFF7ECFF88
:1050500008482A4608212DF065FB044628B925B1E9
:10506000FFF73AFE044B0C221A50FFF7E7FF2046E9
:1050700038BD00BF4C7B00200C00000010B504467A
:10508000FFF7D2FF21460348FDF7DEFABDE81040E6
:10509000FFF7D4BF4C7B002070B5A0FB015434B99E
:1050A0002846FFF7D1FF064640B9304670BDFFF7EE
:1050B00013FE054B0C221A500026F6E72A4621461D
:1050C00044F0F3FCF1E700BF0C00000070B541694B
:1050D000867A0B4D044659B1437ADB0706D4302358
:1050E00003FB06539B6A1B689B6898470023636118
:1050F0003020214600FB0650BDE8704039F0D1BD9C
:1051000014120020024B302202FB0030704700BF17
:1051100014120020827A074B302101FB0233DA6A35
:1051200093F822301B33801A23F00303B0FBF3F013
:10513000704700BF1412002038B5074B827A302424
:1051400004FB02339B6AD3E901240C601568FFF766
:10515000E1FF04FB005038BD141200202DE9F0439C
:1051600085B005466846039190461C463AF0CAF859
:10517000DDE90067EFF31189202383F31288BFF381
:105180006F8F2B8C002B43D0EA8B9A4225D90022BB
:105190000023284621F0BCFC0446F0B189F31188B5
:1051A000BFF36F8F039B002B43D032463B466846CC
:1051B0003AF0CDF8A27A274B302101FB023320468A
:1051C0009B6A1B6803A91D68DDE90023A84760618D
:1051D00080BB2046FFF77AFF26E0298C4B1E2B84EC
:1051E00089F31188BFF36F8F95F82230EA8BEC6A50
:1051F0001B3323F00303521A02FB0344154B164AD8
:10520000EB1A1B115343A37295F82230E372C9E7DE
:1052100089F31188BFF36F8F23464246284621F059
:1052200077FC04460028BDD10024204605B0BDE827
:10523000F0836361012300252381039B6382E27A6B
:105240006560294604F1180044F02FFC636925824B
:10525000E360EAE714120020ABAAAAAAF8B5124D3F
:105260000024302600B9F8BD00F108024768BFF3FA
:105270005B8F52E8003F591E42E8001CBCF1000F52
:10528000F7D1BFF35B8FDBB2012BECD1837AC46023
:1052900006FB035344605B6A13B198473846E1E765
:1052A000FFF714FFFAE700BF14120020062800B52C
:1052B00008D9FFF711FD094B09221A504FF0FF30B2
:1052C0005DF804FB30235843054BBFF35B8F1B583D
:1052D000BFF35B8F002BECD00020F1E70C00000047
:1052E000607B002030B530231049434308330B4422
:1052F000BFF35B8F1A68BFF35B8FB2B1BFF35B8FF5
:10530000541E53E8005F954204D143E8004CBCF1C1
:10531000000FF6D1BFF35B8FEAD1012A05D130230C
:1053200058430A1800230B50536030BD587B0020AF
:1053300038B504461546FFF7B9FF01300DD0084ACD
:1053400030236343D0184068086015B10C33134410
:105350002B6030235C43105938BD0020FCE700BFB0
:10536000587B002070B54FF0FF331D484FF0FF32DF
:105370002FF01FF81B4B0025BFF35B8F1A68BFF39C
:105380005B8F82B10135072D03F13003F4D1FFF7B4
:10539000A3FC154B17221A504FF0FF3510482FF081
:1053A0000AF8284670BD30246C43BFF35B8F53E886
:1053B000000F013043E800010029F8D1BFF35B8FF3
:1053C0000A4E331932515A609A6204F10C0030448B
:1053D00039F097FB04F12000304439F012FEDDE78C
:1053E00044100020607B00200C000000587B00204F
:1053F0002DE9F041164630240F4A4443101911514B
:105400004660C362B6B1F368A3B1FFF765FC0B4F0A
:105410000C3450F807801319054640F20512304647
:105420002EF0B8FFB8F15F0F04D0EB595F2B08BF27
:1054300045F80780BDE8F081587B00200C00000093
:105440002DE9F0410546FFF731FF431C044621D00A
:105450003026DFF84C806E4306F10C0747444FF0CE
:10546000FF324FF0FF3338462EF0A3FF08EB060360
:105470005A68946844B1DB6A58F8060013F4404F48
:105480000BD02946A047044638462EF094FF284604
:10549000FFF728FF2046BDE8F081A047F3E700BFF3
:1054A000587B0020044A0123C2F840354FF0804267
:1054B000C2F87835704700BF00E0014048B1054BA5
:1054C000054A1B68B3FBF2F35843044B43F0010356
:1054D00018477047240C002040420F0010A304001E
:1054E000BFF34F8F0549064BCA6802F4E0621343CD
:1054F000CB60BFF34F8F00BFFDE700BF00ED00E0C2
:105500000400FA0508B5054A054B136010463C2314
:1055100053601EF0B1FE002008BD00BFA87C002033
:105520003FC00F0008B50A4839F0EFF968B10848E4
:1055300039F0EBF948B1074A054818212EF03FFF32
:10554000054A034819212EF03AFF002008BD00BF8C
:105550007C9D04000100160001001A00F7B5064604
:105560000D461446124F384639F0CFF9E0B1BB680A
:10557000AAB21B68314638469847002802DB002053
:1055800003B0F0BD002CFBD1AC42F8D22F1B042F8E
:1055900028BF042737F0A2FF3A46019001A930192D
:1055A00044F05CFA3C44EFE76FF01200E8E700BF1C
:1055B000B49D040038B5044622F028FA20462EF0A7
:1055C0001EFFA069C8B194F87030DB070DD5164AEC
:1055D000164802212EF011FF6FF07705201D2EF0E6
:1055E00015FF22F027FA284638BD39F08EF938B970
:1055F0000F4A0E4801212EF000FF6FF01205EDE773
:10560000204600F091FF05460028E7D101462422FC
:1056100004F12C0044F049FA94F8703043F001038F
:1056200084F87030DAE700BFF8CE040088A20400E6
:1056300022CF040070B5044622F0E8F920462EF08F
:10564000DEFE94F87030DA070DD4264A264802218F
:105650002EF0D3FE4FF0FF35201D2EF0D7FE22F0A6
:10566000E9F9284670BDC3F340019B0707D51F4ADF
:105670001D4802212EF0C1FE6FF07705ECE7A0690E
:1056800036F09FFF0646A06937F00AF8054628B1B4
:10569000174A154801212EF0B0FEDDE7E36F4BB14C
:1056A000314620462FF06CF80546A0B1A06937F0CE
:1056B00023F8D1E7A06936F09BFFE0670028EFD11F
:1056C0000C4A094801212EF098FEA06937F014F821
:1056D0006FF00B05C0E794F8703043F0020384F8D4
:1056E0007030B9E745CF040088A204006BCF0400F6
:1056F00091CF0400ADCF040038B580210446806905
:1057000036F099FF054678B10146204601F0CCFA03
:10571000044638B10648074A01212EF08FFF28467B
:10572000FFF79CFD204638BD6FF00B04FAE700BF81
:1057300068A20400DCCF040038B50446C06F2EF028
:105740008FFD05462EF058FD2046294601F0ACFAA3
:10575000044638B10448054A01212EF06FFF28465F
:10576000FFF77CFD204638BD68A20400FFCF04008F
:105770002DE9F04F95B002AF00237B610B7E33F033
:1057800080050446884616460BD0B24AB24801212D
:105790002EF054FF6FF0040528464C37BD46BDE897
:1057A000F08F8AB10846FFF759FD98F81930DA07EB
:1057B00005D49E07F0D598F81830002BECD1204680
:1057C000FFF7BAFF00F095BC4A7E00F12C09900764
:1057D00005D5802B09D14046FFF740FDDCE7910756
:1057E00000F0C784002B40F0C484D3072AD5B8F852
:1057F0001030082B13D1D8F80C201368E3625368DB
:10580000C9F80430414600202EF054FD7861D8B12B
:105810009148924A01212EF011FF786905E08E48E7
:105820008F4A01212EF00AFF4046FFF717FD484638
:105830002EF0FEFE0346A069002B00F0D5848021E7
:1058400000F0DBBCC7F81480FFF746FA94F82C5040
:10585000844A002315F0600F8350C5F3411375D0BF
:10586000032B40F006846FF08505FFF735FA7D4B7A
:105870001B58002B41D0002D42D139F041FD4FF48F
:105880007A72A0FB020302FB0131C30B43EA4143DE
:105890007549BFF35B8F0868BFF35B8F41F28732B6
:1058A0001E1A9642714A40F2EC83BFF35B8F51E8B7
:1058B000006F864204D141E8003CBCF1000FF6D1F4
:1058C000BFF35B8F40F0DD83BFF35B8F52E8003F97
:1058D00042E800510029F9D1BFF35B8F23B1644A3C
:1058E0005D4802212EF0DCF9624A5B4802212EF06D
:1058F000A5FEFFF7F1F95B4B1D58002D00F0D88392
:105900005D4A554803212EF099FE6E4688B002AAE2
:105910005A4B53615A4B93614FF400739383594B25
:1059200042F8103F58494C484B46FEF725F815F110
:10593000860FB54640F0B183544A474803212EF004
:105940007DFE786900287FF470AF70E748462EF03E
:105950006FFE94F82D30002840F05181013B0A2B56
:1059600081D801A252F823F0095B000067580000BB
:10597000795B0000675800009559000067580000E7
:105980006758000067580000035A0000675800007D
:10599000BF5A0000A069E18D03697F2993F8803028
:1059A0003FF661AF228E002A7FF45DAF628E002A3F
:1059B0007FF459AFEE067FF456AF94F83420022AF4
:1059C00002D14FF0FF3550E71D070BD5C9B22EF0BD
:1059D0006AFE054648B1E38D2D4A1F4801212EF08D
:1059E0005FF942E7012384F83D3094F83430012B0D
:1059F00005D1E38D1BB984F83430002535E7012348
:105A0000F9E720462EF004FDE28DFF2A01463FF61D
:105A10002AAF638E002B7FF426AF94F82C30D80683
:105A20007FF421AF94F83430002BCAD0A2BBE18DB3
:105A300094F83C308B42E0D0C9B2204600F00CFF15
:105A4000E38D054678B3134A0090012102482EF0F9
:105A500031F90AE71ED0040068A2040056D0040001
:105A60003FD004000C000000B47C0020B07C00207B
:105A70002BD104003FD1040068D10400F7DA040000
:105A800078D1040003000001C01C800041F1040033
:105A900078D004009AD00400D2B220462EF0AFFE97
:105AA0000028C4D18DE7002B14BF0222012284F804
:105AB000342005211A4620462EF0FDFF9DE705F013
:105AC0001F05012D7FF4CFAE638E002B7FF4CBAE8C
:105AD000E28DFF2A3FF6C7AE218EFF293FF6C3AE07
