:10000000902601209147000093B403007D47000033
:100010007D4700007D4700007D4700000000000094
:10002000000000000000000000000000C9470000C0
:100030007D47000000000000914900007D4700005E
:10004000014A00009D4C0100014A0000014A0000E5
:10005000014A0000014A0000014A0000014A000074
:10006000014A0000014A0000014A0000014A000064
:10007000014A0000014A0000014A0000014A000054
:10008000014A0000014A0000014A0000014A000044
:10009000014A0000014A0000014A0000014A000034
:1000A000014A0000014A0000014A0000014A000024
:1000B000014A0000014A0000014A0000014A000014
:1000C000014A0000014A0000014A0000014A000004
:1000D000014A0000014A0000014A0000014A0000F4
:1000E000014A0000014A0000014A0000014A0000E4
:1000F000014A0000014A0000014A0000014A0000D4
:100100007BB972B90029BEBF00204FF0004106E064
:1001100008BF00281CBF6FF000414FF0FF3000F017
:1001200057B8ADF1080C6DE904CE002909DB002BAE
:100130001ADB00F069F8DDF804E0DDE9022304B021
:100140007047404261EB4101002B1BDB00F05CF883
:10015000DDF804E0DDE9022304B0404261EB410137
:10016000524263EB43037047524263EB430300F098
:100170004BF8DDF804E0DDE9022304B0404261EB16
:1001800041017047524263EB430300F03DF8DDF854
:1001900004E0DDE9022304B0524263EB43037047FD
:1001A00053B94AB9002908BF00281CBF4FF0FF31DE
:1001B0004FF0FF3000F00CB8ADF1080C6DE904CE43
:1001C00000F022F8DDF804E0DDE9022304B0704716
:1001D000704700BF10F8012B11F8013B012A28BF1E
:1001E0009A42F7D0D01A7047034611F8012B03F852
:1001F000012B002AF9D17047034613F8012B002A7E
:10020000FBD1181A013870472DE9F0478C468E460D
:10021000089E154604461946002B40F0D0807245D2
:1002200047D9B2FA82F74FB1C7F120030EFA07FCA3
:1002300020FA03F3BD4043EA0C0CBC404FEA154ED4
:10024000A8B2BCFBFEF8230C0EFB18CC08FB00F98F
:1002500043EA0C43994528D9EB1808F1FF3204D240
:10026000994502D9A8F102022B44A3EB0903A4B2D9
:10027000B3FBFEFC0EFB1C330CFB00F044EA034412
:10028000A04214D92C190CF1FF3304D2A04202D998
:10029000ACF102032C44241A43EA02401EB1FC4094
:1002A000002334607360BDE8F0874246DDE76346B3
:1002B000F1E7002A79D0B2FA82F3002B3FD0194639
:1002C000C1F1200302FA01F52EFA03F20EFA01FE43
:1002D00020FA03F343EA0E034FEA154E00FA01F445
:1002E000B2FBFEFCAFB20EFB1C201A0C0CFB07F895
:1002F00042EA004290455AD9AA180CF1FF3004D2C4
:10030000904502D9ACF102002A44A2EB08029BB24C
:10031000B2FBFEFC0EFB1C220CFB07F743EA024378
:100320009F4246D9EB180CF1FF3204D29F4202D90A
:10033000ACF102022B44DB1B42EA004202E0AEEBCE
:10034000020301224FEA154EAFB2B3FBFEFC200CB4
:100350000EFB1C330CFB07F840EA034398452AD9EF
:10036000EB180CF1FF3004D2984502D9ACF1020031
:100370002B44A3EB0803A4B2B3FBFEFC0EFB1C331F
:100380000CFB07F744EA0344A74216D92C190CF1D9
:10039000FF3304D2A74202D9ACF102032C44E41B80
:1003A00043EA00400F46114678E71F2188E7604680
:1003B000ABE76246BFE76046DBE76346EFE77345BE
:1003C00006D916B9002108466DE7C6E9000EF9E71F
:1003D000B3FA83F787B9734501D3824207D8841AE9
:1003E0006EEB030301209C461EB900215BE73846F3
:1003F000FAE7C6E9004CF8E7C7F1200CBB4022FA47
:100400000CF51D4320FA0CF12EFA0CF30EFA07FE40
:1004100041EA0E014FEA154900FA07F4B3FBF9F877
:100420001FFA85FE09FB18300B0C08FB0EFA43EA95
:1004300000439A4502FA07F240D9EB1808F1FF3061
:1004400004D29A4502D9A8F102002B44A3EB0A0377
:1004500089B2B3FBF9F809FB183308FB0EFE41EA39
:1004600003418E452CD9691808F1FF3304D28E451B
:1004700002D9A8F10203294443EA0040A0FB0298F4
:10048000A1EB0E014145CE46434602D306D14C4571
:1004900004D2B9EB020E68EB05030138002EA4D09C
:1004A000B4EB0E0261EB030101FA0CFC22FA07F334
:1004B0004CEA0303F940C6E9003196E74046C5E738
:1004C0004346D9E7000000002DE9F843D0E907389A
:1004D000856903EB08042F34A5420F46164619D848
:1004E000DFF86C80A3FB080117A3D3E90023FFF713
:1004F00057FE0346601BA0FB080123F07F4412A3B4
:10050000D3E90023FFF74CFE20F07F403C603060D1
:10051000BDE8F883DFF838900BA3D3E90023A5FBEF
:100520000901FFF73DFE20F07F440A480A2106A397
:10053000D3E90023E8FB0901FFF732FE20F07F40FA
:100540003C603060BDE8F8838D49FD1A070000006B
:1005500000CA9A3B00166BF1002800F03E812DE99D
:10056000F04FC54C94F85E30DA078DB000F1318160
:10057000627F94F8293004EB820204EB8303166A4D
:10058000D3F82C800EB3354615F8020BC0F380105B
:100590000DF06EFB0368C6F802308388AB803378B9
:1005A0005B0606D5062128460BF0E2FF002800F086
:1005B0004681454615F8020BC0F380100DF058FB3C
:1005C0000368C8F802308388AB80337813F00E0FCD
:1005D00040F08B8063691BB10C200DB0BDE8F08F3B
:1005E0000DF0C6FF8146002800F032810DF0CCFFEF
:1005F0008246002800F0298110F0B6F9054600284F
:1006000000F02C81C06E4FF6FF73AB8405F1100B28
:10061000002800F01F8105F1600205F15C010BF07C
:10062000B3FFB5F8583023F4EF6323F0070343F426
:100630008C7343F00103A5F8583095F8373003F078
:100640003F0363F07F0385F8373095F8723023F06D
:10065000070385F8723095F83C3023F00F0300272C
:1006600085F83C304FF4C023C5F86E312846C5E903
:100670001277EF66A5F8707085F839706F85C5F848
:100680002E702F65A5F84071A5F87471A5F86A71F0
:1006900011F0EAFD85F84471C5F8489110F0D8FBD7
:1006A00095F87C3160F3020385F87C3110F0D6FBBD
:1006B00095F87C3160F3C50385F87C3195F84231BB
:1006C00067F3410385F8423105F1C40011F006FCDF
:1006D000C4E9159AC4F814B0C5E902772F702D61EA
:1006E00014F082FF002840F0AC80237E0121C3F388
:1006F00042030DF12B008DF82B300CF0E7F8024689
:1007000000286CD0414630460FF058FD5B4A5C4BE8
:10071000B4F85C800721E0FB023100251846C4E9EB
:10072000025553A3D3E900232570FFF739FD60601C
:100730000DF062FA00F10907B8F1000F07D1357822
:1007400005F00F05A5F10105B5FA85F56D09207EC7
:10075000636865F3000010F00105207646D0494A31
:100760000992002010600225474ADFF82081049397
:100770000BAE019305920321CDE90200069400908F
:100780003B46CDF81C8008962A460B950DF058F98B
:1007900031460DF083FF10BB3D4905914AF2D83335
:1007A0000093CDE90300CDE90100CDF81C80089647
:1007B00006943B46012203210B950DF025F93146A5
:1007C0000DF06CFF58B994F85E3043F0010384F8E3
:1007D0005E3000200DB0BDE8F08F0FF089BC63697A
:1007E000002B3FF4F9AE0FF059FCF5E6254A2948F5
:1007F000049303F247130694029591211360A8FB1A
:10080000000301FB0831214B07931F4B05934FF663
:10081000FF7309924FF0020803930BAE14A3D3E9C0
:100820000023CDF82C800896FFF7BAFC3B46CDE9B3
:1008300000504246284603210DF002F9BFE712207E
:10084000CBE60FF02BFC0320C7E648460DF096FEE2
:100850000720C2E605F16400E866DCE650460DF0CC
:1008600099FE48460DF08AFEF2E700BFAFF3008024
:100870008D49FD1A0700000074A8002000CA9A3BA9
:100880008C49FD1A68A8002035020100F5DC000043
:1008900059FF0000002AE78470B5037E8AB0C3F3D5
:1008A00042030D46044601210DF1230016468DF842
:1008B00023300CF00BF83146024628460FF07EFC40
:1008C0001D4A1E4B0721E0FB0231184618A3D3E94D
:1008D0000023FFF765FC63689842054621D21B1A86
:1008E00000220192164A0293164BA21AA3FB02326F
:1008F0000221920900230A4409AE09911249059187
:10090000CDE9033303210696D2B2009318460DF0C9
:10091000EDF831460DF0C2FE38B9656000200AB02E
:1009200070BDFBD9C21A0023DBE70C200AB070BDF2
:100930008D49FD1A0700000000CA9A3B8C49FD1A38
:1009400074A80020ABAAAAAAF5DC000000000000F1
:100950002DE9F04F05468BB08B46012002219946C8
:10096000144616F0D3FA00220221824601200BF031
:100970005FFE2F494FF4C07228460BF0E5FDC61C00
:100980002C4B0093F6B201954B46324601210020D4
:100990000DF0FAF810F0FD0F42D1274BA4FB0348ED
:1009A000204621A3D3E900234146FFF7F9FB089530
:1009B00006956B680493214B20F07F47A7FB03311A
:1009C000E01A1F4B07934FF007021E4B059302FBE3
:1009D00007114FF6FE7368EB010103934FF47A722F
:1009E0000023FFF7DDFBCDF800B0CDE901704B46E9
:1009F0003246012100200DF007F810F0FD0F0DD157
:100A0000BAF1000F02D10BB0BDE8F08F0122022134
:100A100010460BB0BDE8F04F0BF00ABE00DEEFE76A
:100A200000DEBAE7AFF300808D49FD1A0700000031
:100A3000981F00204108010000CA9A3B8D49FD1A09
:100A4000290801006D4801002DE9F0418468A28C5D
:100A50004FF6FF739A428CB000F0DA8005462046CC
:100A600011F054FE2B7D012B00F00081022B00F0D1
:100A7000D28033B994F8723003F01803182B00F0C9
:100A8000378194F84471002F40F0C8802B8AE68D9E
:100A900094F93720CDE90A77002B00F0C680002AB0
:100AA000C0F23C810023A4F87031AB7CA28D03F02E
:100AB0000303551C012BADB200F0D480B4F874319F
:100AC000002B00F0D980AB4240F252815B1B9BB2FD
:100AD000062BA4F874314FF000028CBF00230123D1
:100AE000E2851F4694F83C2063F3820284F83C20A0
:100AF00029460DF12702204611F0F2FB743000F078
:100B00003181B4F86E312BB1AB4240F2DA805B1B1D
:100B1000A4F86E31B4F86A312BB1AB4240F2E180F7
:100B20005B1BA4F86A31E58D17B9AE4200F0C780AF
:100B30000135ADB294F8B53013F001060AD1DDE904
:100B40000AC3002B4FD1BCF1000F00F003811E46F9
:100B5000194649E094F9372023F00103002A84F86C
:100B6000B530C0F2A38094F85800C0F3C00100F083
:100B7000070014F0BBFB014694F8583094F8596014
:100B800003F003022832C3F34003D200DA40E38BC0
:100B900003F23F10B2F5A07F2CBF801800F5A070C3
:100BA00006F003022832D200C6F34006F240B2F546
:100BB000A07F2CBF831800F5A07358188E4A8F4B66
:100BC0000721E0FB0231184689A3D3E90023FFF790
:100BD000E7FA616820F07F408142DDE90AC380F0D6
:100BE000B380461A60600021A28C24690694CDE986
:100BF00003570332824D0291CDE900C6D2B20121E2
:100C0000002005950CF072FF10F0FD0F40F0B5804C
:100C10000CB0BDE8F0813D2784F844713946204688
:100C20000CB0BDE8F04110F0D3B9002AB8BF84F889
:100C3000B970AB7CA28D03F00303551C012BADB240
:100C400010D0B4F87031002B3FF438AFAB4240F213
:100C50009B805B1BA4F87031B4F87431002B7FF4D7
:100C600032AF3FE70023A4F874313BE70023A4F838
:100C70006E31A4F86A3104E7E38C052B8BBF40F298
:100C8000E2424FF4FA725A4303FB0222B4F8723183
:100C900042F2107101FB0323013BB3FBF2F39BB261
:100CA000A4F87431002B7FF40EAF1BE794F85900C1
:100CB000012100F0070014F01BFB01465CE73D46F4
:100CC00038E70DF0A7FC0146002864D00023A4F803
:100CD0006E31A38CC3801B23037100680DF06CFC84
:100CE00018E70023A4F86A31204611F08BFB1AE7BD
:100CF000218DB4F86C218B1D9A42C4BF931F5B1ADF
:100D0000B4F86811CCBF9BB21346994256D0A4F8F0
:100D10006831A4F86A31A4F86E21B2E694F8B930CB
:100D2000002B3CD0013B84F8B93004F1C4084046A4
:100D300011F016F9002855D0404611F011F900289D
:100D400042D00023E385ADE6091A6060A3BB51EAF7
:100D50000C021ED115B9002F3FF45AAF00263146C0
:100D6000334641E79DF82710204610F031F94FE750
:100D70000821204610F02CF94AE70DF0B9FC844216
:100D80003FF446AF00DE43E73E21204610F020F955
:100D90003EE71E4628E70123A4F86E31BAE60AAA08
:100DA0000BA92846FFF790FBDDE90A231343BCD0CB
:100DB000237884F8B930B8E7002615E7B4F86E1147
:100DC00000297FF45EAEA4E70246D4E917010BF0D8
:100DD000F3FB0028B5D194F83C301B0744BF238DAA
:100DE000E3855FE6FF2010F0B5F8A5E7AFF30080DC
:100DF0008D49FD1A0700000000CA9A3B8C49FD1A74
:100E000081080100000000002DE9F04F87B0B0F824
:100E10004071BDF84C900091CDE90423B0F8043145
:100E2000BDF840A01F44BFB20446A7EB090390F8E9
:100E30005800D4F8FC809EB2BDF844300193C0F352
:100E4000C001BDF84830039600F00700029314F08B
:100E50004DFAE58C052D40F2BE8015FB06F5ADB2CE
:100E600040F2E24BBAF1050F40F2A98094F8592004
:100E700094F8581002F003032833C2F34002DB0059
:100E8000D34001F003022832B3F5A47FC1F340013F
:100E90004FEAC20222FA01F238BF4FF4A473B2F54E
:100EA000A47F2CBF9B1803F5A47303F2D513184439
:100EB000774A784B0721E0FB023118464FF0961332
:100EC000E3619623238470A3D3E90023FFF768F935
:100ED000564620F07F4040F2E2430BFB05F103FB56
:100EE00006F64B1E3344B3FBF6F31FFA83FB06FBF7
:100EF0000BF3994260605D4653D26548591AA1FBD5
:100F0000000161A3D3E90023FFF74AF920F07F40F5
:100F10008044B4F80421B4F84031A9EB07094D44EA
:100F2000ADB213442B44A4F84031638D13441D44E7
:100F300094F837306585DB0955D100DE002735464A
:100F4000019B2385029BA4F8723131462046A4F808
:100F500026A011F0F1F9504B218D3344881DB3FBCD
:100F6000F6F39AB29042A4F86C2104D2C1F57F4105
:100F7000FA310A4492B2009BA4F8682113B100230D
:100F8000A4F8743143462A4639462046FFF7E0FC70
:100F900094F8423143F0010384F8423107B0BDE8D0
:100FA000F08F3B48C91AA1FB000137A3D3E9002306
:100FB000FFF7F6F820F07F40A8EB0008A9E74FF014
:100FC00096130AF10106E36196232384B6B20A2040
:100FD0004FF4FA7381E7039B013515FB03F5ADB2BE
:100FE0004FF4FA7B3EE7216CA36C294F01FB0233DF
:100FF000039A01FB1233A3640023C4F8C03014F039
:1010000045FB054694F8B800C0F3420014F040FBDD
:10101000054406FB05F5214B1E4805F5742505F230
:101020003F25A3FB0535AD0CA36C25640BFB05FB2D
:1010300072085B44963A934228BF1346C4E91123D1
:10104000049B40F2E24909FB03F307212365EBFB14
:1010500007010DA3D3E90023FFF7A2F8104B059A6F
:10106000A8EB0008A3FB0230800A09FB00F0A0FBFC
:10107000070105A3D3E90023FFF792F8751B20F0C1
:101080007F475DE7AFF300808D49FD1A0700000040
:1010900000CA9A3B8C49FD1A7FC3C90183DE1B43FA
:1010A0005917B7D1000000002DE9F04F0D4609682F
:1010B000B0F82EE0D1F800900146144651F82EAB5E
:1010C00052F8086B91F802C0834691B0D0F81E0028
:1010D000BBF822109BF81C70A4F808E082F802C04C
:1010E000DBF82A206260DBF83A20C4F82220ADF851
:1010F0003C109BF83E100E9084F8261010AB13E9BC
:10110000030004F122020C90ADF8341010460521C2
:101110000BF0DCFB94F8272000F03F0060F30502A1
:1011200084F827209BF83F20C2F3040184F828109C
:10113000BBF83410E1820128C7F380170DD902F003
:101140001F021B3202F01F020B2A06D889B2063991
:1011500089B240F67A42914219D90021C9F80810A3
:1011600094F82C2061F3000284F82C200125DBF890
:101170000C408BF80450504659460DF011FA206887
:101180002571214611B0BDE8F04F0DF015BA2A685F
:1011900000215160BBF836202283B4F81680BBF8DA
:1011A00032300A9340F2E242304602FB08F811F076
:1011B000D7F89BF83F1096F8B800490961F343004F
:1011C00086F8B80014F062FA0B9096F8B800C0F3F5
:1011D000420014F05DFA0B99084408FB00F0A649A0
:1011E00000F5742000F23F20A1FB00104FEA5801E7
:1011F000800C9639206361639BF8311040F2E24223
:1012000001FB02F26264BBF83820A6F87221414665
:10121000304611F091F8994A9949C6F8781142443C
:10122000B2FBF8F290B2A6F86C01218B01F1060C2A
:10123000604504DDC1F57F41FA31014488B2594669
:10124000A6F8680111F81C2FC907C2F3401200F17B
:101250000381BDF83410ABF823100C988BF81E7086
:101260004FF48071CBF81F00ABF81C10E18AABF88B
:101270002610218BABF82810B6F87211ABF82A10A3
:1012800096F8B8100B92C1F342018BF82C1030463F
:101290000FF076FB5946A082ABF8060050466F6807
:1012A0000DF07EF90B9AA18AD7F800A0F9801C23D3
:1012B0003B71002A40F0BC803A77394650460DF029
:1012C0007BF994F849A094F848200AF0070A02F044
:1012D0000702012150460B9214F00AF80B9A02F013
:1012E00003032833C2F34002DB00D3400AF00302B9
:1012F0002832B3F5A47FCAF3400A4FEAC20238BFCE
:101300004FF4A47322FA0AF2B2F5A47F2CBF9B1803
:1013100003F5A47303F2D513DFF868A1074603446D
:1013200059480721E3FB0A014FF09613C4E9033340
:101330004FA3D3E90023FEF733FF20F07F40706016
:10134000EB680A98226B40F2E24101FB003404F2A0
:10135000B3440221A41A0120A8EB020800220BF0DA
:1013600067F948460FF0F6F8E41B41A3D3E90023E0
:101370000746A4FB0A01FEF713FFCDF80490AB6803
:101380004249009120F07F4ABA1C363BD2B2534406
:10139000012100200CF0F8FB01285FD099F81830EB
:1013A000DB0751D430460FF0EBFA364CA8FB04486B
:1013B0002FA3D3E90023834641462046FEF7F0FEE3
:1013C000AB68334A0792A3F13609324B069620F0F8
:1013D0007F47A7FB0331E01A2F4B05934FF4F873B7
:1013E0000893736804934FF0070303FB071168EB3E
:1013F000010100244FF47A7200230394FEF7D0FE1B
:101400000BF10305EDB2CDE90170CDF800A04B461C
:101410002A46012120460CF0F7FA10F0FD0F23D1E7
:1014200001220221104611B0BDE8F04F0BF000B9C7
:1014300094F8273043F0400384F82730201D13F040
:1014400003FB0122208537E7002301220093184681
:1014500011460CF063FBA5E700DEFAE60DF048F953
:1014600081459BD000DE99E700DED9E7AFF300802D
:101470008D49FD1A0700000083DE1B437FC3C901AD
:10148000404B4C0000CA9A3B8C49FD1AF5480100BC
:10149000454801008D49FD1A6D480100000000001B
:1014A0002DE9F04F8DB0484E484D82460CF0A4FB1C
:1014B000F16807460CF0A2FB7168F76040A3D3E91E
:1014C00000230446A1FB0501FEF76AFE20F07F43DE
:1014D0009C4257D30DF12F010DF12E000DF0CAF8EB
:1014E000DFF8E8803568A5FB085935A3D3E9002368
:1014F00028464946FEF754FECDF818A00446706809
:10150000334B0593A0FB08012DA3D3E900234FF033
:101510000008CDE90788FEF743FE2E4BCDF80C807E
:1015200024F07F44A4FB033120F07F40072202FB1C
:1015300004110490E81A69EB01014FF47A72002358
:10154000FEF72EFE9DF82FB09DF82EA0CDF800805E
:10155000CDE901403B465A46504603210CF054FA6F
:1015600010F0FD0404D06FF08B000DB0BDE8F08FDB
:1015700019481A4A002325F0D7FA90B930690DB0FE
:10158000BDE8F08F30680EA3D3E90023A0FB05016E
:10159000FEF706FE20F07F4138460CF02FFB074691
:1015A00098E79DF82F209DF82E00009423460321F4
:1015B0000CF0B4FA6FF07300D7E700BFAFF3008010
:1015C0008D49FD1A070000002821002000CA9A3B1F
:1015D000354C01008D49FD1AC0AB0020447B0B0047
:1015E00038B50F4D04460CF007FBA9680CF006FB5C
:1015F000696803460B48B3FBF4F4A1FB00011C44EB
:1016000005A3D3E90023FEF7CBFD20F07F40844201
:1016100094BF0020012038BD8D49FD1A070000004D
:101620002821002000CA9A3BF0B5C468636883B0E3
:101630000546002B40D115F065F8002015F086F81E
:101640000021084615F074F800222521082015F025
:10165000DBF8374B019301A815F0C2F8354940F289
:101660005B6015F073F9237AC3F3420262F3061349
:101670002372204614F090F927682E68384613F03C
:10168000EFFD06446A6806F10901012015F086FAAB
:1016900015F044FB20460EF069FF811C3246C9B2AA
:1016A000384613F0DFFD054698B9204613F0B4FD27
:1016B00068B9002003B0F0BD93F82C309B07BAD076
:1016C0001D48214614F0F2FF15F0EAF8F1E700DEBC
:1016D000EFE71A4A1A491B4840F2114338F0A1FCBF
:1016E000194B0721A5FB030301FB05310EA3D3E929
:1016F0000023FEF755FD15490246154838F091FCC8
:10170000002585F31188BFF36F8F0323184602DF8E
:101710001048214614F0CAFF15F0C2F86FF08B0094
:10172000C8E700BFAFF3008000CA9A3B000000008A
:10173000D6BE898E55555500A1530100A45605000B
:10174000F0560500485605008D49FD1A3C58050025
:10175000F45605009D5601002DE9F043C468A28AA5
:101760004FF6FF739A4283B000F0FD80064614F0F6
:1017700039FB3389628B208C94F82710A3831A4499
:1017800092B2104480B2431C23840023638301F08F
:101790003F034906E28300F1A48094F828100093E7
:1017A00004F1290004F1220313F010F90546D4E9ED
:1017B0000C31A26BA08BA36303FB0022E36B8A4274
:1017C00094BF9B185B188B4228BF0B46626CE36387
:1017D000236C94F849101A4494F82C3061F30613E2
:1017E0000021C4E9101294F8622084F82C3012F021
:1017F000040200F0898014F085FF002014F0A6FF99
:10180000201D14F0EDFF2389A17A40F25B6043EACA
:10181000014115F09BF8284613F034FD2146584845
:1018200014F044FFA08915F0ADF994F8482094F81D
:101830004900C2F3C003002102F0070200F00700D4
:1018400015F0EAF8204614F067FBD4F800803768FA
:10185000404613F005FD0744726807F109010020B6
:1018600015F09CF9814615F02DFA002015F044FA88
:10187000E36B94F8490003F12F02636C012100F03F
:10188000070003EB420514F0FDFF4D44054494F8B6
:10189000490000F00700022834D004280CBF4FF4A0
:1018A000BC73282301211D4414F0EEFF284415F0D9
:1018B000FBF9A18A03313A46C9B2404613F0D2FC83
:1018C0000546A8B1B37A13F002062BD000252D48A7
:1018D000214614F0EBFE14F0E3FF284603B0BDE808
:1018E000F083218D04F1220213F0B2F805465EE781
:1018F000204613F091FC00283CD10025284603B077
:10190000BDE8F0831823CDE7D4E913010AF054FEB3
:1019100000287FF470AF94F8623043F0040384F839
:10192000623068E7184A194919484FF4AC7338F027
:1019300078FB18480721A5FB000301FB05310EA326
:10194000D3E90023FEF72CFC13490246134838F074
:1019500068FB86F31188BFF36F8F0323184602DFFD
:101960006FF08B05B3E70E48214614F09FFE14F08C
:1019700097FFC2E700DEC0E700CA9A3B0000000004
:10198000316101008153010020570500F056050028
:10199000485605008D49FD1A48580500F4560500C3
:1019A000A15301000346024A0248012137F083BFD8
:1019B0000A680500884E050008B521B1BDE8084059
:1019C0000846FFF7EFBF3BF077F8044B1860044A76
:1019D0000448BDE80840032137F06FBFE0990020BC
:1019E00029680500884E05002DE9F04100AF23F07D
:1019F00059FC47F050F86D46044647F051F888B05E
:101A00006A46184B184E4FF40078CDE90530ADF812
:101A10001C80164842F8106F4FF4E65137F04FFF24
:101A2000012CAD4618D0A31EDBB2022B11D82046E4
:101A300047F036F888B06A460D4BADF81C80CDE90A
:101A400005304FF4E65142F8106F084837F037FF81
:101A5000AD46BD46BDE8F081064A0448022137F094
:101A60002CFFF6E73B68050003000001884E0500E7
:101A70005368050082680500B0B588B002AF142233
:101A80000021381D52F00FFE03223023C7E9022344
:101A9000012560233B611349134B00950222381D39
:101AA00007F010F9044648B1104A03462946104889
:101AB00037F001FF20461837BD46B0BD6D4688B0EF
:101AC00002AA0C4B53610C4B93614FF40073938348
:101AD0000A4B42F8103F06484FF4E65137F0EFFE4C
:101AE000AD46E7E7E04E0500D84E0500B8680500B2
:101AF000884E0500DD680500F96805000300000157
:101B000010B50B46094C0A480A4A032137F0D3FEA8
:101B1000206818B107F0AAFC00232360064B0022BE
:101B20001A70BDE81040FFF7A7BF00BFE099002082
:101B3000884E050005690500E6C8002080B501292A
:101B40000E4B0CBF012200221A700D4A0D4B00AF44
:101B500088B008BF13466A460B490C48CDE9051307
:101B60004FF40073ADF81C30094B42F8103F4FF4AE
:101B7000E65137F0A4FEBD4680BD00BFE6C8002098
:101B80002A690500386905004A690500884E050084
:101B9000030000012DE9F041054686B00E461746C8
:101BA00098464FF0FF324FF0FF330D4824F08AFE85
:101BB0000C4B1868596804AC03C4094824F0F4FEBF
:101BC0000823029304AB0193BDF8303000933A46EA
:101BD0004346314628463BF03CFE06B0BDE8F08166
:101BE000D0100020E7C800202DE9F04F8DB002AFE3
:101BF0004FF0FF324FF0FF33B44824F095FFDFF889
:101C0000D082404644F040F860B9B24AB24801215F
:101C100037F053FE6FF01203B04AAF48012137F09E
:101C20004AFE08E0D8F80830AD491B68404698479E
:101C300003460028F0D1DFF8ACB2AB4A9BF80010A5
:101C4000AA4B6C468AB0002908BF134602AAA849CD
:101C500051610521C2E9061340F201331384A54BFB
:101C600042F8103F9C48DFF890A24FF4135137F030
:101C700026FE0026A54600214FF4203044F08CFCBF
:101C80009D4844F001F800286CD19C4A92480121FB
:101C900037F013FE00240021142207F11000F98010
:101CA00052F001FD01237B61BB1DBB6102250C23AA
:101CB000FD6187F82030D8F8083085485B6807F167
:101CC0001001984707F108090346002870D08C4A94
:101CD0008148294637F0EFFD002501364FF0FF32ED
:101CE0004FF0FF33874824F0EDFD874B1C805D806B
:101CF0005E60186859684A4603C2824824F054FE60
:101D0000002C4FF0640394FBF3F2B4BF644203FB76
:101D1000124411B2AEBF23B2B4FBF3F203FB124381
:101D20006C468AB002AA79485562C2E907130623B5
:101D3000C2E905064FF4435142F8103F664837F0B8
:101D4000BEFD9BF80050A546002D40F08F80704BE3
:101D50001B78002B5CD16F4A5F483346032137F074
:101D6000AAFD88E7DAF808404E21E3685046984714
:101D7000034628B1684A5848012137F09CFD89E79D
:101D80000C21236907F1100250469847034608B119
:101D9000624AF0E73B697C6903EB830303EB83034F
:101DA00042F2107294FBF2F404EB830424B272E763
:101DB000B7F906204FF4167382FB03234946C7E99F
:101DC00002231BF0B3F9034600BBD7E90221120B33
:101DD00042EA01520913C7E902214FF0FF3012F124
:101DE000004241F10001904273EB010102D24C48E4
:101DF00038F017F9BD68002D7FF76EAF4FF6FE7310
:101E00009D42D4BFADB24FF6FF7566E7454A5FE726
:101E10002946182207F1100052F045FC424B07F109
:101E20001001C7E9053928460823BB830AF0ACF93D
:101E300038B13E4A009033462748022139F000F974
:101E400019E78AB0F868B7F908107B8902AA384DFB
:101E5000C2E907130523C2E9055042F8103F4FF4C9
:101E600023511D4837F02BFDA54604E7314B186878
:101E70000028FFF600AF182301932F4B0093082290
:101E80000023494615F09CF90028FB6806DA02F0A9
:101E9000C9FD2A4A12580092294ACDE78CB0B7F9F9
:101EA0000800798902AA274DC2E90553264B5362DF
:101EB00041F29203936240F203539385234BC2E9AC
:101EC000070142F8103F4FF47351CAE79011002008
:101ED000204A05007D690500884E050094690500CB
:101EE00068670500EFC80020E36C05006D69050018
:101EF000CF69050004000001AC4A0500FD6905003A
:101F0000716A0500D0100020E7C80020E56A0500CE
:101F1000E6C800200B6B05001E6A0500486A050034
:101F20008F6A0500B36A0500184F0500396B05007C
:101F30005F6B05001C030020C89900200C00000006
:101F40008A6B0500BE6B0500F36B050007000001FE
:101F50002DE9F04186B002AF00237B60B04843F02A
:101F600093FE002864D1AF4DAF48A86243F08CFEC9
:101F7000002860D1AD4AAE48012137F09EFC6FF0D9
:101F80001204AC4AAA482346012137F094FCAA4B1C
:101F90000024AA4A6D4688B0147002AAA849A44831
:101FA000C2E905134FF400739383A64B42F8103F28
:101FB0004FF4E65137F083FCAD46002C40F005812C
:101FC000204606F0E1F90446002800F0EF809E4A22
:101FD00003460121964837F06EFC974B6D468AB058
:101FE00002AA9A49D461C2E905134FF4007313841D
:101FF000974B42F8103F8E484FF4115137F05FFC79
:10200000AD4600201037BD46BDE8F081AB689B6C43
:102010001BB13A1D04212846984740F6CD400021C7
:1020200044F0BAFA7B68002B9DD1013CEED19AE7CF
:102030007B4D1F24F6E74FF47821A86A29603A1DEA
:1020400041F096FE044630B1824A034601217848A9
:1020500037F031FC95E7BB68EB60284602232B8202
:1020600000F0B2FD044600288BD101233A1D194629
:10207000284638F027FF012802D13C79012C0CD9E1
:10208000754A6B48032137F018FC0123002465488A
:102090003C713A1D194600F041FF704D284643F04F
:1020A000F3FD48B96E4A6248012137F006FC002C66
:1020B0003FF46DAF6B4B6CE72E69D5F80880336841
:1020C000694A43F400633360D8F800300B21284696
:1020D0009847034628B1654A5548012137F0EBFB84
:1020E000E5E7D8F80430391D2846984720B9336809
:1020F00078685840C0F3C0200128D8D184F0010886
:10210000002C37D14C4B574E6D468AB002AA584925
:10211000D661C2E90513574B1362574B42F8103F83
:1021200043484FF4235137F0CAFB0123AD4619460B
:102130003C4887F804803A1D00F0F0FE002800EAD1
:10214000E0711ADA3C4A474B8AB0002C08BF1346AC
:1021500002AA4A48D36140F2013313843C4BC2E9DE
:10216000050142F8103F32484FF4115137F0A7FBF8
:10217000AD469CE73B4B304EC6E788B002AA404BC9
:102180002B48C2E905364FF4007393832D4B42F878
:10219000103F4FF4E65137F092FBAD4640F26760D6
:1021A000002144F0F9F9012000F0A6FB354A20484F
:1021B000032137F082FBFFF75FFC044600287FF421
:1021C0000CAF314824F074FC1BE708238AB07B6015
:1021D0000DEB03022D4B53614FF6ED610F23C2E966
:1021E00006132B4B136240F202439384294B42F8AF
:1021F000103F4FF433510E4837F061FB2648AD468F
:1022000023F07CF823F0E6F80446002848D0234A5F
:1022100003460121064837F04EFB124BDEE600BFB5
:1022200094490500E49900203C4A0500FE6B050036
:10223000884E0500656C0500E36C0500EFC80020C2
:10224000D76D050003000001E56D0500796F0500FD
:1022500004000001276C0500B66C050078490500F4
:10226000F06C05006D690500110001001E6D050090
:102270005E6D050000020103040000028B6D050085
:10228000BE6D0500046E0500901100201A6E050059
:10229000596E05000500000110030020636E050063
:1022A000374A3848032137F008FB0221112208463B
:1022B00014F054FF344D002828600EDA02F0B2FB0F
:1022C000324D04464359324A2E48012137F0F3FA81
:1022D00063595C42002BA0D173E7042300931222C0
:1022E000FB18292114F0A2FF40B102F09BFB274B01
:1022F0001B58284A2348022137F0DDFA1422002116
:10230000254852F0D0F9244A244B42F8043C244C8E
:10231000022021463BF001FC01281AD06E4688B00D
:1023200002AA204B1748C2E905344FF40073938387
:102330001D4B42F8103F4FF4E25137F0C0FAB5465A
:1023400028683BF0E8FB4FF0FF332B606FF015047B
:1023500063E76D468AB002AA144B0A48C2E9053405
:1023600041F29203D3614FF400731384104B42F88F
:10237000103F4FF4135137F0A2FAAD4621E700BFEA
:102380009F6E0500884E05001C0300200C00000015
:10239000CA6E0500F16E0500CC9900200200109273
:1023A000F36B05002F6F050003000001566F050059
:1023B000040000012DE9F84F8A4600AF002974D0CF
:1023C00004680E1F361BF50826F0070604EB060806
:1023D000B8F802B01BF0010B16D1E94688B06A4686
:1023E000334BCDE90531032342F8103F31485B46BA
:1023F0004FF4C25101F076F9CD468BF31188BFF34B
:102400006F8F0423184602DF2946204637F05FFA13
:10241000284434F83030C01A854217D0E94688B0D5
:102420006A46254BCDE9053A032342F8103F21487F
:1024300000234FF4C25101F055F90023CD4683F338
:102440001188BFF36F8F0423184602DFB8F80230FB
:1024500023F00103A8F802302946204637F037FA66
:1024600005EB000804EBC8035B88DA0708D4414693
:10247000204637F075FA42462946204637F0B5FA2D
:10248000A65BAE1B04EBC6035B88DB0709D43146B1
:10249000204637F065FA2A463146204637F0A5FA3D
:1024A00035462946204637F017FABD46BDE8F88F75
:1024B000FC6F0500D84D0500D36F050008B5024834
:1024C00037F0A2FD002008BD297005000E4A904299
:1024D000034602D30D4A904211D30D4A22B19342D2
:1024E00002D30C4A93420AD30B4A52B10B4883429F
:1024F00034BF01200020934238BF002070470120E4
:1025000070471046704700BF40480500C4A705004B
:1025100000000000000000000000000000000000BB
:102520002DE9F04F9BB000AF0446D7F890A0FA63B6
:102530007B638B4649B903784678807800EB83004B
:1025400020445E4522D8A0EB040B0AF0010394F866
:102550000280FB62E3783B63B8F1000F0CBF4FF0E1
:1025600000090AF0010913B11AF0020F17D1B9F1ED
:10257000000F14D1FB6B1BB17A6B5946204698476C
:102580005D4628466C37BD46BDE8F08F451C2846A1
:10259000FDF732FE013028440BF1010BD1E7CAF3FD
:1025A000C003FB612378BB629B00BB6163683B6235
:1025B000BB6A04EB8301FB6B002B7DD15D46884435
:1025C000B9F1000F1DD0A94E8B4699461BF8013B6F
:1025D00054F82300002808BF3046FDF70DFED7F859
:1025E000943001304BB1D7F898304B4582BFD7F8C3
:1025F000943023F8190009F10109C3450544E5D1D8
:10260000D8461AF0050F0AF002030CBF4FF0020B78
:102610004FF0010B0026FB633B6B9E42B1D298F852
:10262000013054F823A05046FFF750FFFA6908F133
:102630000208034602B3B86318F8021C386A37F080
:10264000C2FCBB6BC0B1EA468AB06A46884B0593B0
:102650003B6ACDE906314FF40073ADF82030854B6D
:1026600042F8103F844800234FF4125101F03AF829
:10267000023DD5460136CFE723B1FB6A2BB9A5EB66
:102680000B05F7E7FB6B002BF4D07848BAF1000F8D
:1026900018BF5046FDF7B0FDD7F8943053B1D7F8C6
:1026A000983099453FBFD7F89420431C22F8193041
:1026B00009F101090544DDE7B9F1000F6CD043468B
:1026C000102B28BF1023BB6397F8389007F1480000
:1026D0000026BA6B796251F0BFFF796A00227A62F4
:1026E0000AF0020201EB08033A610AF004027B617E
:1026F000FA6002337A6A396B8A4266D36378F96A80
:102700007B621AF0020F4B44DBB20CBF720800224E
:10271000002940F0A9801AF0040F14BF31460021AF
:102720006370A170E270B9697A6BFB6B20469847C1
:10273000051EFFF626AFBB6A23707B6A63703B6B96
:10274000E37031467A6BFB6B84F8028007F1580026
:102750009847061EC0F2C4803A6BBB69386B03EB26
:102760004203ABEB0301D7E90D23C91A7B6903EBE5
:102770004000FB6B98470028C0F2B4802E44351807
:102780004FF0000807F1480AC84577D300217A6B5B
:10279000FB6B08469847F4E6B8F1000F0CD01AF02E
:1027A000040F0ED04346102B28BF1023BB6397F8AD
:1027B000386007F158008CE7C7F838804646C146B4
:1027C0008CE7C7F838804E4688E713F8015C13F8A9
:1027D000021C54F82500BB60FFF778FE0246F8693A
:1027E000BB6838B1386AC7E9013237F0ECFBD7E98A
:1027F0000132F0B912B3FA6A72B1B9F10F0F18D8F9
:1028000009F1280107F14000014409F1010201F832
:10281000205C5FFA82F90CE0FA6852B10F2E08D8FA
:1028200006F1280107F14000721C0E1806F8105C32
:10283000D6B27A6A01327A6202335BE73A69002AD9
:10284000DBD10F2EF5D806F1280007F1400C6044CB
:10285000721C00F8101C07F1680151FA82F202366E
:10286000F6B202F8105CE4E7002159E76570050054
:102870006C70050004000001584D050018F80A307E
:1028800087F8473054F823B0D7F8943033B3D7F8EB
:102890009830984522D2D7F8943033F818607A6B84
:1028A000FB6B012107F14700984700281ADB0E4B0C
:1028B0000544BBF1000F08BF9B4626B95846FDF7FB
:1028C0009BFC461CB6B27A6BFB6B31465846984768
:1028D000002807DB054408F1010855E70026DEE77C
:1028E00035464EE605464CE665700500014B18601E
:1028F000704700BF4003002008B50446EFF3118382
:10290000202383F31288BFF36F8F1DF071FC2046E4
:1029100002F08CFC024837F077FB38F0E4FDFCE76E
:10292000207105002DE9F047858B044628071746DE
:102930000CD501290CBF45F0100545F02005A583F5
:1029400087F31188BFF36F8FBDE8F087022905F088
:10295000070540F09480204637F0F6FD052864D83E
:1029600001A353F820F000BF412900007F2A000096
:102970002B2A0000ED290000072A0000192A000078
:1029800001F007035A1F012A1FD8002221F0070176
:10299000062BD4F8008089B2C4E9002209D143464D
:1029A00003E0E28B0132E2831B68002BF9D141F096
:1029B0000201A183204637F0C7FD4FF0000900282F
:1029C0006DD041F02001A18369E0042B0AD121F0F0
:1029D000070189B2A183204637F0B6FD10B141F05E
:1029E0002001A1834FF00008C14658E02369D3F8C5
:1029F0000090A38B23F0070343F00603A3834FF05B
:102A0000000846464BE02369D3F80490A38B23F0DB
:102A1000070343F00403F1E72369D3F80890A38B7D
:102A200023F0070343F00503E8E74FF00008C14631
:102A3000E7E7012243F00803A38387F31188BFF37C
:102A40006F8F002A3BD1B8F1000F4AD1B9F1000FC6
:102A500002D02D492046C847EFF31187202383F386
:102A60001288BFF36F8FA38B23F008039BB2A3835D
:102A7000D9063FD523F01002A28303F00705A6690B
:102A8000A18B002EBFF67CAF0023D4F8008021F08C
:102A90000701C4E9003341F00101A1839946A38BEA
:102AA00003F0070AAA4502D0A268002AC1D1B8F1F2
:102AB000000F02D1B9F1000FDAD00022BAE7A16805
:102AC0000029C0D00D680029BDD04F68334652465A
:102AD0002046B8471DB12B6829461D46F3E72B4613
:102AE000FAE74146334652462046D8F8008037F090
:102AF00057FDA8E79A067FF523AF23F02002A283B3
:102B000003F0070527E700BFCDA5030037B504464E
:102B10000821C06A124D37F0D1FF00234FF6FF7233
:102B2000ADF804306368ADF800208DF80620E26847
:102B300019182B401344181A60606846ADF802104B
:102B400037F014FF6946204637F0D7FF211D204695
:102B500037F0E4FE63682B40A36003B030BD00BFD4
:102B60000000FFFF2DE9F7430F4681460821C06AA8
:102B7000144D37F0A3FF3C68241A80463C6004EAF9
:102B80000506B4421CD3A0B210B903B0BDE8F0836F
:102B900008236A462146484637F087FE0028F4D1CC
:102BA0006946A0B237F076FF38B1BDF80230BDF803
:102BB00004203C602E4013441E44A4EB0804E0E7CC
:102BC0000020E2E70000FFFF2DE9F04704468AB04D
:102BD00000F11407384643F053F9A06A8368DB68B4
:102BE0009847E06250B99F4A9F48012137F0A3FE01
:102BF0006FF0150528460AB0BDE8F087A06A836823
:102C0000DB6898470368013B1F2B01D9974AEBE724
:102C1000E368B3F5803F08D94FF4803200929248C0
:102C2000934A012138F00CFAE2E7A06A216807AA6A
:102C300041F09EF808B18F4AD6E7E5682DB1089BB0
:102C4000B5FBF3F203FB12550DB18B4ACCE7238A97
:102C5000012B01D8894AC7E7E36A029593F80580FA
:102C60004FF0FF334FF0FF32384623F02BFEE06A7F
:102C7000082137F023FFA9460646238A1FFA85FA62
:102C8000534544D8238A4B4500F02D8153450BD141
:102C9000029908234246891B204637F014FE18B9D2
:102CA00002A9204637F03AFE02A92046FFF75AFF54
:102CB0000546002840F0B280029961604FEA114950
:102CC0004FEA0949C4F80890A3688B420DD808233D
:102CD00003AA204637F0E9FDB8B903AB13F8012B7E
:102CE000904532D101300828F8D1636802A96FF30A
:102CF0000F032046029337F011FEE3680299424623
:102D0000204637F0E0FD00283CDA054686E0E16821
:102D10002B04891B13FA81F14246082320460291B5
:102D200037F0D1FD78B102A9204637F0F7FD09F15F
:102D3000010902990823424620461FFA89F937F013
:102D4000C2FD00289ED0013597E7A08803A937F07F
:102D5000A1FE626810B9911B6160B5E7BDF810A0D3
:102D6000BDF80E10E06AC4F80890514437F0A6FE92
:102D700048448242A060EED1BAF1000FEBD06FF070
:102D80001C054BE000F08B8063684FF6FF7906EB83
:102D90000308E368CDF808801FFA88F29B1B9A426B
:102DA00023D3374A3048032137F0C5FD61682046F8
:102DB00037F0C3FD014680BB6368324AE0681340C8
:102DC0000344A3EB460363601340A360204637F03F
:102DD00035FF002899D1E368A288A3EB46039A4205
:102DE0001CD1204637F0A6FE8FE7082305AA4146EE
:102DF000204637F05AFD002887D105A91FFA88F030
:102E000037F048FE38B1BDF814304B4503D1BDF85A
:102E10001830002B6AD0B044BBE70D46384623F08B
:102E2000C3FD002D7FF4E6AE0123A374E268238A7C
:102E30000D4800920321144A38F002F963689AB2EF
:102E400000920948114A1B0C032138F0F9F8A368D5
:102E50009AB2009204480E4A1B0C032138F0F0F895
:102E6000C8E600BF68710500804D05008A71050045
:102E7000A7710500D0710500E8710500FC7105001F
:102E80006E7205000000FFFF1F720500367205001C
:102E900048720500E26AA36812681344A360D4E98B
:102EA00001318B4208D95B1A4246204637F00BFDB0
:102EB0000028FFF62AAFEDD16168E36801EB460216
:102EC0009A4288D1124BA06801EA0302904282D054
:102ED000204637F032FD00287FF417AF62680C4BB4
:102EE0001A40A26077E76FF02C0597E7094A0A4875
:102EF000032137F020FD636802A96FF30F0320461A
:102F0000029337F00BFD0299204637F016FD60E77B
:102F10000000FFFF59720500804D05002DE9F04FBC
:102F20001E46837C95B004468946904653B96B4A49
:102F30006B48012137F0FFFC6FF00C05284615B0F7
:102F4000BDE8F08FC26A0821104637F0B7FDB1B274
:102F50000190104637F0B2FDE368019AA3EB8203BB
:102F600083420746C0F0B6801EB1B8F1000F00F0F2
:102F7000B180D4F804A0CDF810A005AA04A9204679
:102F800037F012FE05460028D8D1BDF814304B4565
:102F900007D0DDF810A063685345EED1002E39D17B
:102FA000CCE705A91FFA8AF037F074FD0028F0D0AD
:102FB000BDF8183066B3B3422CD14FEA1A43BDF8BE
:102FC00016A0CDF800801B049A44E36A1B685B429C
:102FD00003F020030293B346029B5B4528BF5B4688
:102FE0000CAA51462046039337F05FFC00284DD1D0
:102FF000039B00981A460CA951F06DFB50B9039B36
:10300000009ABBEB030B1A449A440092E4D195E773
:10301000002B93D0002F3CD1BA4604F1140B4FF093
:10302000FF324FF0FF33584623F04CFC238A9D4279
:103030004DD0D4E901320AEB02018B422ED39BB270
:1030400063B3FF23ADF81E20002118220CA88DF8D1
:103050002230ADF81C90ADF8206051F024FB0CA993
:103060002046CDE90E8637F033FD074648B907A85C
:1030700037F07CFC07A9204637F03FFD074600B932
:103080003746584623F090FC3D4657E7C2DC0546DC
:1030900054E7019B1F441FFA87FABEE72046FFF75B
:1030A00035FD3DB9ADF82490CDF82880ADF82C6001
:1030B0008DF82E5009A9204637F0C0FD074600289C
:1030C000DFD19DF82E300135002BAFD0D8E76FF05F
:1030D0001B07D6E76FF0150530E700BF54710500F8
:1030E000804D05002DE9FF471E46837CBDF83090DA
:1030F00004460F4690464BB92848294A012137F02B
:103100001AFC6FF00C0004B0BDE8F087C06A08211B
:1031100037F0D4FCE368A3EB4003B3423AD36568CD
:1031200001954FF0000A02AA01A9204637F03CFDA4
:103130000028E8D1BDF80830BB4206D102A9A8B2E8
:1031400037F0A8FC50441FFA80FA019B62689A424B
:1031500019D0CA4515D9BDF80C30C3B1CA4516D32C
:10316000BDF80A10B3426FF30F0528BF334642463D
:103170002944204637F099FB0028C4D1BDF80C0043
:10318000C1E71D46CFE7BDF80830BB42E3D06FF082
:103190000100B8E76FF01500B5E700BF804D0500EE
:1031A000547105002DE9F047DFF8548004460746C6
:1031B0004FF0010994FAA4F5B5FA85F509FA05F37B
:1031C0002E0108EB05156FEA030A24EA03042B7BA2
:1031D00063B158F806301B696BB946440422736822
:1031E0002846196807EA0A0737F0A7FE002CE1D144
:1031F0003846BDE8F087284698470028F6D1ECE726
:10320000904E050010B50F490F4888B0002243F0DA
:103210007EFA00220023CDE9062300240E23CDE907
:103220000334CDE90144094B094900944FF440723D
:10323000084824F02BF80849064843F0ABF820462C
:1032400008B010BD5D320000281A00208D35000046
:10325000B0E20020981500209C720500014823F080
:1032600027BC00BF481100202DE9F04780462148C7
:103270000F4637F042FE0646002833D00025284688
:10328000BDE8F087237B83B12368DB680BB1204660
:103290009847636883F8069023681B69D3B963680D
:1032A00004221968204637F048FE01361034544590
:1032B000E8D3B8F1000FE2D0002DDFD02846FFF7A9
:1032C00071FF0546002FF7D000214FF4A47043F0A2
:1032D00063F9F1E7204698470028E0D009FA06F3A1
:1032E0001D43E2E7044CDFF814A005464FF0010946
:1032F000DDE700BF249A0020904E0500A04E050097
:10330000014B53F820007047544F050008B50346A1
:1033100008462BB1044A136000F056FC002008BD9B
:103320006FF01500FBE700BF4403002010B5044C0C
:10333000237813B9034823F0BBFB0123237010BD8E
:10334000F0C800204811002010B504460B4837F0A3
:10335000D4FD5CB1BFF35B8F094B53E8001F01390B
:1033600043E80012002AF8D1BFF35B8F054824F030
:10337000A5FD0548BDE8104023F09ABB1C9A00202B
:10338000209A0020281A002048110020064BBFF385
:103390005B8F002253E8000F43E800210029F9D198
:1033A000BFF35B8F704700BF1C9A002070B5FFF71A
:1033B000EDFF084C084E0546B44200D370BD63686B
:1033C0005B792BB123685B6813B129462046984787
:1033D0001034F1E7904E0500A04E050010B5044CE6
:1033E0000449204636F02AFF034B1C6010BD00BF85
:1033F000840E0020404F0500149A00200D4A0E480C
:10340000002310B513700D4A13600D4A4FF40041AC
:103410001360FFF77BFFFFF7E1FF0A4B0A491846ED
:103420008B4200D310BD1A1A5C681211013222714E
:103430001033F5E7F1C80020F7AE03001C9A002016
:10344000209A0020904E0500A04E05000146002263
:103450000148002336F013BF840E0020014836F0E7
:10346000AABF00BF840E0020024B0146186836F048
:10347000FDBF00BF149A0020014837F032B800BFEA
:10348000840E002070B52A4B1B78002B4ED0FFF71E
:10349000E5FF0446002846D1264B274D1B68002B2C
:1034A00019DD43F0ECF84FF47A76A0FB063206FB08
:1034B0000121D5E90020DB0B43EA41439B1A4FEA87
:1034C000D13140F2E93261EB0001934271F1000128
:1034D00001D3FFF76BFFD5E9003213F57A7342F1A0
:1034E0000002C5E900320CB3BDE87040FFF7C4BF6D
:1034F0006B685B7923B12B6821461B682846984787
:103500001035B542F4D32046FFF7AEFFBFF35B8F13
:103510000A4B53E8001F013943E80012002AF8D192
:10352000BFF35B8FB8E7064D064EEAE7002070BD9B
:10353000F0C800201C9A0020201A0020209A0020A9
:10354000904E0500A04E050070B50D4D297861B96B
:103550000120FFF789FE0B4C0B4EB44206D3FFF758
:1035600091FF0028FBD101232B7070BD63685B794C
:103570001BB1236820469B6898471034EDE700BFD5
:10358000F1C80020904E0500A04E050000212DE955
:10359000F8430846FFF768FE044648B340F2676800
:1035A0004FF0000901F03EFA1A4B1B4A1B581360FA
:1035B00033B11A4B1B68092B02DD194823F078FA46
:1035C000184F002544B12046FFF7ECFD044618B91A
:1035D0004FF0FF384FF0FF39FFF754FF064628B988
:1035E000B5B90F4842464B4623F09EFA3546E9E707
:1035F0004FF0FF384FF0FF39D4E72B689B691BB1C0
:1036000000221146284698471035BD42F5D3E8E719
:10361000054DFAE708000000189A0020209A0020C3
:1036200048110020A04E0500904E050013B5184823
:1036300037F063FC174B1B7873B1EFF31184202331
:1036400083F31288BFF36F8FFFF71CFF84F3118899
:10365000BFF36F8F02B010BD0F4B1B68002BF9D06A
:1036600050B900220023CDE900230C484FF400425A
:10367000002324F0FDFBEDE70928EBD1074824F0F7
:103680001DFC074802B0BDE8104023F011BA00BF8E
:10369000209A0020F1C80020189A0020281A002043
:1036A0004811002010B5064B1B6804469847214678
:1036B000A060044836F060FEBDE81040FFF7B6BFDA
:1036C00044030020840E0020044A054B9B1AB1EBF2
:1036D000D30F34BF52F8310000207047E04C050092
:1036E000904E05002DE9F04F8FB004AFC1F34A268C
:1036F000B8600D4690467B600C0D002E61D04FF0F7
:1037000000090A234FF0040B07F1140AFE60C7E911
:103710000799C7F824900093CDF808B0CDF804A01D
:1037200007F11C03F9684A464046FEF7F9FEB0F57A
:10373000006F03461CD36C468AB0D8F8041004AB63
:103740002448C3E9050140F2FF71D9611A464FF4DC
:1037500000711984204B42F8103F20484B464FF42B
:103760001251FFF7BFFFA5462C37BD46BDE8F08FCD
:10377000C0F30A0604F11700184420F0070080087F
:103780003B60FFF763FE66F35325044680B13B6858
:10379000134A00F11001C7E90839F961CDE901AB1D
:1037A0000A230093F96807F11C034046FEF7B8FEB0
:1037B00066F353257B68B9682A46204637F0DDFB5F
:1037C000D2E704F1170020F007008008FFF73EFE63
:1037D0000446EDE7B172050004000001904D0500BC
:1037E0004DAF03002DE9F04F87B0DDE9127ADDE936
:1037F000106B0546884614469946BFB11021CDF896
:1038000000A03B465A460020CDF814A036F002FA3C
:10381000B0F5006F01460BD3194A1A4840F2FF7306
:10382000022107B0BDE8F04F37F000BC39463846FA
:1038300004F0070305F00704E40044EA831444EAB3
:10384000402444EA065406F11700084420F007001B
:1038500080080391FFF7FAFD054640B13FB1039997
:10386000CDF800A03B465A46103036F0D3F94B460F
:1038700022464146284607B0BDE8F04F37F07DBBF1
:10388000F0720500904D0500406820B1034BC01A4E
:1038900040F3CF0070474FF0FF307047E04C050019
:1038A0000EB403B503AB014653F8042B044801934F
:1038B00001F016FA02B05DF804EB03B0704700BFE8
:1038C0008FB00300CA0605D48B064CBF02490349DA
:1038D000FFF7E6BF704700BF297305002873050096
:1038E0002DE9F04F8BB09946179B0793DDE918A39C
:1038F0009DF858801A9F069204460D460593B8F12C
:10390000000F00F0BF80844B13F80830089307F4D1
:103910008073099337F00FFB07F0020B0246002873
:103920007DD07E492046FFF7BBFF0646BBF1000F66
:1039300008D017F0440F74D179492A462046FFF782
:10394000AFFF064407F0010353B1764B764953F8B5
:103950002820764B2046002A08BF1A46FFF7A0FF12
:1039600007F48073002B07F0080318BF4FF000091D
:10397000002B00F082806E4B6E4953F828202046C1
:10398000FFF78EFF0546069B2BB16B491A46204672
:10399000FFF786FF0544B9F1000F0DD0089B002BFF
:1039A0006ED06649664BB8F1040F18BF19464A46F7
:1039B0002046FFF775FF054462483544079B1BB15D
:1039C0006149224636F0CEFA059B002B00F090802C
:1039D000DDF814903946B9F1100F204628BF4FF09A
:1039E0001009FFF76FFF0026B54252DC0026334670
:1039F0001AF8032055492046FFF752FF0136102ED2
:103A00004DD0710703D152492046FFF749FF4E457B
:103A10003346EDD34F492046FFF742FFEEE7064617
:103A200084E74D4B186800288BD04C4B4FF47A7BC1
:103A30001B68B5FBF3F54FF46163B5FBF0F100FBD8
:103A400011550BFB05F54FF03C0CB1FBF3F203FBFA
:103A50001211B5FBF0FEB1FBFCF300FB1E550CFB95
:103A600013110BFB05F50091B5FBF0F53C49CDE9D1
:103A700001E52046FFF714FF63E707F0080582E73A
:103A80002F4994E7B9F1010F0CBF2E483548454640
:103A900094E72F492046FFF703FF0136A4E7324998
:103AA00020460026FFF7FCFE33461AF803202F4974
:103AB000A2F120035F2B28BF2E222046FFF7F0FE45
:103AC0000136102E0DD0720703D121492046FFF791
:103AD000E7FEB1453346E8D81D492046FFF7E0FE32
:103AE000EEE7059BB3EB0903CA4405937FF470AF7F
:103AF000B8F1000F0AD0FB0704D50C4A0A4920464A
:103B0000FFF7CEFE39462046FFF7DCFE20460BB01D
:103B1000BDE8F04F37F0AEBA42A305003973050097
:103B20003D730500644F0500728505002B73050089
:103B3000784F050063730500697305003073050055
:103B4000347305008FB00300E14C00006D73050075
:103B500075730500737305002C9A0020289A0020C5
:103B600047730500C5B0030077730500797305003E
:103B700073B542F20F738B4228BF0B4605680F4A9C
:103B800004460521684635F0A5FB63680C495B686F
:103B900006460B22284637F05FFA636832466946CC
:103BA00028465B6837F058FA636806495B681B2251
:103BB000284637F051FA02B070BD00BF357B0500D2
:103BC00036A305001AA30500074A002101239042ED
:103BD00006D8064A01B901231360054B18607047E7
:103BE00040085B000121F2E740420F00289A0020C4
:103BF0002C9A0020F8B5074F0D4604464618B442EB
:103C000001D12846F8BD14F8011BBB6801485B6868
:103C10009847F4E794490500014B03600020704782
:103C2000C04F050070B5104B1C680D46B4B10F4B6A
:103C3000196800238B4202DB6FF0010070BD224641
:103C400012F8106B864202D001331446F2E7E068A6
:103C500042F01AF828B12C600020EFE76FF00C005A
:103C6000ECE76FF01200E9E750030020C04F0500B9
:103C700010B588B0436802938368C068CDE9033209
:103C80000A680023CDE906230C4601AA04490593DE
:103C900040F072F8079808B9059B236008B010BD82
:103CA000BFB10300B0B582B03F49404802AF37F022
:103CB000F2FD0446A8B16D468AB002AA3C4B53619E
:103CC0003C4BC2E906344FF4007313843A4B42F87C
:103CD000103F3A4800234FF41151FFF703FDAD4662
:103CE00032E03749314837F0D6FD044630B16D46F1
:103CF0008AB002AA2E4B5361324BE2E732492B487D
:103D000037F0C9FD044630B16D468AB002AA284B8F
:103D100053612E4BD5E72E49244837F0BCFD0446AD
:103D200030B16D468AB002AA214B5361294BC8E7D6
:103D30000146294A1D4802F08DFC044638B1274A45
:103D40001E48012137F069F92046BD46B0BD024644
:103D500023491648012302F073FD044608B1214AA5
:103D6000EEE701230093014602231048EF2237F0CB
:103D70000FFD04460028E7D10C4801F0C1FA0446C3
:103D800030B16D468AB002AA094B5361164B98E7D1
:103D9000064801F0F5FA04460028D5D06D468AB0F1
:103DA00002AA124BF1E700BFC803002074140020E0
:103DB000B6730500D373050004000001604D0500D3
:103DC000B0030020E773050098030020FF7305008F
:103DD00080030020127405005403002020740500A5
:103DE0003C7405004674050061740500707405009C
:103DF00010B5DFF824C086B04FF42814CDE904C410
:103E00000824029404AC0194BDF82040009439F0D9
:103E100020FD06B010BD00BF180028002DE9F041BC
:103E20000C4B1C6805460E4617467CB100F0EEF8B8
:103E300063682046D3F8108032463B462946C04787
:103E4000044600F0EDF82046BDE8F0816FF0010473
:103E5000F9E700BF5C9A002000230360044B5A6816
:103E600012B9C3E90000704710605860704700BF86
:103E7000609A0020014B1860704700BF5C9A0020D8
:103E80001FB5CDE90101039200F0C0F8074B1C6893
:103E900024B900F0C5F8204604B010BD6368204680
:103EA0001B6801A998472468F2E700BF609A0020C8
:103EB000024B0022C3E90022704700BF609A002035
:103EC000024B0022C3E90022FFF7F2BF689A0020EC
:103ED0002DE9F74307460C4609B100230B601F4D3F
:103EE000DFF87C9000264D450FD31E4B1D6885B32F
:103EF00055F8188C01AA41463846183D37F0CDF9DF
:103F000010B3D6B914BB2E461EE0D5F8008001AA26
:103F10004146384637F0C1F950B116B954B92E466A
:103F200006E031680022404637F0B7F90028F5D1A5
:103F30001835D8E7019B2360F1E73168002240463D
:103F400037F0ABF90028DDD1AD69D0E7019B2360E4
:103F5000D9E7304603B0BDE8F08300BFA04E0500AE
:103F6000A04E0500689A00202DE9F04784B002AF0A
:103F70000446D7F8289078600D4616469846B9F161
:103F8000000F07D0D9F8001031BBD9F804A0BAF15E
:103F9000000F28D1391D2046FFF79AFF08B3D0F84B
:103FA0000C907868434632462946C847C8B16D46EA
:103FB0008AB002AA124BD061C2E905344FF40073F3
:103FC0001384104B42F8103F0F4800234FF4115157
:103FD000FFF788FBAD4604E03A1D37F05EF9002894
:103FE000D3D1002007E0D9F8083000937868434621
:103FF00032462946D0470837BD46BDE8F08700BFA6
:104000009874050004000001E84D050003484FF0D6
:10401000FF324FF0FF3322F055BC00BFBC10002030
:10402000014822F0C1BC00BFBC10002038B5094DCA
:10403000FFF7ECFF2B785BB9FFF742FF00F06AF85F
:10404000044608B901232B70FFF7EAFF204638BD6C
:104050000024F9E7F2C900202DE9F043048F013470
:1040600099B006460F46A4B200F10808651EADB22D
:10407000B5F5004F4AD04A2305AA2946404636F0F6
:1040800021FF04F57F543F34A4B281462146012329
:104090000DF10B02404636F015FFB9F1000F014655
:1040A00010DC002810DC338FAB4209D132466B1E86
:1040B00022F8383F4FF4004102234046FEF72EFF1E
:1040C0002C46D3E7002808DC2946404636F0F6FEA9
:1040D0002146404636F0F2FEE5E7B9F1490FEFD848
:1040E00009F160030DEB0309002309F84C3C084A71
:1040F000009703AB05A8CDF80C80ADF81040FFF792
:1041000033FF0028DCD019B0BDE8F0830020FAE7C7
:10411000E7B203007FB50123694603200193FFF74F
:1041200081FD044660BB02AA01A9032037F069F8AB
:10413000044610B110F10C0F22D10399B1F5803F64
:1041400023D2009A002394681846084484421AD364
:104150000133082BF9D10E4D69612B835368AB6095
:104160002846D368EB6337F056F9044640B9094E48
:104170006E602846FFF770FE28466E60FFF77AFEF5
:10418000204604B070BD9BB2E5E76FF02004F7E76E
:10419000709A00209050050080B505460E461746DF
:1041A000984623F08FFB034600F03CFCDFF81890A4
:1041B000044649F80030424630463946A84754F88C
:1041C000090000F0CFFB00BF0800000038B50C4626
:1041D000154637F055F9034B43F8305003EBC00355
:1041E0005C6038BDE40C002008B50348034A002198
:1041F000121A37F046F908BD10150020B0DA002079
:104200000748084A084908B5121A37F03CF9074828
:10421000074A0849BDE80840121A37F034B900BF10
:10422000000000200C150020C4A70500000000209D
:1042300000000020C4A705002DE9F047064600AFA6
:104240000C46002936D0E9468AB0D1E90012A368AD
:104250006D462148E8464FF0050ACDE90501CDE954
:10426000072348F810AF1D48424600234FF4215160
:10427000FFF738FACD46D4E903126369AD46184812
:10428000C5F810A0C5E90501C5E9072313480023B7
:1042900042464FF42151FFF725FACD46E369114A12
:1042A0000E48012136F0C2FEA3690F4A0B480121D6
:1042B00036F0BCFE012E07D1EFF305830B4A074809
:1042C000103B314636F0B2FE2146304622F01AF855
:1042D000BD46BDE8F08700BFCC740500D04D050099
:1042E000FB7405002A750500397505006775050022
:1042F00030BFFFF7FDBF00BF2DE9F0410B4EDFF8E7
:10430000308006EB0807CC1B05463246094920469B
:1043100050F0A2F9A01942460021083C50F0C3F920
:10432000EC6707F10800BDE8F08100BF0000000065
:1043300008000000A04E050010B5204C204921487F
:1043400037F0AEF8A36A990136D51E481E4937F0FA
:10435000A7F81E20A36ADA0104D51A481B4937F0D2
:104360009FF81F20154CA36A1B0304D51548184954
:1043700037F096F82120A36A590304D5114815494E
:1043800037F08EF822200D4CA36A9A0304D50D480D
:10439000114937F085F82320A36ADB0304D50948C7
:1043A0000E4937F07DF82420044A936A6FEA0343EC
:1043B0006FEA1343936210BD1D20CBE700ED00E0D0
:1043C0007A750500D04D050092750500A5750500AC
:1043D000BF750500DD750500027605001C76050039
:1043E00070B506460D46294C29492A4837F058F839
:1043F000A36ADB0647D52748274937F051F8112033
:10440000A36A1C0704D52348244937F049F8122031
:104410001E4CA36A990712D521491E4837F040F86F
:10442000636BA26A120609D51E4A1A48012136F0AA
:10443000FDFD1EB1A36A23F08003A3621320134C79
:10444000A36ADE0704D51348174937F029F814206A
:10445000A36A9C0604D50F48144937F021F81520AB
:104460000A4B9A6AD10658BF9A6A9A6A920642BF64
:104470005A6A22F400525A629A6A42F0FF029A6221
:1044800000232B7070BD1020BAE700BF00ED00E0E4
:1044900047760500D04D05005D7605009076050055
:1044A000A3760500BB760500D1760500F076050001
:1044B00070B506460D46284C2849294836F0F0FFCD
:1044C000A36AD9043CD52648264936F0E9FF1720CF
:1044D000A36A1A0504D52248234936F0E1FF1820C3
:1044E0001D4CA36A9B0512D51D48204936F0D8FF04
:1044F000A36BA26A100409D51D4A1948012136F0A0
:1045000095FD1EB1A36A23F40043A3621920124C47
:10451000A36A590504D51248164936F0C1FF1A207E
:10452000A36ADA050ED50E48134936F0B9FF1B20F1
:10453000094A936A43F47F43936200232B7070BD52
:104540001620C5E7A36A9B04F2D505480B4936F04F
:10455000A7FF1C20ECE700BF00ED00E01F7705007F
:10456000D04D0500357705009076050046770500AB
:104570005F770500747705008F770500F0760500FA
:10458000F0B56A4B8BB00446586800AFC0F308031F
:10459000002585F31188BFF36F8F02F07F46B6F1D7
:1045A0007F4F07D102F00C06082E0ED160496148FA
:1045B00036F076FF60495F4836F072FF002108460A
:1045C000FFF73AFE2C37BD46F0BD16074CBF0C4630
:1045D0000125002CEED00022FA71DA1E092A00F221
:1045E0008580DFE802F0057B7E7783838383838188
:1045F000524950484D4E36F053FF0023FB71F36A89
:104600009A0705D54E494B4836F04AFF00232DE066
:10461000F36A002B01DA4B49F5E7F36A5B00F5D545
:104620004949444836F03CFF7369A26943F48073FA
:104630007361BFF34F8FBFF36F8F32F8023C726923
:1046400022F480727261BFF34F8FBFF36F8F03F458
:104650007F42B2F55F4F27D1DBB2022B24D1236812
:104660003A4A3448012136F0E1FC2368FA79002AFD
:10467000A8D107F1080604F1200C206861683246D1
:1046800003C2083464451646F7D17A6A002D4AD031
:10469000C2F3080121B96FEA52226FEA42227A621C
:1046A00007F1080118468BE7204B9A6AD2B222B173
:1046B000F91D0120FFF794FE0EE09A6A12F47F4F75
:1046C00004D0F91D0120FFF7F3FE05E09B6AB3F566
:1046D000803F9BD3FFF730FE0346C7E7F91D00205C
:1046E000E8E7F91D0020EEE719498CE7194A1A4955
:1046F00010F4F87F6E468AB018BF11466A46103B28
:10470000079316484FF40073ADF82030144BCDE9F1
:10471000050142F8103F074800234FF41151FEF7FE
:10472000E1FFB54672E76FF30802B8E700ED00E07D
:10473000D5770500D04D0500007805003C780500D0
:10474000537805007478050082780500A17805008B
:10475000BD780500BC770500A7770500E178050066
:1047600004000001044B5A6942F010025A615A6970
:1047700022F008025A61704700ED00E0EFF3088074
:10478000EFF3098101B57246FFF7FAFE01BD00BFE4
:104790000B4880F308881FF047FB202080F3118826
:1047A00008484FF40061401880F30988EFF3148043
:1047B0000221084380F31488BFF36F8F00F068F87C
:1047C00090260120501301201EF0040F0CBFEFF3C0
:1047D0000880EFF30980816911F8021C0229FFD0DB
:1047E00001B5724636F051FE01BD00BF0028ACBFD6
:1047F00000F16040064B4FEA4111ACBF00F561404B
:1048000000F00F00C9B2B4BF195480F8001370470C
:1048100014ED00E040B2002807DB044A41090123FF
:1048200000F01F00834042F82130704700E100E0B3
:1048300040B200280CDB4309064900F01F0020337A
:104840000122824041F82320BFF34F8FBFF36F8FC7
:10485000704700BF00E100E0054B420900F01F0077
:1048600053F82220012303FA00F01040704700BFE4
:1048700000E100E0044B054A23F07F039360BFF39F
:104880004F8FBFF36F8F70470000000000ED00E016
:1048900008B5FFF7EFFF0B4AD2F8883023F4700316
:1048A000C2F88830EFF3148323F0040383F31488F1
:1048B000BFF36F8FFFF798FCFFF7A2FC00F094F8AE
:1048C00021F05AFE00ED00E042F8203C009B42F847
:1048D0001C3C0A49019B42F8183C029B42F8143CDC
:1048E00021F001014FF0807342F8043C42F8081CAB
:1048F0000023203A0265C0F88030704799410000DB
:1049000000B50B4B98600B4B1546C26F1A600E46F4
:104910002C4686F309880020034B98472046002147
:1049200000220023014C2047D9B403009941000024
:10493000E4C50020B09A0020014B10221A61704794
:1049400000ED00E0054B5A699B689A421FBF044A7C
:10495000536843F080535360704700BFE4C50020A4
:1049600000ED00E0084B9B6883420BD1EFF3058319
:1049700043B1064B5A6842F080525A605A6A22F498
:1049800000425A6241F00BBDE4C5002000ED00E09A
:1049900012498A684FF030001044EFF3098C80E828
:1049A000F01F202080F31288BFF36F8F0C4F4FF061
:1049B00000664A698A603E60D06F0A4C2060D2F877
:1049C00080000023C2F8803080F3118802F13000AB
:1049D00090E8F01F8CF3098870470000E4C50020C0
:1049E00004ED00E0B09A0020044800232021C21802
:1049F0000133302B82F80013F9D1704700E100E059
:104A000008B5EFF30583064A103B02EBC30152F8E9
:104A1000330049688847BDE80840FFF793BF00BFEF
:104A2000E40C00200148006870470000B09A0020A4
:104A3000024B034A0348012100F07AB80000042029
:104A400000000020AC50050008B503461048D0F81F
:104A50009020C2F30722013A934207D90D480E4A2B
:104A6000012136F0E3FA6FF0150008BDC0F8983068
:104A70000A6822F01F021A4342F01002C0F89C207C
:104A80008A6842F00102C0F8A0201846EDE700BF96
:104A900000ED00E0A84D0500F8780500F0B50E46E1
:104AA00085B01F4604460025B5420DDA606810B394
:104AB00097B1431E18420AD0104A11482B460121D3
:104AC00036F0B4FA6FF01502104605B0F0BD1F289D
:104AD000F2D921680B42EFD12368019336F01FFD14
:104AE000A36801A90343D0B20393FFF7ADFF10F110
:104AF000160FE7D0421C01350C34D5E71E790500AE
:104B0000A84D0500044B0522C3F89420BFF34F8F36
:104B1000BFF36F8F704700BF00ED00E0BFF35F8F02
:104B2000024B0022C3F89420704700BF00ED00E064
:104B300010B5034C01232278FFF7B0FF207010BDA1
:104B4000F3C900202DE9F0435F486049D0F8903068
:104B50000C68C3F307239C4285B000F2B280FFF7D4
:104B6000DDFF49680022944201F10C011AD1584F2F
:104B7000584D3C706846FFF74FF8574C574E8146EA
:104B80004FF00008C14520D13B784F490020D1F8B3
:104B90009020C2F307229342C0F28D80FFF7B2FF4C
:104BA000002052E0C0F8982051F80C3C23F01F037D
:104BB000134343F01003C0F89C3051F8043C43F019
:104BC0000103C0F8A0300132CDE7009800EB0811D6
:104BD0004FEA081CCB682340B3F5000F4ED00BD82A
:104BE000B3F5001F34D0B3F5800F3CD0B3F5801F70
:104BF00016D008F10108C5E7B3F1007F46D0B3F144
:104C0000805F4BD0B3F1807FF3D150F80C308868CF
:104C10004A6836F084FC40F0885040F4801009E087
:104C200050F80C3088684A6836F079FC40F08850BB
:104C300040F43020039001A93878CDE90123FFF733
:104C400003FF002833DA6FF0150005B0BDE8F083EC
:104C500050F80C3088684A6836F061FC40F08850A3
:104C600040F40020E6E750F80C3088684A6836F0D7
:104C700056FC40F0007040F40030DBE750F80C3098
:104C800088684A6836F04BFC2843D3E750F80C306C
:104C900088684A6836F043FC3043CBE750F80C3064
:104CA00088684A6836F03BFC40F08850E3E73B7880
:104CB00001333B709DE7C1F89830C1F8A000013383
:104CC00065E74FF0FF30C0E700ED00E0B8500500A9
:104CD000F3C90020000004110000F0FF00000410E0
:104CE000F0B587B007460E461446002110226846EC
:104CF0001D464FF0D8FC02238DF802302A46054BA2
:104D0000019321466846CDE9047634F081FB07B073
:104D1000F0BD00BF3FB5030008B5024834F0BAFA51
:104D2000FEE700BF5379050008B5024B1B689847A2
:104D3000002008BDB49A0020034B044A1860937801
:104D400043F0020393707047B49A0020F8030020E8
:104D500008B50649064821F00701C1F1005202F5E5
:104D6000802234F016FF002008BD00BFCF5A01207A
:104D7000B89A002003484FF0FF324FF0FF3321F084
:104D8000A1BD00BF08040020014821F00DBE00BFF6
:104D90000804002038B50546FFF7ECFF08482A460E
:104DA000082134F085FE044628B925B1FFF73AFE04
:104DB000044B0C221A50FFF7E7FF204638BD00BF16
:104DC000B89A00200C00000010B50446FFF7D2FF8F
:104DD00021460348FDF7EEFABDE81040FFF7D4BFC7
:104DE000B89A002070B5A0FB015434B92846FFF7EB
:104DF000D1FF064640B9304670BDFFF713FE054BA4
:104E00000C221A500026F6E72A4621464FF04BFCAA
:104E1000F1E700BF0C00000070B54169867A0B4DC8
:104E2000044659B1437ADB0706D4302303FB06530B
:104E30009B6A1B689B68984700236361302021466A
:104E400000FB0650BDE8704041F0EAB814120020A3
:104E5000024B302202FB0030704700BF14120020CA
:104E6000827A074B302101FB0233DA6A93F8223051
:104E70001B33801A23F00303B0FBF3F0704700BF2D
:104E80001412002038B5074B827A302404FB023319
:104E90009B6AD3E901240C601568FFF7E1FF04FB6E
:104EA000005038BD141200202DE9F04385B00546AE
:104EB0006846039190461C4641F0E3FBDDE900673C
:104EC000EFF31189202383F31288BFF36F8F2B8CAC
:104ED000002B43D0EA8B9A4225D900220023284692
:104EE00021F0B2FD0446F0B189F31188BFF36F8F52
:104EF000039B002B43D032463B46684641F0E6FB1D
:104F0000A27A274B302101FB023320469B6A1B68A3
:104F100003A91D68DDE90023A847606180BB204626
:104F2000FFF77AFF26E0298C4B1E2B8489F311882A
:104F3000BFF36F8F95F82230EA8BEC6A1B3323F0B6
:104F40000303521A02FB0344154B164AEB1A1B11BA
:104F50005343A37295F82230E372C9E789F31188AD
:104F6000BFF36F8F23464246284621F06DFD04466D
:104F70000028BDD10024204605B0BDE8F083636160
:104F8000012300252381039B6382E27A6560294621
:104F900004F118004FF087FB63692582E360EAE7BC
:104FA00014120020ABAAAAAAF8B5124D002430268C
:104FB00000B9F8BD00F108024768BFF35B8F52E803
:104FC000003F591E42E8001CBCF1000FF7D1BFF3AF
:104FD0005B8FDBB2012BECD1837AC46006FB0353F9
:104FE00044605B6A13B198473846E1E7FFF714FF66
:104FF000FAE700BF14120020062800B508D9FFF711
:1050000011FD094B09221A504FF0FF305DF804FBE7
:1050100030235843054BBFF35B8F1B58BFF35B8FA7
:10502000002BECD00020F1E70C000000CC9A00200F
:1050300030B530231049434308330B44BFF35B8F33
:105040001A68BFF35B8FB2B1BFF35B8F541E53E896
:10505000005F954204D143E8004CBCF1000FF6D14B
:10506000BFF35B8FEAD1012A05D1302358430A18D8
:1050700000230B50536030BDC49A002038B504465D
:105080001546FFF7B9FF01300DD0084A30236343BE
:10509000D0184068086015B10C3313442B603023DE
:1050A0005C43105938BD0020FCE700BFC49A0020C3
:1050B00070B54FF0FF331D484FF0FF3236F034FB30
:1050C0001B4B0025BFF35B8F1A68BFF35B8F82B168
:1050D0000135072D03F13003F4D1FFF7A3FC154B85
:1050E00017221A504FF0FF35104836F01FFB2846A4
:1050F00070BD30246C43BFF35B8F53E8000F013069
:1051000043E800010029F8D1BFF35B8F0A4E331941
:1051100032515A609A6204F10C00304440F0B0FE03
:1051200004F12000304441F02BF9DDE74410002069
:10513000CC9A00200C000000C49A00202DE9F04118
:10514000164630240F4A4443101911514660C36279
:10515000B6B1F368A3B1FFF765FC0B4F0C3450F800
:1051600007801319054640F20512304636F0CDFA95
:10517000B8F15F0F04D0EB595F2B08BF45F80780EB
:10518000BDE8F081C49A00200C0000002DE9F04138
:105190000546FFF731FF431C044621D03026DFF8D7
:1051A0004C806E4306F10C0747444FF0FF324FF03E
:1051B000FF33384636F0B8FA08EB06035A689468AD
:1051C00044B1DB6A58F8060013F4404F0BD029466F
:1051D000A0470446384636F0A9FA2846FFF728FFCC
:1051E0002046BDE8F081A047F3E700BFC49A002045
:1051F000044A0123C2F840354FF08042C2F87835A6
:10520000704700BF00E0014048B1054B054A1B68EC
:10521000B3FBF2F35843044B43F0010318477047C4
:10522000240C002040420F00D04E0500BFF34F8FEA
:105230000549064BCA6802F4E0621343CB60BFF332
:105240004F8F00BFFDE700BF00ED00E00400FA054E
:1052500008B5054A054B136010463C2353601EF009
:10526000B9FE002008BD00BF149C00203FC00F0005
:1052700008B50A4840F008FD68B1084840F004FD50
:1052800048B1074A0548182136F054FA054A034840
:10529000192136F04FFA002008BD00BF78490500FB
:1052A0000100160001001A00F7B506460D46144627
:1052B000124F384640F0E8FCE0B1BB68AAB21B6868
:1052C000314638469847002802DB002003B0F0BD85
:1052D000002CFBD1AC42F8D22F1B042F28BF04278F
:1052E0003FF0B7FA3A46019001A930194FF0B4F9EE
:1052F0003C44EFE76FF01200E8E700BFB04905005B
:1053000038B5044622F0BAFA204636F033FAA069DE
:10531000C8B194F87030DB070DD5164A1648022143
:1053200036F026FA6FF07705201D36F02AFA22F0C3
:10533000B9FA284638BD40F0A7FC38B90F4A0E48E4
:10534000012136F015FA6FF01205EDE7204600F066
:1053500091FF05460028E7D10146242204F12C00E4
:105360004FF0A1F994F8703043F0010384F87030E5
:10537000DAE700BF73790500584E05009D790500F6
:1053800070B5044622F07AFA204636F0F3F994F824
:105390007030DA070DD4264A2648022136F0E8F9A3
:1053A0004FF0FF35201D36F0ECF922F07BFA28464D
:1053B00070BDC3F340019B0707D51F4A1D4802215A
:1053C00036F0D6F96FF07705ECE7A0693EF0B4FA55
:1053D0000646A0693EF01FFB054628B1174A15484E
:1053E000012136F0C5F9DDE7E36F4BB131462046C8
:1053F00036F081FB0546A0B1A0693EF038FBD1E74D
:10540000A0693EF0B0FAE0670028EFD10C4A0948E5
:10541000012136F0ADF9A0693EF029FB6FF00B05D4
:10542000C0E794F8703043F0020384F87030B9E7B5
:10543000C0790500584E0500E67905000C7A050094
:10544000287A050038B58021044680693EF0AEFA1E
:10545000054678B10146204601F0CCFA044638B141
:105460000648074A012136F0A4FA2846FFF79CFDBA
:10547000204638BD6FF00B04FAE700BF384E050038
:10548000577A050038B50446C06F36F0A4F80546D3
:1054900036F06DF82046294601F0ACFA044638B1E2
:1054A0000448054A012136F084FA2846FFF77CFDBE
:1054B000204638BD384E05007A7A05002DE9F04FB8
:1054C00095B002AF00237B610B7E33F0800504466C
:1054D000884616460BD0B24AB248012136F069FA26
:1054E0006FF0040528464C37BD46BDE8F08F8AB101
:1054F0000846FFF759FD98F81930DA0705D49E07DA
:10550000F0D598F81830002BECD12046FFF7BAFF01
:1055100000F095BC4A7E00F12C09900705D5802B40
:1055200009D14046FFF740FDDCE7910700F0C78452
:10553000002B40F0C484D3072AD5B8F81030082BCC
:1055400013D1D8F80C201368E3625368C9F804300B
:105550004146002036F069F87861D8B19148924A06
:10556000012136F026FA786905E08E488F4A01213C
:1055700036F01FFA4046FFF717FD484636F013FA9B
:105580000346A069002B00F0D584802100F0DBBC2D
:10559000C7F81480FFF746FA94F82C50844A002389
:1055A00015F0600F8350C5F3411375D0032B40F005
:1055B00006846FF08505FFF735FA7D4B1B58002BED
:1055C00041D0002D42D141F05AF84FF47A72A0FB3D
:1055D000020302FB0131C30B43EA41437549BFF3A8
:1055E0005B8F0868BFF35B8F41F287321E1A9642C9
:1055F000714A40F2EC83BFF35B8F51E8006F864243
:1056000004D141E8003CBCF1000FF6D1BFF35B8F41
:1056100040F0DD83BFF35B8F52E8003F42E800516A
:105620000029F9D1BFF35B8F23B1644A5D480221A1
:1056300035F0FCFC624A5B48022136F0BAF9FFF70C
:10564000F1F95B4B1D58002D00F0D8835D4A554899
:10565000032136F0AEF96E4688B002AA5A4B536168
:105660005A4B93614FF400739383594B42F8103FA8
:1056700058494C484B46FEF735F815F1860FB546AC
:1056800040F0B183544A4748032136F092F97869D3
:1056900000287FF470AF70E7484636F084F994F83C
:1056A0002D30002840F05181013B0A2B81D801A206
:1056B00052F823F055580000B3550000C5580000BB
:1056C000B3550000E1560000B3550000B35500008B
:1056D000B35500004F570000B35500000B580000B1
:1056E000A069E18D03697F2993F880303FF661AFAF
:1056F000228E002A7FF45DAF628E002A7FF459AFBC
:10570000EE067FF456AF94F83420022A02D14FF00F
:10571000FF3550E71D070BD5C9B236F07FF90546B6
:1057200048B1E38D2D4A1F48012135F07FFC42E747
:10573000012384F83D3094F83430012B05D1E38DFA
:105740001BB984F83430002535E70123F9E72046FA
:1057500036F019F8E28DFF2A01463FF62AAF638E34
:10576000002B7FF426AF94F82C30D8067FF421AFBD
:1057700094F83430002BCAD0A2BBE18D94F83C30B1
:105780008B42E0D0C9B2204600F00CFFE38D054605
:1057900078B3134A00900121024835F051FC0AE722
:1057A000997A0500384E0500D17A0500BA7A0500CD
:1057B0000C000000209C00201C9C0020A67B050003
:1057C000BA7B0500E37B050072850500F37B0500CD
:1057D00003000001C01C8000BC9B0500F37A05009B
:1057E000157B0500D2B2204636F0C4F90028C4D19A
:1057F0008DE7002B14BF0222012284F834200521FA
:105800001A46204636F012FB9DE705F01F05012DD4
:105810007FF4CFAE638E002B7FF4CBAEE28DFF2AF8
:105820003FF6C7AE218EFF293FF6C3AE94F8343061
:10583000022B7FF46CAFC9B2D2B2204636F04AFADE
:10584000811C05467FF4B7AEA54AA648032136F071
:10585000B0F8B0E6638E268E002B7FF4AAAE94F8E3
:105860003430002B3FF453AF012B02D1002E7FF4D4
:105870004EAF15F01F0517D0022D7FF464AFB4F8BA
:105880002EA0BAF1000F7FF45EAFF6B2314620468B
:1058900001F018F9421C05463FF48DAE52463146E0
:1058A000204636F088F886E6002E7FF430AFE38D90
:1058B000012B7FF448AF94F8703066F3C30384F88B
:1058C000703040E7238E628EDEB2002A7FF471AE24
:1058D000E28D022A11D105F01F0535434FEA13214D
:1058E0007FF467AEA069012236F075F800287FF4D6
:1058F00060AE012384F83D3025E794F83410002988
:105900003FF405AF012902D1002B7FF400AF15F061
:105910001F050FD0022D7FF416AF002A7FF413AFBE
:105920003146204601F0ACF8431C05463FF443AE37
:105930000122B4E7002B7FF4EAAE012A7FF403AF23
:1059400094F8703043F00803B9E70A2B64D8DFE815
:1059500013F00B00630063006300630063003A0010
:105960006300010263001602638E022B54D194F887
:105970003430002B50D0012B218E01D100294BD186
:1059800015F01F050ED0022D17D00026022120464B
:1059900036F01DFA054618B131460C3035F073FE6D
:1059A0007D61D0E6002937D194F870309E0806F06A
:1059B0000206C3F300131E43E8E7C9B2204636F0DF
:1059C0002AFA0646E2E7E68DED064FEA1621F6B220
:1059D00008D0002307F128012046BB6236F03AF8D0
:1059E000BD6ADDE701390E2916D8DFE811F00F0096
:1059F0003300A100150015009D009D001500150045
:105A0000150015001500150015004001204635F061
:105A1000BAFE18B101281AD00025C1E7D4F874A045
:105A2000BAF1000FF8D0668E9AF800309E4228BF77
:105A30001E463146204636F0CAF905460028AFD04A
:105A40003246514605F10C0035F00CFEA8E7D4F8BB
:105A500078A0E5E7204635F096FE751CF860014613
:105A6000EAB2204636F05EF8064630B91E4A1D48B6
:105A70002B46012135F0DAFACEE7D0F804A0618E8A
:105A8000BAF80220914228BF1146204636F09FF90D
:105A900005460028C0D0018A428A00F10C0B521A38
:105AA000C1684069091A521A9AF800108A4228BF40
:105AB0000A465846514635F0D5FDF6684EB9298A52
:105AC000638E99427FF66CAFC91A584635F0E5FDF2
:105AD00066E770688268126B42B93668EEE700BF0D
