:10000000584C00205D340000B597010049340000D1
:100010004934000049340000493400000000000069
:100020000000000000000000000000009534000007
:10003000493400000000000065360000493400002B
:10004000D1360000F9170100D1360000D13600008A
:10005000D1360000D1360000D1360000D136000084
:10006000D1360000D1360000D1360000D136000074
:10007000D1360000D1360000D1360000D136000064
:10008000D1360000D1360000D1360000D136000054
:10009000D1360000D1360000D1360000D136000044
:1000A000D1360000D1360000D1360000D136000034
:1000B000D1360000D1360000D1360000D136000024
:1000C000D1360000D1360000D1360000D136000014
:1000D000D1360000D1360000D1360000D136000004
:1000E000D1360000D1360000D1360000D1360000F4
:1000F000D1360000D1360000D1360000D1360000E4
:100100007BB972B90029BEBF00204FF0004106E064
:1001100008BF00281CBF6FF000414FF0FF3000F017
:1001200057B8ADF1080C6DE904CE002909DB002BAE
:100130001ADB00F05FF8DDF804E0DDE9022304B02B
:100140007047404261EB4101002B1BDB00F052F88D
:10015000DDF804E0DDE9022304B0404261EB410137
:10016000524263EB43037047524263EB430300F098
:1001700041F8DDF804E0DDE9022304B0404261EB20
:1001800041017047524263EB430300F033F8DDF85E
:1001900004E0DDE9022304B0524263EB43037047FD
:1001A00053B94AB9002908BF00281CBF4FF0FF31DE
:1001B0004FF0FF3000F00CB8ADF1080C6DE904CE43
:1001C00000F018F8DDF804E0DDE9022304B0704720
:1001D000704700BF034611F8012B03F8012B002ADA
:1001E000F9D17047034613F8012B002AFBD1181AE6
:1001F000013870472DE9F0478C468E46089E15461B
:1002000004461946002B40F0D080724547D9B2FA17
:1002100082F74FB1C7F120030EFA07FC20FA03F36F
:10022000BD4043EA0C0CBC404FEA154EA8B2BCFBE3
:10023000FEF8230C0EFB18CC08FB00F943EA0C4334
:10024000994528D9EB1808F1FF3204D2994502D913
:10025000A8F102022B44A3EB0903A4B2B3FBFEFCFA
:100260000EFB1C330CFB00F044EA0344A04214D9FB
:100270002C190CF1FF3304D2A04202D9ACF10203D5
:100280002C44241A43EA02401EB1FC40002334608F
:100290007360BDE8F0874246DDE76346F1E7002A78
:1002A00079D0B2FA82F3002B3FD01946C1F1200376
:1002B00002FA01F52EFA03F20EFA01FE20FA03F318
:1002C00043EA0E034FEA154E00FA01F4B2FBFEFCBE
:1002D000AFB20EFB1C201A0C0CFB07F842EA0042DE
:1002E00090455AD9AA180CF1FF3004D2904502D992
:1002F000ACF102002A44A2EB08029BB2B2FBFEFC66
:100300000EFB1C220CFB07F743EA02439F4246D92F
:10031000EB180CF1FF3204D29F4202D9ACF1020279
:100320002B44DB1B42EA004202E0AEEB0203012257
:100330004FEA154EAFB2B3FBFEFC200C0EFB1C3394
:100340000CFB07F840EA034398452AD9EB180CF157
:10035000FF3004D2984502D9ACF102002B44A3EB44
:100360000803A4B2B3FBFEFC0EFB1C330CFB07F727
:1003700044EA0344A74216D92C190CF1FF3304D2E6
:10038000A74202D9ACF102032C44E41B43EA00402B
:100390000F46114678E71F2188E76046ABE76246C3
:1003A000BFE76046DBE76346EFE7734506D916B95A
:1003B000002108466DE7C6E9000EF9E7B3FA83F7B6
:1003C00087B9734501D3824207D8841A6EEB0303C1
:1003D00001209C461EB900215BE73846FAE7C6E9D2
:1003E000004CF8E7C7F1200CBB4022FA0CF51D4386
:1003F00020FA0CF12EFA0CF30EFA07FE41EA0E0178
:100400004FEA154900FA07F4B3FBF9F81FFA85FE25
:1004100009FB18300B0C08FB0EFA43EA00439A451F
:1004200002FA07F240D9EB1808F1FF3004D29A45DE
:1004300002D9A8F102002B44A3EB0A0389B2B3FB53
:10044000F9F809FB183308FB0EFE41EA03418E451B
:100450002CD9691808F1FF3304D28E4502D9A8F1CE
:100460000203294443EA0040A0FB0298A1EB0E01DD
:100470004145CE46434602D306D14C4504D2B9EBA2
:10048000020E68EB05030138002EA4D0B4EB0E0277
:1004900061EB030101FA0CFC22FA07F34CEA0303B7
:1004A000F940C6E9003196E74046C5E74346D9E73B
:1004B0002DE9F843D0E90738856903EB08042F34A8
:1004C000A5420F46164619D8DFF86C80A3FB080139
:1004D00017A3D3E90023FFF763FE0346601BA0FBCD
:1004E000080123F07F4412A3D3E90023FFF758FE4D
:1004F00020F07F403C603060BDE8F883DFF8389042
:100500000BA3D3E90023A5FB0901FFF749FE20F067
:100510007F440A480A2106A3D3E90023E8FB090126
:10052000FFF73EFE20F07F403C603060BDE8F8837E
:100530008D49FD1A0700000000CA9A3B00166BF1B6
:10054000002800F03E812DE9F04FC54C94F85E3054
:10055000DA078DB000F13181627F94F8293004EB25
:10056000820204EB8303166AD3F82C800EB335465F
:1005700015F8020BC0F380100AF0F8F90368C6F80A
:1005800002308388AB8033785B0606D50621284687
:1005900008F078FE002800F04681454615F8020B69
:1005A000C0F380100AF0E2F90368C8F802308388CB
:1005B000AB80337813F00E0F40F08B8063691BB172
:1005C0000C200DB0BDE8F08F0AF050FE81460028E7
:1005D00000F032810AF056FE8246002800F02981A0
:1005E0000DF02CF80546002800F02C81C06E4FF667
:1005F000FF73AB8405F1100B002800F01F8105F19B
:10060000600205F15C0108F049FEB5F8583023F4AA
:10061000EF6323F0070343F48C7343F00103A5F861
:10062000583095F8373003F03F0363F07F0385F8C7
:10063000373095F8723023F0070385F8723095F85B
:100640003C3023F00F03002785F83C304FF4C023E3
:10065000C5F86E312846C5E91277EF66A5F87070C7
:1006600085F839706F85C5F82E702F65A5F8407133
:10067000A5F87471A5F86A710EF060FC85F84471F4
:10068000C5F848910DF04EFA95F87C3160F30203FD
:1006900085F87C310DF04CFA95F87C3160F3C50398
:1006A00085F87C3195F8423167F3410385F8423192
:1006B00005F1C4000EF07CFAC4E9159AC4F814B030
:1006C000C5E902772F702D6111F03CFD002840F044
:1006D000AC80237E0121C3F342030DF12B008DF882
:1006E0002B3008F07DFF024600286CD04146304692
:1006F0000CF0CEFB5B4A5C4BB4F85C800721E0FB5E
:10070000023100251846C4E9025553A3D3E900235A
:100710002570FFF745FD60600AF0ECF800F109076D
:10072000B8F1000F07D1357805F00F05A5F10105E7
:10073000B5FA85F56D09207E636865F3000010F059
:100740000105207646D0494A099200201060022512
:10075000474ADFF8208104930BAE019305920321F1
:10076000CDE90200069400903B46CDF81C80089627
:100770002A460B9509F0E2FF31460AF0F9FD10BB5D
:100780003D4905914AF2D8330093CDE90300CDE904
:100790000100CDF81C80089606943B4601220321F7
:1007A0000B9509F0AFFF31460AF0E2FD58B994F815
:1007B0005E3043F0010384F85E3000200DB0BDE8E8
:1007C000F08F0CF0FFBA6369002B3FF4F9AE0CF028
:1007D000CFFAF5E6254A2948049303F24713069415
:1007E000029591211360A8FB000301FB0831214B06
:1007F00007931F4B05934FF6FF7309924FF00208C2
:1008000003930BAE14A3D3E90023CDF82C800896F4
:10081000FFF7C6FC3B46CDE900504246284603217F
:1008200009F08CFFBFE71220CBE60CF0A1FA032001
:10083000C7E648460AF020FD0720C2E605F164003D
:10084000E866DCE650460AF023FD48460AF014FD4F
:10085000F2E700BFAFF300808D49FD1A07000000EA
:10086000A81F002000CA9A3B8C49FD1A9C1F00203B
:1008700009CF0000F1A900002DCC0000002AE78478
:1008800070B5037E8AB0C3F342030D4604460121CE
:100890000DF1230016468DF8233008F0A1FE3146F5
:1008A000024628460CF0F4FA1D4A1E4B0721E0FBD5
:1008B0000231184618A3D3E90023FFF771FC6368DF
:1008C0009842054621D21B1A00220192164A029331
:1008D000164BA21AA3FB02320221920900230A44FA
:1008E00009AE099112490591CDE90333032106961A
:1008F000D2B20093184609F077FF31460AF038FD6E
:1009000038B9656000200AB070BDFBD9C21A002357
:10091000DBE70C200AB070BD8D49FD1A070000000E
:1009200000CA9A3B8C49FD1AA81F0020ABAAAAAAAC
:10093000F1A90000000000002DE9F04F05468BB042
:100940008B46012002219946144613F08DF80022AF
:1009500002218246012008F0F5FC2F494FF4C072B5
:10096000284608F07BFCC61C2C4B0093F6B2019580
:100970004B4632460121002009F084FF10F0FD0FA4
:1009800042D1274BA4FB0348204621A3D3E90023EF
:100990004146FFF705FC089506956B680493214BCB
:1009A00020F07F47A7FB0331E01A1F4B07934FF05E
:1009B00007021E4B059302FB07114FF6FE7368EB0F
:1009C000010103934FF47A720023FFF7E9FBCDF89E
:1009D00000B0CDE901704B4632460121002009F0FC
:1009E00091FE10F0FD0F0DD1BAF1000F02D10BB046
:1009F000BDE8F08F0122022110460BB0BDE8F04F98
:100A000008F0A0BC00DEEFE700DEBAE7AFF300803D
:100A10008D49FD1A07000000B80F002015D5000011
:100A200000CA9A3B8D49FD1AFDD400004115010012
:100A30002DE9F0418468A28C4FF6FF739A428CB086
:100A400000F0DA80054620460EF0CAFC2B7D012B13
:100A500000F00081022B00F0D28033B994F872309C
:100A600003F01803182B00F0378194F84471002F1D
:100A700040F0C8802B8AE68D94F93720CDE90A77BB
:100A8000002B00F0C680002AC0F23C810023A4F8AD
:100A90007031AB7CA28D03F00303551C012BADB26A
:100AA00000F0D480B4F87431002B00F0D980AB4250
:100AB00040F252815B1B9BB2062BA4F874314FF0BD
:100AC00000028CBF00230123E2851F4694F83C20DE
:100AD00063F3820284F83C2029460DF12702204668
:100AE0000EF068FA743000F03181B4F86E312BB139
:100AF000AB4240F2DA805B1BA4F86E31B4F86A3185
:100B00002BB1AB4240F2E1805B1BA4F86A31E58D6A
:100B100017B9AE4200F0C7800135ADB294F8B530D8
:100B200013F001060AD1DDE90AC3002B4FD1BCF155
:100B3000000F00F003811E46194649E094F9372062
:100B400023F00103002A84F8B530C0F2A38094F8A2
:100B50005800C0F3C00100F0070011F075F901461C
:100B600094F8583094F8596003F003022832C3F324
:100B70004003D200DA40E38B03F23F10B2F5A07FCE
:100B80002CBF801800F5A07006F003022832D200B6
:100B9000C6F34006F240B2F5A07F2CBF831800F5E3
:100BA000A07358188E4A8F4B0721E0FB023118467C
:100BB00089A3D3E90023FFF7F3FA616820F07F40AF
:100BC0008142DDE90AC380F0B380461A60600021EB
:100BD000A28C24690694CDE903570332824D029119
:100BE000CDE900C6D2B201210020059509F0FCFD37
:100BF00010F0FD0F40F0B5800CB0BDE8F0813D274E
:100C000084F84471394620460CB0BDE8F0410DF03F
:100C100049B8002AB8BF84F8B970AB7CA28D03F044
:100C20000303551C012BADB210D0B4F87031002B6A
:100C30003FF438AFAB4240F29B805B1BA4F87031AD
:100C4000B4F87431002B7FF432AF3FE70023A4F8EF
:100C500074313BE70023A4F86E31A4F86A3104E74D
:100C6000E38C052B8BBF40F2E2424FF4FA725A43F9
:100C700003FB0222B4F8723142F2107101FB03232C
:100C8000013BB3FBF2F39BB2A4F87431002B7FF469
:100C90000EAF1BE794F85900012100F0070011F096
:100CA000D5F801465CE73D4638E70AF031FB0146DE
:100CB000002864D00023A4F86E31A38CC3801B23CA
:100CC000037100680AF0F6FA18E70023A4F86A3105
:100CD00020460EF001FA1AE7218DB4F86C218B1D25
:100CE0009A42C4BF931F5B1AB4F86811CCBF9BB281
:100CF0001346994256D0A4F86831A4F86A31A4F892
:100D00006E21B2E694F8B930002B3CD0013B84F858
:100D1000B93004F1C40840460DF08CFF002855D0CE
:100D200040460DF087FF002842D00023E385ADE662
:100D3000091A6060A3BB51EA0C021ED115B9002F3D
:100D40003FF45AAF00263146334641E79DF827105D
:100D500020460CF0A7FF4FE7082120460CF0A2FF29
:100D60004AE70AF02FFB84423FF446AF00DE43E738
:100D70003E2120460CF096FF3EE71E4628E7012361
:100D8000A4F86E31BAE60AAA0BA92846FFF790FB31
:100D9000DDE90A231343BCD0237884F8B930B8E7DF
:100DA000002615E7B4F86E1100297FF45EAEA4E7C3
:100DB0000246D4E9170108F089FA0028B5D194F861
:100DC0003C301B0744BF238DE3855FE6FF200CF01A
:100DD0002BFFA5E7AFF300808D49FD1A0700000047
:100DE00000CA9A3B8C49FD1A55D50000000000004E
:100DF0002DE9F04F87B0B0F84071BDF84C900091EC
:100E0000CDE90423B0F80431BDF840A01F44BFB2BF
:100E10000446A7EB090390F85800D4F8FC809EB272
:100E2000BDF844300193C0F3C001BDF848300396CB
:100E300000F00700029311F007F8E58C052D40F251
:100E4000BE8015FB06F5ADB240F2E24BBAF1050FDC
:100E500040F2A98094F8592094F8581002F0030346
:100E60002833C2F34002DB00D34001F003022832F2
:100E7000B3F5A47FC1F340014FEAC20222FA01F2A6
:100E800038BF4FF4A473B2F5A47F2CBF9B1803F5B1
:100E9000A47303F2D5131844774A784B0721E0FB7B
:100EA000023118464FF09613E3619623238470A312
:100EB000D3E90023FFF774F9564620F07F4040F253
:100EC000E2430BFB05F103FB06F64B1E3344B3FB79
:100ED000F6F31FFA83FB06FB0BF3994260605D4655
:100EE00053D26548591AA1FB000161A3D3E900233D
:100EF000FFF756F920F07F408044B4F80421B4F89D
:100F00004031A9EB07094D44ADB213442B44A4F87A
:100F10004031638D13441D4494F837306585DB09F7
:100F200055D100DE00273546019B2385029BA4F89E
:100F3000723131462046A4F826A00EF067F8504BD7
:100F4000218D3344881DB3FBF6F39AB29042A4F886
:100F50006C2104D2C1F57F41FA310A4492B2009B60
:100F6000A4F8682113B10023A4F8743143462A463B
:100F700039462046FFF7E0FC94F8423143F0010384
:100F800084F8423107B0BDE8F08F3B48C91AA1FB95
:100F9000000137A3D3E90023FFF702F920F07F40D7
:100FA000A8EB0008A9E74FF096130AF10106E361E8
:100FB00096232384B6B20A204FF4FA7381E7039B89
:100FC000013515FB03F5ADB24FF4FA7B3EE7216C1A
:100FD000A36C294F01FB0233039A01FB1233A36474
:100FE0000023C4F8C03011F0FFF8054694F8B800AB
:100FF000C0F3420011F0FAF8054406FB05F5214B59
:101000001E4805F5742505F23F25A3FB0535AD0CFB
:10101000A36C25640BFB05FB72085B44963A934274
:1010200028BF1346C4E91123049B40F2E24909FB9F
:1010300003F307212365EBFB07010DA3D3E900238D
:10104000FFF7AEF8104B059AA8EB0008A3FB02309F
:10105000800A09FB00F0A0FB070105A3D3E90023E8
:10106000FFF79EF8751B20F07F475DE7AFF3008028
:101070008D49FD1A0700000000CA9A3B8C49FD1AF1
:101080007FC3C90183DE1B435917B7D1000000009D
:101090002DE9F04F0D460968B0F82EE0D1F8009028
:1010A0000146144651F82EAB52F8086B91F802C075
:1010B000834691B0D0F81E00BBF822109BF81C703C
:1010C000A4F808E082F802C0DBF82A206260DBF8AE
:1010D0003A20C4F82220ADF83C109BF83E100E9048
:1010E00084F8261010AB13E9030004F122020C90DF
:1010F000ADF834101046052108F072FA94F8272054
:1011000000F03F0060F3050284F827209BF83F20A1
:10111000C2F3040184F82810BBF83410E1820128DE
:10112000C7F380170DD902F01F021B3202F01F0215
:101130000B2A06D889B2063989B240F67A42914222
:1011400019D90021C9F8081094F82C2061F3000285
:1011500084F82C200125DBF80C408BF80450504615
:1011600059460AF09BF820682571214611B0BDE868
:10117000F04F0AF09FB82A6800215160BBF8362072
:101180002283B4F81680BBF832300A9340F2E24270
:10119000304602FB08F80DF04DFF9BF83F1096F823
:1011A000B800490961F3430086F8B80011F01CF853
:1011B0000B9096F8B800C0F3420011F017F80B99A5
:1011C000084408FB00F0A64900F5742000F23F2017
:1011D000A1FB00104FEA5801800C9639206361632F
:1011E0009BF8311040F2E24201FB02F26264BBF86C
:1011F0003820A6F87221414630460DF007FF994A83
:101200009949C6F878114244B2FBF8F290B2A6F8B8
:101210006C01218B01F1060C604504DDC1F57F41B5
:10122000FA31014488B25946A6F8680111F81C2F1A
:10123000C907C2F3401200F10381BDF83410ABF8C6
:1012400023100C988BF81E704FF48071CBF81F00A0
:10125000ABF81C10E18AABF82610218BABF82810F4
:10126000B6F87211ABF82A1096F8B8100B92C1F3C9
:1012700042018BF82C1030460CF0ECF95946A08254
:10128000ABF8060050466F680AF008F80B9AA18A7E
:10129000D7F800A0F9801C233B71002A40F0BC80E5
:1012A0003A77394650460AF005F894F849A094F880
:1012B00048200AF0070A02F00702012150460B926B
:1012C00010F0C4FD0B9A02F003032833C2F340026E
:1012D000DB00D3400AF003022832B3F5A47FCAF33F
:1012E000400A4FEAC20238BF4FF4A47322FA0AF24E
:1012F000B2F5A47F2CBF9B1803F5A47303F2D5139A
:10130000DFF868A10746034459480721E3FB0A01B7
:101310004FF09613C4E903334FA3D3E90023FEF73C
:101320003FFF20F07F407060EB680A98226B40F22C
:10133000E24101FB003404F2B3440221A41A01206B
:10134000A8EB0208002207F0FDFF48460BF06CFFF7
:10135000E41B41A3D3E900230746A4FB0A01FEF7DF
:101360001FFFCDF80490AB684249009120F07F4AFE
:10137000BA1C363BD2B253440121002009F082FA54
:1013800001285FD099F81830DB0751D430460CF0B3
:1013900061F9364CA8FB04482FA3D3E90023834608
:1013A00041462046FEF7FCFEAB68334A0792A3F1A4
:1013B0003609324B069620F07F47A7FB0331E01A2F
:1013C0002F4B05934FF4F8730893736804934FF011
:1013D000070303FB071168EB010100244FF47A7245
:1013E00000230394FEF7DCFE0BF10305EDB2CDE91B
:1013F0000170CDF800A04B462A460121204609F095
:1014000081F910F0FD0F23D101220221104611B005
:10141000BDE8F04F07F096BF94F8273043F0400343
:1014200084F82730201D10F079F90122208537E754
:101430000023012200931846114609F0EDF9A5E7B3
:1014400000DEFAE609F0BEFF81459BD000DE99E799
:1014500000DED9E7AFF300808D49FD1A07000000D8
:1014600083DE1B437FC3C901404B4C0000CA9A3B3B
:101470008C49FD1AC9150100191501008D49FD1A85
:101480004115010000000000F0B5C468636883B036
:101490000546002B40D111F0E3FE002011F004FFBF
:1014A0000021084611F0F2FE00222521082011F04B
:1014B00059FF374B019301A811F040FF354940F225
:1014C0005B6011F0F1FF237AC3F3420262F306136B
:1014D0002372204611F00EF827682E68384610F067
:1014E0006DFC06446A6806F10901012012F004F956
:1014F00012F0C2F920460BF0A3FE811C3246C9B29D
:10150000384610F05DFC054698B9204610F032FCD4
:1015100068B9002003B0F0BD93F82C309B07BAD017
:101520001D48214611F070FE11F068FFF1E700DE62
:10153000EFE71A4A1A491B4840F2114317F0EAFB39
:10154000194B0721A5FB030301FB05310EA3D3E9CA
:101550000023FEF725FE15490246154817F0DAFB71
:10156000002585F31188BFF36F8F0323184602DF30
:101570001048214611F048FE11F040FF6FF08B003B
:10158000C8E700BFAFF3008000CA9A3B000000002C
:10159000D6BE898E55555500FD1E01007CCC01003C
:1015A000C8CC010020CC01008D49FD1A14CE0100E9
:1015B000CCCC0100F92101002DE9F043C468A28AD6
:1015C0004FF6FF739A4283B000F0FD80064611F09B
:1015D000B7F93389628B208C94F82710A3831A44BF
:1015E00092B2104480B2431C23840023638301F031
:1015F0003F034906E28300F1A48094F82810009389
:1016000004F1290004F1220310F04AF80546D4E958
:101610000C31A26BA08BA36303FB0022E36B8A4215
:1016200094BF9B185B188B4228BF0B46626CE36328
:10163000236C94F849101A4494F82C3061F3061383
:101640000021C4E9101294F8622084F82C3012F0C2
:10165000040200F0898011F003FE002011F024FE46
:10166000201D11F06BFE2389A17A40F25B6043EAF2
:10167000014111F019FF284610F0B2FB21465848ED
:1016800011F0C2FDA08912F02BF894F8482094F8CC
:101690004900C2F3C003002102F0070200F0070076
:1016A00011F068FF204611F0E5F9D4F800803768A2
:1016B000404610F083FB0744726807F109010020DF
:1016C00012F01AF8814612F0ABF8002012F0C2F8BE
:1016D000E36B94F8490003F12F02636C012100F0E1
:1016E000070003EB420511F07BFE4D44054494F8DE
:1016F000490000F00700022834D004280CBF4FF442
:10170000BC73282301211D4411F06CFE284412F003
:1017100079F8A18A03313A46C9B2404610F050FB2D
:101720000546A8B1B37A13F002062BD000252D4848
:10173000214611F069FD11F061FE284603B0BDE8B5
:10174000F083218D04F122020FF0ECFF05465EE7E5
:10175000204610F00FFB00283CD10025284603B09E
:10176000BDE8F0831823CDE7D4E9130107F0AEFDFF
:1017700000287FF470AF94F8623043F0040384F8DB
:10178000623068E7184A194919484FF4AC7317F0EA
:10179000C1FA18480721A5FB000301FB05310EA380
:1017A000D3E90023FEF7FCFC13490246134817F067
:1017B000B1FA86F31188BFF36F8F0323184602DF57
:1017C0006FF08B05B3E70E48214611F01DFD11F0B7
:1017D00015FEC2E700DEC0E700CA9A3B0000000029
:1017E0008D2C0100DD1E0100F8CC0100C8CC0100E9
:1017F00020CC01008D49FD1A20CE0100CCCC010087
:10180000FD1E01000346024A0248012116F047BFAF
:101810008CCF010044C5010008B521B1BDE80840E6
:101820000846FFF7EFBF18F063FB044B1860044A4B
:101830000448BDE80840032117F0AEBEE0130020C5
:10184000ABCF010044C501002DE9F041054686B04B
:101850000E46174698464FF0FF324FF0FF330D48C3
:1018600015F032FA0C4B1868596804AC03C40948E7
:1018700015F09CFA0823029304AB0193BDF83030B5
:1018800000933A4643463146284619F0E7F806B039
:10189000BDE8F081A8050020DF28002080B50129DF
:1018A0000E4B0CBF012200221A700D4A0D4B00AFE7
:1018B00088B008BF13466A460B49CDE905134FF4BB
:1018C0000073ADF81C30094B42F8103F0848002364
:1018D0004FF4E65101F01EF8BD4680BDDE28002021
:1018E000BDCF0100CBCF0100DDCF0100030000011F
:1018F00044C50100B0B588B002AF14220021381DE4
:101900001AF007FB03223023C7E9022301256023D5
:101910003B611449144B00950222381D04F0A8F9CC
:10192000044648B1114A03462946114816F0B7FE4D
:1019300020461837BD46B0BD6D4688B002AA0D4B93
:1019400053610D4B93614FF4007393830B4B42F83B
:10195000103F4FF4E6510346054800F0DBFFAD466B
:10196000E6E700BF80C5010078C5010000D0010096
:1019700044C5010025D0010041D001000300000151
:1019800010B50B46094C0A480A4A032116F087FE97
:10199000206818B104F040FD00232360064B0022AC
:1019A0001A70BDE81040FFF7A5BF00BFE01300208C
:1019B00044C501004DD00100DE2800202DE9F04F84
:1019C0008DB002AF4FF0FF324FF0FF338F4815F06C
:1019D000A7FADFF83C82404619F0A9FE60B98D4AAB
:1019E0008D48012117F0D8FD6FF012038B4A8A4809
:1019F000012116F054FE08E0D8F8083088491B6829
:101A00004046984703460028F0D1864A824805237D
:101A1000032116F044FE0026B24600214FF4203088
:101A20001AF0C0F9804C204619F081FE002869D1D7
:101A30007E4A7948012117F0AFFD002414220021CD
:101A400007F11000A7F806A01AF063FA01237B61E2
:101A5000BB1DBB6102250C23FD6187F82030D8F83F
:101A600008306B485B6807F11001984707F10809D7
:101A7000034600286BD06E4A6748294616F00FFED1
:101A8000002501364FF0FF324FF0FF33694815F063
:101A90001BF9694B1C805D805E60186859684A4676
:101AA00003C2644815F082F9002C4FF06403EB4642
:101AB00094FBF3F28AB0B4BF644203FB124411B248
:101AC000AEBF24B2B4FBF3F203FB124402AA5B4B99
:101AD0005562C2E905360623C2E9071442F8103FF1
:101AE00000234D484FF4435100F014FF544B1B7832
:101AF000DD46002B5BD1534A47483346032116F09D
:101B0000CEFD8AE7A5684E21EB682046984703463C
:101B100028B14D4A4048012116F0C1FD8DE70C2146
:101B20002B6907F1100220469847034608B1474A3F
:101B3000F0E73B697C6903EB830303EB830342F229
:101B4000107294FBF2F404EB830424B276E7B7F945
:101B500006204FF4167382FB03234946C7E902238C
:101B600012F094F8034600BBD7E90221120B42EAB7
:101B700001520913C7E902214FF0FF3012F1004270
:101B800041F10001904273EB010102D2304817F09D
:101B9000C1F8BD68002D7FF773AF4FF6FE739D420D
:101BA000D4BFADB24FF6FF756BE72A4A64E718223F
:101BB000002107F110001AF0ACF9274B07F11001D2
:101BC000C7E9053900200823BB8307F07FF90346E6
:101BD00038B1224A009033460F48022117F0EFFC3B
:101BE0001BE78AB0FC68B7F90800798902AA1C4D86
:101BF000C2E907010521C2E9055442F8101F064851
:101C00004FF4235100F086FEDD4606E7BC050020B8
:101C100058C1010072D0010044C5010089D0010003
:101C200034CF0100C4D0010074C10100E9D001002B
:101C30005DD10100A8050020DF280020D1D10100DE
:101C4000DE280020F7D101000AD1010034D10100C3
:101C50007BD101009FD10100B8C5010025D2010050
:101C60004BD2010008B5002003F064FB034630B1FD
:101C7000094A0A48012116F012FD002008BD084A51
:101C80000648032117F088FCFFF734FE0028F4D142
:101C9000044815F011F9F0E776D2010044C50100BF
:101CA00095D20100BC0500202DE9F84F8A4600AF0F
:101CB000002974D004680E1F361BF50826F00706AD
:101CC00004EB0608B8F802B01BF0010B16D1E94688
:101CD00088B06A46334BCDE90531032342F8103F03
:101CE00031485B464FF4C25100F014FECD468BF3F1
:101CF0001188BFF36F8F0423184602DF2946204660
:101D000016F0CFFC284434F83030C01A854217D082
:101D1000E94688B06A46254BCDE9053A032342F8E7
:101D2000103F214800234FF4C25100F0F3FD00237F
:101D3000CD4683F31188BFF36F8F0423184602DF6B
:101D4000B8F8023023F00103A8F8023029462046F3
:101D500016F0A7FC05EB000804EBC8035B88DA0764
:101D600008D44146204616F0E5FC42462946204666
:101D700016F025FDA65BAE1B04EBC6035B88DB07F4
:101D800009D43146204616F0D5FC2A463146204675
:101D900016F015FD35462946204616F087FCBD464F
:101DA000BDE8F88F12D3010014C50100E9D201008B
:101DB00008B5024816F0A1FF002008BD3FD301007E
:101DC0000E4A9042034602D30D4A904211D30D4A67
:101DD00022B1934202D30C4A93420AD30B4A52B126
:101DE0000B48834234BF01200020934238BF0020BB
:101DF0007047012070471046704700BF20C00100A7
:101E0000D4F101000000000000000000000000000C
:101E1000000000002DE9F04F9BB000AF0446D7F85A
:101E200090A0FA637B638B4649B903784678807843
:101E300000EB830020445E4522D8A0EB040B0AF09F
:101E4000010394F80280FB62E3783B63B8F1000F72
:101E50000CBF4FF000090AF0010913B11AF0020F8C
:101E600017D1B9F1000F14D1FB6B1BB17A6B594636
:101E7000204698475D4628466C37BD46BDE8F08F42
:101E8000451C2846FEF7AEF9013028440BF1010B42
:101E9000D1E7CAF3C003FB612378BB629B00BB613F
:101EA00063683B62BB6A04EB8301FB6B002B7DD153
:101EB0005D468844B9F1000F1DD0A94E8B46994666
:101EC0001BF8013B54F82300002808BF3046FEF7FA
:101ED00089F9D7F8943001304BB1D7F898304B4599
:101EE00082BFD7F8943023F8190009F10109C345DE
:101EF0000544E5D1D8461AF0050F0AF002030CBFDD
:101F00004FF0020B4FF0010B0026FB633B6B9E4230
:101F1000B1D298F8013054F823A05046FFF750FF93
:101F2000FA6908F10208034602B3B86318F8021C04
:101F3000386A16F0C1FEBB6BC0B1EA468AB06A4689
:101F4000884B05933B6ACDE906314FF40073ADF839
:101F50002030854B42F8103F844800234FF4125143
:101F600000F0D8FC023DD5460136CFE723B1FB6A2D
:101F70002BB9A5EB0B05F7E7FB6B002BF4D07848EA
:101F8000BAF1000F18BF5046FEF72CF9D7F894307D
:101F900053B1D7F8983099453FBFD7F89420431CE8
:101FA00022F8193009F101090544DDE7B9F1000F04
:101FB0006CD04346102B28BF1023BB6397F8389092
:101FC00007F148000026BA6B796219F07BFF796A45
:101FD00000227A620AF0020201EB08033A610AF079
:101FE00004027B61FA6002337A6A396B8A4266D3F3
:101FF0006378F96A7B621AF0020F4B44DBB20CBFC4
:1020000072080022002940F0A9801AF0040F14BFC2
:10201000314600216370A170E270B9697A6BFB6B85
:1020200020469847051EFFF626AFBB6A23707B6AE1
:1020300063703B6BE37031467A6BFB6B84F8028014
:1020400007F158009847061EC0F2C4803A6BBB697E
:10205000386B03EB4203ABEB0301D7E90D23C91A3D
:102060007B6903EB4000FB6B98470028C0F2B4800B
:102070002E4435184FF0000807F1480AC84577D3B9
:1020800000217A6BFB6B08469847F4E6B8F1000F25
:102090000CD01AF0040F0ED04346102B28BF10238B
:1020A000BB6397F8386007F158008CE7C7F83880B1
:1020B0004646C1468CE7C7F838804E4688E713F895
:1020C000015C13F8021C54F82500BB60FFF778FE92
:1020D0000246F869BB6838B1386AC7E9013216F0C0
:1020E000EBFDD7E90132F0B912B3FA6A72B1B9F176
:1020F0000F0F18D809F1280107F14000014409F138
:10210000010201F8205C5FFA82F90CE0FA6852B132
:102110000F2E08D806F1280107F14000721C0E1896
:1021200006F8105CD6B27A6A01327A6202335BE753
:102130003A69002ADBD10F2EF5D806F1280007F105
:10214000400C6044721C00F8101C07F1680151FA41
:1021500082F20236F6B202F8105CE4E7002159E799
:102160007BD3010082D3010004000001CCC4010034
:1021700018F80A3087F8473054F823B0D7F894306D
:1021800033B3D7F89830984522D2D7F8943033F843
:1021900018607A6BFB6B012107F147009847002814
:1021A0001ADB0E4B0544BBF1000F08BF9B4626B956
:1021B0005846FEF717F8461CB6B27A6BFB6B3146F1
:1021C00058469847002807DB054408F1010855E701
:1021D0000026DEE735464EE605464CE67BD3010099
:1021E000014B1860704700BF200200202DE9F04726
:1021F000058B0446280717460CD501290CBF45F06E
:10220000100545F02005258387F31188BFF36F8FF4
:10221000BDE8F087022905F0070540F094802046CC
:1022200017F00BF8052864D801A353F820F000BF7D
:102230000922000047230000F3220000B52200001D
:10224000CF220000E122000001F007035A1F012AFB
:102250001FD8002221F00701062BD4F8008089B294
:10226000C4E9002209D1434603E0628B0132628354
:102270001B68002BF9D141F002012183204616F0A2
:10228000DCFF4FF0000900286DD041F020012183D0
:1022900069E0042B0AD121F0070189B2218320468D
:1022A00016F0CBFF10B141F0200121834FF0000860
:1022B000C14658E02369D3F80090238B23F007032D
:1022C00043F0060323834FF0000846464BE02369A2
:1022D000D3F80490238B23F0070343F00403F1E7C2
:1022E0002369D3F80890238B23F0070343F00503F9
:1022F000E8E74FF00008C146E7E7012243F0080392
:10230000238387F31188BFF36F8F002A3BD1B8F185
:10231000000F4AD1B9F1000F02D02D492046C8471D
:10232000EFF31187202383F31288BFF36F8F238B82
:1023300023F008039BB22383D9063FD523F0100274
:10234000228303F007056669218B002EBFF67CAF60
:102350000023D4F8008021F00701C4E9003341F0E4
:10236000010121839946238B03F0070AAA4502D075
:10237000A268002AC1D1B8F1000F02D1B9F1000F53
:10238000DAD00022BAE7A1680029C0D00D68002980
:10239000BDD04F68334652462046B8471DB12B6822
:1023A00029461D46F3E72B46FAE741463346524697
:1023B0002046D8F8008016F06CFFA8E79A067FF553
:1023C00023AF23F02002228303F0070527E700BF95
:1023D000BF9201002DE9F047DFF85480044607461C
:1023E0004FF0010994FAA4F5B5FA85F509FA05F359
:1023F0002E0108EB05156FEA030A24EA03042B7B80
:1024000063B158F806301B696BB9464404227368FF
:102410002846196807EA0A0717F04EF8002CE1D1A0
:102420003846BDE8F087284698470028F6D1ECE703
:102430004CC5010010B50F490F4888B0002219F0B3
:102440001DFD00220023CDE9062300240E23CDE943
:102450000334CDE90144094B094900944FF440721B
:10246000084815F055F80849064819F0DEFB2046E3
:1024700008B010BD8D240000000C0020BD27000016
:10248000882D00207807002041D40100014814F075
:1024900013BD00BFCC0500202DE9F0478046214840
:1024A0000F4616F0E9FF0646002833D000252846DF
:1024B000BDE8F087237B83B12368DB680BB120463E
:1024C0009847636883F8069023681B69D3B96368EB
:1024D00004221968204616F0EFFF013610345445E7
:1024E000E8D3B8F1000FE2D0002DDFD02846FFF787
:1024F00071FF0546002FF7D000214FF4A47019F0AA
:1025000051FCF1E7204698470028E0D009FA06F38D
:102510001D43E2E7044CDFF814A005464FF0010923
:10252000DDE700BFF41300204CC501005CC50100CD
:10253000014B53F820007047F4C5010008B503466D
:1025400008462BB1044A136000F056FC002008BD79
:102550006FF01500FBE700BF2402002010B5044C0B
:10256000237813B9034814F0A7FC0123237010BD8E
:10257000E7280020CC05002010B504460B4816F0D3
:102580007BFF5CB1BFF35B8F094B53E8001F013940
:1025900043E80012002AF8D1BFF35B8F054815F01D
:1025A000B1FD0548BDE8104014F086BCEC130020D6
:1025B000F0130020000C0020CC050020064BBFF3D8
:1025C0005B8F002253E8000F43E800210029F9D176
:1025D000BFF35B8F704700BFEC13002070B5FFF7AF
:1025E000EDFF084C084E0546B44200D370BD636849
:1025F0005B792BB123685B6813B129462046984765
:102600001034F1E74CC501005CC5010010B5044C65
:102610000449204616F08BFC034B1C6010BD00BF24
:1026200018050020E0C50100E41300200D4A0E4803
:10263000002310B513700D4A13600D4A4FF400418A
:102640001360FFF77BFFFFF7E1FF0A4B0A491846CB
:102650008B4200D310BD1A1A5C681211013222712C
:102660001033F5E7E828002075940100EC130020F2
:10267000F01300204CC501005CC50100014600229A
:102680000148002316F074BC18050020014816F01C
:102690000BBD00BF18050020024B0146186816F05C
:1026A0005EBD00BFE4130020014816F093BD00BFDB
:1026B0001805002070B52A4B1B78002B4ED0FFF771
:1026C000E5FF0446002846D1264B274D1B68002B0A
:1026D00019DD19F08BFB4FF47A76A0FB063206FB6E
:1026E0000121D5E90020DB0B43EA41439B1A4FEA65
:1026F000D13140F2E93261EB0001934271F1000106
:1027000001D3FFF76BFFD5E9003213F57A7342F17D
:102710000002C5E900320CB3BDE87040FFF7C4BF4A
:102720006B685B7923B12B6821461B682846984764
:102730001035B542F4D32046FFF7AEFFBFF35B8FF1
:102740000A4B53E8001F013943E80012002AF8D170
:10275000BFF35B8FB8E7064D064EEAE7002070BD79
:10276000E7280020EC130020F80B0020F0130020D5
:102770004CC501005CC5010070B50D4D297861B9EB
:102780000120FFF789FE0B4C0B4EB44206D3FFF736
:1027900091FF0028FBD101232B7070BD63685B792A
:1027A0001BB1236820469B6898471034EDE700BFB3
:1027B000E82800204CC501005CC5010000212DE97E
:1027C000F8430846FFF768FE044648B340F26768DE
:1027D0004FF0000900F08EFF1A4B1B4A1B58136084
:1027E00033B11A4B1B68092B02DD194814F064FB46
:1027F000184F002544B12046FFF7ECFD044618B9F8
:102800004FF0FF384FF0FF39FFF754FF064628B965
:10281000B5B90F4842464B4614F082FB3546E9E70E
:102820004FF0FF384FF0FF39D4E72B689B691BB19D
:1028300000221146284698471035BD42F5D3E8E7F7
:10284000054DFAE708000000E8130020F01300200F
:10285000CC0500205CC501004CC5010013B518482B
:1028600016F00AFE174B1B7873B1EFF31184202387
:1028700083F31288BFF36F8FFFF71CFF84F3118877
:10288000BFF36F8F02B010BD0F4B1B68002BF9D048
:1028900050B900220023CDE900230C484FF4004238
:1028A000002315F009FCEDE70928EBD1074815F0E6
:1028B00029FC074802B0BDE8104014F0FDBA00BF83
:1028C000F0130020E8280020E8130020000C00206E
:1028D000CC05002010B5064B1B68044698472146DE
:1028E000A060044816F0C1FBBDE81040FFF7B6BF7A
:1028F0002402002018050020044A054B9B1AB1EB66
:10290000D30F34BF52F831000020704754C4010087
:102910004CC501002DE9F04F8FB004AFC1F34A263A
:10292000B8600D4690467B600C0D002E61D04FF0D4
:1029300000090A234FF0040B07F1140AFE60C7E9EF
:102940000799C7F824900093CDF808B0CDF804A0FB
:1029500007F11C03F9684A464046FFF75BFAB0F5F9
:10296000006F03461CD36C468AB0D8F8041004AB41
:102970002448C3E9050140F2FF71D9611A464FF4BA
:1029800000711984204B42F8103F20484B464FF409
:102990001251FFF7BFFFA5462C37BD46BDE8F08FAB
:1029A000C0F30A0604F11700184420F0070080085D
:1029B0003B60FFF763FE66F35325044680B13B6836
:1029C000134A00F11001C7E90839F961CDE901ABFB
:1029D0000A230093F96807F11C034046FFF71AFA2F
:1029E00066F353257B68B9682A46204616F084FDB5
:1029F000D2E704F1170020F007008008FFF73EFE41
:102A00000446EDE756D4010004000001DCC40100D7
:102A1000CB9401002DE9F04F87B0DDE9127ADDE9B2
:102A2000106B0546884614469946BFB11021CDF873
:102A300000A03B465A460020CDF814A015F063FFD5
:102A4000B0F5006F01460BD3194A1A4840F2FF73E4
:102A5000022107B0BDE8F04F16F0A7BD3946384651
:102A600004F0070305F00704E40044EA831444EA91
:102A7000402444EA065406F11700084420F00700F9
:102A800080080391FFF7FAFD054640B13FB1039975
:102A9000CDF800A03B465A46103015F034FF4B46A7
:102AA00022464146284607B0BDE8F04F16F024BD47
:102AB00095D40100DCC40100406820B1034BC01A6A
:102AC00040F3CF0070474FF0FF30704754C401000F
:102AD0000EB403B503AB014653F8042B044801932D
:102AE00000F066FF02B05DF804EB03B0704700BF72
:102AF0000D960100CA0605D48B064CBF0249034956
:102B0000FFF7E6BF704700BFCED40100CDD401006F
:102B10002DE9F04F8BB09946179B0793DDE918A379
:102B20009DF858801A9F069204460D460593B8F109
:102B3000000F00F0BF80844B13F80830089307F4AF
:102B40008073099316F0B6FC07F0020B02460028CA
:102B50007DD07E492046FFF7BBFF0646BBF1000F44
:102B600008D017F0440F74D179492A462046FFF760
:102B7000AFFF064407F0010353B1764B764953F893
:102B80002820764B2046002A08BF1A46FFF7A0FFF0
:102B900007F48073002B07F0080318BF4FF00009FB
:102BA000002B00F082806E4B6E4953F8282020469F
:102BB000FFF78EFF0546069B2BB16B491A46204650
:102BC000FFF786FF0544B9F1000F0DD0089B002BDD
:102BD0006ED06649664BB8F1040F18BF19464A46D5
:102BE0002046FFF775FF054462483544079B1BB13B
:102BF0006149224616F02FF8059B002B00F09080CB
:102C0000DDF814903946B9F1100F204628BF4FF077
:102C10001009FFF76FFF0026B54252DC002633464D
:102C20001AF8032055492046FFF752FF0136102EAF
:102C30004DD0710703D152492046FFF749FF4E4559
:102C40003346EDD34F492046FFF742FFEEE70646F5
:102C500084E74D4B186800288BD04C4B4FF47A7B9F
:102C60001B68B5FBF3F54FF46163B5FBF0F100FBB6
:102C700011550BFB05F54FF03C0CB1FBF3F203FBD8
:102C80001211B5FBF0FEB1FBFCF300FB1E550CFB73
:102C900013110BFB05F50091B5FBF0F53C49CDE9AF
:102CA00001E52046FFF714FF63E707F0080582E718
:102CB0002F4994E7B9F1010F0CBF2E48354845461E
:102CC00094E72F492046FFF703FF0136A4E7324976
:102CD00020460026FFF7FCFE33461AF803202F4952
:102CE000A2F120035F2B28BF2E222046FFF7F0FE23
:102CF0000136102E0DD0720703D121492046FFF76F
:102D0000E7FEB1453346E8D81D492046FFF7E0FE0F
:102D1000EEE7059BB3EB0903CA4405937FF470AF5C
:102D2000B8F1000F0AD0FB0704D50C4A0A49204627
:102D3000FFF7CEFE39462046FFF7DCFE20460BB0FB
:102D4000BDE8F04F16F055BC07F10100DED40100DC
:102D5000E2D4010004C60100ABDE0100D0D40100C2
:102D600018C6010008D501000ED50100D5D4010018
:102D7000D9D401000D960100B139000012D501002F
:102D80001AD5010018D50100FC130020F81300200B
:102D9000ECD40100439601001CD501001ED50100B2
:102DA00073B542F20F738B4228BF0B4605680F4A7A
:102DB00004460521684615F003FA63680C495B6810
:102DC00006460B22284616F006FC63683246694622
:102DD00028465B6816F0FFFB636806495B681B22A8
:102DE000284616F0F8FB02B070BD00BFD2ED01001E
:102DF000FBF00100DFF00100074A002101239042AF
:102E000006D8064A01B901231360054B18607047C4
:102E100040085B000121F2E740420F00F813002058
:102E2000FC130020F8B5074F0D4604464618B4427F
:102E300001D12846F8BD14F8011BBB6801485B6846
:102E40009847F4E720C10100014B03600020704760
:102E500060C6010010B5DFF824C086B04FF4281416
:102E6000CDE904C40824029404AC0194BDF82040C8
:102E7000009417F0F3FD06B010BD00BF1800280045
:102E800080B505460E461746984614F059FE03468F
:102E900000F030FCDFF81890044649F80030424654
:102EA00030463946A84754F8090000F0C5FB00BF7A
:102EB0000800000008B50348034A0021121A16F062
:102EC00071FC08BDF8060020882900200748084A40
:102ED000084908B5121A16F067FC0748074A08495E
:102EE000BDE80840121A16F05FBC00BF00000020C9
:102EF000F8060020D4F101000000002000000020AE
:102F0000D4F101002DE9F047064600AF0C46002938
:102F100036D0E9468AB0D1E90012A3686D4621484F
:102F2000E8464FF0050ACDE90501CDE9072348F849
:102F300010AF1D48424600234FF42151FFF7EAFC31
:102F4000CD46D4E903126369AD461848C5F810A010
:102F5000C5E90501C5E907231348002342464FF49C
:102F60002151FFF7D7FCCD46E369114A0E480121F4
:102F700016F01BFBA3690F4A0B48012116F015FB45
:102F8000012E07D1EFF305830B4A0748103B31466A
:102F900016F00BFB2146304613F0A2FCBD46BDE8FF
:102FA000F08700BF5BD501000CC501008AD5010088
:102FB000B9D50100C8D50100F6D5010030BFFFF733
:102FC000FDBF00BF2DE9F0410B4EDFF8308006EB6E
:102FD0000807CC1B054632460949204618F072FF07
:102FE000A01942460021083C18F093FF2C6707F116
:102FF0000800BDE8F08100BF0000000004000000F0
:103000005CC5010010B5204C2049214816F0D9FBC1
:10301000A36A990136D51E481E4916F0D2FB1E2020
:10302000A36ADA0104D51A481B4916F0CAFB1F200F
:10303000154CA36A1B0304D51548184916F0C1FBAB
:103040002120A36A590304D51148154916F0B9FB8C
:1030500022200D4CA36A9A0304D50D48114916F09D
:10306000B0FB2320A36ADB0304D509480E4916F000
:10307000A8FB2420044A936A6FEA03436FEA1343D0
:10308000936210BD1D20CBE700ED00E009D60100E2
:103090000CC5010021D6010034D601004ED6010036
:1030A0006CD6010091D60100ABD6010070B5064682
:1030B0000D46294C29492A4816F083FBA36ADB06F2
:1030C00047D52748274916F07CFB1120A36A1C0727
:1030D00004D52348244916F074FB12201E4CA36A21
:1030E000990712D521491E4816F06BFB636BA26A43
:1030F000120609D51E4A1A48012116F056FA1EB1C9
:10310000A36A23F08003A3621320134CA36ADE0793
:1031100004D51348174916F054FB1420A36A9C06E3
:1031200004D50F48144916F04CFB15200A4B9A6A37
:10313000D10658BF9A6A9A6A920642BF5A6A22F426
:1031400000525A629A6A42F0FF029A6200232B7080
:1031500070BD1020BAE700BF00ED00E0D6D6010038
:103160000CC50100ECD601001FD7010032D70100C9
:103170004AD7010060D701007FD7010070B506462D
:103180000D46284C2849294816F01BFBA36AD90490
:103190003CD52648264916F014FB1720A36A1A05C9
:1031A00004D52248234916F00CFB18201D4CA36AB5
:1031B0009B0512D51D48204916F003FBA36BA26A9C
:1031C000100409D51D4A1948012116F0EEF91EB167
:1031D000A36A23F40043A3621920124CA36A590581
:1031E00004D51248164916F0ECFA1A20A36ADA053B
:1031F0000ED50E48134916F0E4FA1B20094A936ACB
:1032000043F47F43936200232B7070BD1620C5E703
:10321000A36A9B04F2D505480B4916F0D2FA1C208C
:10322000ECE700BF00ED00E0AED701000CC50100E7
:10323000C4D701001FD70100D5D70100EED7010088
:1032400003D801001ED801007FD70100F0B56A4BFA
:103250008BB00446586800AFC0F30803002585F31F
:103260001188BFF36F8F02F07F46B6F17F4F07D111
:1032700002F00C06082E0ED16049614816F0A1FA42
:1032800060495F4816F09DFA00210846FFF73AFEB4
:103290002C37BD46F0BD16074CBF0C460125002C4F
:1032A000EED00022FA71DA1E092A00F28580DFE8EA
:1032B00002F0057B7E778383838383815249504864
:1032C0004D4E16F07EFA0023FB71F36A9A0705D57E
:1032D0004E494B4816F075FA00232DE0F36A002B97
:1032E00001DA4B49F5E7F36A5B00F5D549494448F3
:1032F00016F067FA7369A26943F480737361BFF3D0
:103300004F8FBFF36F8F32F8023C726922F48072E4
:103310007261BFF34F8FBFF36F8F03F47F42B2F53B
:103320005F4F27D1DBB2022B24D123683A4A3448BD
:10333000012116F03AF92368FA79002AA8D107F199
:10334000080604F1200C20686168324603C2083484
:1033500064451646F7D17A6A002D4AD0C2F30801B7
:1033600021B96FEA52226FEA42227A6207F108011C
:1033700018468BE7204B9A6AD2B222B1F91D012080
:10338000FFF794FE0EE09A6A12F47F4F04D0F91D05
:103390000120FFF7F3FE05E09B6AB3F5803F9BD366
:1033A000FFF730FE0346C7E7F91D0020E8E7F91DE7
:1033B0000020EEE719498CE7194A1A4910F4F87F02
:1033C0006E468AB018BF11466A46103B07931648EE
:1033D0004FF40073ADF82030144BCDE9050142F8ED
:1033E000103F074800234FF41151FFF793FAB546F9
:1033F00072E76FF30802B8E700ED00E064D801005F
:103400000CC501008FD80100CBD80100E2D8010023
:1034100003D9010011D9010030D901004CD90100B4
:103420004BD8010036D8010070D90100040000011A
:10343000044B5A6942F010025A615A6922F008029C
:103440005A61704700ED00E0EFF30880EFF3098167
:1034500001B57246FFF7FAFE01BD00BF0B4880F3CD
:10346000088812F0D3F9202080F3118808484FF41F
:103470000061401880F30988EFF3148002210843AB
:1034800080F31488BFF36F8F00F06CF8584C002065
:10349000183F00201EF0040F0CBFEFF30880EFF37D
:1034A0000980816911F8021C0229FFD001B572461A
:1034B00016F07CF901BD00BF40B2002807DB044ACA
:1034C0004109012300F01F00834042F8213070477A
:1034D00000E100E040B200280CDB4309064900F09F
:1034E0001F0020330122824041F82320BFF34F8F79
:1034F000BFF36F8F704700BF00E100E0054B42094A
:1035000000F01F0053F82220012303FA00F01040BE
:10351000704700BF00E100E040B20028A8BF00F102
:10352000604001F10101B8BF064B4FEA4111ACBF49
:1035300000F5614000F00F00C9B2B4BF195480F823
:103540000013704714ED00E0044B054A23F07F039D
:103550009360BFF34F8FBFF36F8F70470000000081
:1035600000ED00E008B5FFF7EFFF0B4AD2F8883016
:1035700023F47003C2F88830EFF3148323F00403BC
:1035800083F31488BFF36F8FFFF794FCFFF79EFC63
:1035900000F092F813F0D0FA00ED00E042F8203C81
:1035A000009B42F81C3C0A49019B42F8183C029BD4
:1035B00042F8143C21F001014FF0807342F8043CC2
:1035C00042F8081C0023203A02654367704700BF99
:1035D000812E000000B50B4B98600B4B1546026F17
:1035E0001A600E462C4686F309880020034B984744
:1035F0002046002100220023014C2047D9970100DA
:10360000812E00008C28002024140020014B102261
:103610001A61704700ED00E0054B5A699B689A42B9
:103620001FBF044A536843F080535360704700BF84
:103630008C28002000ED00E0084B9B6883420BD1F2
:10364000EFF3058343B1064B5A6842F080525A604B
:103650005A6A22F400425A6218F0ECBA8C28002010
:1036600000ED00E011498A684FF030001044EFF39C
:10367000098C80E8F01F202080F31288BFF36F8F41
:103680000B4F4FF000664A698A603E60106F094C2C
:103690002060506F0023536780F3118802F13000DF
:1036A00090E8F01F8CF30988704700008C280020F8
:1036B00004ED00E024140020044800232021C21857
:1036C0000133302B82F80013F9D1704700E100E09C
:1036D00008B5EFF30583064A103B02EBC30152F82D
:1036E000330049688847BDE80840FFF795BF00BF31
:1036F000ACC101000148006870470000241400209C
:10370000024B034A0348012100F07AB8000004206C
:1037100000000020ECC6010008B503461048D0F8B0
:103720009020C2F30722013A934207D90D480E4A6E
:10373000012115F03AFF6FF0150008BDC0F8983070
:103740000A6822F01F021A4342F01002C0F89C20BF
:103750008A6842F00102C0F8A0201846EDE700BFD9
:1037600000ED00E0F4C4010087D90100F0B50E4679
:1037700085B01F4604460025B5420DDA606810B3D7
:1037800097B1431E18420AD0104A11482B46012116
:1037900015F00BFF6FF01502104605B0F0BD1F28A5
:1037A000F2D921680B42EFD12368019316F037F864
:1037B000A36801A90343D0B20393FFF7ADFF10F153
:1037C000160FE7D0421C01350C34D5E7ADD9010006
:1037D000F4C40100044B0522C3F89420BFF34F8FBB
:1037E000BFF36F8F704700BF00ED00E0BFF35F8F46
:1037F000024B0022C3F89420704700BF00ED00E0A8
:1038000010B5034C01232278FFF7B0FF207010BDE4
:10381000EA2800202DE9F0435F486049D0F8903055
:103820000C68C3F307239C4285B000F2B280FFF717
:10383000DDFF49680022944201F10C011AD1584F72
:10384000584D3C706846FFF7FFFA574C574E81467B
:103850004FF00008C14520D13B784F490020D1F8F6
:103860009020C2F307229342C0F28D80FFF7B2FF8F
:10387000002052E0C0F8982051F80C3C23F01F03C0
:10388000134343F01003C0F89C3051F8043C43F05C
:103890000103C0F8A0300132CDE7009800EB081119
:1038A0004FEA081CCB682340B3F5000F4ED00BD86D
:1038B000B3F5001F34D0B3F5800F3CD0B3F5801FB3
:1038C00016D008F10108C5E7B3F1007F46D0B3F187
:1038D000805F4BD0B3F1807FF3D150F80C30886813
:1038E0004A6815F09CFF40F0885040F4801009E0D1
:1038F00050F80C3088684A6815F091FF40F0885005
:1039000040F43020039001A93878CDE90123FFF776
:1039100003FF002833DA6FF0150005B0BDE8F0832F
:1039200050F80C3088684A6815F079FF40F08850EC
:1039300040F40020E6E750F80C3088684A6815F03B
:103940006EFF40F0C06040F40030DBE750F80C3010
:1039500088684A6815F063FF2843D3E750F80C30B5
:1039600088684A6815F05BFF3043CBE750F80C30AD
:1039700088684A6815F053FF40F08850E3E73B78C9
:1039800001333B709DE7C1F89830C1F8A0000133C6
:1039900065E74FF0FF30C0E700ED00E0F8C601003A
:1039A000EA280020000004110000F0FF00000410CD
:1039B000F0B587B007460E4614460021102268462F
:1039C0001D4618F0A6FA02238DF802302A46054B50
:1039D000019321466846CDE9047614F01BFC07B03C
:1039E000F0BD00BF3F98010008B5024B1B68984727
:1039F000002008BD28140020034B044A1860937867
:103A000043F00203937070472814002048020020FE
:103A100008B50649064821F00701C1F1005202F538
:103A2000802214F02FFF002008BD00BFE7590020BE
:103A30002C14002070B54169867A0B4D044659B1AB
:103A4000437ADB0706D4242303FB0653DB691B6898
:103A50009B689847002363612420214600FB0650A1
:103A6000BDE8704017F0A0BFFC050020024B2422E7
:103A700002FB0030704700BFFC050020827A064B35
:103A8000242101FB02331A6A1B7D1B33801A23F0A9
:103A90000303B0FBF3F07047FC05002038B5074B7B
:103AA000827A242404FB0233DB69D3E901240C600D
:103AB0001568FFF7E3FF04FB005038BDFC0500204C
:103AC0002DE9F04385B005466846039190461C46B3
:103AD00018F08EF9DDE90067EFF31189202383F3F5
:103AE0001288BFF36F8F6B8A002B41D02A8A9A42CB
:103AF00025D900220023284613F0A8F90446F0B186
:103B000089F31188BFF36F8F039B002B41D032469E
:103B10003B46684618F091F9A27A264B242101FB16
:103B200002332046DB691B6803A91D68DDE9002319
:103B3000A847606170BB2046FFF77CFF24E0698ADC
:103B40004B1E6B8289F31188BFF36F8F2B7D2A8AFE
:103B50002C6A1B3323F00303521A02FB0344154B58
:103B6000154AEB1A9B105343A3722B7DE372CBE7EC
:103B700089F31188BFF36F8F23464246284613F01E
:103B800065F904460028BFD10024204605B0BDE8F1
:103B9000F0836361012300252381039B6382E27A22
:103BA0006560294604F1180018F0B3F963692582AD
:103BB000E360EAE7FC050020398EE338F8B5124DE2
:103BC0000024242600B9F8BD00F108024768BFF3BD
:103BD0005B8F52E8003F591E42E8001CBCF1000F09
:103BE000F7D1BFF35B8FDBB2012BECD1837AC460DA
:103BF00006FB035344609B6913B198473846E1E7DD
:103C0000FFF718FFFAE700BFFC050020044A012374
:103C1000C2F840354FF08042C2F87835704700BF97
:103C200000E0014048B1054B054A1B68B3FBF2F3C5
:103C30005843044B43F0010318477047D804002051
:103C400040420F0070C5010008B5054A054B1360DE
:103C500010463C23536011F0AFFE002008BD00BFAA
:103C6000381400203FC00F0008B50A4817F05FFD68
:103C700068B1084817F05BFD48B1074A05481821AC
:103C800015F0B2FE054A0348192115F0ADFE0020DB
:103C900008BD00BFE8C001000100160001001A00C5
:103CA00070B50B7892B006460C4607AD032B31D8A1
:103CB000DFE803F0022A2C2E19492846FCF78AFA7D
:103CC000059563780493A3780393E37802932379AB
:103CD000019363790093A379124A1E210AA814F074
:103CE0006FFA10AD0AAB32461C4603CCAC421060F2
:103CF0005160234602F10802F6D120681060A388C3
:103D00009380304612B070BD0749D6E70749D4E723
:103D10000749D2E7074A0A21284614F051FACFE7AB
:103D2000FDD901001FDA010004DA01000BDA0100FD
:103D300015DA0100F9E901000E4B402970B528BFE2
:103D400040210D4C46181D46B04203F1020304D138
:103D5000002305F81130074870BD02781209A25CF3
:103D600003F8022C10F8012B02F00F02A25C03F8FA
:103D7000012CE9E7EB28002026F1010030B503789B
:103D8000012B11D0022B21D06BB9154B0A4603F140
:103D9000100453F8045B42F8045BA342F9D1438852
:103DA0001A0A8A70CB7030BD0D4B0A4603F110041D
:103DB00053F8045B42F8045BA342F9D143681A0C40
:103DC000180E4A700870C3F30722EAE700F11003E7
:103DD000013913F8012901F8012F9842F9D1E2E7DE
:103DE00037F1010010B515F084FE17F018FF0446F6
:103DF00008B913F081FEBFF35B8F064B1B68BFF35E
:103E00005B8F0BB10A2098471CB9BDE8104013F036
:103E100087BE10BD4014002038B50446084815F090
:103E20002BFD054648B1631EDBB21F2B96BF054A2A
:103E30000021D15C0C3015F09EFD284638BD00BF36
:103E4000B006002047F101000F2810B50CD80D284E
:103E50000CD90A4815F010FD044618B104210C30A5
:103E600015F089FD204610BD1328F2D009B1044891
:103E7000F0E7BDE810400220FFF7CEBFD4060020D7
:103E800044060020C3681B78024A0348022115F04B
:103E9000A0BE00BF51DA0100ACC4010010B586B06D
:103EA00003AB002400930749074805944FF0FF3304
:103EB0004FF48062CDE9034413F00EFA204606B0B9
:103EC00010BD00BF88300020380C002038B5C56810
:103ED0002B7893B9B5F801400F21204602F0D4FBAE
:103EE000EB78054650B90A4A118831B96FEA045097
:103EF0006FEA10501080074A137038BD43720121D9
:103F000002F0E0FA2846BDE8384002F085BA00BF6A
:103F1000C42800206C29002070B5C3681D78BDB985
:103F2000B3F801600F21304602F0AEFB044638B909
:103F3000084A094833460121BDE8704015F049BEE2
:103F4000294602F0BFFA2046BDE8704002F064BA8C
:103F500070BD00BF79DA0100ACC4010010B5C368C0
:103F6000B3F801400121204602F08EFB38B9064A21
:103F7000064823460121BDE8104015F02ABEBDE8E1
:103F8000104002F049BA00BF9FDA0100ACC4010042
:103F900010B501210C3015F00FFD0378034A0448D9
:103FA000BDE81040012115F014BE00BFC3DA0100C6
:103FB000ACC40100014610B5084815F061FC084981
:103FC000084817F0D8FD031E06DA074A0748BDE87F
:103FD0001040012115F0FDBD10BD00BF34010020CF
:103FE000F8020020D80C0020E5DA0100ACC4010082
:103FF00010B5084C0146062294F86E0002F05CFEF3
:1040000038B994F86E000449BDE81040052202F06A
:1040100053BE10BD000000200CF10100024A03480D
:10402000012115F0D4BD00BF02DB0100ACC40100CA
:10403000B0B50B460D8A00AF04462946D868FFF795
:104040007BFE8AB06A46094BCDE9053440F2024353
:10405000ADF82430064BCDE907504FF4325142F809
:10406000103F044815F0C6FDBD46B0BD1CDB010085
:1040700005000001ACC4010070B5C568B5F8016069
:104080000121304602F000FB044638B90D4A0E48C3
:1040900033460121BDE8704015F09BBD2B783BB93C
:1040A000D5F80330C0F89930D5F80730C0F89D3006
:1040B000201D4FF4803115F08EFD2046BDE8704084
:1040C00002F0AAB99FDA0100ACC401002DE9F84F53
:1040D000D0F80C90018A99F80040A30001338B427C
:1040E00000AF63D96D468AB06A463248CDE90731E0
:1040F0000523CDE905044FF4215142F8103F2E4825
:1041000015F078FDAD46BD46BDE8F88F2B4A2A482C
:104110002B46012115F05DFD013699F800309E42D5
:10412000F1DA09EB86030F21B3F80150B3F80380ED
:10413000284602F0A9FA04460028E7D000F1C00A98
:10414000B8F1000F06D0656945B91D4A1A4801212A
:1041500015F03DFD204602F05FF9DDE7A2692B680E
:104160006361954208BFA361204602F06BF812F02C
:10417000A3FEC5F800B0236AABB9C4E90755BFF385
:104180005B8F5AE8003F013B4AE80032002AF8D131
:10419000BFF35B8F0021204608F1FF3802F05EF884
:1041A0001FFA88F8CCE71D602562E8E70026B346D1
:1041B000B3E700BF3EDB0100ACC4010069DB0100D6
:1041C00085DB010037B502EBC303044608469A427B
:1041D00002D16FF05E0010E0114611F8085BA542B5
:1041E00011D1038A5178994209D90848084A0094A4
:1041F000012115F0E4F96FF0150003B030BD5368EC
:1042000098470020F9E70A46E1E700BFACC4010087
:104210009CDB01002DE9F0470C4613F06DFCE568CE
:104220002B78022B72D0042B07D03C4A3C4801214A
:1042300015F0CFFC6FF015040EE0B4F81080B8F163
:10424000020F0ED8374A43463548012115F0C1FC0C
:104250002046FFF7B3FC002413F062FC2046BDE8C3
:10426000F08768783E280CD1B8F1030F02D12E4AAE
:104270004346E9E7EB78012B01D00A2B46D103270F
:1042800004E015F092FC0746F8073FD504F10C0650
:1042900001213046D4F814A015F086FB02213046E7
:1042A00015F08AFB814600783E2807D1E3681B7829
:1042B000012B01D00A2B06D1032614E015F075FC62
:1042C000C10706460FD4194A19491A4841F28A1300
:1042D00014F020FD002383F31188BFF36F8F0323B5
:1042E000184602DF0226144A99F8000006232146E8
:1042F00015F0ABFCB2070DD56369A4F81080A5EBEF
:104300000A0513FA85F5E560BB07A4D52046FFF73B
:1043100051FEA0E72046FFF751FCF5E764DC010001
:10432000ACC40100BEDB0100DADB0100FADB0100F6
:104330002EDC010047DC0100E4C7010010B50121BB
:1043400004460C3015F038FB2146034A0078BDE8DE
:104350001040022315F079BC14C8010073B53E4823
:1043600015F0A3FA0446002873D000F10C05284686
:1043700015F02AFB0228034603D0042847D0374A09
:1043800003E0238A032B05D8354A3648012115F06E
:1043900020FC13E00421284615F00EFBFF23428881
:1043A00006882376238AC6F30B009A42608309D0DD
:1043B0002C48009201212C4A15F001F92046FFF704
:1043C000FDFB12E00F2102F05FF9054610B9638B87
:1043D000264ADAE702F07EF9320B2076214628469B
:1043E00001F092FF284602F017F8214BD3F8343140
:1043F0007BB32049204817F0BEFB031E29DA1F4A71
:104400001848012102B0BDE8704015F0E2BB284613
:10441000022115F0D1FA054600783E2812D015F099
:10442000C4FB10F002060DD1154A1649164840F695
:10443000BC4314F06FFC86F31188BFF36F8F032326
:10444000184602DF114A28780423214615F0FDFBA7
:10445000B4E702B070BD00BF340100200DDD0100E3
:1044600078DC0100ACC4010099DC0100BDDC010076
:1044700000000020F8020020D80C0020E5DA01003E
:10448000FADB0100DFDC010047DC010024C8010089
:1044900010B5012104460C3015F08EFA2146034A6E
:1044A0000078BDE81040062315F0CFBB44C80100DA
:1044B000F8B5012100AF04460C3015F07DFA0678FE
:1044C000114A002321463046FFF77CFE5F3019D1A8
:1044D000258AE0682946FFF72FFC6C468AB06A46B9
:1044E0000A4BCDE9053640F20243ADF82430084BC3
:1044F000CDE907504FF4325142F8103F054815F00E
:1045000079FBA546BD46F8BD74C8010021DD010058
:1045100005000001ACC401002DE9F74FDFF818A138
:10452000BFF35B8F80468946174600235AE8004F49
:104530004AE80032002AF9D1BFF35B8F264644B91E
:104540003E4A3F484346012103B0BDE8F04F15F015
:1045500040BB2046FFF792FA3A4D4FF00C0B0BFB95
:104560000050438843451FD02046FFF787FA0BFBD6
:1045700000504388344A009331484346012115F0E6
:104580001EF8BFF35B8F5AE8003F4AE80062002A3A
:10459000F9D1BFF35B8F002B4BD01E46304603B0E2
:1045A000BDE8F04FFFF70ABBA74208D0204615F040
:1045B0005EF93A8AF96804F10C0015F0D3F9204647
:1045C000FFF75CFA0C2707FB00504368ABB1B9F169
:1045D000000F12D12046FFF751FA07FB00500121CE
:1045E0004268536803F01F00814010685B0900EBCC
:1045F0008300137ACBB115F0EEFA2046FFF73EFAAE
:104600000C2707FB00508368002BC7D02046FFF71C
:1046100035FA784305F800902046FFF72FFA07FB9C
:104620000055A86812F048FCB8E7C94315F0E5FA50
:10463000E3E703B0BDE8F08F3001002053DD010057
:10464000ACC40100441400207BDD010073B5C568D3
:10465000B5F801600121304602F016F8044640B971
:10466000404A41483346012102B0BDE8704015F090
:10467000B0BA2B781A2B00F1040619D1C378012B9C
:1046800050D14FF48041304615F0A5FA42040FD4C2
:10469000D4F88C3000936946D4F8943001932046C6
:1046A00002F04EFE204602B0BDE8704001F0B4BEFC
:1046B0002B78BBBBB5F803302C4940F2E2425343A0
:1046C000C4F88830B5F80520A4F89020B5F8072084
:1046D000A4F89220A3F5EA520C3A8A4204D9244A5B
:1046E0002148022115F075FAB4F89030B3F5FA7F3D
:1046F00004D3204A1C48022115F06BFAB4F892301A
:10470000A3F10A0292B240F676418A4204D91A4ACB
:104710001548022115F05DFA6FF48051304615F00E
:104720006CFA17E0BFF35B8F6368BFF35B8FDB044A
:10473000F2D52B78202BEFD194F89830002BEBD0CA
:10474000013B84F898304FF42032002304F14000FC
:1047500012F02CFE2B78002BA4D1204602F0A0F9F9
:10476000A0E700BF9FDA0100ACC4010095F03C0057
:10477000AEDD0100D5DD0100FCDD0100B0B53C2857
:1047800000AF04461AD101F06FFA6FF48071103057
:1047900015F033FA0020FFF72BFC054630B9124A1A
:1047A0001248012115F013FABD46B0BD4472002134
:1047B00001F088FE284601F02FFEF5E76D468AB02D
:1047C0006A460B4BCDE905300A4B079340F20133A3
:1047D000ADF82030084B42F8103F04484FF4125116
:1047E00015F008FAAD46DFE728DE0100ACC4010091
:1047F00049DE0100CFD4010004000001094BBFF3E2
:104800005B8F1A68BFF35B8F02F00B02BFF35B8F05
:1048100053E8001F43E800200028F9D1BFF35B8F65
:10482000704700BFD400002010B5C1E900239DF8F7
:1048300008300B720C46FFF721F9034B0C2202FBE8
:1048400000335C6010BD00BF44140020F8B5024680
:104850000B46104815F010F80446C0B104210C3086
:1048600015F06FF82046FFF709F90B4D0C2707FBF1
:104870000050002646802046FFF700F907FB005055
:1048800086602046FFF7FAF807FB00556E60204669
:10489000F8BD00BF8C0600204414002011289ABFE8
:1048A000024B53F820000248704700BF60C7010068
:1048B00065DE0100034B0146D3F84C018268926823
:1048C000104700BF000000202DE9F04F91B00421F7
:1048D00000AF4A4815F07FF96D4688B06A46484BEC
:1048E0000593484B06934FF40073ADF81C30464CCB
:1048F000464B42F8103F4648464E4FF4E65115F0FD
:1049000079F9454BE17907F12008AD46012998BFB7
:104910001E4640462146FFF7C3F98AB06A463F4B20
:10492000CDF81C80CDE905363D4B08933D4B42F850
:10493000103F37483C4EDFF8F4804FF4235115F018
:1049400059F9A246AD460125E3799D420AF1070ACD
:104950003BDB94F86F100846FFF7A0FF6E468CB063
:10496000B4F87250B4F876306A46DFF8C4C00993E0
:10497000CDE907152F4B4FF40075CDE905C0ADF813
:104980002850234842F8103F4FF4535115F032F9A4
:1049900094F87010B5460846FFF780FF8AB0B4F867
:1049A00074306A46244CADF82450CDE90713234BEC
:1049B000CDE905404FF4335142F8103F144815F04B
:1049C00019F94437BD46BDE8F08F51463846FFF728
:1049D00067F9E9468AB06A4640F20133CDE90565D8
:1049E0000797ADF820300A4842F8108F4FF4135162
:1049F00015F000F90135CD46A6E700BFD400002030
:104A000071DE010083DE01000000002003000001D0
:104A1000ACC401006DDE0100CFD401008EDE0100C8
:104A200000020103040000029DDE010004000001F9
:104A3000AEDE010006000001ECDE01000500000111
:104A40000048704741D001000149024817F093B86F
:104A5000E8020020380C002070B505460C4639B13C
:104A6000CB684A699B1A032B0ED86FF0150509E035
:104A70004FF0FF304FF0FF31FFF7E8FE044618B962
:104A80006FF06805284670BD2046FEF7F7FF174B0C
:104A90000C2202FB0033A618032130465D8014F07F
:104AA00072FF0580238A033B83700121304614F096
:104AB00072FF40F635439D420FD12046FFF7FAFEC4
:104AC00005460028DED00A4A03460121094815F0B0
:104AD00080F82046FFF772F8D4E70748214616F021
:104AE00050FF0025FFF7B0FFCCE700BF44140020C3
:104AF00013DF0100ACC401003C0100202DE9F047A8
:104B000084B0804600AF91460C4671B94FF0FF303B
:104B10004FF0FF31FFF79AFE044660B96FF0680569
:104B200028461037BD46BDE8F087887AFEF79EFF1D
:104B30003C4B83426FD101220021384616F058FFCA
:104B40002046FEF79BFFDFF8E0A00C2303FB00A04C
:104B50008760204614F0BFFE01464046FFF77CFF09
:104B6000054618B12046FFF729F8D9E74FF4A022EF
:104B70000023384612F0D4F9064690B140F2E31310
:104B80002A4A2B492B4814F0C5F82B483246414697
:104B900014F0C0F885F31188BFF36F8F0323184614
:104BA00002DF2046FEF76AFF0C2358431AF8006024
:104BB0005EB36D468AB06A46204B0796CDE905384C
:104BC0001F4B089340F20243ADF824301D4B42F8CE
:104BD000103F1D484FF4325115F00CF82046AD46F9
:104BE000093EFEF7EBFF092E0CD8DFE806F0050BB7
:104BF0000B08170B0B0B0B146FF06E0590E76FF0A3
:104C00000C058DE76FF004058AE7B9F1000FA9D014
:104C1000C9F8004084E76FF0150581E76FF00B05D8
:104C20007EE700BF8C06002044140020FADB010060
:104C300035DF010047DC01003EDF010083DF0100BA
:104C4000CFD4010005000001ACC401002DE9F04FF4
:104C50008DB05E4BB0F80190198849F470429142D2
:104C60004FF0000602BF1E80594B1E78C378012BFF
:104C700008BF584B00F1040A00AF054650460CBF70
:104C800093F86E40002414F030FF07F108085146F5
:104C900080B3404614F01EFFD5F81130C7F801303C
:104CA000B5F81530A7F805304FF0010BEB78012B64
:104CB00037D007F1100451462046FEF7F1FF6D464C
:104CC00088B06A46444B4548CDE905344FF400733B
:104CD000ADF81C30424B42F8103F4FF4E25114F053
:104CE00089FF1321AD46484614F0E1FF3437BD4635
:104CF000BDE8F08F204615F063F803460068B86001
:104D00009A889B796868A8F8042088F80630BAF871
:104D100004209AF8063095F804B03860BA80BB7168
:104D2000C4E74046FFF764F904460028C1D00346B3
:104D3000B5F8012023F8702BB86898F80620B8F869
:104D4000041020679A719980B5F8173040F2E2425A
:104D50005343C4F88830B5F81930A4F89030B5F84A
:104D60001B30A4F89230EB78E3700022012B6272C2
:104D70001AD187F800B0BA88BB793868A4F87B20CC
:104D800084F87D30C4F8770000F06EFF237A114973
:104D9000C3EBC3035A18CB58C4F87E309388A4F8E9
:104DA0008230937984F884300721204601F08AFB11
:104DB00026B166720121204601F084FB204601F0F5
:104DC000C5FC204601F028FB90E700BFC428002066
:104DD0006C29002000000020A2DF0100ACC401000B
:104DE0000300000100B5C368187889B020B109B08C
:104DF0005DF804EBFFF7C2BCB3F80120ADF8012069
:104E0000DA788DF800008DF80320B3F80B20ADF8A8
:104E10001720B3F80D20ADF81920B3F80F20ADF826
:104E20001B205A7C8DF81D20586801901A899B7AA6
:104E30008DF80A30094BADF8082068461A689B883F
:104E4000CDF80B20ADF80F30CDF81120ADF81530AE
:104E5000FFF7FCFE09B05DF804FB00BF20F1010084
:104E6000F0B5002285B0114602AF40F60340FFF7CF
:104E700045FE044600285BD1FFF7C0FC21463A1DE1
:104E800041F20300FFF73AFE0446002850D17A6849
:104E9000B14DD168D1F80100D1F8051005F17803C2
:104EA00003C31046FEF78AFE21463A1D41F2010077
:104EB000FFF724FE044600283AD17868C3685A7880
:104EC00085F86F205A88A5F872201A7985F8702025
:104ED000B3F80720A5F87420B3F80530A5F87630AC
:104EE000FEF76CFE21463A1D41F20200FFF706FE76
:104EF0000446E8B9D7F804C0DCF80C2005F18006B8
:104F0000531C413218685968344603C4083393422D
:104F10002646F7D16046FEF751FE95F87C305E06D6
:104F20000AD48E4A8E48012114F051FE6FF012040B
:104F300020460C37BD46F0BD3A1D002142F2030069
:104F4000FFF7DCFD04460028F2D17A68854BD16872
:104F5000D1F80100D1F8051003C31046FEF72EFE6C
:104F600021463A1D42F20200FFF7C8FD0446002820
:104F7000DED17E68F468B4F801309AB292B1E2787A
:104F800082B1A5F8FC30E378032B06D0032200920F
:104F90007348754A022114F012FBE27873481146F7
:104FA00016F026FD3046FEF709FE95F87C601F23BB
:104FB00016F02006A5F8103119D14FF0FF304FF050
:104FC000FF31FFF743FC0446002800F07281022104
:104FD0000C3014F0C1FC01230370467021463246A8
:104FE00040F66D40FFF78AFD04460028A0D195F8F1
:104FF0009C301C0712D53A1D002142F21C00FFF71D
:105000007DFD0446002893D17868C368D3F8012059
:10501000D3F80530C5E93823FEF7D0FD4FF0FF3057
:105020004FF0FF31FFF712FC0446002800F04181E9
:1050300008210C3014F090FC95F8D83095F8D92060
:1050400013F0020F14BF2F230F2312F0090F18BF04
:1050500043F40063002203701B0A43708270C27025
:10506000027142718271C271214642F20100FFF762
:1050700045FD044600287FF45BAF95F87C30B5F819
:10508000FC1098065DD4C9B93A1D41F20500FFF73E
:1050900035FD044600287FF44BAFB5F8FC307C6842
:1050A0004BB9E368B3F80120A5F8FC209A882F4893
:1050B000114616F09DFC2046FEF780FD4FF0FF30B4
:1050C0004FF0FF31FFF7C2FB0446002800F0F180EB
:1050D00008210C3014F040FC1023037088230022B8
:1050E0004370022620238270C67002714271827161
:1050F000C371214640F60140FFF700FD0446002839
:105100007FF416AF01463A1D4FF60140FFF7F6FC5B
:1051100090B3174A1248022114F059FDEB79002B85
:1051200040F0B78000F0E6FC044600287FF400AFB2
:1051300001F002FF044600287FF4FAAEFFF7C4FB3B
:10514000F6E60029BAD10B4A0548012114F03FFDCB
:105150006FF00404ECE600BF00000020BEDF010099
:10516000ACC40100D8000020E2DF010000010020F3
:105170004BE0010028E001007B68DC68B4F80130F6
:10518000042B96BF584A594952F823106E468AB0EC
:1051900002AA5748D3614FF400731384554BC2E9F8
:1051A000050142F8103F54484FF4135114F022FD0A
:1051B000B4F80120B4F80330022AB54649D1052BD2
:1051C00047D84E4A52F823106E468AB002AA4C487D
:1051D000D3614FF400731384464BC2E9050142F8D2
:1051E000103F4FF41351444814F004FD637994F8D0
:1051F00006C0D4F80900032BB54698BF414AB4F85D
:10520000076094BF52F8231038496C468CB002AA4C
:10521000DFF8F4E0C2E9073C4FF4007393853B4BA1
:10522000C2E905E1C2E909604FF4735142F8103F49
:10523000314814F0DFFCA5467868FEF7BFFC3A1D44
:1052400000214FF60240FFF759FC044618B1304ADE
:1052500060E72649B8E77868C368B3F80130A5F875
:10526000C130FEF7ABFC95F8C1305A077FF556AF59
:105270003A1D21464FF60340FFF740FC08B1254A8E
:1052800048E77868C3685B7885F8C030FEF796FC1D
:1052900044E72E78002E7FF445AF95F8C1309B0689
:1052A0001FD54FF0FF304FF0FF31FFF7CFFA044624
:1052B00010B96FF068043BE606210C3014F04CFB8B
:1052C000D5F801300360144B9B8883802146324619
:1052D0004FF60640FFF712FC044600283FF422AFC9
:1052E00026E66FF0850423E6D0C7010065DE0100E5
:1052F0006FE0010004000001ACC40100B8C7010068
:1053000088E00100A8C70100A0E00100070000013B
:10531000CDE00100F6E001000100002010B5FFF72C
:105320009FFD034B1B6813B1BDE81040184710BD2B
:105330005C1400202DE9F341314D0646D5F84C01AF
:1053400016F0F5F950B92F4A2F48012114F03FFC0F
:105350006FF01204204602B0BDE8F0816FF0020148
:1053600005F1D40014F049FC012114F034FC10EADA
:10537000010442D1254B1E600A4605F5907016F0D7
:1053800037FB234F05F59E7016F0CDFA384616F020
:105390001DFC38461F4900946FF007034FF49662D6
:1053A00011F09AFFD7F880001B4916F03EFCD5F8A3
:1053B0004C010769D7F80080B8F1000F15D1174BE1
:1053C0003B6083681B689847044628B986B902B0D9
:1053D000BDE8F041FFF744BDC7F80080104A0A4815
:1053E0002346012114F0F5FBB4E76FF07704F5E7ED
:1053F00005F1C40011F06AFFACE76FF07704A9E78C
:10540000000000201FE10100ACC401005C1400207A
:10541000D80C00208834002037E10100154200003C
:1054200040E1010073B5C368D9789A781E8842EAD2
:105430000122ADF8002059791A7942EA0122ADF82B
:105440000220D9799A7942EA0122ADF804201A7A29
:105450005B7AB4B242EA032301212046ADF806305C
:1054600001F012F9054658B91D481E4A012123468C
:1054700014F0AFFB0221204614F058FC02B070BDBE
:10548000694601F05FFB38B91E21204614F04EFC3E
:10549000284600F0C1FFF1E74FF0FF304FF0FF3139
:1054A000FFF7D4F904460028F2D00E210C3014F096
:1054B00053FA00230680C0F80A30BDF8003043805C
:1054C000BDF802308380BDF80430C380BDF80630DB
:1054D0000381214642F22000FFF7BEFAD8E700BF61
:1054E000ACC401009FDA010038B5042104460C3039
:1054F00014F062FA034640885D7818B119782246A4
:10550000FFF70AF835B1044811F0D6FCBDE8384081
:10551000FFF79ABA38BD00BF20010020B0B50321C3
:10552000044600AF0C3014F047FAE2680346B0F8C6
:105530000100117840F63542904216D16C468AB08F
:105540006A46104B1048CDE90531104B079340F2E5
:105550000133ADF820300E4B42F8103F4FF412519A
:1055600014F048FBA546BD46B0BD1D7810B12246DB
:10557000FEF7D2FF002DF6D0064811F09DFCFFF794
:1055800063FAF0E75CE10100ACC40100CFD4010094
:10559000040000012001002038B512F0ADFA334DAF
:1055A000D5F83C31002B5ED00022002305F5907029
:1055B00011F0B6FC002856D10022002305F59E709C
:1055C00011F044FC044668B9294A2A492A4840F6A1
:1055D000CC4313F09FFB84F31188BFF36F8F032339
:1055E000184602DFD5F830319BB1244A2448012106
:1055F00014F0EDFABFF35B8F224B002253E8000F4B
:1056000043E800210029F9D1BFF35B8F08B1FEF711
:10561000D5FA204614F05FF9C5F830012046FFF7AF
:1056200049F90346C8B1184A1548012114F0D1FAC6
:10563000164811F041FC2046FEF720FA144B0C22CC
:1056400002FB0033588818B122461F21FEF764FF81
:105650002046FEF7B3FAFFF7F7F9FFF7F5F9BDE8D3
:10566000384012F05DBA01F081F8F8E70000002040
:10567000FADB010045DA010047DC010094E101009A
:10568000ACC401003001002013DF01002001002024
:105690004414002070B54FF0FF320D464FF0FF3339
:1056A00000210646FEF7D0FB044660B90A4A0B49C2
:1056B0000B481A2313F02EFB84F31188BFF36F8F6E
:1056C0000323184602DF022104F10C0014F044F910
:1056D00006704570204670BDD4E2010045DA010035
:1056E00047DC0100F8B50A4DEF7906460024E3B225
:1056F0009F4202D86FF0010007E02946304614F0BF
:1057000055FB0735631C08B12046F8BD1C46EEE783
:105710000000002070B5174E06223146054616F0EF
:1057200000FC10B34FF0FF304FF0FF31FFF78EF861
:105730000446E0B1062229460C3014F013F9214644
:10574000002242F20500FFF7D9F9044648B110F1F2
:105750000D0F04D1084A0948022114F02FFB2046FE
:1057600070BD28683060AB88B3800024F7E76FF025
:105770006804F4E7680000200AE30100B4C40100F3
:1057800073B504460D4689B11749284614F00EFB3F
:1057900060B9164A2968C4EBC404A3181151AA8839
:1057A0009A80AA799A71002002B070BD6E46304688
:1057B00014F082F90028F7D13046FFF793FF002854
:1057C000F5DA0A4A0098B179C4EBC404A318105161
:1057D000B08898809971002DE5D012592A609A8876
:1057E000AA809B79AB71DEE713F101000000002075
:1057F00070B5044629BB38B3274914F0D7FA18BB53
:105800002046FFF76FFF002840DA23786BB9234A60
:10581000D379002B3AD120681060A179A0889171CA
:1058200001219080D171184670BD012B04D1A3795C
:1058300003F0C003C02B07D0194A1A48012114F005
:10584000BDFA6FF01500EFE7144DEB79012B20D076
:10585000BFF35B8FD5F8D430BFF35B8FDB0707D482
:10586000002CEED00C49204614F0A0FA0028E8D114
:10587000EE792146731C3046EB71FFF781FF08B9C2
:105880003046D1E7EB79013BEB71CDE76FF0770064
:10589000CAE76FF00B00C7E713F10100000000201A
:1058A00019E30100B4C401002DE9F341044640B9F5
:1058B0001A4A1B48022114F081FA002002B0BDE808
:1058C000F08101AA002141F20900FFF717F905460E
:1058D00008B1144AEDE7019E1349D6F80C8008F18F
:1058E00001070622384616F01CFB28B10F49062294
:1058F000384616F016FB18B93046FEF75FF9DCE7BC
:10590000D8F80130C4F80130BB88A4F8053030461F
:105910002570FEF753F90120D0E700BF47E30100EF
:10592000B4C4010060E3010020F101001AF101009C
:1059300007B56846FFF7B8FF044BD87118B1694640
:105940000020FFF71DFF03B05DF804FB00000020FE
:105950002DE9F041304EF17988B0002954D196F804
:10596000C24014F0010411D12C4A2D48022114F038
:1059700025FA0024F471162500240127F379E0B2FA
:1059800083422BD8002B3FD000203AE06A464FF6E6
:105990000940FFF7B3F808B1224AE6E7DDF800C096
:1059A000DCF80C5095F80180B8F1000F0ED0AB1C5C
:1059B00002AA123518685968174603C70833AB4264
:1059C0003A46F7D1186838609B88BB806046FEF77E
:1059D000F5F8B8F1000FCDD1134AC6E708AB05FBC7
:1059E0000033694653F8182C33F8143CCDF80120E5
:1059F000ADF805308DF80070FFF7C2FE01340028C5
:105A0000BCD008B0BDE8F0810021084608B0BDE870
:105A1000F041FFF7EDBE00BF000000207EE3010073
:105A2000B4C40100AAE30100CAE301002DE9F0417A
:105A30001D460E461746034648B145B10A0311D527
:105A40004C0708D5284A2948012114F0B7F96FF00E
:105A50001500BDE8F08114F0C0F90028F9D1012348
:105A60002B70F6E7B107047824D021492FB1B20694
:105A700003D591F8D820500632D5C4EBC40411F8F0
:105A80000480B8F1010F09D101342144184614F003
:105A90009CF90028DDD185F8008002E0B8F1000F04
:105AA000F9D02FB1B30642BF2B7843F002032B701D
:105AB0000020CEE7720710D50D49C4EBC4040F5D7A
:105AC000012F07D10134214414F07FF90028C0D1FF
:105AD0002F70E7E7002FE5D1FAE714F07EF9BEE773
