:1000000020290120A5490000DFB703009149000025
:100010009149000091490000914900000000000052
:10002000000000000000000000000000DD490000AA
:100030009149000000000000C54B000091490000FC
:10004000354C00001FB80300354C0000354C000053
:10005000354C0000354C0000354C0000354C00009C
:10006000354C0000354C0000354C0000354C00008C
:10007000354C0000354C0000354C0000354C00007C
:10008000354C0000354C0000354C0000354C00006C
:10009000354C0000354C0000354C0000354C00005C
:1000A000354C0000354C0000354C0000354C00004C
:1000B000354C0000354C0000354C0000354C00003C
:1000C000354C0000354C0000354C0000354C00002C
:1000D000354C0000354C0000354C0000354C00001C
:1000E000354C0000354C0000354C0000354C00000C
:1000F000354C0000354C0000354C0000354C0000FC
:100100007BB972B90029BEBF00204FF0004106E064
:1001100008BF00281CBF6FF000414FF0FF3000F017
:1001200057B8ADF1080C6DE904CE002909DB002BAE
:100130001ADB00F069F8DDF804E0DDE9022304B021
:100140007047404261EB4101002B1BDB00F05CF883
:10015000DDF804E0DDE9022304B0404261EB410137
:10016000524263EB43037047524263EB430300F098
:100170004BF8DDF804E0DDE9022304B0404261EB16
:1001800041017047524263EB430300F03DF8DDF854
:1001900004E0DDE9022304B0524263EB43037047FD
:1001A00053B94AB9002908BF00281CBF4FF0FF31DE
:1001B0004FF0FF3000F00CB8ADF1080C6DE904CE43
:1001C00000F022F8DDF804E0DDE9022304B0704716
:1001D000704700BF10F8012B11F8013B012A28BF1E
:1001E0009A42F7D0D01A7047034611F8012B03F852
:1001F000012B002AF9D17047034613F8012B002A7E
:10020000FBD1181A013870472DE9F0478C468E460D
:10021000089E154604461946002B40F0D0807245D2
:1002200047D9B2FA82F74FB1C7F120030EFA07FCA3
:1002300020FA03F3BD4043EA0C0CBC404FEA154ED4
:10024000A8B2BCFBFEF8230C0EFB18CC08FB00F98F
:1002500043EA0C43994528D9EB1808F1FF3204D240
:10026000994502D9A8F102022B44A3EB0903A4B2D9
:10027000B3FBFEFC0EFB1C330CFB00F044EA034412
:10028000A04214D92C190CF1FF3304D2A04202D998
:10029000ACF102032C44241A43EA02401EB1FC4094
:1002A000002334607360BDE8F0874246DDE76346B3
:1002B000F1E7002A79D0B2FA82F3002B3FD0194639
:1002C000C1F1200302FA01F52EFA03F20EFA01FE43
:1002D00020FA03F343EA0E034FEA154E00FA01F445
:1002E000B2FBFEFCAFB20EFB1C201A0C0CFB07F895
:1002F00042EA004290455AD9AA180CF1FF3004D2C4
:10030000904502D9ACF102002A44A2EB08029BB24C
:10031000B2FBFEFC0EFB1C220CFB07F743EA024378
:100320009F4246D9EB180CF1FF3204D29F4202D90A
:10033000ACF102022B44DB1B42EA004202E0AEEBCE
:10034000020301224FEA154EAFB2B3FBFEFC200CB4
:100350000EFB1C330CFB07F840EA034398452AD9EF
:10036000EB180CF1FF3004D2984502D9ACF1020031
:100370002B44A3EB0803A4B2B3FBFEFC0EFB1C331F
:100380000CFB07F744EA0344A74216D92C190CF1D9
:10039000FF3304D2A74202D9ACF102032C44E41B80
:1003A00043EA00400F46114678E71F2188E7604680
:1003B000ABE76246BFE76046DBE76346EFE77345BE
:1003C00006D916B9002108466DE7C6E9000EF9E71F
:1003D000B3FA83F787B9734501D3824207D8841AE9
:1003E0006EEB030301209C461EB900215BE73846F3
:1003F000FAE7C6E9004CF8E7C7F1200CBB4022FA47
:100400000CF51D4320FA0CF12EFA0CF30EFA07FE40
:1004100041EA0E014FEA154900FA07F4B3FBF9F877
:100420001FFA85FE09FB18300B0C08FB0EFA43EA95
:1004300000439A4502FA07F240D9EB1808F1FF3061
:1004400004D29A4502D9A8F102002B44A3EB0A0377
:1004500089B2B3FBF9F809FB183308FB0EFE41EA39
:1004600003418E452CD9691808F1FF3304D28E451B
:1004700002D9A8F10203294443EA0040A0FB0298F4
:10048000A1EB0E014145CE46434602D306D14C4571
:1004900004D2B9EB020E68EB05030138002EA4D09C
:1004A000B4EB0E0261EB030101FA0CFC22FA07F334
:1004B0004CEA0303F940C6E9003196E74046C5E738
:1004C0004346D9E7000000002DE9F843D0E907389A
:1004D000856903EB08042F34A5420F46164619D848
:1004E000DFF86C80A3FB080117A3D3E90023FFF713
:1004F00057FE0346601BA0FB080123F07F4412A3B4
:10050000D3E90023FFF74CFE20F07F403C603060D1
:10051000BDE8F883DFF838900BA3D3E90023A5FBEF
:100520000901FFF73DFE20F07F440A480A2106A397
:10053000D3E90023E8FB0901FFF732FE20F07F40FA
:100540003C603060BDE8F8838D49FD1A070000006B
:1005500000CA9A3B00166BF1002800F03E812DE99D
:10056000F04FC54C94F85E30DA078DB000F1318160
:10057000627F94F8293004EB820204EB8303166A4D
:10058000D3F82C800EB3354615F8020BC0F380105B
:100590000DF088FC0368C6F802308388AB8033789E
:1005A0005B0606D5062128460CF0FCF8002800F072
:1005B0004681454615F8020BC0F380100DF072FC21
:1005C0000368C8F802308388AB80337813F00E0FCD
:1005D00040F08B8063691BB10C200DB0BDE8F08F3B
:1005E0000EF0E0F88146002800F032810EF0E6F8C7
:1005F0008246002800F0298110F0D0FA0546002834
:1006000000F02C81C06E4FF6FF73AB8405F1100B28
:10061000002800F01F8105F1600205F15C010CF07B
:10062000CDF8B5F8583023F4EF6323F0070343F413
:100630008C7343F00103A5F8583095F8373003F078
:100640003F0363F07F0385F8373095F8723023F06D
:10065000070385F8723095F83C3023F00F0300272C
:1006600085F83C304FF4C023C5F86E312846C5E903
:100670001277EF66A5F8707085F839706F85C5F848
:100680002E702F65A5F84071A5F87471A5F86A71F0
:1006900011F004FF85F84471C5F8489110F0F2FCA0
:1006A00095F87C3160F3020385F87C3110F0F0FCA2
:1006B00095F87C3160F3C50385F87C3195F84231BB
:1006C00067F3410385F8423105F1C40011F020FDC4
:1006D000C4E9159AC4F814B0C5E902772F702D61EA
:1006E00015F0BAF8002840F0AC80237E0121C3F356
:1006F00042030DF12B008DF82B300CF001FA02466D
:1007000000286CD0414630460FF072FE5B4A5C4BCD
:10071000B4F85C800721E0FB023100251846C4E9EB
:10072000025553A3D3E900232570FFF739FD60601C
:100730000DF07CFB00F10907B8F1000F07D1357807
:1007400005F00F05A5F10105B5FA85F56D09207EC7
:10075000636865F3000010F00105207646D0494A31
:100760000992002010600225474ADFF82081049397
:100770000BAE019305920321CDE90200069400908F
:100780003B46CDF81C8008962A460B950DF072FA70
:1007900031460EF09DF810BB3D4905914AF2D83321
:1007A0000093CDE90300CDE90100CDF81C80089647
:1007B00006943B46012203210B950DF03FFA31468A
:1007C0000EF086F858B994F85E3043F0010384F8CF
:1007D0005E3000200DB0BDE8F08F0FF0A3BD63695F
:1007E000002B3FF4F9AE0FF073FDF5E6254A2948DA
:1007F000049303F247130694029591211360A8FB1A
:10080000000301FB0831214B07931F4B05934FF663
:10081000FF7309924FF0020803930BAE14A3D3E9C0
:100820000023CDF82C800896FFF7BAFC3B46CDE9B3
:1008300000504246284603210DF01CFABFE7122063
:10084000CBE60FF045FD0320C7E648460DF0B0FFAC
:100850000720C2E605F16400E866DCE650460DF0CC
:10086000B3FF48460DF0A4FFF2E700BFAFF30080EE
:100870008D49FD1A0700000000A9002000CA9A3B1C
:100880008C49FD1AF4A800206904010029DF00004A
:100890008D010100002AE78470B5037E8AB0C3F39E
:1008A00042030D46044601210DF1230016468DF842
:1008B00023300CF025F93146024628460FF098FD0A
:1008C0001D4A1E4B0721E0FB0231184618A3D3E94D
:1008D0000023FFF765FC63689842054621D21B1A86
:1008E00000220192164A0293164BA21AA3FB02326F
:1008F0000221920900230A4409AE09911249059187
:10090000CDE9033303210696D2B2009318460DF0C9
:1009100007FA31460DF0DCFF38B9656000200AB0F7
:1009200070BDFBD9C21A0023DBE70C200AB070BDF2
:100930008D49FD1A0700000000CA9A3B8C49FD1A38
:1009400000A90020ABAAAAAA29DF0000000000002D
:100950002DE9F04F05468BB08B46012002219946C8
:10096000144616F00BFC00220221824601200BF0F7
:1009700079FF2F494FF4C07228460BF0FFFEC61CCA
:100980002C4B0093F6B201954B46324601210020D4
:100990000DF014FA10F0FD0F42D1274BA4FB0348D1
:1009A000204621A3D3E900234146FFF7F9FB089530
:1009B00006956B680493214B20F07F47A7FB03311A
:1009C000E01A1F4B07934FF007021E4B059302FBE3
:1009D00007114FF6FE7368EB010103934FF47A722F
:1009E0000023FFF7DDFBCDF800B0CDE901704B46E9
:1009F0003246012100200DF021F910F0FD0F0DD13C
:100A0000BAF1000F02D10BB0BDE8F08F0122022134
:100A100010460BB0BDE8F04F0BF024BF00DEEFE74F
:100A200000DEBAE7AFF300808D49FD1A0700000031
:100A300020200020750A010000CA9A3B8D49FD1A4A
:100A40005D0A0100A14A01002DE9F0418468A28CF1
:100A50004FF6FF739A428CB000F0DA8005462046CC
:100A600011F06EFF2B7D012B00F00081022B00F0B6
:100A7000D28033B994F8723003F01803182B00F0C9
:100A8000378194F84471002F40F0C8802B8AE68D9E
:100A900094F93720CDE90A77002B00F0C680002AB0
:100AA000C0F23C810023A4F87031AB7CA28D03F02E
:100AB0000303551C012BADB200F0D480B4F874319F
:100AC000002B00F0D980AB4240F252815B1B9BB2FD
:100AD000062BA4F874314FF000028CBF00230123D1
:100AE000E2851F4694F83C2063F3820284F83C20A0
:100AF00029460DF12702204611F00CFD743000F05C
:100B00003181B4F86E312BB1AB4240F2DA805B1B1D
:100B1000A4F86E31B4F86A312BB1AB4240F2E180F7
:100B20005B1BA4F86A31E58D17B9AE4200F0C780AF
:100B30000135ADB294F8B53013F001060AD1DDE904
:100B40000AC3002B4FD1BCF1000F00F003811E46F9
:100B5000194649E094F9372023F00103002A84F86C
:100B6000B530C0F2A38094F85800C0F3C00100F083
:100B7000070014F0F3FC014694F8583094F85960DB
:100B800003F003022832C3F34003D200DA40E38BC0
:100B900003F23F10B2F5A07F2CBF801800F5A070C3
:100BA00006F003022832D200C6F34006F240B2F546
:100BB000A07F2CBF831800F5A07358188E4A8F4B66
:100BC0000721E0FB0231184689A3D3E90023FFF790
:100BD000E7FA616820F07F408142DDE90AC380F0D6
:100BE000B380461A60600021A28C24690694CDE986
:100BF00003570332824D0291CDE900C6D2B20121E2
:100C0000002005950DF08CF810F0FD0F40F0B58038
:100C10000CB0BDE8F0813D2784F844713946204688
:100C20000CB0BDE8F04110F0EDBA002AB8BF84F86E
:100C3000B970AB7CA28D03F00303551C012BADB240
:100C400010D0B4F87031002B3FF438AFAB4240F213
:100C50009B805B1BA4F87031B4F87431002B7FF4D7
:100C600032AF3FE70023A4F874313BE70023A4F838
:100C70006E31A4F86A3104E7E38C052B8BBF40F298
:100C8000E2424FF4FA725A4303FB0222B4F8723183
:100C900042F2107101FB0323013BB3FBF2F39BB261
:100CA000A4F87431002B7FF40EAF1BE794F85900C1
:100CB000012100F0070014F053FC01465CE73D46BB
:100CC00038E70DF0C1FD0146002864D00023A4F8E8
:100CD0006E31A38CC3801B23037100680DF086FD69
:100CE00018E70023A4F86A31204611F0A5FC1AE7A2
:100CF000218DB4F86C218B1D9A42C4BF931F5B1ADF
:100D0000B4F86811CCBF9BB21346994256D0A4F8F0
:100D10006831A4F86A31A4F86E21B2E694F8B930CB
:100D2000002B3CD0013B84F8B93004F1C4084046A4
:100D300011F030FA002855D0404611F02BFA002867
:100D400042D00023E385ADE6091A6060A3BB51EAF7
:100D50000C021ED115B9002F3FF45AAF00263146C0
:100D6000334641E79DF82710204610F04BFA4FE735
:100D70000821204610F046FA4AE70DF0D3FD8442E0
:100D80003FF446AF00DE43E73E21204610F03AFA3A
:100D90003EE71E4628E70123A4F86E31BAE60AAA08
:100DA0000BA92846FFF790FBDDE90A231343BCD0CB
:100DB000237884F8B930B8E7002615E7B4F86E1147
:100DC00000297FF45EAEA4E70246D4E917010BF0D8
:100DD0000DFD0028B5D194F83C301B0744BF238D8E
:100DE000E3855FE6FF2010F0CFF9A5E7AFF30080C1
:100DF0008D49FD1A0700000000CA9A3B8C49FD1A74
:100E0000B50A0100000000002DE9F04F87B0B0F8EE
:100E10004071BDF84C900091CDE90423B0F8043145
:100E2000BDF840A01F44BFB20446A7EB090390F8E9
:100E30005800D4F8FC809EB2BDF844300193C0F352
:100E4000C001BDF84830039600F00700029314F08B
:100E500085FBE58C052D40F2BE8015FB06F5ADB295
:100E600040F2E24BBAF1050F40F2A98094F8592004
:100E700094F8581002F003032833C2F34002DB0059
:100E8000D34001F003022832B3F5A47FC1F340013F
:100E90004FEAC20222FA01F238BF4FF4A473B2F54E
:100EA000A47F2CBF9B1803F5A47303F2D513184439
:100EB000774A784B0721E0FB023118464FF0961332
:100EC000E3619623238470A3D3E90023FFF768F935
:100ED000564620F07F4040F2E2430BFB05F103FB56
:100EE00006F64B1E3344B3FBF6F31FFA83FB06FBF7
:100EF0000BF3994260605D4653D26548591AA1FBD5
:100F0000000161A3D3E90023FFF74AF920F07F40F5
:100F10008044B4F80421B4F84031A9EB07094D44EA
:100F2000ADB213442B44A4F84031638D13441D44E7
:100F300094F837306585DB0955D100DE002735464A
:100F4000019B2385029BA4F8723131462046A4F808
:100F500026A011F00BFB504B218D3344881DB3FBB1
:100F6000F6F39AB29042A4F86C2104D2C1F57F4105
:100F7000FA310A4492B2009BA4F8682113B100230D
:100F8000A4F8743143462A4639462046FFF7E0FC70
:100F900094F8423143F0010384F8423107B0BDE8D0
:100FA000F08F3B48C91AA1FB000137A3D3E9002306
:100FB000FFF7F6F820F07F40A8EB0008A9E74FF014
:100FC00096130AF10106E36196232384B6B20A2040
:100FD0004FF4FA7381E7039B013515FB03F5ADB2BE
:100FE0004FF4FA7B3EE7216CA36C294F01FB0233DF
:100FF000039A01FB1233A3640023C4F8C03014F039
:101000007DFC054694F8B800C0F3420014F078FC6B
:10101000054406FB05F5214B1E4805F5742505F230
:101020003F25A3FB0535AD0CA36C25640BFB05FB2D
:1010300072085B44963A934228BF1346C4E91123D1
:10104000049B40F2E24909FB03F307212365EBFB14
:1010500007010DA3D3E90023FFF7A2F8104B059A6F
:10106000A8EB0008A3FB0230800A09FB00F0A0FBFC
:10107000070105A3D3E90023FFF792F8751B20F0C1
:101080007F475DE7AFF300808D49FD1A0700000040
:1010900000CA9A3B8C49FD1A7FC3C90183DE1B43FA
:1010A0005917B7D1000000002DE9F04F0D4609682F
:1010B000B0F82EE0D1F800900146144651F82EAB5E
:1010C00052F8086B91F802C0834691B0D0F81E0028
:1010D000BBF822109BF81C70A4F808E082F802C04C
:1010E000DBF82A206260DBF83A20C4F82220ADF851
:1010F0003C109BF83E100E9084F8261010AB13E9BC
:10110000030004F122020C90ADF8341010460521C2
:101110000BF0F6FC94F8272000F03F0060F3050286
:1011200084F827209BF83F20C2F3040184F828109C
:10113000BBF83410E1820128C7F380170DD902F003
:101140001F021B3202F01F020B2A06D889B2063991
:1011500089B240F67A42914219D90021C9F80810A3
:1011600094F82C2061F3000284F82C200125DBF890
:101170000C408BF80450504659460DF02BFB20686C
:101180002571214611B0BDE8F04F0DF02FBB2A6844
:1011900000215160BBF836202283B4F81680BBF8DA
:1011A00032300A9340F2E242304602FB08F811F076
:1011B000F1F99BF83F1096F8B800490961F3430034
:1011C00086F8B80014F09AFB0B9096F8B800C0F3BC
:1011D000420014F095FB0B99084408FB00F0A64967
:1011E00000F5742000F23F20A1FB00104FEA5801E7
:1011F000800C9639206361639BF8311040F2E24223
:1012000001FB02F26264BBF83820A6F87221414665
:10121000304611F0ABF9994A9949C6F87811424421
:10122000B2FBF8F290B2A6F86C01218B01F1060C2A
:10123000604504DDC1F57F41FA31014488B2594669
:10124000A6F8680111F81C2FC907C2F3401200F17B
:101250000381BDF83410ABF823100C988BF81E7086
:101260004FF48071CBF81F00ABF81C10E18AABF88B
:101270002610218BABF82810B6F87211ABF82A10A3
:1012800096F8B8100B92C1F342018BF82C1030463F
:101290000FF090FC5946A082ABF8060050466F68EC
:1012A0000DF098FA0B9AA18AD7F800A0F9801C23B8
:1012B0003B71002A40F0BC803A77394650460DF029
:1012C00095FA94F849A094F848200AF0070A02F029
:1012D0000702012150460B9214F042F90B9A02F0DA
:1012E00003032833C2F34002DB00D3400AF00302B9
:1012F0002832B3F5A47FCAF3400A4FEAC20238BFCE
:101300004FF4A47322FA0AF2B2F5A47F2CBF9B1803
:1013100003F5A47303F2D513DFF868A1074603446D
:1013200059480721E3FB0A014FF09613C4E9033340
:101330004FA3D3E90023FEF733FF20F07F40706016
:10134000EB680A98226B40F2E24101FB003404F2A0
:10135000B3440221A41A0120A8EB020800220BF0DA
:1013600081FA48460FF010FAE41B41A3D3E90023A9
:101370000746A4FB0A01FEF713FFCDF80490AB6803
:101380004249009120F07F4ABA1C363BD2B2534406
:10139000012100200CF012FD01285FD099F81830CF
:1013A000DB0751D430460FF005FC364CA8FB04484F
:1013B0002FA3D3E90023834641462046FEF7F0FEE3
:1013C000AB68334A0792A3F13609324B069620F0F8
:1013D0007F47A7FB0331E01A2F4B05934FF4F873B7
:1013E0000893736804934FF0070303FB071168EB3E
:1013F000010100244FF47A7200230394FEF7D0FE1B
:101400000BF10305EDB2CDE90170CDF800A04B461C
:101410002A46012120460CF011FC10F0FD0F23D1CB
:1014200001220221104611B0BDE8F04F0BF01ABAAC
:1014300094F8273043F0400384F82730201D13F040
:101440001DFC0122208537E7002301220093184666
:1014500011460CF07DFCA5E700DEFAE60DF062FA1D
:1014600081459BD000DE99E700DED9E7AFF300802D
:101470008D49FD1A0700000083DE1B437FC3C901AD
:10148000404B4C0000CA9A3B8C49FD1A294B010085
:10149000794A01008D49FD1AA14A010000000000AF
:1014A0002DE9F04F8DB0484E484D82460CF0BEFC01
:1014B000F16807460CF0BCFC7168F76040A3D3E903
:1014C00000230446A1FB0501FEF76AFE20F07F43DE
:1014D0009C4257D30DF12F010DF12E000DF0E4F9D0
:1014E000DFF8E8803568A5FB085935A3D3E9002368
:1014F00028464946FEF754FECDF818A00446706809
:10150000334B0593A0FB08012DA3D3E900234FF033
:101510000008CDE90788FEF743FE2E4BCDF80C807E
:1015200024F07F44A4FB033120F07F40072202FB1C
:1015300004110490E81A69EB01014FF47A72002358
:10154000FEF72EFE9DF82FB09DF82EA0CDF800805E
:10155000CDE901403B465A46504603210CF06EFB54
:1015600010F0FD0404D06FF08B000DB0BDE8F08FDB
:1015700019481A4A002325F0E9FB90B930690DB0EB
:10158000BDE8F08F30680EA3D3E90023A0FB05016E
:10159000FEF706FE20F07F4138460CF049FC074676
:1015A00098E79DF82F209DF82E00009423460321F4
:1015B0000CF0CEFB6FF07300D7E700BFAFF30080F5
:1015C0008D49FD1A07000000B021002000CA9A3B97
:1015D000694E01008D49FD1A4CAC0020447B0B0084
:1015E00038B50F4D04460CF021FCA9680CF020FC26
:1015F000696803460B48B3FBF4F4A1FB00011C44EB
:1016000005A3D3E90023FEF7CBFD20F07F40844201
:1016100094BF0020012038BD8D49FD1A070000004D
:10162000B021002000CA9A3BF0B5C468636883B05B
:101630000546002B40D115F09DF9002015F0BEF9AC
:101640000021084615F0ACF900222521082015F0EC
:1016500013FA374B019301A815F0FAF9354940F216
:101660005B6015F0ABFA237AC3F3420262F3061310
:101670002372204614F0C8FA27682E68384613F003
:1016800027FF06446A6806F10901012015F0BEFB38
:1016900015F07CFC20460FF083F8811C3246C9B25D
:1016A000384613F017FF054698B9204613F0ECFEB4
:1016B00068B9002003B0F0BD93F82C309B07BAD076
:1016C0001D48214615F02AF915F022FAF1E700DE4F
:1016D000EFE71A4A1A491B4840F2114338F047FE17
:1016E000194B0721A5FB030301FB05310EA3D3E929
:1016F0000023FEF755FD15490246154838F037FE20
:10170000002585F31188BFF36F8F0323184602DF8E
:101710001048214615F002F915F0FAF96FF08B0028
:10172000C8E700BFAFF3008000CA9A3B000000008A
:10173000D6BE898E55555500115601006C5A0500CC
:10174000B85A0500105A05008D49FD1A045C0500C1
:10175000BC5A05000D5901002DE9F043C468A28A66
:101760004FF6FF739A4283B000F0FD80064614F0F6
:1017700071FC3389628B208C94F82710A3831A4460
:1017800092B2104480B2431C23840023638301F08F
:101790003F034906E28300F1A48094F828100093E7
:1017A00004F1290004F1220313F02AFA0546D4E9D2
:1017B0000C31A26BA08BA36303FB0022E36B8A4274
:1017C00094BF9B185B188B4228BF0B46626CE36387
:1017D000236C94F849101A4494F82C3061F30613E2
:1017E0000021C4E9101294F8622084F82C3012F021
:1017F000040200F0898015F0BDF8002015F0DEF835
:10180000201D15F025F92389A17A40F25B6043EA97
:10181000014115F0D3F9284613F06CFE21465848D3
:1018200015F07CF8A08915F0E5FA94F8482094F8B2
:101830004900C2F3C003002102F0070200F00700D4
:1018400015F022FA204614F09FFCD4F80080376887
:10185000404613F03DFE0744726807F1090100207D
:1018600015F0D4FA814615F065FB002015F07CFBDD
:10187000E36B94F8490003F12F02636C012100F03F
:10188000070003EB420515F035F94D44054494F883
:10189000490000F00700022834D004280CBF4FF4A0
:1018A000BC73282301211D4415F026F9284415F0A6
:1018B00033FBA18A03313A46C9B2404613F00AFE0F
:1018C0000546A8B1B37A13F002062BD000252D48A7
:1018D000214615F023F815F01BF9284603B0BDE8A2
:1018E000F083218D04F1220213F0CCF905465EE766
:1018F000204613F0C9FD00283CD10025284603B03E
:10190000BDE8F0831823CDE7D4E913010AF06EFF98
:1019100000287FF470AF94F8623043F0040384F839
:10192000623068E7184A194919484FF4AC7338F027
:101930001EFD18480721A5FB000301FB05310EA37E
:10194000D3E90023FEF72CFC13490246134838F074
:101950000EFD86F31188BFF36F8F0323184602DF55
:101960006FF08B05B3E70E48214614F0D7FF15F052
:10197000CFF8C2E700DEC0E700CA9A3B00000000D3
:10198000A1630100F1550100E85A0500B85A0500AD
:10199000105A05008D49FD1A105C0500BC5A05005F
:1019A000115601000346024A0248012138F014B9D9
:1019B000D26B05002852050008B521B1BDE80840EA
:1019C0000846FFF7EFBF3BF028FA064B1860064BBE
:1019D00001221A70054A0648BDE80840032138F084
:1019E000FDB800BF6C9A002073C90020F16B0500A0
:1019F000285205002DE9F04100AF23F065FD804637
:101A000047F0FAF96D46044647F0FBF988B06A469C
:101A10001F4B4FF40076CDE905301E4BADF81C602E
:101A20001D4842F8103F4FF4E65138F0D9F8012C28
:101A3000AD4626D0A31EDBB2022B27D8404647F086
:101A4000E2F9DFF85880C8F80000204647F0D9F9DD
:101A50008AB0D8F800306A4611490793114BADF8A7
:101A60002060CDE9051042F8103F0B484FF41351A8
:101A700038F0B6F80123AD460B4A1370BD46BDE8F9
:101A8000F0810A4A0448022138F0A8F80023F3E75D
:101A9000036C05000300000128520500509A002045
:101AA0001B6C05000400000172C900205C6C05007D
:101AB000B0B588B002AF14220021381D52F0ACFF3F
:101AC00003223023C7E90223012560233B61134928
:101AD000134B00950222381D07F00EFA044648B158
:101AE000104A03462946104838F076F82046183741
:101AF000BD46B0BD6D4688B002AA0C4B53610C4B7D
:101B000093614FF4007393830A4B42F8103F0648E9
:101B10004FF4E65138F064F8AD46E7E7A852050007
:101B2000A0520500926C050028520500B76C050014
:101B3000D36C05000300000110B50B460A4C0B489E
:101B40000B4A032138F048F8206818B107F0A8FDC7
:101B500000232360074A00231370074A1370BDE86F
:101B60001040FFF7A5BF00BF6C9A00202852050067
:101B7000DF6C050073C9002074C9002080B50129FD
:101B80000E4B0CBF012200221A700D4A0D4B00AF04
:101B900088B008BF13466A460B490C48CDE90513C7
:101BA0004FF40073ADF81C30094B42F8103F4FF46E
:101BB000E65138F015F8BD4680BD00BF74C900205D
:101BC000046D0500126D0500246D05002852050006
:101BD0000300000113B50A4B187870B109488368F7
:101BE00004695B6801A9984720B9236801985840A7
:101BF000C0F3C020431E5842584102B010BD00BF80
:101C00007DC90020E84C05002DE9F041054686B06D
:101C10000E46174698464FF0FF324FF0FF330D48FF
:101C200024F062FF0C4B1868596804AC03C40948DF
:101C300024F0CCFF0823029304AB0193BDF83030AD
:101C400000933A464346314628463BF0B3FF06B080
:101C5000BDE8F081D010002075C9002070B5174A8A
:101C600007CA86B003AB83E807001E46002556F876
:101C7000044B206844F0B9F950B9114A11482B4679
:101C8000012137F0A9FF6FF01204204606B070BDA5
:101C9000E2882068217942F4B01237F082FF0446CE
:101CA00038B1094A00902B460648012139F06EFBF5
:101CB000EBE70135032DDAD1E7E700BF405205001D
:101CC000476D050028520500646D05002DE9F041BF
:101CD000FFF7C4FF044650BB164E174F3378EBB9DD
:101CE000164B174D93F800801648002137F080FFFF
:101CF0003078134B0021884208BF3B46184637F026
:101D000077FFB8F1000F0ED00121284637F070FFA1
:101D100043F23430002137F07EFFDFE70A4B3D46C7
:101D200093F80080E0E784F001042146EDE7BDE888
:101D3000F08100BF7EC900209052050073C90020C9
:101D4000885205009852050072C900202DE9F04F15
:101D50008DB002AF4FF0FF324FF0FF33B44824F0A4
:101D6000F5FFDFF8D082404644F03FF960B9B24A4F
:101D7000B248012137F032FF6FF01203B04AAF488A
:101D8000012137F029FF08E0D8F80830AD491B6879
:101D90004046984703460028F0D1DFF8ACB2AB4A82
:101DA0009BF80010AA4B6C468AB0002908BF134666
:101DB00002AAA84951610521C2E9061340F2013384
:101DC0001384A54B42F8103F9C48DFF890A24FF4D3
:101DD000135137F005FF0026A5464FF420300021AF
:101DE00037F019FF9D4844F000F900286CD19C4A57
:101DF0009248012137F0F2FE00240021142207F15D
:101E00001000F98052F008FE01237B61BB1DBB610D
:101E100002250C23FD6187F82030D8F8083085486A
:101E20005B6807F11001984707F10809034600288D
:101E300070D08C4A8148294637F0CEFE0025013605
:101E40004FF0FF324FF0FF33874824F04DFE874BB1
:101E50001C805D805E60186859684A4603C28248EB
:101E600024F0B4FE002C4FF0640394FBF3F2B4BFF3
:101E7000644203FB124411B2AEBF23B2B4FBF3F2CF
:101E800003FB12436C468AB002AA79485562C2E944
:101E900007130623C2E905064FF4435142F8103FE9
:101EA000664837F09DFE9BF80050A546002D40F097
:101EB0008F80704B1B78002B5CD16F4A5F48334694
:101EC000032137F089FE88E7DAF808404E21E368FD
:101ED00050469847034628B1684A5848012137F0D0
:101EE0007BFE89E70C21236907F1100250469847D1
:101EF000034608B1624AF0E73B697C6903EB830360
:101F000003EB830342F2107294FBF2F404EB8304BC
:101F100024B272E7B7F906204FF4167382FB03234D
:101F20004946C7E902231BF013FA034600BBD7E971
:101F30000221120B42EA01520913C7E902214FF0B4
:101F4000FF3012F1004241F10001904273EB0101B8
:101F500002D24C4838F00BFABD68002D7FF76EAF07
:101F60004FF6FE739D42D4BFADB24FF6FF7566E7E4
:101F7000454A5FE72946182207F1100052F04CFD50
:101F8000424B07F11001C7E9053928460823BB83F6
:101F90000AF014FA38B13E4A00903346274802212D
:101FA00039F0F4F919E78AB0F868B7F908107B89B5
:101FB00002AA384DC2E907130523C2E9055042F8C9
:101FC000103F4FF423511D4837F00AFEA54604E7A1
:101FD000314B18680028FFF600AF182301932F4BF0
:101FE000009308220023494615F0FCF90028FB68FD
:101FF00006DA02F031FE2A4A12580092294ACDE749
:102000008CB0B7F90800798902AA274DC2E90553B7
:10201000264B536241F29203936240F2035393853D
:10202000234BC2E9070142F8103F4FF47351CAE74E
:1020300090110020904D05009F6D0500285205006D
:10204000B66D0500306B05007EC900207471050077
:102050008F6D0500F16D0500040000011C4E0500A8
:102060001F6E0500936E0500D010002075C900207A
:10207000076F050074C900202D6F0500406E050034
:102080006A6E0500B16E0500D56E0500E0520500D0
:102090005B6F0500816F05001C030020549A00202F
:1020A0000C000000AC6F0500E06F05001570050026
:1020B000070000012DE9F04786B002AFFFF7CEFD23
:1020C000B24843F092FF002862D1B14AB1480121E1
:1020D00037F084FDB04DB148A86243F086FF002878
:1020E00062D1AF4AAB48012137F078FD6FF012049E
:1020F000AC4AA8482346012137F06EFD0024AA4BC4
:102100001C7000237B60A94843F06FFF002840F05B
:102110008E81A74BA74D6E4688B0002C18BF1D4678
:1021200002AAA54B9B48C2E905354FF4007393837F
:10213000A24B42F8103F4FF4E65137F051FDB5463F
:10214000002C40F08381204606F038FA044600282F
:1021500000F070819A4A03468E48012137F03CFD19
:102160006E468AB002AA974BD461C2E905354FF496
:1021700000731384944B42F8103F86484FF411517A
:1021800037F02EFDB54600201037BD46BDE8F0877C
:102190008E4A7E480B2137F004FD08B18C4A95E742
:1021A0008C4B01221A7095E74FF47821A86A2960B8
:1021B0003A1D41F08EFF044630B1874A03460121A3
:1021C000744837F009FD93E7BB68EB6028460223AB
:1021D0002B8200F003FE0446002889D101233A1D1A
:1021E0001946284639F014F8012802D13C79012C0F
:1021F0000CD97A4A6748032137F0F0FC0123002408
:1022000065483C713A1D194600F092FFFFF7E2FC69
:1022100000283FF474AF84F00108002C54D1654BC2
:10222000634D6E468AB002AA6D49D561C2E90513B5
:102230006C4B13626C4B42F8103F56484FF42351DD
:1022400037F0CEFCB546002C41D0684EDFF8A091A7
:10225000684825F009F96848002137F0C9FC63484F
:10226000002137F0C5FC6248002137F0C1FC4FF077
:10227000040A0121304637F0BBFC002141F69A10D8
:1022800037F0C9FCFFF7A6FC014620BB304637F00B
:10229000AFFC584825F008F9464A454B6D4688B0D2
:1022A000002C08BF134602AA5449C2E905134FF493
:1022B00000739383414B42F8103F4FF4E651354889
:1022C00037F08EFCAD461AE7394B3A4DA9E7484E38
:1022D000DFF81891BCE70021304637F089FC41F661
:1022E0009A10002137F097FCFFF774FC0028D0D03B
:1022F000BAF1010ABDD1FFF76DFCF0B90123264800
:1023000087F804803A1D194600F012FF002827DAEA
:10231000284A274B6D468AB0002C08BF134602AAF4
:102320003749D36140F201331384274BC2E90510CA
:1023300042F8103F4FF41151C1E74846012137F0F0
:1023400057FC41F69A10002137F065FC4846002101
:1023500037F04EFC41F69A10002137F05CFCCAE7DA
:102360006C4688B002AA274B0A48C2E905354FF4EB
:1023700000739383114B42F8103F4FF4E65137F04E
:102380002FFC0120A54600F0C1FB00BFE84C050072
:102390002070050028520500709A0020AC4D050001
:1023A0008F700500F67005007EC90020044D050001
:1023B0008F6D0500747105002F7205000300000188
:1023C0003D720500D17305000400000111000100F9
:1023D000537005007DC90020B870050047710500E5
:1023E0008171050000020103040000029052050003
:1023F00088520500981500209852050007720500C4
:10240000AF710500E2710500B3689B6C1BB13A1D0A
:1024100004213046984740F6CD40002137F0FBFBC1
:102420007B68002B7FF475AE013DEDD171E6514E16
:102430001F25F5E7504A5148032137F0CFFBFFF73E
:1024400037FB0446002C00F0918089E608238AB00F
:102450007B600DEB03024A4B53614FF6ED610F2396
:10246000C2E90613474B136240F202439384464B82
:1024700042F8103F4FF43351404837F0B1FB434826
:10248000B54623F04DF823F0B7F8044610B1404AA2
:10249000034661E63F4A3948032137F09FFB02219A
:1024A0001122084614F06CFF3B4E002830600CDA15
:1024B00002F0D2FB394E04468359394A2F48012194
:1024C00037F08AFBA4596442BCE70423009312222C
:1024D000FB18292114F0BCFF40B102F0BDFB2F4BCB
:1024E0001B58304A2548022137F076FB1422002180
:1024F0002D4852F091FA2C4A2C4B42F8043C2C4CBB
:10250000022021463BF0BAFC01281AD0E84688B0E8
:1025100002AA284B1948C2E905344FF4007393838B
:10252000254B42F8103F4FF4E25137F059FBC546B6
:1025300030683BF0A1FC4FF0FF3333606FF01504BF
:102540000EE66D468AB002AA1C4B0C48C2E905345F
:1025500041F29203D3614FF400731384184B42F895
:10256000103F4FF4135137F03BFBAD46154824F0B4
:10257000B1FB08E6044D05005C7205002852050019
:1025800072720500B1720500050000011003002001
:10259000BB720500F77205001C0300200C00000050
:1025A0002273050049730500589A0020020010921A
:1025B000157005008773050003000001AE73050068
:1025C00004000001901100202DE9F84F8A4600AF69
:1025D000002974D004680E1F361BF50826F0070684
:1025E00004EB0608B8F802B01BF0010B16D1E9465F
:1025F00088B06A46334BCDE90531032342F8103FDA
:1026000031485B464FF4C25101F076F9CD468BF369
:102610001188BFF36F8F0423184602DF2946204636
:1026200037F0FBFA284434F83030C01A854217D00E
:10263000E94688B06A46254BCDE9053A032342F8BE
:10264000103F214800234FF4C25101F055F90023F7
:10265000CD4683F31188BFF36F8F0423184602DF42
:10266000B8F8023023F00103A8F8023029462046CA
:1026700037F0D3FA05EB000804EBC8035B88DA07F0
:1026800008D44146204637F011FB424629462046F1
:1026900037F051FBA65BAE1B04EBC6035B88DB0780
:1026A00009D43146204637F001FB2A463146204600
:1026B00037F041FB35462946204637F0B3FABD4690
:1026C000BDE8F88F63740500785105003A74050081
:1026D00008B5024837F03EFE002008BD90740500A2
:1026E0000E4A9042034602D30D4A904211D30D4A3E
:1026F00022B1934202D30C4A93420AD30B4A52B1FD
:102700000B48834234BF01200020934238BF002091
:102710007047012070471046704700BFB04B05005E
:102720002CAC0500000000000000000000000000CC
:10273000000000002DE9F04F9BB000AF0446D7F831
:1027400090A0FA637B638B4649B90378467880781A
:1027500000EB830020445E4522D8A0EB040B0AF076
:10276000010394F80280FB62E3783B63B8F1000F49
:102770000CBF4FF000090AF0010913B11AF0020F63
:1027800017D1B9F1000F14D1FB6B1BB17A6B59460D
:10279000204698475D4628466C37BD46BDE8F08F19
:1027A000451C2846FDF728FD013028440BF1010B9C
:1027B000D1E7CAF3C003FB612378BB629B00BB6116
:1027C00063683B62BB6A04EB8301FB6B002B7DD12A
:1027D0005D468844B9F1000F1DD0A94E8B4699463D
:1027E0001BF8013B54F82300002808BF3046FDF7D2
:1027F00003FDD7F8943001304BB1D7F898304B45F2
:1028000082BFD7F8943023F8190009F10109C345B4
:102810000544E5D1D8461AF0050F0AF002030CBFB3
:102820004FF0020B4FF0010B0026FB633B6B9E4207
:10283000B1D298F8013054F823A05046FFF750FF6A
:10284000FA6908F10208034602B3B86318F8021CDB
:10285000386A37F05EFDBB6BC0B1EA468AB06A46A3
:10286000884B05933B6ACDE906314FF40073ADF810
:102870002030854B42F8103F844800234FF412511A
:1028800001F03AF8023DD5460136CFE723B1FB6AA5
:102890002BB9A5EB0B05F7E7FB6B002BF4D07848C1
:1028A000BAF1000F18BF5046FDF7A6FCD7F89430D8
:1028B00053B1D7F8983099453FBFD7F89420431CBF
:1028C00022F8193009F101090544DDE7B9F1000FDB
:1028D0006CD04346102B28BF1023BB6397F8389069
:1028E00007F148000026BA6B796252F06EF8796AF7
:1028F00000227A620AF0020201EB08033A610AF050
:1029000004027B61FA6002337A6A396B8A4266D3C9
:102910006378F96A7B621AF0020F4B44DBB20CBF9A
:1029200072080022002940F0A9801AF0040F14BF99
:10293000314600216370A170E270B9697A6BFB6B5C
:1029400020469847051EFFF626AFBB6A23707B6AB8
:1029500063703B6BE37031467A6BFB6B84F80280EB
:1029600007F158009847061EC0F2C4803A6BBB6955
:10297000386B03EB4203ABEB0301D7E90D23C91A14
:102980007B6903EB4000FB6B98470028C0F2B480E2
:102990002E4435184FF0000807F1480AC84577D390
:1029A00000217A6BFB6B08469847F4E6B8F1000FFC
:1029B0000CD01AF0040F0ED04346102B28BF102362
:1029C000BB6397F8386007F158008CE7C7F8388088
:1029D0004646C1468CE7C7F838804E4688E713F86C
:1029E000015C13F8021C54F82500BB60FFF778FE69
:1029F0000246F869BB6838B1386AC7E9013237F076
:102A000088FCD7E90132F0B912B3FA6A72B1B9F1B0
:102A10000F0F18D809F1280107F14000014409F10E
:102A2000010201F8205C5FFA82F90CE0FA6852B109
:102A30000F2E08D806F1280107F14000721C0E186D
:102A400006F8105CD6B27A6A01327A6202335BE72A
:102A50003A69002ADBD10F2EF5D806F1280007F1DC
:102A6000400C6044721C00F8101C07F1680151FA18
:102A700082F20236F6B202F8105CE4E7002159E770
:102A8000CC740500D374050004000001F850050063
:102A900018F80A3087F8473054F823B0D7F8943044
:102AA00033B3D7F89830984522D2D7F8943033F81A
:102AB00018607A6BFB6B012107F1470098470028EB
:102AC0001ADB0E4B0544BBF1000F08BF9B4626B92D
:102AD0005846FDF791FB461CB6B27A6BFB6B31464C
:102AE00058469847002807DB054408F1010855E7D8
:102AF0000026DEE735464EE605464CE6CC7405007A
:102B0000014B1860704700BF4003002008B5044621
:102B1000EFF31183202383F31288BFF36F8F1DF02F
:102B200079FC204602F09CFC024837F013FC38F098
:102B30008BFEFCE7877505002DE9F047858B044681
:102B4000280717460CD501290CBF45F0100545F0A4
:102B50002005A58387F31188BFF36F8FBDE8F08749
:102B6000022905F0070540F09480204637F092FED8
:102B7000052864D801A353F820F000BF552B0000AE
:102B8000932C00003F2C0000012C00001B2C0000A7
:102B90002D2C000001F007035A1F012A1FD8002224
:102BA00021F00701062BD4F8008089B2C4E9002285
:102BB00009D1434603E0E28B0132E2831B68002B1C
:102BC000F9D141F00201A183204637F063FE4FF0B6
:102BD000000900286DD041F02001A18369E0042B99
:102BE0000AD121F0070189B2A183204637F052FEB5
:102BF00010B141F02001A1834FF00008C14658E018
:102C00002369D3F80090A38B23F0070343F0060356
:102C1000A3834FF0000846464BE02369D3F80490A5
:102C2000A38B23F0070343F00403F1E72369D3F8F0
:102C30000890A38B23F0070343F00503E8E74FF068
:102C40000008C146E7E7012243F00803A38387F3A6
:102C50001188BFF36F8F002A3BD1B8F1000F4AD122
:102C6000B9F1000F02D02D492046C847EFF3118774
:102C7000202383F31288BFF36F8FA38B23F0080305
:102C80009BB2A383D9063FD523F01002A28303F0A1
:102C90000705A669A18B002EBFF67CAF0023D4F8F0
:102CA000008021F00701C4E9003341F00101A18354
:102CB0009946A38B03F0070AAA4502D0A268002A0E
:102CC000C1D1B8F1000F02D1B9F1000FDAD0002262
:102CD000BAE7A1680029C0D00D680029BDD04F68AF
:102CE000334652462046B8471DB12B6829461D463B
:102CF000F3E72B46FAE74146334652462046D8F8DA
:102D0000008037F0F3FDA8E79A067FF523AF23F0A4
:102D10002002A28303F0070527E700BF19A90300DB
:102D200037B504460821C06A124D38F06DF800230B
:102D30004FF6FF72ADF804306368ADF800208DF8EF
:102D40000620E26819182B401344181A6060684680
:102D5000ADF8021037F0B0FF6946204638F073F83E
:102D6000211D204637F080FF63682B40A36003B02D
:102D700030BD00BF0000FFFF2DE9F7430F4681463D
:102D80000821C06A144D38F03FF83C68241A804688
:102D90003C6004EA0506B4421CD3A0B210B903B0EB
:102DA000BDE8F08308236A462146484637F023FFF2
:102DB0000028F4D16946A0B238F012F838B1BDF855
:102DC0000230BDF804203C602E4013441E44A4EBA6
:102DD0000804E0E70020E2E70000FFFF2DE9F047EC
:102DE00004468AB000F11407384643F0FAF9A06AA5
:102DF0008368DB689847E06250B99F4A9F48012189
:102E000037F03FFF6FF0150528460AB0BDE8F087A0
:102E1000A06A8368DB6898470368013B1F2B01D9D0
:102E2000974AEBE7E368B3F5803F08D94FF4803267
:102E300000929248934A012138F0A8FAE2E7A06A8A
:102E4000216807AA41F045F908B18F4AD6E7E5683D
:102E50002DB1089BB5FBF3F203FB12550DB18B4A64
:102E6000CCE7238A012B01D8894AC7E7E36A029598
:102E700093F805804FF0FF334FF0FF32384623F0D0
:102E800033FEE06A082137F0BFFFA9460646238AD1
:102E90001FFA85FA534544D8238A4B4500F02D810B
:102EA00053450BD1029908234246891B204637F02F
:102EB000B0FE18B902A9204637F0D6FE02A9204676
:102EC000FFF75AFF0546002840F0B2800299616082
:102ED0004FEA11494FEA0949C4F80890A3688B42A8
:102EE0000DD8082303AA204637F085FEB8B903ABF6
:102EF00013F8012B904532D101300828F8D16368CE
:102F000002A96FF30F032046029337F0ADFEE3688A
:102F100002994246204637F07CFE00283CDA0546FE
:102F200086E0E1682B04891B13FA81F142460823ED
:102F30002046029137F06DFE78B102A9204637F0A5
:102F400093FE09F1010902990823424620461FFA1F
:102F500089F937F05EFE00289ED0013597E7A088FA
:102F600003A937F03DFF626810B9911B6160B5E7B6
:102F7000BDF810A0BDF80E10E06AC4F808905144E6
:102F800037F042FF48448242A060EED1BAF1000F10
:102F9000EBD06FF01C054BE000F08B8063684FF6C0
:102FA000FF7906EB0308E368CDF808801FFA88F282
:102FB0009B1B9A4223D3374A3048032137F061FEE6
:102FC0006168204637F05FFE014680BB6368324A85
:102FD000E06813400344A3EB460363601340A3601F
:102FE000204637F0D1FF002899D1E368A288A3EBEF
:102FF00046039A421CD1204637F042FF8FE7082350
:1030000005AA4146204637F0F6FD002887D105A9DC
:103010001FFA88F037F0E4FE38B1BDF814304B45A4
:1030200003D1BDF81830002B6AD0B044BBE70D4681
:10303000384623F0CBFD002D7FF4E6AE0123A374C8
:10304000E268238A0D4800920321144A38F09EF961
:1030500063689AB200920948114A1B0C032138F0A8
:1030600095F9A3689AB2009204480E4A1B0C0321FA
:1030700038F08CF9C8E600BFCF7505002051050077
:10308000F17505000E760500377605004F760500D0
:1030900063760500D57605000000FFFF8676050003
:1030A0009D760500AF760500E26AA36812681344B6
:1030B000A360D4E901318B4208D95B1A424620460D
:1030C00037F0A7FD0028FFF62AAFEDD16168E3686D
:1030D00001EB46029A4288D1124BA06801EA030232
:1030E000904282D0204637F0CEFD00287FF417AF03
:1030F00062680C4B1A40A26077E76FF02C0597E7E7
:10310000094A0A48032137F0BCFD636802A96FF33E
:103110000F032046029337F0A7FD0299204637F0AF
:10312000B2FD60E70000FFFFC076050020510500FA
:103130002DE9F04F1E46837C95B0044689469046A3
:1031400053B96B4A6B48012137F09BFD6FF00C05BA
:10315000284615B0BDE8F08FC26A0821104637F046
:1031600053FEB1B20190104637F04EFEE368019A6B
:10317000A3EB820383420746C0F0B6801EB1B8F1CC
:10318000000F00F0B180D4F804A0CDF810A005AA7B
:1031900004A9204637F0AEFE05460028D8D1BDF878
:1031A00014304B4507D0DDF810A063685345EED1CD
:1031B000002E39D1CCE705A91FFA8AF037F010FEAE
:1031C0000028F0D0BDF8183066B3B3422CD14FEAD6
:1031D0001A43BDF816A0CDF800801B049A44E36A98
:1031E0001B685B4203F020030293B346029B5B45DE
:1031F00028BF5B460CAA51462046039337F0FBFCE0
:1032000000284DD1039B00981A460CA951F01CFCD4
:1032100050B9039B009ABBEB030B1A449A440092EB
:10322000E4D195E7002B93D0002F3CD1BA4604F1AE
:10323000140B4FF0FF324FF0FF33584623F054FC8D
:10324000238A9D424DD0D4E901320AEB02018B4220
:103250002ED39BB263B3FF23ADF81E2000211822AA
:103260000CA88DF82230ADF81C90ADF8206051F01C
:10327000D3FB0CA92046CDE90E8637F0CFFD0746DB
:1032800048B907A837F018FD07A9204637F0DBFD3D
:10329000074600B93746584623F098FC3D4657E7A5
:1032A000C2DC054654E7019B1F441FFA87FABEE7BC
:1032B0002046FFF735FD3DB9ADF82490CDF82880C4
:1032C000ADF82C608DF82E5009A9204637F05CFE31
:1032D00007460028DFD19DF82E300135002BAFD0F6
:1032E000D8E76FF01B07D6E76FF0150530E700BF92
:1032F000BB750500205105002DE9FF471E46837C64
:10330000BDF8309004460F4690464BB92848294AEC
:10331000012137F0B6FC6FF00C0004B0BDE8F08777
:10332000C06A082137F070FDE368A3EB4003B342A5
:103330003AD3656801954FF0000A02AA01A9204618
:1033400037F0D8FD0028E8D1BDF80830BB4206D1DF
:1033500002A9A8B237F044FD50441FFA80FA019B3D
:1033600062689A4219D0CA4515D9BDF80C30C3B16C
:10337000CA4516D3BDF80A10B3426FF30F0528BF34
:10338000334642462944204637F035FC0028C4D154
:10339000BDF80C00C1E71D46CFE7BDF80830BB42C1
:1033A000E3D06FF00100B8E76FF01500B5E700BF9C
:1033B00020510500BB7505002DE9F047DFF854806A
:1033C000044607464FF0010994FAA4F5B5FA85F5CD
:1033D00009FA05F32E0108EB05156FEA030A24EA42
:1033E00003042B7B63B158F806301B696BB9464464
:1033F000042273682846196807EA0A0737F043FF72
:10340000002CE1D13846BDE8F087284698470028CF
:10341000F6D1ECE73052050010B50F490F4888B0DF
:10342000002243F025FB00220023CDE906230024DF
:103430000E23CDE90334CDE90144094B0949009439
:103440004FF44072084824F071F80849064843F0E8
:1034500052F9204608B010BD71340000B01A0020A7
:10346000A137000040E5002020160020037705006A
:10347000014823F02FBC00BF481100202DE9F04780
:10348000804621480F4637F0DEFE0646002833D03E
:1034900000252846BDE8F087237B83B12368DB68DD
:1034A0000BB120469847636883F8069023681B6930
:1034B000D3B9636804221968204637F0E4FE013668
:1034C00010345445E8D3B8F1000FE2D0002DDFD01E
:1034D0002846FFF771FF0546002FF7D000214FF473
:1034E000A47043F00AFAF1E7204698470028E0D09C
:1034F00009FA06F31D43E2E7044CDFF814A0054681
:103500004FF00109DDE700BFB09A002030520500FE
:1035100040520500014B53F8200070471C53050032
:1035200008B5034608462BB1044A136000F056FC68
:10353000002008BD6FF01500FBE700BF440300202A
:1035400010B5044C237813B9034823F0C3FB0123BF
:10355000237010BD7FC900204811002010B504461B
:103560000B4837F070FE5CB1BFF35B8F094B53E83B
:10357000001F013943E80012002AF8D1BFF35B8F26
:10358000054824F011FE0548BDE8104023F0A2BB19
:10359000A89A0020AC9A0020B01A00204811002000
:1035A000064BBFF35B8F002253E8000F43E8002176
:1035B0000029F9D1BFF35B8F704700BFA89A0020A4
:1035C00070B5FFF7EDFF084C084E0546B44200D336
:1035D00070BD63685B792BB123685B6813B12946C2
:1035E000204698471034F1E730520500405205005C
:1035F00010B5044C0449204636F0C6FF034B1C604E
:1036000010BD00BF840E002008530500A09A0020C2
:103610000D4A0E48002310B513700D4A13600D4A71
:103620004FF400411360FFF77BFFFFF7E1FF0A4B08
:103630000A4918468B4200D310BD1A1A5C68121151
:10364000013222711033F5E780C9002043B2030034
:10365000A89A0020AC9A0020305205004052050084
:10366000014600220148002336F0AFBF840E00203F
:10367000014837F046B800BF840E0020024B0146D7
:10368000186837F099B800BFA09A0020014837F0B9
:10369000CEB800BF840E002070B52A4B1B78002BDB
:1036A0004ED0FFF7E5FF0446002846D1264B274DB4
:1036B0001B68002B19DD43F093F94FF47A76A0FBD9
:1036C000063206FB0121D5E90020DB0B43EA41432A
:1036D0009B1A4FEAD13140F2E93261EB000193428B
:1036E00071F1000101D3FFF76BFFD5E9003213F54B
:1036F0007A7342F10002C5E900320CB3BDE87040B4
:10370000FFF7C4BF6B685B7923B12B6821461B6848
:10371000284698471035B542F4D32046FFF7AEFF50
:10372000BFF35B8F0A4B53E8001F013943E80012D7
:10373000002AF8D1BFF35B8FB8E7064D064EEAE7E3
:10374000002070BD7FC90020A89A0020A81A002080
:10375000AC9A0020305205004052050070B50D4D66
:10376000297861B90120FFF789FE0B4C0B4EB4425A
:1037700006D3FFF791FF0028FBD101232B7070BD0A
:1037800063685B791BB1236820469B6898471034B7
:10379000EDE700BF80C9002030520500405205000F
:1037A00000212DE9F8430846FFF768FE044648B3B8
:1037B00040F267684FF0000901F04EFA1A4B1B4ABD
:1037C0001B58136033B11A4B1B68092B02DD1948D3
:1037D00023F080FA184F002544B12046FFF7ECFD96
:1037E000044618B94FF0FF384FF0FF39FFF754FF88
:1037F000064628B9B5B90F4842464B4623F0A6FA0B
:103800003546E9E74FF0FF384FF0FF39D4E72B6832
:103810009B691BB100221146284698471035BD42CE
:10382000F5D3E8E7054DFAE708000000A49A002068
:10383000AC9A00204811002040520500305205008B
:1038400013B5184837F0FFFC174B1B7873B1EFF333
:103850001184202383F31288BFF36F8FFFF71CFFBF
:1038600084F31188BFF36F8F02B010BD0F4B1B683C
:10387000002BF9D050B900220023CDE900230C48D9
:103880004FF40042002324F069FCEDE70928EBD156
:10389000074824F089FC074802B0BDE8104023F037
:1038A00019BA00BFAC9A002080C90020A49A002059
:1038B000B01A00204811002010B5064B1B680446C2
:1038C00098472146A060044836F0FCFEBDE8104051
:1038D000FFF7B6BF44030020840E0020044A054BC6
:1038E0009B1AB1EBD30F34BF52F831000020704760
:1038F00080500500305205002DE9F04F8FB004AF25
:10390000C1F34A26B8600D4690467B600C0D002E30
:1039100061D04FF000090A234FF0040B07F1140A9D
:10392000FE60C7E90799C7F824900093CDF808B066
:10393000CDF804A007F11C03F9684A464046FEF79B
:10394000F9FEB0F5006F03461CD36C468AB0D8F878
:10395000041004AB2448C3E9050140F2FF71D961AA
:103960001A464FF400711984204B42F8103F20484A
:103970004B464FF41251FFF7BFFFA5462C37BD460B
:10398000BDE8F08FC0F30A0604F11700184420F0D8
:10399000070080083B60FFF763FE66F3532504468B
:1039A00080B13B68134A00F11001C7E90839F96199
:1039B000CDE901AB0A230093F96807F11C034046E7
:1039C000FEF7B8FE66F353257B68B9682A462046A1
:1039D00037F079FCD2E704F1170020F007008008E7
:1039E000FFF73EFE0446EDE71877050004000001EE
:1039F0003051050099B203002DE9F04F87B0DDE9A1
:103A0000127ADDE9106B0546884614469946BFB127
:103A10001021CDF800A03B465A460020CDF814A056
:103A200036F09EFAB0F5006F01460BD3194A1A48DA
:103A300040F2FF73022107B0BDE8F04F37F09CBCA5
:103A40003946384604F0070305F00704E40044EA69
:103A5000831444EA402444EA065406F1170008445B
:103A600020F0070080080391FFF7FAFD054640B1FA
:103A70003FB10399CDF800A03B465A46103036F0CE
:103A80006FFA4B4622464146284607B0BDE8F04F44
:103A900037F019BC5777050030510500406820B158
:103AA000034BC01A40F3CF0070474FF0FF30704710
:103AB000805005000EB403B503AB014653F8042B48
:103AC0000448019301F026FA02B05DF804EB03B05C
:103AD000704700BFDBB30300CA0605D48B064CBF9A
:103AE00002490349FFF7E6BF704700BF9077050022
:103AF0008F7705002DE9F04F8BB09946179B079300
:103B0000DDE918A39DF858801A9F069204460D46D9
:103B10000593B8F1000F00F0BF80844B13F8083014
:103B2000089307F48073099337F0ABFB07F0020B9F
:103B3000024600287DD07E492046FFF7BBFF06469F
:103B4000BBF1000F08D017F0440F74D179492A4611
:103B50002046FFF7AFFF064407F0010353B1764B51
:103B6000764953F82820764B2046002A08BF1A468B
:103B7000FFF7A0FF07F48073002B07F0080318BFBE
:103B80004FF00009002B00F082806E4B6E4953F815
:103B900028202046FFF78EFF0546069B2BB16B4978
:103BA0001A462046FFF786FF0544B9F1000F0DD0F5
:103BB000089B002B6ED06649664BB8F1040F18BF06
:103BC00019464A462046FFF775FF054462483544CA
:103BD000079B1BB16149224636F06AFB059B002B0F
:103BE00000F09080DDF814903946B9F1100F2046AE
:103BF00028BF4FF01009FFF76FFF0026B54252DCD7
:103C0000002633461AF8032055492046FFF752FF95
:103C10000136102E4DD0710703D152492046FFF7CF
:103C200049FF4E453346EDD34F492046FFF742FF4B
:103C3000EEE7064684E74D4B186800288BD04C4BC6
:103C40004FF47A7B1B68B5FBF3F54FF46163B5FB6A
:103C5000F0F100FB11550BFB05F54FF03C0CB1FBEF
:103C6000F3F203FB1211B5FBF0FEB1FBFCF300FB1A
:103C70001E550CFB13110BFB05F50091B5FBF0F580
:103C80003C49CDE901E52046FFF714FF63E707F063
:103C9000080582E72F4994E7B9F1010F0CBF2E48C0
:103CA0003548454694E72F492046FFF703FF013684
:103CB000A4E7324920460026FFF7FCFE33461AF8F7
:103CC00003202F49A2F120035F2B28BF2E2220467C
:103CD000FFF7F0FE0136102E0DD0720703D12149F7
:103CE0002046FFF7E7FEB1453346E8D81D49204698
:103CF000FFF7E0FEEEE7059BB3EB0903CA4405932B
:103D00007FF470AFB8F1000F0AD0FB0704D50C4A5E
:103D10000A492046FFF7CEFE39462046FFF7DCFE73
:103D200020460BB0BDE8F04F37F04ABBA9A705000D
:103D3000A0770500A47705002C530500D98905005C
:103D40009277050040530500CA770500D07705003B
:103D5000977705009B770500DBB30300154F000044
:103D6000D4770500DC770500DA770500B89A0020E3
:103D7000B49A0020AE77050011B40300DE77050089
:103D8000E077050073B542F20F738B4228BF0B46F4
:103D900005680F4A04460521684635F011FC636842
:103DA0000C495B6806460B22284637F0FBFA63682D
:103DB0003246694628465B6837F0F4FA636806497C
:103DC0005B681B22284637F0EDFA02B070BD00BFD9
:103DD0009C7F05009DA7050081A70500074A0021DB
:103DE0000123904206D8064A01B901231360054B0E
:103DF0001860704740085B000121F2E740420F0065
:103E0000B49A0020B89A0020F8B5074F0D46044632
:103E10004618B44201D12846F8BD14F8011BBB680E
:103E200001485B689847F4E7044D0500014B0360C7
:103E3000002070478853050070B5104B1C680D4674
:103E4000B4B10F4B196800238B4202DB6FF0010005
:103E500070BD224612F8106B864202D00133144620
:103E6000F2E7E06842F0C1F828B12C600020EFE7EB
:103E70006FF00C00ECE76FF01200E9E75003002050
:103E80008853050010B588B0436802938368C06802
:103E9000CDE903320A680023CDE906230C4601AAC6
:103EA0000449059340F019F9079808B9059B236068
:103EB00008B010BD0BB50300B0B582B03F49404813
:103EC00002AF37F099FE0446A8B16D468AB002AA47
:103ED0003C4B53613C4BC2E906344FF400731384EE
:103EE0003A4B42F8103F3A4800234FF41151FFF784
:103EF00003FDAD4632E03749314837F07DFE0446D8
:103F000030B16D468AB002AA2E4B5361324BE2E7C4
:103F100032492B4837F070FE044630B16D468AB006
:103F200002AA284B53612E4BD5E72E49244837F07F
:103F300063FE044630B16D468AB002AA214B53613C
:103F4000294BC8E70146294A1D4802F09DFC04465A
:103F500038B1274A1E48012137F005FA2046BD46F0
:103F6000B0BD024623491648012302F083FD0446F2
:103F700008B1214AEEE701230093014602231048CD
:103F8000EF2237F0B6FD04460028E7D10C4801F0D7
:103F9000D1FA044630B16D468AB002AA094B53618A
:103FA000164B98E7064801F005FB04460028D5D0DB
:103FB0006D468AB002AA124BF1E700BFC803002089
:103FC000741400201D7805003A78050004000001F3
:103FD00000510500B00300204E7805009803002032
:103FE00066780500800300207978050054030020DE
:103FF00087780500A3780500AD780500C87805002E
:10400000D778050010B5DFF824C086B04FF4281427
:10401000CDE904C40824029404AC0194BDF8204006
:10402000009439F0C7FD06B010BD00BF180028008D
:104030002DE9F0410C4B1C6805460E4617467CB135
:1040400000F0EEF863682046D3F8108032463B4615
:104050002946C047044600F0EDF82046BDE8F0814F
:104060006FF00104F9E700BFE89A00200023036025
:10407000044B5A6812B9C3E90000704710605860D9
:10408000704700BFEC9A0020014B1860704700BFDA
:10409000E89A00201FB5CDE90101039200F0C0F8B5
:1040A000074B1C6824B900F0C5F8204604B010BDC9
:1040B000636820461B6801A998472468F2E700BF9F
:1040C000EC9A0020024B0022C3E90022704700BF97
:1040D000EC9A0020024B0022C3E90022FFF7F2BF56
:1040E000F49A00202DE9F74307460C4609B1002356
:1040F0000B601F4DDFF87C9000264D450FD31E4B03
:104100001D6885B355F8188C01AA41463846183DFC
:1041100037F069FA10B3D6B914BB2E461EE0D5F8B5
:10412000008001AA4146384637F05DFA50B116B911
:1041300054B92E4606E031680022404637F053FA63
:104140000028F5D11835D8E7019B2360F1E73168E5
:104150000022404637F047FA0028DDD1AD69D0E7AC
:10416000019B2360D9E7304603B0BDE8F08300BF70
:104170004052050040520500F49A00202DE9F04716
:1041800084B002AF0446D7F8289078600D461646F2
:104190009846B9F1000F07D0D9F8001031BBD9F813
:1041A00004A0BAF1000F28D1391D2046FFF79AFF6D
:1041B00008B3D0F80C907868434632462946C84781
:1041C000C8B16D468AB002AA124BD061C2E905346B
:1041D0004FF400731384104B42F8103F0F48002334
:1041E0004FF41151FFF788FBAD4604E03A1D37F05C
:1041F000FAF90028D3D1002007E0D9F8083000935D
:104200007868434632462946D0470837BD46BDE860
:10421000F08700BFFF780500040000018851050009
:1042200003484FF0FF324FF0FF3322F05DBC00BF78
:10423000BC100020014822F0C9BC00BFBC10002007
:1042400038B5094DFFF7ECFF2B785BB9FFF742FF5C
:1042500000F06AF8044608B901232B70FFF7EAFF63
:10426000204638BD0024F9E781CA00202DE9F0433B
:10427000048F013499B006460F46A4B200F1080835
:10428000651EADB2B5F5004F4AD04A2305AA2946AE
:10429000404636F0BDFF04F57F543F34A4B281465A
:1042A000214601230DF10B02404636F0B1FFB9F172
:1042B000000F014610DC002810DC338FAB4209D11F
:1042C00032466B1E22F8383F4FF40041022340462D
:1042D000FEF72EFF2C46D3E7002808DC294640468F
:1042E00036F092FF2146404636F08EFFE5E7B9F101
:1042F000490FEFD809F160030DEB0309002309F81A
:104300004C3C084A009703AB05A8CDF80C80ADF8EB
:104310001040FFF733FF0028DCD019B0BDE8F08370
:104320000020FAE733B603007FB501236946032076
:104330000193FFF781FD044660BB02AA01A9032097
:1043400037F005F9044610B110F10C0F22D1039992
:10435000B1F5803F23D2009A0023946818460844A0
:1043600084421AD30133082BF9D10E4D69612B8396
:104370005368AB602846D368EB6337F0F2F9044624
:1043800040B9094E6E602846FFF770FE28466E6001
:10439000FFF77AFE204604B070BD9BB2E5E76FF0F0
:1043A0002004F7E7FC9A00205854050080B5054624
:1043B0000E461746984623F0FBFB034600F04CFCE4
:1043C000DFF81890044649F8003042463046394636
:1043D000A84754F8090000F0DFFB00BF0800000008
:1043E00038B50C46154637F0F1F9034B43F8305019
:1043F00003EBC0035C6038BDE40C002008B5034843
:10440000034A0021121A37F0E2F908BD1015002006
:1044100040DB00200748084A084908B5121A37F05F
:10442000D8F90748074A0849BDE80840121A37F08A
:10443000D0B900BF000000200C1500202CAC0500F6
:1044400000000020000000202CAC05002DE9F04702
:10445000064600AF0C46002936D0E9468AB0D1E9BD
:104460000012A3686D462148E8464FF0050ACDE9E1
:104470000501CDE9072348F810AF1D484246002347
:104480004FF42151FFF738FACD46D4E9031263699E
:10449000AD461848C5F810A0C5E90501C5E90723D0
:1044A0001348002342464FF42151FFF725FACD4629
:1044B000E369114A0E48012136F05EFFA3690F4AF5
:1044C0000B48012136F058FF012E07D1EFF3058389
:1044D0000B4A0748103B314636F04EFF2146304626
:1044E00022F022F8BD46BDE8F08700BF3379050011
:1044F000705105006279050091790500A0790500E9
:10450000CE79050030BFFFF7FDBF00BF2DE9F041B8
:104510000B4EDFF8308006EB0807CC1B0546324611
:104520000949204650F051FAA01942460021083CA2
:1045300050F072FAEC6707F10800BDE8F08100BFA7
:1045400000000000080000004052050010B5204C9B
:104550002049214837F04AF9A36A990136D51E4807
:104560001E4937F043F91E20A36ADA0104D51A4820
:104570001B4937F03BF91F20154CA36A1B0304D5D8
:104580001548184937F032F92120A36A590304D598
:104590001148154937F02AF922200D4CA36A9A03D5
:1045A00004D50D48114937F021F92320A36ADB0314
:1045B00004D509480E4937F019F92420044A936AB2
:1045C0006FEA03436FEA1343936210BD1D20CBE7EC
:1045D00000ED00E0E179050070510500F979050072
:1045E0000C7A0500267A0500447A0500697A0500F0
:1045F000837A050070B506460D46294C29492A489C
:1046000037F0F4F8A36ADB0647D52748274937F087
:10461000EDF81120A36A1C0704D52348244937F07C
:10462000E5F812201E4CA36A990712D521491E48AD
:1046300037F0DCF8636BA26A120609D51E4A1A48E5
:10464000012136F099FE1EB1A36A23F08003A36214
:104650001320134CA36ADE0704D51348174937F01B
:10466000C5F81420A36A9C0604D50F48144937F0F6
:10467000BDF815200A4B9A6AD10658BF9A6A9A6A01
:10468000920642BF5A6A22F400525A629A6A42F073
:10469000FF029A6200232B7070BD1020BAE700BFA2
:1046A00000ED00E0AE7A050070510500C47A050007
:1046B000F77A05000A7B0500227B0500387B0500A0
:1046C000577B050070B506460D46284C28492948F9
:1046D00037F08CF8A36AD9043CD52648264937F030
:1046E00085F81720A36A1A0504D52248234937F014
:1046F0007DF818201D4CA36A9B0512D51D48204942
:1047000037F074F8A36BA26A100409D51D4A194842
:10471000012136F031FE1EB1A36A23F40043A362E7
:104720001920124CA36A590504D51248164937F0CE
:104730005DF81A20A36ADA050ED50E48134937F042
:1047400055F81B20094A936A43F47F439362002380
:104750002B7070BD1620C5E7A36A9B04F2D50548EF
:104760000B4937F043F81C20ECE700BF00ED00E0F8
:10477000867B0500705105009C7B0500F77A0500DB
:10478000AD7B0500C67B0500DB7B0500F67B0500E5
:10479000577B0500F0B56A4B8BB00446586800AFF4
:1047A000C0F30803002585F31188BFF36F8F02F073
:1047B0007F46B6F17F4F07D102F00C06082E0ED1CE
:1047C0006049614837F012F860495F4837F00EF8E9
:1047D00000210846FFF73AFE2C37BD46F0BD16070C
:1047E0004CBF0C460125002CEED00022FA71DA1ED7
:1047F000092A00F28580DFE802F0057B7E7783835B
:1048000083838381524950484D4E36F0EFFF002399
:10481000FB71F36A9A0705D54E494B4836F0E6FF1F
:1048200000232DE0F36A002B01DA4B49F5E7F36A28
:104830005B00F5D54949444836F0D8FF7369A26951
:1048400043F480737361BFF34F8FBFF36F8F32F800
:10485000023C726922F480727261BFF34F8FBFF322
:104860006F8F03F47F42B2F55F4F27D1DBB2022B8B
:1048700024D123683A4A3448012136F07DFD23686B
:10488000FA79002AA8D107F1080604F1200C206863
:104890006168324603C2083464451646F7D17A6A25
:1048A000002D4AD0C2F3080121B96FEA52226FEA03
:1048B00042227A6207F1080118468BE7204B9A6A78
:1048C000D2B222B1F91D0120FFF794FE0EE09A6AE0
:1048D00012F47F4F04D0F91D0120FFF7F3FE05E02D
:1048E0009B6AB3F5803F9BD3FFF730FE0346C7E7D3
:1048F000F91D0020E8E7F91D0020EEE719498CE7D3
:10490000194A1A4910F4F87F6E468AB018BF11464A
:104910006A46103B079316484FF40073ADF82030F9
:10492000144BCDE9050142F8103F074800234FF42E
:104930001151FEF7E1FFB54672E76FF30802B8E7E1
:1049400000ED00E03C7C050070510500677C05002F
:10495000A37C0500BA7C0500DB7C0500E97C050032
:10496000087D0500247D0500237C05000E7C0500E4
:10497000487D050004000001044B5A6942F0100212
:104980005A615A6922F008025A61704700ED00E04E
:10499000EFF30880EFF3098101B57246FFF7FAFEE5
:1049A00001BD00BF0B4880F308881FF04FFB20209B
:1049B00080F3118808484FF40061401880F309889B
:1049C000EFF314800221084380F31488BFF36F8F44
:1049D00000F078F820290120E01501201EF0040FD6
:1049E0000CBFEFF30880EFF30980816911F8021C16
:1049F0000229FFD001B5724636F0EDFE01BD00BFC1
:104A00000028ACBF00F16040064B4FEA4111ACBF3B
:104A100000F5614000F00F00C9B2B4BF195480F82E
:104A20000013704714ED00E0EFF30583103B2F2BCC
:104A300006D8044A02EBC30152F83300496808471C
:104A4000704700BFE40C002040B2002807DB044A96
:104A50004109012300F01F00834042F821307047D4
:104A600000E100E040B200280CDB4309064900F0F9
:104A70001F0020330122824041F82320BFF34F8FD3
:104A8000BFF36F8F704700BF00E100E0054B4209A4
:104A900000F01F0053F82220012303FA00F0104019
:104AA000704700BF00E100E0044B054A23F07F039C
:104AB0009360BFF34F8FBFF36F8F7047000000000C
:104AC00000ED00E008B5FFF7EFFF0B4AD2F88830A1
:104AD00023F47003C2F88830EFF3148323F0040347
:104AE00083F31488BFF36F8FFFF788FCFFF792FC06
:104AF00000F094F821F052FE00ED00E042F8203C76
:104B0000009B42F81C3C0A49019B42F8183C029B5E
:104B100042F8143C21F001014FF0807342F8043C4C
:104B200042F8081C0023203A0265C0F88030704724
:104B3000AD43000000B50B4B98600B4B1546C26FA0
:104B40001A600E462C4686F309880020034B9847CE
:104B50002046002100220023014C20473BB80300DF
:104B6000AD43000070C600203C9B0020014B10228A
:104B70001A61704700ED00E0054B5A699B689A4244
:104B80001FBF044A536843F080535360704700BF0F
:104B900070C6002000ED00E0084B9B6883420BD1FB
:104BA000EFF3058343B1064B5A6842F080525A60D6
:104BB0005A6A22F400425A6241F0A2BD70C6002037
:104BC00000ED00E012498A684FF030001044EFF326
:104BD000098C80E8F01F202080F31288BFF36F8FCC
:104BE0000C4F4FF000664A698A603E60D06F0A4CF5
:104BF0002060D2F880000023C2F8803080F3118852
:104C000002F1300090E8F01F8CF309887047000033
:104C100070C6002004ED00E03C9B00200448002307
:104C20002021C2180133302B82F80013F9D17047CC
:104C300000E100E008B5EFF30583064A103B02EB04
:104C4000C30152F8330049688847BDE80840FFF7C0
:104C500093BF00BFE40C00200148006870470000CB
:104C60003C9B0020024B034A0348012100F07AB824
:104C700000000420000000207454050008B503461D
:104C80001048D0F89020C2F30722013A934207D986
:104C90000D480E4A012136F06FFB6FF0150008BD7C
:104CA000C0F898300A6822F01F021A4342F010023E
:104CB000C0F89C208A6842F00102C0F8A020184683
:104CC000EDE700BF00ED00E0485105005F7D050005
:104CD000F0B50E4685B01F4604460025B5420DDAF4
:104CE000606810B397B1431E18420AD0104A1148A9
:104CF0002B46012136F040FB6FF01502104605B03F
:104D0000F0BD1F28F2D921680B42EFD1236801932F
:104D100036F0B6FDA36801A90343D0B20393FFF7B1
:104D2000ADFF10F1160FE7D0421C01350C34D5E76A
:104D3000857D050048510500044B0522C3F89420E9
:104D4000BFF34F8FBFF36F8F704700BF00ED00E0E0
:104D5000BFF35F8F024B0022C3F89420704700BF5F
:104D600000ED00E010B5034C01232278FFF7B0FFFF
:104D7000207010BD82CA00202DE9F0435F486049D1
:104D8000D0F890300C68C3F307239C4285B000F242
:104D9000B280FFF7DDFF49680022944201F10C0167
:104DA0001AD1584F584D3C706846FFF73FF8574CA2
:104DB000574E81464FF00008C14520D13B784F49FE
:104DC0000020D1F89020C2F307229342C0F28D80D8
:104DD000FFF7B2FF002052E0C0F8982051F80C3CD9
:104DE00023F01F03134343F01003C0F89C3051F825
:104DF000043C43F00103C0F8A0300132CDE7009835
:104E000000EB08114FEA081CCB682340B3F5000FF4
:104E10004ED00BD8B3F5001F34D0B3F5800F3CD083
:104E2000B3F5801F16D008F10108C5E7B3F1007F84
:104E300046D0B3F1805F4BD0B3F1807FF3D150F80F
:104E40000C3088684A6836F01BFD40F0885040F40A
:104E5000801009E050F80C3088684A6836F010FD80
:104E600040F0885040F43020039001A93878CDE913
:104E70000123FFF703FF002833DA6FF0150005B0B8
:104E8000BDE8F08350F80C3088684A6836F0F8FCCA
:104E900040F0885040F40020E6E750F80C30886875
:104EA0004A6836F0EDFC40F0007040F40030DBE77B
:104EB00050F80C3088684A6836F0E2FC2843D3E7A3
:104EC00050F80C3088684A6836F0DAFC3043CBE79B
:104ED00050F80C3088684A6836F0D2FC40F08850B0
:104EE000E3E73B7801333B709DE7C1F89830C1F8A8
:104EF000A000013365E74FF0FF30C0E700ED00E0B0
:104F00008054050082CA0020000004110000F0FF58
:104F100000000410F0B587B007460E461446002185
:104F2000102268461D464FF077FD02238DF80230AF
:104F30002A46054B019321466846CDE9047634F0B4
:104F4000DDFB07B0F0BD00BFA1B8030008B5024803
:104F500034F016FBFEE700BFBA7D050008B5024B32
:104F60001B689847002008BD409B0020034B044A63
:104F70001860937843F0020393707047409B0020C1
:104F8000F803002008B50649064821F00701C1F1E1
:104F9000005202F5802234F0A2FF002008BD00BFBD
:104FA0005F5D0120449B002003484FF0FF324FF02B
:104FB000FF3321F099BD00BF08040020014821F013
:104FC00005BE00BF0804002038B50546FFF7ECFF1A
:104FD00008482A46082134F011FF044628B925B1B3
:104FE000FFF73AFE044B0C221A50FFF7E7FF20466A
:104FF00038BD00BF449B00200C00000010B50446E3
:10500000FFF7D2FF21460348FDF7DEFABDE8104066
:10501000FFF7D4BF449B002070B5A0FB015434B906
:105020002846FFF7D1FF064640B9304670BDFFF76E
:1050300013FE054B0C221A500026F6E72A4621469D
:105040004FF0EAFCF1E700BF0C00000070B54169C9
:10505000867A0B4D044659B1437ADB0706D43023D8
:1050600003FB06539B6A1B689B6898470023636198
:105070003020214600FB0650BDE8704041F081B968
:1050800014120020024B302202FB0030704700BF98
:1050900014120020827A074B302101FB0233DA6AB6
:1050A00093F822301B33801A23F00303B0FBF3F094
:1050B000704700BF1412002038B5074B827A3024A5
:1050C00004FB02339B6AD3E901240C601568FFF7E7
:1050D000E1FF04FB005038BD141200202DE9F0431D
:1050E00085B005466846039190461C4641F07AFC1F
:1050F000DDE90067EFF31189202383F31288BFF302
:105100006F8F2B8C002B43D0EA8B9A4225D900223B
:105110000023284621F0AAFD0446F0B189F3118846
:10512000BFF36F8F039B002B43D032463B4668464C
:1051300041F07DFCA27A274B302101FB023320464F
:105140009B6A1B6803A91D68DDE90023A84760610D
:1051500080BB2046FFF77AFF26E0298C4B1E2B846C
:1051600089F31188BFF36F8F95F82230EA8BEC6AD0
:105170001B3323F00303521A02FB0344154B164A58
:10518000EB1A1B115343A37295F82230E372C9E75F
:1051900089F31188BFF36F8F23464246284621F0DA
:1051A00065FD04460028BDD10024204605B0BDE8B9
:1051B000F0836361012300252381039B6382E27AEC
:1051C0006560294604F118004FF026FC63692582CA
:1051D000E360EAE714120020ABAAAAAAF8B5124DC0
:1051E0000024302600B9F8BD00F108024768BFF37B
:1051F0005B8F52E8003F591E42E8001CBCF1000FD3
:10520000F7D1BFF35B8FDBB2012BECD1837AC460A3
:1052100006FB035344605B6A13B198473846E1E7E5
:10522000FFF714FFFAE700BF14120020062800B5AC
:1052300008D9FFF711FD094B09221A504FF0FF3032
:105240005DF804FB30235843054BBFF35B8F1B58BD
:10525000BFF35B8F002BECD00020F1E70C000000C7
:10526000589B002030B530231049434308330B448A
:10527000BFF35B8F1A68BFF35B8FB2B1BFF35B8F75
:10528000541E53E8005F954204D143E8004CBCF142
:10529000000FF6D1BFF35B8FEAD1012A05D130238D
:1052A00058430A1800230B50536030BD509B002018
:1052B00038B504461546FFF7B9FF01300DD0084A4E
:1052C00030236343D0184068086015B10C33134491
:1052D0002B6030235C43105938BD0020FCE700BF31
:1052E000509B002070B54FF0FF331D484FF0FF3248
:1052F00036F0CBFB1B4B0025BFF35B8F1A68BFF367
:105300005B8F82B10135072D03F13003F4D1FFF734
:10531000A3FC154B17221A504FF0FF35104836F0FA
:10532000B6FB284670BD30246C43BFF35B8F53E857
:10533000000F013043E800010029F8D1BFF35B8F73
:105340000A4E331932515A609A6204F10C0030440B
:1053500040F047FF04F12000304441F0C2F9DDE79E
:1053600044100020589B00200C000000509B00209F
:105370002DE9F041164630240F4A444310191151CB
:105380004660C362B6B1F368A3B1FFF765FC0B4F8B
:105390000C3450F807801319054640F205123046C8
:1053A00036F064FBB8F15F0F04D0EB595F2B08BFF8
:1053B00045F80780BDE8F081509B00200C000000FC
:1053C0002DE9F0410546FFF731FF431C044621D08B
:1053D0003026DFF84C806E4306F10C0747444FF04F
:1053E000FF324FF0FF33384636F04FFB08EB060331
:1053F0005A68946844B1DB6A58F8060013F4404FC9
:105400000BD02946A0470446384636F040FB2846D4
:10541000FFF728FF2046BDE8F081A047F3E700BF73
:10542000509B0020044A0123C2F840354FF08042CF
:10543000C2F87835704700BF00E0014048B1054B25
:10544000054A1B68B3FBF2F35843044B43F00103D6
:1054500018477047240C002040420F00805205007E
:10546000BFF34F8F0549064BCA6802F4E06213434D
:10547000CB60BFF34F8F00BFFDE700BF00ED00E042
:105480000400FA0508B5054A054B136010463C2395
:1054900053601EF0B1FE002008BD00BFA09C00209C
:1054A0003FC00F0008B50A4840F09FFD68B10848AA
:1054B00040F09BFD48B1074A0548182136F0EBFA49
:1054C000054A0348192136F0E6FA002008BD00BF5E
:1054D000E84C05000100160001001A00F7B5064669
:1054E0000D461446124F384640F07FFDE0B1BB68D0
:1054F000AAB21B68314638469847002802DB0020D4
:1055000003B0F0BD002CFBD1AC42F8D22F1B042F0E
:1055100028BF04273FF04EFB3A46019001A93019FD
:105520004FF053FA3C44EFE76FF01200E8E700BF9A
:10553000204D050038B5044622F016FB204636F013
:10554000CAFAA069C8B194F87030DB070DD5164AC5
:105550001648022136F0BDFA6FF07705201D36F0AF
:10556000C1FA22F015FB284638BD40F03EFD38B99F
:105570000F4A0E48012136F0ACFA6FF01205EDE744
:10558000204600F091FF05460028E7D1014624227D
:1055900004F12C004FF040FA94F8703043F001030E
:1055A00084F87030DAE700BFDA7D0500F8510500B5
:1055B000047E050070B5044622F0D6FA204636F087
:1055C0008AFA94F87030DA070DD4264A2648022168
:1055D00036F07FFA4FF0FF35201D36F083FA22F0C7
:1055E000D7FA284670BDC3F340019B0707D51F4A71
:1055F0001D48022136F06DFA6FF07705ECE7A069DF
:105600003EF04BFB0646A0693EF0B6FB054628B1CE
:10561000174A1548012136F05CFADDE7E36F4BB11C
:105620003146204636F018FC0546A0B1A0693EF090
:10563000CFFBD1E7A0693EF047FBE0670028EFD140
:105640000C4A0948012136F044FAA0693EF0C0FB3B
:105650006FF00B05C0E794F8703043F0020384F854
:105660007030B9E7277E0500F85105004D7E050032
:10567000737E05008F7E050038B580210446806961
:105680003EF045FB054678B10146204601F0CCFAD4
:10569000044638B10648074A012136F03BFB28464C
:1056A000FFF79CFD204638BD6FF00B04FAE700BF02
:1056B000D8510500BE7E050038B50446C06F36F0EF
:1056C0003BF9054636F004F92046294601F0ACFACC
:1056D000044638B10448054A012136F01BFB284630
:1056E000FFF77CFD204638BDD8510500E17E05005E
:1056F0002DE9F04F95B002AF00237B610B7E33F0B4
:1057000080050446884616460BD0B24AB2480121AD
:1057100036F000FB6FF0040528464C37BD46BDE867
:10572000F08F8AB10846FFF759FD98F81930DA076B
:1057300005D49E07F0D598F81830002BECD1204600
:10574000FFF7BAFF00F095BC4A7E00F12C099007E4
:1057500005D5802B09D14046FFF740FDDCE79107D6
:1057600000F0C784002B40F0C484D3072AD5B8F8D2
:105770001030082B13D1D8F80C201368E36253685B
:10578000C9F804304146002036F000F97861D8B1FC
:105790009148924A012136F0BDFA786905E08E48B9
:1057A0008F4A012136F0B6FA4046FFF717FD48460A
:1057B00036F0AAFA0346A069002B00F0D5848021B8
:1057C00000F0DBBCC7F81480FFF746FA94F82C50C1
:1057D000844A002315F0600F8350C5F3411375D040
:1057E000032B40F006846FF08505FFF735FA7D4BFB
:1057F0001B58002B41D0002D42D141F0F1F84FF45D
:105800007A72A0FB020302FB0131C30B43EA41435E
:105810007549BFF35B8F0868BFF35B8F41F2873236
:105820001E1A9642714A40F2EC83BFF35B8F51E837
:10583000006F864204D141E8003CBCF1000FF6D174
:10584000BFF35B8F40F0DD83BFF35B8F52E8003F17
:1058500042E800510029F9D1BFF35B8F23B1644ABC
:105860005D48022135F088FD624A5B48022136F02E
:1058700051FAFFF7F1F95B4B1D58002D00F0D8836A
:105880005D4A5548032136F045FA6E4688B002AAB3
:105890005A4B53615A4B93614FF400739383594BA6
:1058A00042F8103F58494C484B46FEF725F815F191
:1058B000860FB54640F0B183544A4748032136F07D
:1058C00029FA786900287FF470AF70E7484636F00F
:1058D0001BFA94F82D30002840F05181013B0A2B2F
:1058E00081D801A252F823F0895A0000E75700003E
:1058F000F95A0000E757000015590000E75700006B
:10590000E7570000E757000083590000E757000001
:105910003F5A0000A069E18D03697F2993F8803028
:105920003FF661AF228E002A7FF45DAF628E002ABF
:105930007FF459AFEE067FF456AF94F83420022A74
:1059400002D14FF0FF3550E71D070BD5C9B236F035
:1059500016FA054648B1E38D2D4A1F48012135F05E
:105960000BFD42E7012384F83D3094F83430012BDD
:1059700005D1E38D1BB984F83430002535E70123C8
:10598000F9E7204636F0B0F8E28DFF2A01463FF6EF
:105990002AAF638E002B7FF426AF94F82C30D80604
:1059A0007FF421AF94F83430002BCAD0A2BBE18D34
:1059B00094F83C308B42E0D0C9B2204600F00CFF96
:1059C000E38D054678B3134A00900121024835F073
:1059D000DDFC0AE7007F0500D8510500387F05008F
:1059E000217F05000C000000AC9C0020A89C00203A
:1059F0000D800500218005004A800500D989050039
:105A00005A80050003000001C01C800023A005008F
:105A10005A7F05007C7F0500D2B2204636F05BFA43
:105A20000028C4D18DE7002B14BF0222012284F884
:105A3000342005211A46204636F0A9FB9DE705F0E3
:105A40001F05012D7FF4CFAE638E002B7FF4CBAE0C
:105A5000E28DFF2A3FF6C7AE218EFF293FF6C3AE87
:105A600094F83430022B7FF46CAFC9B2D2B2204626
:105A700036F0E1FA811C05467FF4B7AEA54AA64888
:105A8000032136F047F9B0E6638E268E002B7FF4B3
:105A9000AAAE94F83430002B3FF453AF012B02D15F
:105AA000002E7FF44EAF15F01F0517D0022D7FF4A6
:105AB00064AFB4F82EA0BAF1000F7FF45EAFF6B277
:105AC0003146204601F018F9421C05463FF48DAEE0
:105AD00052463146204636F01FF986E6002E7FF406
